{
  "contractName": "FinalTest",
  "abi": [
    {
      "inputs": [],
      "stateMutability": "nonpayable",
      "type": "constructor"
    },
    {
      "anonymous": false,
      "inputs": [
        {
          "indexed": true,
          "internalType": "address",
          "name": "owner",
          "type": "address"
        },
        {
          "indexed": true,
          "internalType": "address",
          "name": "approved",
          "type": "address"
        },
        {
          "indexed": true,
          "internalType": "uint256",
          "name": "tokenId",
          "type": "uint256"
        }
      ],
      "name": "Approval",
      "type": "event"
    },
    {
      "anonymous": false,
      "inputs": [
        {
          "indexed": true,
          "internalType": "address",
          "name": "owner",
          "type": "address"
        },
        {
          "indexed": true,
          "internalType": "address",
          "name": "operator",
          "type": "address"
        },
        {
          "indexed": false,
          "internalType": "bool",
          "name": "approved",
          "type": "bool"
        }
      ],
      "name": "ApprovalForAll",
      "type": "event"
    },
    {
      "anonymous": false,
      "inputs": [
        {
          "indexed": true,
          "internalType": "address",
          "name": "previousOwner",
          "type": "address"
        },
        {
          "indexed": true,
          "internalType": "address",
          "name": "newOwner",
          "type": "address"
        }
      ],
      "name": "OwnershipTransferred",
      "type": "event"
    },
    {
      "anonymous": false,
      "inputs": [
        {
          "indexed": true,
          "internalType": "address",
          "name": "from",
          "type": "address"
        },
        {
          "indexed": true,
          "internalType": "address",
          "name": "to",
          "type": "address"
        },
        {
          "indexed": true,
          "internalType": "uint256",
          "name": "tokenId",
          "type": "uint256"
        }
      ],
      "name": "Transfer",
      "type": "event"
    },
    {
      "inputs": [],
      "name": "MAX_MINT_PER_TX",
      "outputs": [
        {
          "internalType": "uint256",
          "name": "",
          "type": "uint256"
        }
      ],
      "stateMutability": "view",
      "type": "function",
      "constant": true
    },
    {
      "inputs": [],
      "name": "MAX_PRESALE_SUPPLY",
      "outputs": [
        {
          "internalType": "uint256",
          "name": "",
          "type": "uint256"
        }
      ],
      "stateMutability": "view",
      "type": "function",
      "constant": true
    },
    {
      "inputs": [],
      "name": "MAX_SUPPLY",
      "outputs": [
        {
          "internalType": "uint256",
          "name": "",
          "type": "uint256"
        }
      ],
      "stateMutability": "view",
      "type": "function",
      "constant": true
    },
    {
      "inputs": [],
      "name": "a1",
      "outputs": [
        {
          "internalType": "address",
          "name": "",
          "type": "address"
        }
      ],
      "stateMutability": "view",
      "type": "function",
      "constant": true
    },
    {
      "inputs": [],
      "name": "a2",
      "outputs": [
        {
          "internalType": "address",
          "name": "",
          "type": "address"
        }
      ],
      "stateMutability": "view",
      "type": "function",
      "constant": true
    },
    {
      "inputs": [],
      "name": "a3",
      "outputs": [
        {
          "internalType": "address",
          "name": "",
          "type": "address"
        }
      ],
      "stateMutability": "view",
      "type": "function",
      "constant": true
    },
    {
      "inputs": [
        {
          "internalType": "address",
          "name": "to",
          "type": "address"
        },
        {
          "internalType": "uint256",
          "name": "tokenId",
          "type": "uint256"
        }
      ],
      "name": "approve",
      "outputs": [],
      "stateMutability": "nonpayable",
      "type": "function"
    },
    {
      "inputs": [
        {
          "internalType": "address",
          "name": "owner",
          "type": "address"
        }
      ],
      "name": "balanceOf",
      "outputs": [
        {
          "internalType": "uint256",
          "name": "",
          "type": "uint256"
        }
      ],
      "stateMutability": "view",
      "type": "function",
      "constant": true
    },
    {
      "inputs": [],
      "name": "baseExtension",
      "outputs": [
        {
          "internalType": "string",
          "name": "",
          "type": "string"
        }
      ],
      "stateMutability": "view",
      "type": "function",
      "constant": true
    },
    {
      "inputs": [],
      "name": "baseTokenURI",
      "outputs": [
        {
          "internalType": "string",
          "name": "",
          "type": "string"
        }
      ],
      "stateMutability": "view",
      "type": "function",
      "constant": true
    },
    {
      "inputs": [
        {
          "internalType": "uint256",
          "name": "tokenId",
          "type": "uint256"
        }
      ],
      "name": "getApproved",
      "outputs": [
        {
          "internalType": "address",
          "name": "",
          "type": "address"
        }
      ],
      "stateMutability": "view",
      "type": "function",
      "constant": true
    },
    {
      "inputs": [],
      "name": "initial_price",
      "outputs": [
        {
          "internalType": "uint256",
          "name": "",
          "type": "uint256"
        }
      ],
      "stateMutability": "view",
      "type": "function",
      "constant": true
    },
    {
      "inputs": [
        {
          "internalType": "address",
          "name": "owner",
          "type": "address"
        },
        {
          "internalType": "address",
          "name": "operator",
          "type": "address"
        }
      ],
      "name": "isApprovedForAll",
      "outputs": [
        {
          "internalType": "bool",
          "name": "",
          "type": "bool"
        }
      ],
      "stateMutability": "view",
      "type": "function",
      "constant": true
    },
    {
      "inputs": [],
      "name": "name",
      "outputs": [
        {
          "internalType": "string",
          "name": "",
          "type": "string"
        }
      ],
      "stateMutability": "view",
      "type": "function",
      "constant": true
    },
    {
      "inputs": [],
      "name": "owner",
      "outputs": [
        {
          "internalType": "address",
          "name": "",
          "type": "address"
        }
      ],
      "stateMutability": "view",
      "type": "function",
      "constant": true
    },
    {
      "inputs": [
        {
          "internalType": "uint256",
          "name": "tokenId",
          "type": "uint256"
        }
      ],
      "name": "ownerOf",
      "outputs": [
        {
          "internalType": "address",
          "name": "",
          "type": "address"
        }
      ],
      "stateMutability": "view",
      "type": "function",
      "constant": true
    },
    {
      "inputs": [],
      "name": "presaleActive",
      "outputs": [
        {
          "internalType": "bool",
          "name": "",
          "type": "bool"
        }
      ],
      "stateMutability": "view",
      "type": "function",
      "constant": true
    },
    {
      "inputs": [],
      "name": "price",
      "outputs": [
        {
          "internalType": "uint256",
          "name": "",
          "type": "uint256"
        }
      ],
      "stateMutability": "view",
      "type": "function",
      "constant": true
    },
    {
      "inputs": [],
      "name": "renounceOwnership",
      "outputs": [],
      "stateMutability": "nonpayable",
      "type": "function"
    },
    {
      "inputs": [],
      "name": "reserved",
      "outputs": [
        {
          "internalType": "uint256",
          "name": "",
          "type": "uint256"
        }
      ],
      "stateMutability": "view",
      "type": "function",
      "constant": true
    },
    {
      "inputs": [
        {
          "internalType": "address",
          "name": "from",
          "type": "address"
        },
        {
          "internalType": "address",
          "name": "to",
          "type": "address"
        },
        {
          "internalType": "uint256",
          "name": "tokenId",
          "type": "uint256"
        }
      ],
      "name": "safeTransferFrom",
      "outputs": [],
      "stateMutability": "nonpayable",
      "type": "function"
    },
    {
      "inputs": [
        {
          "internalType": "address",
          "name": "from",
          "type": "address"
        },
        {
          "internalType": "address",
          "name": "to",
          "type": "address"
        },
        {
          "internalType": "uint256",
          "name": "tokenId",
          "type": "uint256"
        },
        {
          "internalType": "bytes",
          "name": "_data",
          "type": "bytes"
        }
      ],
      "name": "safeTransferFrom",
      "outputs": [],
      "stateMutability": "nonpayable",
      "type": "function"
    },
    {
      "inputs": [],
      "name": "saleActive",
      "outputs": [
        {
          "internalType": "bool",
          "name": "",
          "type": "bool"
        }
      ],
      "stateMutability": "view",
      "type": "function",
      "constant": true
    },
    {
      "inputs": [
        {
          "internalType": "address",
          "name": "operator",
          "type": "address"
        },
        {
          "internalType": "bool",
          "name": "approved",
          "type": "bool"
        }
      ],
      "name": "setApprovalForAll",
      "outputs": [],
      "stateMutability": "nonpayable",
      "type": "function"
    },
    {
      "inputs": [
        {
          "internalType": "bytes4",
          "name": "interfaceId",
          "type": "bytes4"
        }
      ],
      "name": "supportsInterface",
      "outputs": [
        {
          "internalType": "bool",
          "name": "",
          "type": "bool"
        }
      ],
      "stateMutability": "view",
      "type": "function",
      "constant": true
    },
    {
      "inputs": [],
      "name": "symbol",
      "outputs": [
        {
          "internalType": "string",
          "name": "",
          "type": "string"
        }
      ],
      "stateMutability": "view",
      "type": "function",
      "constant": true
    },
    {
      "inputs": [
        {
          "internalType": "uint256",
          "name": "index",
          "type": "uint256"
        }
      ],
      "name": "tokenByIndex",
      "outputs": [
        {
          "internalType": "uint256",
          "name": "",
          "type": "uint256"
        }
      ],
      "stateMutability": "view",
      "type": "function",
      "constant": true
    },
    {
      "inputs": [
        {
          "internalType": "address",
          "name": "owner",
          "type": "address"
        },
        {
          "internalType": "uint256",
          "name": "index",
          "type": "uint256"
        }
      ],
      "name": "tokenOfOwnerByIndex",
      "outputs": [
        {
          "internalType": "uint256",
          "name": "",
          "type": "uint256"
        }
      ],
      "stateMutability": "view",
      "type": "function",
      "constant": true
    },
    {
      "inputs": [
        {
          "internalType": "uint256",
          "name": "tokenId",
          "type": "uint256"
        }
      ],
      "name": "tokenURI",
      "outputs": [
        {
          "internalType": "string",
          "name": "",
          "type": "string"
        }
      ],
      "stateMutability": "view",
      "type": "function",
      "constant": true
    },
    {
      "inputs": [],
      "name": "totalSupply",
      "outputs": [
        {
          "internalType": "uint256",
          "name": "",
          "type": "uint256"
        }
      ],
      "stateMutability": "view",
      "type": "function",
      "constant": true
    },
    {
      "inputs": [
        {
          "internalType": "address",
          "name": "from",
          "type": "address"
        },
        {
          "internalType": "address",
          "name": "to",
          "type": "address"
        },
        {
          "internalType": "uint256",
          "name": "tokenId",
          "type": "uint256"
        }
      ],
      "name": "transferFrom",
      "outputs": [],
      "stateMutability": "nonpayable",
      "type": "function"
    },
    {
      "inputs": [
        {
          "internalType": "address",
          "name": "newOwner",
          "type": "address"
        }
      ],
      "name": "transferOwnership",
      "outputs": [],
      "stateMutability": "nonpayable",
      "type": "function"
    },
    {
      "inputs": [],
      "name": "whitelistActive",
      "outputs": [
        {
          "internalType": "bool",
          "name": "",
          "type": "bool"
        }
      ],
      "stateMutability": "view",
      "type": "function",
      "constant": true
    },
    {
      "inputs": [
        {
          "internalType": "address",
          "name": "",
          "type": "address"
        }
      ],
      "name": "whitelistReserved",
      "outputs": [
        {
          "internalType": "uint256",
          "name": "",
          "type": "uint256"
        }
      ],
      "stateMutability": "view",
      "type": "function",
      "constant": true
    },
    {
      "inputs": [
        {
          "internalType": "address",
          "name": "addr",
          "type": "address"
        }
      ],
      "name": "tokensOfOwner",
      "outputs": [
        {
          "internalType": "uint256[]",
          "name": "",
          "type": "uint256[]"
        }
      ],
      "stateMutability": "view",
      "type": "function",
      "constant": true
    },
    {
      "inputs": [
        {
          "internalType": "uint256",
          "name": "_amount",
          "type": "uint256"
        }
      ],
      "name": "mintWhitelist",
      "outputs": [],
      "stateMutability": "payable",
      "type": "function",
      "payable": true
    },
    {
      "inputs": [
        {
          "internalType": "uint256",
          "name": "_amount",
          "type": "uint256"
        }
      ],
      "name": "mintPresale",
      "outputs": [],
      "stateMutability": "payable",
      "type": "function",
      "payable": true
    },
    {
      "inputs": [
        {
          "internalType": "uint256",
          "name": "_amount",
          "type": "uint256"
        }
      ],
      "name": "mintToken",
      "outputs": [],
      "stateMutability": "payable",
      "type": "function",
      "payable": true
    },
    {
      "inputs": [
        {
          "internalType": "uint256",
          "name": "_amount",
          "type": "uint256"
        }
      ],
      "name": "mintReserved",
      "outputs": [],
      "stateMutability": "nonpayable",
      "type": "function"
    },
    {
      "inputs": [
        {
          "internalType": "address[]",
          "name": "_a",
          "type": "address[]"
        },
        {
          "internalType": "uint256[]",
          "name": "_amount",
          "type": "uint256[]"
        }
      ],
      "name": "editWhitelistReserved",
      "outputs": [],
      "stateMutability": "nonpayable",
      "type": "function"
    },
    {
      "inputs": [
        {
          "internalType": "bool",
          "name": "val",
          "type": "bool"
        }
      ],
      "name": "setWhitelistActive",
      "outputs": [],
      "stateMutability": "nonpayable",
      "type": "function"
    },
    {
      "inputs": [
        {
          "internalType": "bool",
          "name": "val",
          "type": "bool"
        }
      ],
      "name": "setPresaleActive",
      "outputs": [],
      "stateMutability": "nonpayable",
      "type": "function"
    },
    {
      "inputs": [
        {
          "internalType": "bool",
          "name": "val",
          "type": "bool"
        }
      ],
      "name": "setSaleActive",
      "outputs": [],
      "stateMutability": "nonpayable",
      "type": "function"
    },
    {
      "inputs": [
        {
          "internalType": "string",
          "name": "baseURI",
          "type": "string"
        }
      ],
      "name": "setBaseURI",
      "outputs": [],
      "stateMutability": "nonpayable",
      "type": "function"
    },
    {
      "inputs": [
        {
          "internalType": "uint256",
          "name": "newPrice",
          "type": "uint256"
        }
      ],
      "name": "setPrice",
      "outputs": [],
      "stateMutability": "nonpayable",
      "type": "function"
    },
    {
      "inputs": [
        {
          "internalType": "address[]",
          "name": "_a",
          "type": "address[]"
        }
      ],
      "name": "setAddresses",
      "outputs": [],
      "stateMutability": "nonpayable",
      "type": "function"
    },
    {
      "inputs": [
        {
          "internalType": "uint256",
          "name": "amount",
          "type": "uint256"
        }
      ],
      "name": "withdrawTeam",
      "outputs": [],
      "stateMutability": "payable",
      "type": "function",
      "payable": true
    }
  ],
  "bytecode": "0x60806040526000600a60146101000a81548160ff0219169083151502179055506000600a60156101000a81548160ff0219169083151502179055506000600a60166101000a81548160ff0219169083151502179055506096600b55668e1bc9bf040000600c556040518060400160405280600581526020017f2e6a736f6e000000000000000000000000000000000000000000000000000000815250600f9080519060200190620000b29291906200035d565b50348015620000c057600080fd5b506040518060400160405280600981526020017f46696e616c5465737400000000000000000000000000000000000000000000008152506040518060400160405280600381526020017f464e5400000000000000000000000000000000000000000000000000000000008152508160009080519060200190620001459291906200035d565b5080600190805190602001906200015e9291906200035d565b5050506200018162000175620001ba60201b60201c565b620001c260201b60201c565b620001ab60405180608001604052806054815260200162005938605491396200028860201b60201c565b600c54600d81905550620004f5565b600033905090565b6000600a60009054906101000a900473ffffffffffffffffffffffffffffffffffffffff16905081600a60006101000a81548173ffffffffffffffffffffffffffffffffffffffff021916908373ffffffffffffffffffffffffffffffffffffffff1602179055508173ffffffffffffffffffffffffffffffffffffffff168173ffffffffffffffffffffffffffffffffffffffff167f8be0079c531659141344cd1fd0a4f28419497f9722a3daafe3b4186f6b6457e060405160405180910390a35050565b62000298620001ba60201b60201c565b73ffffffffffffffffffffffffffffffffffffffff16620002be6200033360201b60201c565b73ffffffffffffffffffffffffffffffffffffffff161462000317576040517f08c379a00000000000000000000000000000000000000000000000000000000081526004016200030e906200046e565b60405180910390fd5b80600e90805190602001906200032f9291906200035d565b5050565b6000600a60009054906101000a900473ffffffffffffffffffffffffffffffffffffffff16905090565b8280546200036b90620004bf565b90600052602060002090601f0160209004810192826200038f5760008555620003db565b82601f10620003aa57805160ff1916838001178555620003db565b82800160010185558215620003db579182015b82811115620003da578251825591602001919060010190620003bd565b5b509050620003ea9190620003ee565b5090565b5b8082111562000409576000816000905550600101620003ef565b5090565b600082825260208201905092915050565b7f4f776e61626c653a2063616c6c6572206973206e6f7420746865206f776e6572600082015250565b6000620004566020836200040d565b915062000463826200041e565b602082019050919050565b60006020820190508181036000830152620004898162000447565b9050919050565b7f4e487b7100000000000000000000000000000000000000000000000000000000600052602260045260246000fd5b60006002820490506001821680620004d857607f821691505b60208210811415620004ef57620004ee62000490565b5b50919050565b61543380620005056000396000f3fe6080604052600436106102885760003560e01c80638462151c1161015a578063b9571721116100c1578063e985e9c51161007a578063e985e9c5146109c8578063f14c0bcc14610a05578063f2fde38b14610a2e578063f759867a14610a57578063fd2b049214610a73578063fe60d12c14610a8f57610288565b8063b9571721146108c7578063c3b754dc146108f0578063c634d03214610919578063c668286214610935578063c87b56dd14610960578063d547cfb71461099d57610288565b8063969e9d0c11610113578063969e9d0c146107cb5780639a5d140b146107f6578063a035b1fe1461081f578063a22cb4651461084a578063ab3f5a1a14610873578063b88d4fde1461089e57610288565b80638462151c146106b95780638da5cb5b146106f65780638ecad7211461072157806391b7f5ed1461074c5780639426eef81461077557806395d89b41146107a057610288565b806342842e0e116101fe57806368428a1b116101b757806368428a1b146105a95780636b8dc355146105d457806370a08231146105ff578063715018a61461063c57806372e3a3eb14610653578063841718a61461069057610288565b806342842e0e146104965780634618163e146104bf5780634f6ccce7146104db57806353135ca01461051857806355f804b3146105435780636352211e1461056c57610288565b8063119552a111610250578063119552a11461038657806318160ddd146103b157806323b872dd146103dc5780632f745c591461040557806332cb6b0c146104425780633f8121a21461046d57610288565b806301ffc9a71461028d57806302ce5813146102ca57806306fdde03146102f5578063081812fc14610320578063095ea7b31461035d575b600080fd5b34801561029957600080fd5b506102b460048036038101906102af9190613864565b610aba565b6040516102c191906138ac565b60405180910390f35b3480156102d657600080fd5b506102df610b34565b6040516102ec91906138ac565b60405180910390f35b34801561030157600080fd5b5061030a610b47565b6040516103179190613960565b60405180910390f35b34801561032c57600080fd5b50610347600480360381019061034291906139b8565b610bd9565b6040516103549190613a26565b60405180910390f35b34801561036957600080fd5b50610384600480360381019061037f9190613a6d565b610c5e565b005b34801561039257600080fd5b5061039b610d76565b6040516103a89190613a26565b60405180910390f35b3480156103bd57600080fd5b506103c6610d9c565b6040516103d39190613abc565b60405180910390f35b3480156103e857600080fd5b5061040360048036038101906103fe9190613ad7565b610da9565b005b34801561041157600080fd5b5061042c60048036038101906104279190613a6d565b610e09565b6040516104399190613abc565b60405180910390f35b34801561044e57600080fd5b50610457610eae565b6040516104649190613abc565b60405180910390f35b34801561047957600080fd5b50610494600480360381019061048f9190613b56565b610eb4565b005b3480156104a257600080fd5b506104bd60048036038101906104b89190613ad7565b610f4d565b005b6104d960048036038101906104d491906139b8565b610f6d565b005b3480156104e757600080fd5b5061050260048036038101906104fd91906139b8565b6111b9565b60405161050f9190613abc565b60405180910390f35b34801561052457600080fd5b5061052d61122a565b60405161053a91906138ac565b60405180910390f35b34801561054f57600080fd5b5061056a60048036038101906105659190613cb8565b61123d565b005b34801561057857600080fd5b50610593600480360381019061058e91906139b8565b6112d3565b6040516105a09190613a26565b60405180910390f35b3480156105b557600080fd5b506105be611385565b6040516105cb91906138ac565b60405180910390f35b3480156105e057600080fd5b506105e9611398565b6040516105f69190613abc565b60405180910390f35b34801561060b57600080fd5b5061062660048036038101906106219190613d01565b61139e565b6040516106339190613abc565b60405180910390f35b34801561064857600080fd5b50610651611456565b005b34801561065f57600080fd5b5061067a60048036038101906106759190613d01565b6114de565b6040516106879190613abc565b60405180910390f35b34801561069c57600080fd5b506106b760048036038101906106b29190613b56565b6114f6565b005b3480156106c557600080fd5b506106e060048036038101906106db9190613d01565b61158f565b6040516106ed9190613dec565b60405180910390f35b34801561070257600080fd5b5061070b61163d565b6040516107189190613a26565b60405180910390f35b34801561072d57600080fd5b50610736611667565b6040516107439190613abc565b60405180910390f35b34801561075857600080fd5b50610773600480360381019061076e91906139b8565b61166c565b005b34801561078157600080fd5b5061078a6116f2565b6040516107979190613a26565b60405180910390f35b3480156107ac57600080fd5b506107b5611718565b6040516107c29190613960565b60405180910390f35b3480156107d757600080fd5b506107e06117aa565b6040516107ed9190613a26565b60405180910390f35b34801561080257600080fd5b5061081d600480360381019061081891906139b8565b6117d0565b005b34801561082b57600080fd5b506108346118ee565b6040516108419190613abc565b60405180910390f35b34801561085657600080fd5b50610871600480360381019061086c9190613e0e565b6118f4565b005b34801561087f57600080fd5b5061088861190a565b6040516108959190613abc565b60405180910390f35b3480156108aa57600080fd5b506108c560048036038101906108c09190613eef565b611910565b005b3480156108d357600080fd5b506108ee60048036038101906108e9919061403a565b611972565b005b3480156108fc57600080fd5b5061091760048036038101906109129190613b56565b611b05565b005b610933600480360381019061092e91906139b8565b611b9e565b005b34801561094157600080fd5b5061094a611d20565b6040516109579190613960565b60405180910390f35b34801561096c57600080fd5b50610987600480360381019061098291906139b8565b611dae565b6040516109949190613960565b60405180910390f35b3480156109a957600080fd5b506109b2611e55565b6040516109bf9190613960565b60405180910390f35b3480156109d457600080fd5b506109ef60048036038101906109ea9190614083565b611ee3565b6040516109fc91906138ac565b60405180910390f35b348015610a1157600080fd5b50610a2c6004803603810190610a279190614186565b611f77565b005b348015610a3a57600080fd5b50610a556004803603810190610a509190613d01565b61208f565b005b610a716004803603810190610a6c91906139b8565b612187565b005b610a8d6004803603810190610a8891906139b8565b612309565b005b348015610a9b57600080fd5b50610aa46124de565b604051610ab19190613abc565b60405180910390f35b60007f780e9d63000000000000000000000000000000000000000000000000000000007bffffffffffffffffffffffffffffffffffffffffffffffffffffffff1916827bffffffffffffffffffffffffffffffffffffffffffffffffffffffff19161480610b2d5750610b2c826124e4565b5b9050919050565b600a60159054906101000a900460ff1681565b606060008054610b569061422d565b80601f0160208091040260200160405190810160405280929190818152602001828054610b829061422d565b8015610bcf5780601f10610ba457610100808354040283529160200191610bcf565b820191906000526020600020905b815481529060010190602001808311610bb257829003601f168201915b5050505050905090565b6000610be4826125c6565b610c23576040517f08c379a0000000000000000000000000000000000000000000000000000000008152600401610c1a906142d1565b60405180910390fd5b6004600083815260200190815260200160002060009054906101000a900473ffffffffffffffffffffffffffffffffffffffff169050919050565b6000610c69826112d3565b90508073ffffffffffffffffffffffffffffffffffffffff168373ffffffffffffffffffffffffffffffffffffffff161415610cda576040517f08c379a0000000000000000000000000000000000000000000000000000000008152600401610cd190614363565b60405180910390fd5b8073ffffffffffffffffffffffffffffffffffffffff16610cf9612632565b73ffffffffffffffffffffffffffffffffffffffff161480610d285750610d2781610d22612632565b611ee3565b5b610d67576040517f08c379a0000000000000000000000000000000000000000000000000000000008152600401610d5e906143f5565b60405180910390fd5b610d71838361263a565b505050565b601060009054906101000a900473ffffffffffffffffffffffffffffffffffffffff1681565b6000600880549050905090565b610dba610db4612632565b826126f3565b610df9576040517f08c379a0000000000000000000000000000000000000000000000000000000008152600401610df090614487565b60405180910390fd5b610e048383836127d1565b505050565b6000610e148361139e565b8210610e55576040517f08c379a0000000000000000000000000000000000000000000000000000000008152600401610e4c90614519565b60405180910390fd5b600660008473ffffffffffffffffffffffffffffffffffffffff1673ffffffffffffffffffffffffffffffffffffffff168152602001908152602001600020600083815260200190815260200160002054905092915050565b61271081565b610ebc612632565b73ffffffffffffffffffffffffffffffffffffffff16610eda61163d565b73ffffffffffffffffffffffffffffffffffffffff1614610f30576040517f08c379a0000000000000000000000000000000000000000000000000000000008152600401610f2790614585565b60405180910390fd5b80600a60166101000a81548160ff02191690831515021790555050565b610f6883838360405180602001604052806000815250611910565b505050565b6000610f77610d9c565b90506000601360003373ffffffffffffffffffffffffffffffffffffffff1673ffffffffffffffffffffffffffffffffffffffff168152602001908152602001600020549050600a60159054906101000a900460ff1661100c576040517f08c379a0000000000000000000000000000000000000000000000000000000008152600401611003906145f1565b60405180910390fd5b6000811161104f576040517f08c379a000000000000000000000000000000000000000000000000000000000815260040161104690614683565b60405180910390fd5b80831115611092576040517f08c379a0000000000000000000000000000000000000000000000000000000008152600401611089906146ef565b60405180910390fd5b61271083836110a1919061473e565b11156110e2576040517f08c379a00000000000000000000000000000000000000000000000000000000081526004016110d9906147e0565b60405180910390fd5b82600d546110f09190614800565b3414611131576040517f08c379a0000000000000000000000000000000000000000000000000000000008152600401611128906148a6565b60405180910390fd5b828161113d91906148c6565b601360003373ffffffffffffffffffffffffffffffffffffffff1673ffffffffffffffffffffffffffffffffffffffff1681526020019081526020016000208190555060005b838110156111b3576111a033828561119b919061473e565b612a38565b80806111ab906148fa565b915050611183565b50505050565b60006111c3610d9c565b8210611204576040517f08c379a00000000000000000000000000000000000000000000000000000000081526004016111fb906149b5565b60405180910390fd5b60088281548110611218576112176149d5565b5b90600052602060002001549050919050565b600a60169054906101000a900460ff1681565b611245612632565b73ffffffffffffffffffffffffffffffffffffffff1661126361163d565b73ffffffffffffffffffffffffffffffffffffffff16146112b9576040517f08c379a00000000000000000000000000000000000000000000000000000000081526004016112b090614585565b60405180910390fd5b80600e90805190602001906112cf929190613755565b5050565b6000806002600084815260200190815260200160002060009054906101000a900473ffffffffffffffffffffffffffffffffffffffff169050600073ffffffffffffffffffffffffffffffffffffffff168173ffffffffffffffffffffffffffffffffffffffff16141561137c576040517f08c379a000000000000000000000000000000000000000000000000000000000815260040161137390614a76565b60405180910390fd5b80915050919050565b600a60149054906101000a900460ff1681565b6101f481565b60008073ffffffffffffffffffffffffffffffffffffffff168273ffffffffffffffffffffffffffffffffffffffff16141561140f576040517f08c379a000000000000000000000000000000000000000000000000000000000815260040161140690614b08565b60405180910390fd5b600360008373ffffffffffffffffffffffffffffffffffffffff1673ffffffffffffffffffffffffffffffffffffffff168152602001908152602001600020549050919050565b61145e612632565b73ffffffffffffffffffffffffffffffffffffffff1661147c61163d565b73ffffffffffffffffffffffffffffffffffffffff16146114d2576040517f08c379a00000000000000000000000000000000000000000000000000000000081526004016114c990614585565b60405180910390fd5b6114dc6000612a56565b565b60136020528060005260406000206000915090505481565b6114fe612632565b73ffffffffffffffffffffffffffffffffffffffff1661151c61163d565b73ffffffffffffffffffffffffffffffffffffffff1614611572576040517f08c379a000000000000000000000000000000000000000000000000000000000815260040161156990614585565b60405180910390fd5b80600a60146101000a81548160ff02191690831515021790555050565b6060600061159c8361139e565b905060008167ffffffffffffffff8111156115ba576115b9613b8d565b5b6040519080825280602002602001820160405280156115e85781602001602082028036833780820191505090505b50905060005b82811015611632576116008582610e09565b828281518110611613576116126149d5565b5b602002602001018181525050808061162a906148fa565b9150506115ee565b508092505050919050565b6000600a60009054906101000a900473ffffffffffffffffffffffffffffffffffffffff16905090565b601481565b611674612632565b73ffffffffffffffffffffffffffffffffffffffff1661169261163d565b73ffffffffffffffffffffffffffffffffffffffff16146116e8576040517f08c379a00000000000000000000000000000000000000000000000000000000081526004016116df90614585565b60405180910390fd5b80600d8190555050565b601260009054906101000a900473ffffffffffffffffffffffffffffffffffffffff1681565b6060600180546117279061422d565b80601f01602080910402602001604051908101604052809291908181526020018280546117539061422d565b80156117a05780601f10611775576101008083540402835291602001916117a0565b820191906000526020600020905b81548152906001019060200180831161178357829003601f168201915b5050505050905090565b601160009054906101000a900473ffffffffffffffffffffffffffffffffffffffff1681565b6117d8612632565b73ffffffffffffffffffffffffffffffffffffffff166117f661163d565b73ffffffffffffffffffffffffffffffffffffffff161461184c576040517f08c379a000000000000000000000000000000000000000000000000000000000815260040161184390614585565b60405180910390fd5b600b54811115611891576040517f08c379a000000000000000000000000000000000000000000000000000000000815260040161188890614b9a565b60405180910390fd5b80600b60008282546118a391906148c6565b9250508190555060006118b4610d9c565b905060005b828110156118e9576118d63382846118d1919061473e565b612a38565b80806118e1906148fa565b9150506118b9565b505050565b600d5481565b6119066118ff612632565b8383612b1c565b5050565b600c5481565b61192161191b612632565b836126f3565b611960576040517f08c379a000000000000000000000000000000000000000000000000000000000815260040161195790614487565b60405180910390fd5b61196c84848484612c89565b50505050565b61197a612632565b73ffffffffffffffffffffffffffffffffffffffff1661199861163d565b73ffffffffffffffffffffffffffffffffffffffff16146119ee576040517f08c379a00000000000000000000000000000000000000000000000000000000081526004016119e590614585565b60405180910390fd5b80600081518110611a0257611a016149d5565b5b6020026020010151601060006101000a81548173ffffffffffffffffffffffffffffffffffffffff021916908373ffffffffffffffffffffffffffffffffffffffff16021790555080600181518110611a5e57611a5d6149d5565b5b6020026020010151601160006101000a81548173ffffffffffffffffffffffffffffffffffffffff021916908373ffffffffffffffffffffffffffffffffffffffff16021790555080600281518110611aba57611ab96149d5565b5b6020026020010151601260006101000a81548173ffffffffffffffffffffffffffffffffffffffff021916908373ffffffffffffffffffffffffffffffffffffffff16021790555050565b611b0d612632565b73ffffffffffffffffffffffffffffffffffffffff16611b2b61163d565b73ffffffffffffffffffffffffffffffffffffffff1614611b81576040517f08c379a0000000000000000000000000000000000000000000000000000000008152600401611b7890614585565b60405180910390fd5b80600a60156101000a81548160ff02191690831515021790555050565b6000611ba8610d9c565b9050600a60149054906101000a900460ff16611bf9576040517f08c379a0000000000000000000000000000000000000000000000000000000008152600401611bf090614c06565b60405180910390fd5b600082118015611c0a575060148211155b611c49576040517f08c379a0000000000000000000000000000000000000000000000000000000008152600401611c4090614c98565b60405180910390fd5b6127108282611c58919061473e565b1115611c99576040517f08c379a0000000000000000000000000000000000000000000000000000000008152600401611c90906147e0565b60405180910390fd5b81600d54611ca79190614800565b3414611ce8576040517f08c379a0000000000000000000000000000000000000000000000000000000008152600401611cdf906148a6565b60405180910390fd5b60005b82811015611d1b57611d08338284611d03919061473e565b612a38565b8080611d13906148fa565b915050611ceb565b505050565b600f8054611d2d9061422d565b80601f0160208091040260200160405190810160405280929190818152602001828054611d599061422d565b8015611da65780601f10611d7b57610100808354040283529160200191611da6565b820191906000526020600020905b815481529060010190602001808311611d8957829003601f168201915b505050505081565b6060611db9826125c6565b611df8576040517f08c379a0000000000000000000000000000000000000000000000000000000008152600401611def90614d2a565b60405180910390fd5b6000611e02612ce5565b90506000815111611e225760405180602001604052806000815250611e4d565b80611e2c84612d77565b604051602001611e3d929190614d86565b6040516020818303038152906040525b915050919050565b600e8054611e629061422d565b80601f0160208091040260200160405190810160405280929190818152602001828054611e8e9061422d565b8015611edb5780601f10611eb057610100808354040283529160200191611edb565b820191906000526020600020905b815481529060010190602001808311611ebe57829003601f168201915b505050505081565b6000600560008473ffffffffffffffffffffffffffffffffffffffff1673ffffffffffffffffffffffffffffffffffffffff16815260200190815260200160002060008373ffffffffffffffffffffffffffffffffffffffff1673ffffffffffffffffffffffffffffffffffffffff16815260200190815260200160002060009054906101000a900460ff16905092915050565b611f7f612632565b73ffffffffffffffffffffffffffffffffffffffff16611f9d61163d565b73ffffffffffffffffffffffffffffffffffffffff1614611ff3576040517f08c379a0000000000000000000000000000000000000000000000000000000008152600401611fea90614585565b60405180910390fd5b60005b825181101561208a57818181518110612012576120116149d5565b5b602002602001015160136000858481518110612031576120306149d5565b5b602002602001015173ffffffffffffffffffffffffffffffffffffffff1673ffffffffffffffffffffffffffffffffffffffff168152602001908152602001600020819055508080612082906148fa565b915050611ff6565b505050565b612097612632565b73ffffffffffffffffffffffffffffffffffffffff166120b561163d565b73ffffffffffffffffffffffffffffffffffffffff161461210b576040517f08c379a000000000000000000000000000000000000000000000000000000000815260040161210290614585565b60405180910390fd5b600073ffffffffffffffffffffffffffffffffffffffff168173ffffffffffffffffffffffffffffffffffffffff16141561217b576040517f08c379a000000000000000000000000000000000000000000000000000000000815260040161217290614e1c565b60405180910390fd5b61218481612a56565b50565b6000612191610d9c565b9050600a60169054906101000a900460ff166121e2576040517f08c379a00000000000000000000000000000000000000000000000000000000081526004016121d990614c06565b60405180910390fd5b6000821180156121f3575060148211155b612232576040517f08c379a000000000000000000000000000000000000000000000000000000000815260040161222990614eae565b60405180910390fd5b6101f48282612241919061473e565b1115612282576040517f08c379a0000000000000000000000000000000000000000000000000000000008152600401612279906147e0565b60405180910390fd5b81600d546122909190614800565b34146122d1576040517f08c379a00000000000000000000000000000000000000000000000000000000081526004016122c8906148a6565b60405180910390fd5b60005b82811015612304576122f13382846122ec919061473e565b612a38565b80806122fc906148fa565b9150506122d4565b505050565b612311612632565b73ffffffffffffffffffffffffffffffffffffffff1661232f61163d565b73ffffffffffffffffffffffffffffffffffffffff1614612385576040517f08c379a000000000000000000000000000000000000000000000000000000000815260040161237c90614585565b60405180910390fd5b60006064826123949190614efd565b9050601060009054906101000a900473ffffffffffffffffffffffffffffffffffffffff1673ffffffffffffffffffffffffffffffffffffffff166108fc6028836123df9190614800565b9081150290604051600060405180830381858888f1935050505061240257600080fd5b601160009054906101000a900473ffffffffffffffffffffffffffffffffffffffff1673ffffffffffffffffffffffffffffffffffffffff166108fc601e8361244b9190614800565b9081150290604051600060405180830381858888f1935050505061246e57600080fd5b601260009054906101000a900473ffffffffffffffffffffffffffffffffffffffff1673ffffffffffffffffffffffffffffffffffffffff166108fc601e836124b79190614800565b9081150290604051600060405180830381858888f193505050506124da57600080fd5b5050565b600b5481565b60007f80ac58cd000000000000000000000000000000000000000000000000000000007bffffffffffffffffffffffffffffffffffffffffffffffffffffffff1916827bffffffffffffffffffffffffffffffffffffffffffffffffffffffff191614806125af57507f5b5e139f000000000000000000000000000000000000000000000000000000007bffffffffffffffffffffffffffffffffffffffffffffffffffffffff1916827bffffffffffffffffffffffffffffffffffffffffffffffffffffffff1916145b806125bf57506125be82612ed8565b5b9050919050565b60008073ffffffffffffffffffffffffffffffffffffffff166002600084815260200190815260200160002060009054906101000a900473ffffffffffffffffffffffffffffffffffffffff1673ffffffffffffffffffffffffffffffffffffffff1614159050919050565b600033905090565b816004600083815260200190815260200160002060006101000a81548173ffffffffffffffffffffffffffffffffffffffff021916908373ffffffffffffffffffffffffffffffffffffffff160217905550808273ffffffffffffffffffffffffffffffffffffffff166126ad836112d3565b73ffffffffffffffffffffffffffffffffffffffff167f8c5be1e5ebec7d5bd14f71427d1e84f3dd0314c0f7b2291e5b200ac8c7c3b92560405160405180910390a45050565b60006126fe826125c6565b61273d576040517f08c379a000000000000000000000000000000000000000000000000000000000815260040161273490614fa0565b60405180910390fd5b6000612748836112d3565b90508073ffffffffffffffffffffffffffffffffffffffff168473ffffffffffffffffffffffffffffffffffffffff1614806127b757508373ffffffffffffffffffffffffffffffffffffffff1661279f84610bd9565b73ffffffffffffffffffffffffffffffffffffffff16145b806127c857506127c78185611ee3565b5b91505092915050565b8273ffffffffffffffffffffffffffffffffffffffff166127f1826112d3565b73ffffffffffffffffffffffffffffffffffffffff1614612847576040517f08c379a000000000000000000000000000000000000000000000000000000000815260040161283e90615032565b60405180910390fd5b600073ffffffffffffffffffffffffffffffffffffffff168273ffffffffffffffffffffffffffffffffffffffff1614156128b7576040517f08c379a00000000000000000000000000000000000000000000000000000000081526004016128ae906150c4565b60405180910390fd5b6128c2838383612f42565b6128cd60008261263a565b6001600360008573ffffffffffffffffffffffffffffffffffffffff1673ffffffffffffffffffffffffffffffffffffffff168152602001908152602001600020600082825461291d91906148c6565b925050819055506001600360008473ffffffffffffffffffffffffffffffffffffffff1673ffffffffffffffffffffffffffffffffffffffff1681526020019081526020016000206000828254612974919061473e565b92505081905550816002600083815260200190815260200160002060006101000a81548173ffffffffffffffffffffffffffffffffffffffff021916908373ffffffffffffffffffffffffffffffffffffffff160217905550808273ffffffffffffffffffffffffffffffffffffffff168473ffffffffffffffffffffffffffffffffffffffff167fddf252ad1be2c89b69c2b068fc378daa952ba7f163c4a11628f55a4df523b3ef60405160405180910390a4612a33838383613056565b505050565b612a5282826040518060200160405280600081525061305b565b5050565b6000600a60009054906101000a900473ffffffffffffffffffffffffffffffffffffffff16905081600a60006101000a81548173ffffffffffffffffffffffffffffffffffffffff021916908373ffffffffffffffffffffffffffffffffffffffff1602179055508173ffffffffffffffffffffffffffffffffffffffff168173ffffffffffffffffffffffffffffffffffffffff167f8be0079c531659141344cd1fd0a4f28419497f9722a3daafe3b4186f6b6457e060405160405180910390a35050565b8173ffffffffffffffffffffffffffffffffffffffff168373ffffffffffffffffffffffffffffffffffffffff161415612b8b576040517f08c379a0000000000000000000000000000000000000000000000000000000008152600401612b8290615130565b60405180910390fd5b80600560008573ffffffffffffffffffffffffffffffffffffffff1673ffffffffffffffffffffffffffffffffffffffff16815260200190815260200160002060008473ffffffffffffffffffffffffffffffffffffffff1673ffffffffffffffffffffffffffffffffffffffff16815260200190815260200160002060006101000a81548160ff0219169083151502179055508173ffffffffffffffffffffffffffffffffffffffff168373ffffffffffffffffffffffffffffffffffffffff167f17307eab39ab6107e8899845ad3d59bd9653f200f220920489ca2b5937696c3183604051612c7c91906138ac565b60405180910390a3505050565b612c948484846127d1565b612ca0848484846130b6565b612cdf576040517f08c379a0000000000000000000000000000000000000000000000000000000008152600401612cd6906151c2565b60405180910390fd5b50505050565b6060600e8054612cf49061422d565b80601f0160208091040260200160405190810160405280929190818152602001828054612d209061422d565b8015612d6d5780601f10612d4257610100808354040283529160200191612d6d565b820191906000526020600020905b815481529060010190602001808311612d5057829003601f168201915b5050505050905090565b60606000821415612dbf576040518060400160405280600181526020017f30000000000000000000000000000000000000000000000000000000000000008152509050612ed3565b600082905060005b60008214612df1578080612dda906148fa565b915050600a82612dea9190614efd565b9150612dc7565b60008167ffffffffffffffff811115612e0d57612e0c613b8d565b5b6040519080825280601f01601f191660200182016040528015612e3f5781602001600182028036833780820191505090505b5090505b60008514612ecc57600182612e5891906148c6565b9150600a85612e6791906151e2565b6030612e73919061473e565b60f81b818381518110612e8957612e886149d5565b5b60200101907effffffffffffffffffffffffffffffffffffffffffffffffffffffffffffff1916908160001a905350600a85612ec59190614efd565b9450612e43565b8093505050505b919050565b60007f01ffc9a7000000000000000000000000000000000000000000000000000000007bffffffffffffffffffffffffffffffffffffffffffffffffffffffff1916827bffffffffffffffffffffffffffffffffffffffffffffffffffffffff1916149050919050565b612f4d83838361324d565b600073ffffffffffffffffffffffffffffffffffffffff168373ffffffffffffffffffffffffffffffffffffffff161415612f9057612f8b81613252565b612fcf565b8173ffffffffffffffffffffffffffffffffffffffff168373ffffffffffffffffffffffffffffffffffffffff1614612fce57612fcd838261329b565b5b5b600073ffffffffffffffffffffffffffffffffffffffff168273ffffffffffffffffffffffffffffffffffffffff1614156130125761300d81613408565b613051565b8273ffffffffffffffffffffffffffffffffffffffff168273ffffffffffffffffffffffffffffffffffffffff16146130505761304f82826134d9565b5b5b505050565b505050565b6130658383613558565b61307260008484846130b6565b6130b1576040517f08c379a00000000000000000000000000000000000000000000000000000000081526004016130a8906151c2565b60405180910390fd5b505050565b60006130d78473ffffffffffffffffffffffffffffffffffffffff16613732565b15613240578373ffffffffffffffffffffffffffffffffffffffff1663150b7a02613100612632565b8786866040518563ffffffff1660e01b81526004016131229493929190615268565b602060405180830381600087803b15801561313c57600080fd5b505af192505050801561316d57506040513d601f19601f8201168201806040525081019061316a91906152c9565b60015b6131f0573d806000811461319d576040519150601f19603f3d011682016040523d82523d6000602084013e6131a2565b606091505b506000815114156131e8576040517f08c379a00000000000000000000000000000000000000000000000000000000081526004016131df906151c2565b60405180910390fd5b805181602001fd5b63150b7a0260e01b7bffffffffffffffffffffffffffffffffffffffffffffffffffffffff1916817bffffffffffffffffffffffffffffffffffffffffffffffffffffffff191614915050613245565b600190505b949350505050565b505050565b6008805490506009600083815260200190815260200160002081905550600881908060018154018082558091505060019003906000526020600020016000909190919091505550565b600060016132a88461139e565b6132b291906148c6565b9050600060076000848152602001908152602001600020549050818114613397576000600660008673ffffffffffffffffffffffffffffffffffffffff1673ffffffffffffffffffffffffffffffffffffffff168152602001908152602001600020600084815260200190815260200160002054905080600660008773ffffffffffffffffffffffffffffffffffffffff1673ffffffffffffffffffffffffffffffffffffffff168152602001908152602001600020600084815260200190815260200160002081905550816007600083815260200190815260200160002081905550505b6007600084815260200190815260200160002060009055600660008573ffffffffffffffffffffffffffffffffffffffff1673ffffffffffffffffffffffffffffffffffffffff16815260200190815260200160002060008381526020019081526020016000206000905550505050565b6000600160088054905061341c91906148c6565b905060006009600084815260200190815260200160002054905060006008838154811061344c5761344b6149d5565b5b90600052602060002001549050806008838154811061346e5761346d6149d5565b5b9060005260206000200181905550816009600083815260200190815260200160002081905550600960008581526020019081526020016000206000905560088054806134bd576134bc6152f6565b5b6001900381819060005260206000200160009055905550505050565b60006134e48361139e565b905081600660008573ffffffffffffffffffffffffffffffffffffffff1673ffffffffffffffffffffffffffffffffffffffff168152602001908152602001600020600083815260200190815260200160002081905550806007600084815260200190815260200160002081905550505050565b600073ffffffffffffffffffffffffffffffffffffffff168273ffffffffffffffffffffffffffffffffffffffff1614156135c8576040517f08c379a00000000000000000000000000000000000000000000000000000000081526004016135bf90615371565b60405180910390fd5b6135d1816125c6565b15613611576040517f08c379a0000000000000000000000000000000000000000000000000000000008152600401613608906153dd565b60405180910390fd5b61361d60008383612f42565b6001600360008473ffffffffffffffffffffffffffffffffffffffff1673ffffffffffffffffffffffffffffffffffffffff168152602001908152602001600020600082825461366d919061473e565b92505081905550816002600083815260200190815260200160002060006101000a81548173ffffffffffffffffffffffffffffffffffffffff021916908373ffffffffffffffffffffffffffffffffffffffff160217905550808273ffffffffffffffffffffffffffffffffffffffff16600073ffffffffffffffffffffffffffffffffffffffff167fddf252ad1be2c89b69c2b068fc378daa952ba7f163c4a11628f55a4df523b3ef60405160405180910390a461372e60008383613056565b5050565b6000808273ffffffffffffffffffffffffffffffffffffffff163b119050919050565b8280546137619061422d565b90600052602060002090601f01602090048101928261378357600085556137ca565b82601f1061379c57805160ff19168380011785556137ca565b828001600101855582156137ca579182015b828111156137c95782518255916020019190600101906137ae565b5b5090506137d791906137db565b5090565b5b808211156137f45760008160009055506001016137dc565b5090565b6000604051905090565b600080fd5b600080fd5b60007fffffffff0000000000000000000000000000000000000000000000000000000082169050919050565b6138418161380c565b811461384c57600080fd5b50565b60008135905061385e81613838565b92915050565b60006020828403121561387a57613879613802565b5b60006138888482850161384f565b91505092915050565b60008115159050919050565b6138a681613891565b82525050565b60006020820190506138c1600083018461389d565b92915050565b600081519050919050565b600082825260208201905092915050565b60005b838110156139015780820151818401526020810190506138e6565b83811115613910576000848401525b50505050565b6000601f19601f8301169050919050565b6000613932826138c7565b61393c81856138d2565b935061394c8185602086016138e3565b61395581613916565b840191505092915050565b6000602082019050818103600083015261397a8184613927565b905092915050565b6000819050919050565b61399581613982565b81146139a057600080fd5b50565b6000813590506139b28161398c565b92915050565b6000602082840312156139ce576139cd613802565b5b60006139dc848285016139a3565b91505092915050565b600073ffffffffffffffffffffffffffffffffffffffff82169050919050565b6000613a10826139e5565b9050919050565b613a2081613a05565b82525050565b6000602082019050613a3b6000830184613a17565b92915050565b613a4a81613a05565b8114613a5557600080fd5b50565b600081359050613a6781613a41565b92915050565b60008060408385031215613a8457613a83613802565b5b6000613a9285828601613a58565b9250506020613aa3858286016139a3565b9150509250929050565b613ab681613982565b82525050565b6000602082019050613ad16000830184613aad565b92915050565b600080600060608486031215613af057613aef613802565b5b6000613afe86828701613a58565b9350506020613b0f86828701613a58565b9250506040613b20868287016139a3565b9150509250925092565b613b3381613891565b8114613b3e57600080fd5b50565b600081359050613b5081613b2a565b92915050565b600060208284031215613b6c57613b6b613802565b5b6000613b7a84828501613b41565b91505092915050565b600080fd5b600080fd5b7f4e487b7100000000000000000000000000000000000000000000000000000000600052604160045260246000fd5b613bc582613916565b810181811067ffffffffffffffff82111715613be457613be3613b8d565b5b80604052505050565b6000613bf76137f8565b9050613c038282613bbc565b919050565b600067ffffffffffffffff821115613c2357613c22613b8d565b5b613c2c82613916565b9050602081019050919050565b82818337600083830152505050565b6000613c5b613c5684613c08565b613bed565b905082815260208101848484011115613c7757613c76613b88565b5b613c82848285613c39565b509392505050565b600082601f830112613c9f57613c9e613b83565b5b8135613caf848260208601613c48565b91505092915050565b600060208284031215613cce57613ccd613802565b5b600082013567ffffffffffffffff811115613cec57613ceb613807565b5b613cf884828501613c8a565b91505092915050565b600060208284031215613d1757613d16613802565b5b6000613d2584828501613a58565b91505092915050565b600081519050919050565b600082825260208201905092915050565b6000819050602082019050919050565b613d6381613982565b82525050565b6000613d758383613d5a565b60208301905092915050565b6000602082019050919050565b6000613d9982613d2e565b613da38185613d39565b9350613dae83613d4a565b8060005b83811015613ddf578151613dc68882613d69565b9750613dd183613d81565b925050600181019050613db2565b5085935050505092915050565b60006020820190508181036000830152613e068184613d8e565b905092915050565b60008060408385031215613e2557613e24613802565b5b6000613e3385828601613a58565b9250506020613e4485828601613b41565b9150509250929050565b600067ffffffffffffffff821115613e6957613e68613b8d565b5b613e7282613916565b9050602081019050919050565b6000613e92613e8d84613e4e565b613bed565b905082815260208101848484011115613eae57613ead613b88565b5b613eb9848285613c39565b509392505050565b600082601f830112613ed657613ed5613b83565b5b8135613ee6848260208601613e7f565b91505092915050565b60008060008060808587031215613f0957613f08613802565b5b6000613f1787828801613a58565b9450506020613f2887828801613a58565b9350506040613f39878288016139a3565b925050606085013567ffffffffffffffff811115613f5a57613f59613807565b5b613f6687828801613ec1565b91505092959194509250565b600067ffffffffffffffff821115613f8d57613f8c613b8d565b5b602082029050602081019050919050565b600080fd5b6000613fb6613fb184613f72565b613bed565b90508083825260208201905060208402830185811115613fd957613fd8613f9e565b5b835b818110156140025780613fee8882613a58565b845260208401935050602081019050613fdb565b5050509392505050565b600082601f83011261402157614020613b83565b5b8135614031848260208601613fa3565b91505092915050565b6000602082840312156140505761404f613802565b5b600082013567ffffffffffffffff81111561406e5761406d613807565b5b61407a8482850161400c565b91505092915050565b6000806040838503121561409a57614099613802565b5b60006140a885828601613a58565b92505060206140b985828601613a58565b9150509250929050565b600067ffffffffffffffff8211156140de576140dd613b8d565b5b602082029050602081019050919050565b60006141026140fd846140c3565b613bed565b9050808382526020820190506020840283018581111561412557614124613f9e565b5b835b8181101561414e578061413a88826139a3565b845260208401935050602081019050614127565b5050509392505050565b600082601f83011261416d5761416c613b83565b5b813561417d8482602086016140ef565b91505092915050565b6000806040838503121561419d5761419c613802565b5b600083013567ffffffffffffffff8111156141bb576141ba613807565b5b6141c78582860161400c565b925050602083013567ffffffffffffffff8111156141e8576141e7613807565b5b6141f485828601614158565b9150509250929050565b7f4e487b7100000000000000000000000000000000000000000000000000000000600052602260045260246000fd5b6000600282049050600182168061424557607f821691505b60208210811415614259576142586141fe565b5b50919050565b7f4552433732313a20617070726f76656420717565727920666f72206e6f6e657860008201527f697374656e7420746f6b656e0000000000000000000000000000000000000000602082015250565b60006142bb602c836138d2565b91506142c68261425f565b604082019050919050565b600060208201905081810360008301526142ea816142ae565b9050919050565b7f4552433732313a20617070726f76616c20746f2063757272656e74206f776e6560008201527f7200000000000000000000000000000000000000000000000000000000000000602082015250565b600061434d6021836138d2565b9150614358826142f1565b604082019050919050565b6000602082019050818103600083015261437c81614340565b9050919050565b7f4552433732313a20617070726f76652063616c6c6572206973206e6f74206f7760008201527f6e6572206e6f7220617070726f76656420666f7220616c6c0000000000000000602082015250565b60006143df6038836138d2565b91506143ea82614383565b604082019050919050565b6000602082019050818103600083015261440e816143d2565b9050919050565b7f4552433732313a207472616e736665722063616c6c6572206973206e6f74206f60008201527f776e6572206e6f7220617070726f766564000000000000000000000000000000602082015250565b60006144716031836138d2565b915061447c82614415565b604082019050919050565b600060208201905081810360008301526144a081614464565b9050919050565b7f455243373231456e756d657261626c653a206f776e657220696e646578206f7560008201527f74206f6620626f756e6473000000000000000000000000000000000000000000602082015250565b6000614503602b836138d2565b915061450e826144a7565b604082019050919050565b60006020820190508181036000830152614532816144f6565b9050919050565b7f4f776e61626c653a2063616c6c6572206973206e6f7420746865206f776e6572600082015250565b600061456f6020836138d2565b915061457a82614539565b602082019050919050565b6000602082019050818103600083015261459e81614562565b9050919050565b7f57686974656c6973742069736e27742061637469766500000000000000000000600082015250565b60006145db6016836138d2565b91506145e6826145a5565b602082019050919050565b6000602082019050818103600083015261460a816145ce565b9050919050565b7f4e6f20746f6b656e7320726573657276656420666f7220796f7572206164647260008201527f6573730000000000000000000000000000000000000000000000000000000000602082015250565b600061466d6023836138d2565b915061467882614611565b604082019050919050565b6000602082019050818103600083015261469c81614660565b9050919050565b7f43616e2774206d696e74206d6f7265207468616e207265736572766564000000600082015250565b60006146d9601d836138d2565b91506146e4826146a3565b602082019050919050565b60006020820190508181036000830152614708816146cc565b9050919050565b7f4e487b7100000000000000000000000000000000000000000000000000000000600052601160045260246000fd5b600061474982613982565b915061475483613982565b9250827fffffffffffffffffffffffffffffffffffffffffffffffffffffffffffffffff038211156147895761478861470f565b5b828201905092915050565b7f43616e2774206d696e74206d6f7265207468616e206d617820737570706c7900600082015250565b60006147ca601f836138d2565b91506147d582614794565b602082019050919050565b600060208201905081810360008301526147f9816147bd565b9050919050565b600061480b82613982565b915061481683613982565b9250817fffffffffffffffffffffffffffffffffffffffffffffffffffffffffffffffff048311821515161561484f5761484e61470f565b5b828202905092915050565b7f57726f6e6720616d6f756e74206f66204554482073656e740000000000000000600082015250565b60006148906018836138d2565b915061489b8261485a565b602082019050919050565b600060208201905081810360008301526148bf81614883565b9050919050565b60006148d182613982565b91506148dc83613982565b9250828210156148ef576148ee61470f565b5b828203905092915050565b600061490582613982565b91507fffffffffffffffffffffffffffffffffffffffffffffffffffffffffffffffff8214156149385761493761470f565b5b600182019050919050565b7f455243373231456e756d657261626c653a20676c6f62616c20696e646578206f60008201527f7574206f6620626f756e64730000000000000000000000000000000000000000602082015250565b600061499f602c836138d2565b91506149aa82614943565b604082019050919050565b600060208201905081810360008301526149ce81614992565b9050919050565b7f4e487b7100000000000000000000000000000000000000000000000000000000600052603260045260246000fd5b7f4552433732313a206f776e657220717565727920666f72206e6f6e657869737460008201527f656e7420746f6b656e0000000000000000000000000000000000000000000000602082015250565b6000614a606029836138d2565b9150614a6b82614a04565b604082019050919050565b60006020820190508181036000830152614a8f81614a53565b9050919050565b7f4552433732313a2062616c616e636520717565727920666f7220746865207a6560008201527f726f206164647265737300000000000000000000000000000000000000000000602082015250565b6000614af2602a836138d2565b9150614afd82614a96565b604082019050919050565b60006020820190508181036000830152614b2181614ae5565b9050919050565b7f43616e27742072657365727665206d6f7265207468616e2073657420616d6f7560008201527f6e74000000000000000000000000000000000000000000000000000000000000602082015250565b6000614b846022836138d2565b9150614b8f82614b28565b604082019050919050565b60006020820190508181036000830152614bb381614b77565b9050919050565b7f53616c652069736e277420616374697665000000000000000000000000000000600082015250565b6000614bf06011836138d2565b9150614bfb82614bba565b602082019050919050565b60006020820190508181036000830152614c1f81614be3565b9050919050565b7f43616e206f6e6c79206d696e74206265747765656e203120616e64203130207460008201527f6f6b656e73206174206f6e636500000000000000000000000000000000000000602082015250565b6000614c82602d836138d2565b9150614c8d82614c26565b604082019050919050565b60006020820190508181036000830152614cb181614c75565b9050919050565b7f4552433732314d657461646174613a2055524920717565727920666f72206e6f60008201527f6e6578697374656e7420746f6b656e0000000000000000000000000000000000602082015250565b6000614d14602f836138d2565b9150614d1f82614cb8565b604082019050919050565b60006020820190508181036000830152614d4381614d07565b9050919050565b600081905092915050565b6000614d60826138c7565b614d6a8185614d4a565b9350614d7a8185602086016138e3565b80840191505092915050565b6000614d928285614d55565b9150614d9e8284614d55565b91508190509392505050565b7f4f776e61626c653a206e6577206f776e657220697320746865207a65726f206160008201527f6464726573730000000000000000000000000000000000000000000000000000602082015250565b6000614e066026836138d2565b9150614e1182614daa565b604082019050919050565b60006020820190508181036000830152614e3581614df9565b9050919050565b7f43616e206f6e6c79206d696e74206265747765656e203120616e64203230207460008201527f6f6b656e73206174206f6e636500000000000000000000000000000000000000602082015250565b6000614e98602d836138d2565b9150614ea382614e3c565b604082019050919050565b60006020820190508181036000830152614ec781614e8b565b9050919050565b7f4e487b7100000000000000000000000000000000000000000000000000000000600052601260045260246000fd5b6000614f0882613982565b9150614f1383613982565b925082614f2357614f22614ece565b5b828204905092915050565b7f4552433732313a206f70657261746f7220717565727920666f72206e6f6e657860008201527f697374656e7420746f6b656e0000000000000000000000000000000000000000602082015250565b6000614f8a602c836138d2565b9150614f9582614f2e565b604082019050919050565b60006020820190508181036000830152614fb981614f7d565b9050919050565b7f4552433732313a207472616e736665722066726f6d20696e636f72726563742060008201527f6f776e6572000000000000000000000000000000000000000000000000000000602082015250565b600061501c6025836138d2565b915061502782614fc0565b604082019050919050565b6000602082019050818103600083015261504b8161500f565b9050919050565b7f4552433732313a207472616e7366657220746f20746865207a65726f2061646460008201527f7265737300000000000000000000000000000000000000000000000000000000602082015250565b60006150ae6024836138d2565b91506150b982615052565b604082019050919050565b600060208201905081810360008301526150dd816150a1565b9050919050565b7f4552433732313a20617070726f766520746f2063616c6c657200000000000000600082015250565b600061511a6019836138d2565b9150615125826150e4565b602082019050919050565b600060208201905081810360008301526151498161510d565b9050919050565b7f4552433732313a207472616e7366657220746f206e6f6e20455243373231526560008201527f63656976657220696d706c656d656e7465720000000000000000000000000000602082015250565b60006151ac6032836138d2565b91506151b782615150565b604082019050919050565b600060208201905081810360008301526151db8161519f565b9050919050565b60006151ed82613982565b91506151f883613982565b92508261520857615207614ece565b5b828206905092915050565b600081519050919050565b600082825260208201905092915050565b600061523a82615213565b615244818561521e565b93506152548185602086016138e3565b61525d81613916565b840191505092915050565b600060808201905061527d6000830187613a17565b61528a6020830186613a17565b6152976040830185613aad565b81810360608301526152a9818461522f565b905095945050505050565b6000815190506152c381613838565b92915050565b6000602082840312156152df576152de613802565b5b60006152ed848285016152b4565b91505092915050565b7f4e487b7100000000000000000000000000000000000000000000000000000000600052603160045260246000fd5b7f4552433732313a206d696e7420746f20746865207a65726f2061646472657373600082015250565b600061535b6020836138d2565b915061536682615325565b602082019050919050565b6000602082019050818103600083015261538a8161534e565b9050919050565b7f4552433732313a20746f6b656e20616c7265616479206d696e74656400000000600082015250565b60006153c7601c836138d2565b91506153d282615391565b602082019050919050565b600060208201905081810360008301526153f6816153ba565b905091905056fea2646970667358221220b1ce8ef2f5676838380eba1b38c20b40a77c478cec8dcd93dad5a039a0cc51eb64736f6c6343000809003368747470733a2f2f626f68656d69616e2e6d7970696e6174612e636c6f75642f697066732f516d5633584b743264436e5878463261777944313247794331313774664c6779417a6e44724d7a324747383746592f",
  "immutableReferences": {},
  "source": "// SPDX-License-Identifier: MIT\r\npragma solidity >=0.7.0 <0.9.0;\r\n\r\nimport \"@openzeppelin/contracts/token/ERC721/extensions/ERC721Enumerable.sol\";\r\nimport \"@openzeppelin/contracts/access/Ownable.sol\";\r\n\r\ncontract FinalTest is ERC721Enumerable, Ownable {    //creamos una clase llamada Bohemian y herdamos de ERC721Enumerable y de Ownable todos sus metodos \r\n    using Address for address;\r\n    \r\n    // Starting and stopping sale, presale and whitelist\r\n    bool public saleActive = false;\r\n    bool public whitelistActive = false;\r\n    bool public presaleActive = false;\r\n\r\n    // Reserved for the team, customs, giveaways, collabs and so on.\r\n    uint256 public reserved = 150;\r\n\r\n    // Price of each token\r\n    uint256 public initial_price = 0.04 ether;\r\n    uint256 public price;\r\n\r\n    // Maximum limit of tokens that can ever exist\r\n    uint256 public constant MAX_SUPPLY = 10000;\r\n    uint256 public constant MAX_PRESALE_SUPPLY = 500;\r\n    uint256 public constant MAX_MINT_PER_TX = 20;\r\n\r\n    // The base link that leads to the image / video of the token\r\n     string public baseTokenURI;\r\n    string public baseExtension = \".json\";\r\n    // string public baseTokenURI = \"https://bohemian.mypinata.cloud/ipfs/QmV3XKt2dCnXxF2awyD12GyC117tfLgyAznDrMz2GG87FY/\";\r\n\r\n    // Team addresses for withdrawals\r\n    address public a1;\r\n    address public a2;\r\n    address public a3;\r\n\r\n    // List of addresses that have a number of reserved tokens for whitelist\r\n    mapping (address => uint256) public whitelistReserved;\r\n\r\n    constructor () ERC721 (\"FinalTest\", \"FNT\") {\r\n        setBaseURI(\"https://bohemian.mypinata.cloud/ipfs/QmV3XKt2dCnXxF2awyD12GyC117tfLgyAznDrMz2GG87FY/\");\r\n        price = initial_price;\r\n    }\r\n\r\n    // Override so the openzeppelin tokenURI() method will use this method to create the full tokenURI instead\r\n    function _baseURI() internal view virtual override returns (string memory) {\r\n        return baseTokenURI;\r\n    }\r\n\r\n    // See which address owns which tokens\r\n    function tokensOfOwner(address addr) public view returns(uint256[] memory) {\r\n        uint256 tokenCount = balanceOf(addr);\r\n        uint256[] memory tokensId = new uint256[](tokenCount);\r\n        for(uint256 i; i < tokenCount; i++){\r\n            tokensId[i] = tokenOfOwnerByIndex(addr, i);\r\n        }\r\n        return tokensId;\r\n    }\r\n\r\n    // Exclusive whitelist minting\r\n    function mintWhitelist(uint256 _amount) public payable {\r\n        uint256 supply = totalSupply();\r\n        uint256 reservedAmt = whitelistReserved[msg.sender];\r\n        require( whitelistActive,                   \"Whitelist isn't active\" );\r\n        require( reservedAmt > 0,                   \"No tokens reserved for your address\" );\r\n        require( _amount <= reservedAmt,            \"Can't mint more than reserved\" );\r\n        require( supply + _amount <= MAX_SUPPLY,    \"Can't mint more than max supply\" );\r\n        require( msg.value == price * _amount,      \"Wrong amount of ETH sent\" );\r\n        whitelistReserved[msg.sender] = reservedAmt - _amount;\r\n        for(uint256 i; i < _amount; i++){\r\n            _safeMint( msg.sender, supply + i );\r\n        }\r\n    }\r\n\r\n    // Presale minting\r\n    function mintPresale(uint256 _amount) public payable {\r\n        uint256 supply = totalSupply();\r\n        require( presaleActive,                             \"Sale isn't active\" );\r\n        require( _amount > 0 && _amount <= MAX_MINT_PER_TX, \"Can only mint between 1 and 20 tokens at once\" );\r\n        require( supply + _amount <= MAX_PRESALE_SUPPLY,    \"Can't mint more than max supply\" );\r\n        require( msg.value == price * _amount,              \"Wrong amount of ETH sent\" );\r\n        for(uint256 i; i < _amount; i++){\r\n            _safeMint( msg.sender, supply + i );\r\n        }\r\n    }\r\n\r\n    // Standard mint function\r\n    function mintToken(uint256 _amount) public payable {\r\n        uint256 supply = totalSupply();\r\n        require( saleActive,                                \"Sale isn't active\" );\r\n        require( _amount > 0 && _amount <= MAX_MINT_PER_TX, \"Can only mint between 1 and 10 tokens at once\" );\r\n        require( supply + _amount <= MAX_SUPPLY,            \"Can't mint more than max supply\" );\r\n        require( msg.value == price * _amount,              \"Wrong amount of ETH sent\" );\r\n        for(uint256 i; i < _amount; i++){\r\n            _safeMint( msg.sender, supply + i );\r\n        }\r\n    }\r\n\r\n    // Admin minting function to reserve tokens for the team, collabs, customs and giveaways\r\n    function mintReserved(uint256 _amount) public onlyOwner {\r\n        // Limited to a publicly set amount\r\n        require( _amount <= reserved, \"Can't reserve more than set amount\" );\r\n        reserved -= _amount;\r\n        uint256 supply = totalSupply();\r\n        for(uint256 i; i < _amount; i++){\r\n            _safeMint( msg.sender, supply + i );\r\n        }\r\n    }\r\n    \r\n    // Edit reserved whitelist spots\r\n    function editWhitelistReserved(address[] memory _a, uint256[] memory _amount) public onlyOwner {\r\n        for(uint256 i; i < _a.length; i++){\r\n            whitelistReserved[_a[i]] = _amount[i];\r\n        }\r\n    }\r\n\r\n    // Start and stop whitelist\r\n    function setWhitelistActive(bool val) public onlyOwner {\r\n        whitelistActive = val;\r\n    }\r\n\r\n    // Start and stop presale\r\n    function setPresaleActive(bool val) public onlyOwner {\r\n        presaleActive = val;\r\n    }\r\n\r\n    // Start and stop sale\r\n    function setSaleActive(bool val) public onlyOwner {\r\n        saleActive = val;\r\n    }\r\n\r\n    // Set new baseURI\r\n    function setBaseURI(string memory baseURI) public onlyOwner {\r\n       baseTokenURI  = baseURI;\r\n    }\r\n\r\n    // Set a different price in case ETH changes drastically\r\n    function setPrice(uint256 newPrice) public onlyOwner {\r\n        price = newPrice;\r\n    }\r\n\r\n    // Set team addresses\r\n    function setAddresses(address[] memory _a) public onlyOwner {\r\n        a1 = _a[0];\r\n        a2 = _a[1];\r\n        a3 = _a[2];\r\n    }\r\n\r\n    // Withdraw funds from contract for the team\r\n ///esta funcion se encarga de los pagos a los diferentes componenetas  del equipo\r\n    function withdrawTeam(uint256 amount) public payable onlyOwner {\r\n        uint256 percent = amount / 100;\r\n        require(payable(a1).send(percent * 40));\r\n        require(payable(a2).send(percent * 30));\r\n        require(payable(a3).send(percent * 30));\r\n    }\r\n}\r\n\r\n",
  "sourcePath": "C:\\digitalArt\\collectioNft\\contracts\\FinalTest.sol",
  "compiler": {
    "name": "solc",
    "version": "0.8.9+commit.e5eed63a.Emscripten.clang"
  },
  "schemaVersion": "3.4.4",
  "updatedAt": "2022-02-12T00:30:36.456Z",
  "networkType": "ethereum",
  "devdoc": {
    "kind": "dev",
    "methods": {
      "approve(address,uint256)": {
        "details": "See {IERC721-approve}."
      },
      "balanceOf(address)": {
        "details": "See {IERC721-balanceOf}."
      },
      "getApproved(uint256)": {
        "details": "See {IERC721-getApproved}."
      },
      "isApprovedForAll(address,address)": {
        "details": "See {IERC721-isApprovedForAll}."
      },
      "name()": {
        "details": "See {IERC721Metadata-name}."
      },
      "owner()": {
        "details": "Returns the address of the current owner."
      },
      "ownerOf(uint256)": {
        "details": "See {IERC721-ownerOf}."
      },
      "renounceOwnership()": {
        "details": "Leaves the contract without owner. It will not be possible to call `onlyOwner` functions anymore. Can only be called by the current owner. NOTE: Renouncing ownership will leave the contract without an owner, thereby removing any functionality that is only available to the owner."
      },
      "safeTransferFrom(address,address,uint256)": {
        "details": "See {IERC721-safeTransferFrom}."
      },
      "safeTransferFrom(address,address,uint256,bytes)": {
        "details": "See {IERC721-safeTransferFrom}."
      },
      "setApprovalForAll(address,bool)": {
        "details": "See {IERC721-setApprovalForAll}."
      },
      "supportsInterface(bytes4)": {
        "details": "See {IERC165-supportsInterface}."
      },
      "symbol()": {
        "details": "See {IERC721Metadata-symbol}."
      },
      "tokenByIndex(uint256)": {
        "details": "See {IERC721Enumerable-tokenByIndex}."
      },
      "tokenOfOwnerByIndex(address,uint256)": {
        "details": "See {IERC721Enumerable-tokenOfOwnerByIndex}."
      },
      "tokenURI(uint256)": {
        "details": "See {IERC721Metadata-tokenURI}."
      },
      "totalSupply()": {
        "details": "See {IERC721Enumerable-totalSupply}."
      },
      "transferFrom(address,address,uint256)": {
        "details": "See {IERC721-transferFrom}."
      },
      "transferOwnership(address)": {
        "details": "Transfers ownership of the contract to a new account (`newOwner`). Can only be called by the current owner."
      }
    },
    "version": 1
  },
  "userdoc": {
    "kind": "user",
    "methods": {
      "withdrawTeam(uint256)": {
        "notice": "esta funcion se encarga de los pagos a los diferentes componenetas  del equipo"
      }
    },
    "version": 1
  }
}