{
  "contractName": "MumbaiScan",
  "abi": [
    {
      "inputs": [],
      "stateMutability": "nonpayable",
      "type": "constructor"
    },
    {
      "anonymous": false,
      "inputs": [
        {
          "indexed": true,
          "internalType": "address",
          "name": "owner",
          "type": "address"
        },
        {
          "indexed": true,
          "internalType": "address",
          "name": "approved",
          "type": "address"
        },
        {
          "indexed": true,
          "internalType": "uint256",
          "name": "tokenId",
          "type": "uint256"
        }
      ],
      "name": "Approval",
      "type": "event"
    },
    {
      "anonymous": false,
      "inputs": [
        {
          "indexed": true,
          "internalType": "address",
          "name": "owner",
          "type": "address"
        },
        {
          "indexed": true,
          "internalType": "address",
          "name": "operator",
          "type": "address"
        },
        {
          "indexed": false,
          "internalType": "bool",
          "name": "approved",
          "type": "bool"
        }
      ],
      "name": "ApprovalForAll",
      "type": "event"
    },
    {
      "anonymous": false,
      "inputs": [
        {
          "indexed": true,
          "internalType": "address",
          "name": "previousOwner",
          "type": "address"
        },
        {
          "indexed": true,
          "internalType": "address",
          "name": "newOwner",
          "type": "address"
        }
      ],
      "name": "OwnershipTransferred",
      "type": "event"
    },
    {
      "anonymous": false,
      "inputs": [
        {
          "indexed": true,
          "internalType": "address",
          "name": "from",
          "type": "address"
        },
        {
          "indexed": true,
          "internalType": "address",
          "name": "to",
          "type": "address"
        },
        {
          "indexed": true,
          "internalType": "uint256",
          "name": "tokenId",
          "type": "uint256"
        }
      ],
      "name": "Transfer",
      "type": "event"
    },
    {
      "inputs": [],
      "name": "MAX_MINT_PER_TX",
      "outputs": [
        {
          "internalType": "uint256",
          "name": "",
          "type": "uint256"
        }
      ],
      "stateMutability": "view",
      "type": "function",
      "constant": true
    },
    {
      "inputs": [],
      "name": "MAX_PRESALE_SUPPLY",
      "outputs": [
        {
          "internalType": "uint256",
          "name": "",
          "type": "uint256"
        }
      ],
      "stateMutability": "view",
      "type": "function",
      "constant": true
    },
    {
      "inputs": [],
      "name": "MAX_SUPPLY",
      "outputs": [
        {
          "internalType": "uint256",
          "name": "",
          "type": "uint256"
        }
      ],
      "stateMutability": "view",
      "type": "function",
      "constant": true
    },
    {
      "inputs": [],
      "name": "a1",
      "outputs": [
        {
          "internalType": "address",
          "name": "",
          "type": "address"
        }
      ],
      "stateMutability": "view",
      "type": "function",
      "constant": true
    },
    {
      "inputs": [],
      "name": "a2",
      "outputs": [
        {
          "internalType": "address",
          "name": "",
          "type": "address"
        }
      ],
      "stateMutability": "view",
      "type": "function",
      "constant": true
    },
    {
      "inputs": [],
      "name": "a3",
      "outputs": [
        {
          "internalType": "address",
          "name": "",
          "type": "address"
        }
      ],
      "stateMutability": "view",
      "type": "function",
      "constant": true
    },
    {
      "inputs": [
        {
          "internalType": "address",
          "name": "to",
          "type": "address"
        },
        {
          "internalType": "uint256",
          "name": "tokenId",
          "type": "uint256"
        }
      ],
      "name": "approve",
      "outputs": [],
      "stateMutability": "nonpayable",
      "type": "function"
    },
    {
      "inputs": [
        {
          "internalType": "address",
          "name": "owner",
          "type": "address"
        }
      ],
      "name": "balanceOf",
      "outputs": [
        {
          "internalType": "uint256",
          "name": "",
          "type": "uint256"
        }
      ],
      "stateMutability": "view",
      "type": "function",
      "constant": true
    },
    {
      "inputs": [],
      "name": "baseExtension",
      "outputs": [
        {
          "internalType": "string",
          "name": "",
          "type": "string"
        }
      ],
      "stateMutability": "view",
      "type": "function",
      "constant": true
    },
    {
      "inputs": [],
      "name": "baseURI",
      "outputs": [
        {
          "internalType": "string",
          "name": "",
          "type": "string"
        }
      ],
      "stateMutability": "view",
      "type": "function",
      "constant": true
    },
    {
      "inputs": [
        {
          "internalType": "uint256",
          "name": "tokenId",
          "type": "uint256"
        }
      ],
      "name": "getApproved",
      "outputs": [
        {
          "internalType": "address",
          "name": "",
          "type": "address"
        }
      ],
      "stateMutability": "view",
      "type": "function",
      "constant": true
    },
    {
      "inputs": [],
      "name": "initial_price",
      "outputs": [
        {
          "internalType": "uint256",
          "name": "",
          "type": "uint256"
        }
      ],
      "stateMutability": "view",
      "type": "function",
      "constant": true
    },
    {
      "inputs": [
        {
          "internalType": "address",
          "name": "owner",
          "type": "address"
        },
        {
          "internalType": "address",
          "name": "operator",
          "type": "address"
        }
      ],
      "name": "isApprovedForAll",
      "outputs": [
        {
          "internalType": "bool",
          "name": "",
          "type": "bool"
        }
      ],
      "stateMutability": "view",
      "type": "function",
      "constant": true
    },
    {
      "inputs": [],
      "name": "name",
      "outputs": [
        {
          "internalType": "string",
          "name": "",
          "type": "string"
        }
      ],
      "stateMutability": "view",
      "type": "function",
      "constant": true
    },
    {
      "inputs": [],
      "name": "notRevealedUri",
      "outputs": [
        {
          "internalType": "string",
          "name": "",
          "type": "string"
        }
      ],
      "stateMutability": "view",
      "type": "function",
      "constant": true
    },
    {
      "inputs": [],
      "name": "owner",
      "outputs": [
        {
          "internalType": "address",
          "name": "",
          "type": "address"
        }
      ],
      "stateMutability": "view",
      "type": "function",
      "constant": true
    },
    {
      "inputs": [
        {
          "internalType": "uint256",
          "name": "tokenId",
          "type": "uint256"
        }
      ],
      "name": "ownerOf",
      "outputs": [
        {
          "internalType": "address",
          "name": "",
          "type": "address"
        }
      ],
      "stateMutability": "view",
      "type": "function",
      "constant": true
    },
    {
      "inputs": [],
      "name": "presaleActive",
      "outputs": [
        {
          "internalType": "bool",
          "name": "",
          "type": "bool"
        }
      ],
      "stateMutability": "view",
      "type": "function",
      "constant": true
    },
    {
      "inputs": [],
      "name": "price",
      "outputs": [
        {
          "internalType": "uint256",
          "name": "",
          "type": "uint256"
        }
      ],
      "stateMutability": "view",
      "type": "function",
      "constant": true
    },
    {
      "inputs": [],
      "name": "renounceOwnership",
      "outputs": [],
      "stateMutability": "nonpayable",
      "type": "function"
    },
    {
      "inputs": [],
      "name": "reserved",
      "outputs": [
        {
          "internalType": "uint256",
          "name": "",
          "type": "uint256"
        }
      ],
      "stateMutability": "view",
      "type": "function",
      "constant": true
    },
    {
      "inputs": [],
      "name": "revealed",
      "outputs": [
        {
          "internalType": "bool",
          "name": "",
          "type": "bool"
        }
      ],
      "stateMutability": "view",
      "type": "function",
      "constant": true
    },
    {
      "inputs": [
        {
          "internalType": "address",
          "name": "from",
          "type": "address"
        },
        {
          "internalType": "address",
          "name": "to",
          "type": "address"
        },
        {
          "internalType": "uint256",
          "name": "tokenId",
          "type": "uint256"
        }
      ],
      "name": "safeTransferFrom",
      "outputs": [],
      "stateMutability": "nonpayable",
      "type": "function"
    },
    {
      "inputs": [
        {
          "internalType": "address",
          "name": "from",
          "type": "address"
        },
        {
          "internalType": "address",
          "name": "to",
          "type": "address"
        },
        {
          "internalType": "uint256",
          "name": "tokenId",
          "type": "uint256"
        },
        {
          "internalType": "bytes",
          "name": "_data",
          "type": "bytes"
        }
      ],
      "name": "safeTransferFrom",
      "outputs": [],
      "stateMutability": "nonpayable",
      "type": "function"
    },
    {
      "inputs": [],
      "name": "saleActive",
      "outputs": [
        {
          "internalType": "bool",
          "name": "",
          "type": "bool"
        }
      ],
      "stateMutability": "view",
      "type": "function",
      "constant": true
    },
    {
      "inputs": [
        {
          "internalType": "address",
          "name": "operator",
          "type": "address"
        },
        {
          "internalType": "bool",
          "name": "approved",
          "type": "bool"
        }
      ],
      "name": "setApprovalForAll",
      "outputs": [],
      "stateMutability": "nonpayable",
      "type": "function"
    },
    {
      "inputs": [
        {
          "internalType": "bytes4",
          "name": "interfaceId",
          "type": "bytes4"
        }
      ],
      "name": "supportsInterface",
      "outputs": [
        {
          "internalType": "bool",
          "name": "",
          "type": "bool"
        }
      ],
      "stateMutability": "view",
      "type": "function",
      "constant": true
    },
    {
      "inputs": [],
      "name": "symbol",
      "outputs": [
        {
          "internalType": "string",
          "name": "",
          "type": "string"
        }
      ],
      "stateMutability": "view",
      "type": "function",
      "constant": true
    },
    {
      "inputs": [
        {
          "internalType": "uint256",
          "name": "index",
          "type": "uint256"
        }
      ],
      "name": "tokenByIndex",
      "outputs": [
        {
          "internalType": "uint256",
          "name": "",
          "type": "uint256"
        }
      ],
      "stateMutability": "view",
      "type": "function",
      "constant": true
    },
    {
      "inputs": [
        {
          "internalType": "address",
          "name": "owner",
          "type": "address"
        },
        {
          "internalType": "uint256",
          "name": "index",
          "type": "uint256"
        }
      ],
      "name": "tokenOfOwnerByIndex",
      "outputs": [
        {
          "internalType": "uint256",
          "name": "",
          "type": "uint256"
        }
      ],
      "stateMutability": "view",
      "type": "function",
      "constant": true
    },
    {
      "inputs": [],
      "name": "totalSupply",
      "outputs": [
        {
          "internalType": "uint256",
          "name": "",
          "type": "uint256"
        }
      ],
      "stateMutability": "view",
      "type": "function",
      "constant": true
    },
    {
      "inputs": [
        {
          "internalType": "address",
          "name": "from",
          "type": "address"
        },
        {
          "internalType": "address",
          "name": "to",
          "type": "address"
        },
        {
          "internalType": "uint256",
          "name": "tokenId",
          "type": "uint256"
        }
      ],
      "name": "transferFrom",
      "outputs": [],
      "stateMutability": "nonpayable",
      "type": "function"
    },
    {
      "inputs": [
        {
          "internalType": "address",
          "name": "newOwner",
          "type": "address"
        }
      ],
      "name": "transferOwnership",
      "outputs": [],
      "stateMutability": "nonpayable",
      "type": "function"
    },
    {
      "inputs": [],
      "name": "whitelistActive",
      "outputs": [
        {
          "internalType": "bool",
          "name": "",
          "type": "bool"
        }
      ],
      "stateMutability": "view",
      "type": "function",
      "constant": true
    },
    {
      "inputs": [
        {
          "internalType": "address",
          "name": "",
          "type": "address"
        }
      ],
      "name": "whitelistReserved",
      "outputs": [
        {
          "internalType": "uint256",
          "name": "",
          "type": "uint256"
        }
      ],
      "stateMutability": "view",
      "type": "function",
      "constant": true
    },
    {
      "inputs": [
        {
          "internalType": "address",
          "name": "addr",
          "type": "address"
        }
      ],
      "name": "tokensOfOwner",
      "outputs": [
        {
          "internalType": "uint256[]",
          "name": "",
          "type": "uint256[]"
        }
      ],
      "stateMutability": "view",
      "type": "function",
      "constant": true
    },
    {
      "inputs": [
        {
          "internalType": "uint256",
          "name": "_amount",
          "type": "uint256"
        }
      ],
      "name": "mintWhitelist",
      "outputs": [],
      "stateMutability": "payable",
      "type": "function",
      "payable": true
    },
    {
      "inputs": [
        {
          "internalType": "uint256",
          "name": "_amount",
          "type": "uint256"
        }
      ],
      "name": "mintPresale",
      "outputs": [],
      "stateMutability": "payable",
      "type": "function",
      "payable": true
    },
    {
      "inputs": [
        {
          "internalType": "uint256",
          "name": "_amount",
          "type": "uint256"
        }
      ],
      "name": "mintToken",
      "outputs": [],
      "stateMutability": "payable",
      "type": "function",
      "payable": true
    },
    {
      "inputs": [
        {
          "internalType": "address",
          "name": "_to",
          "type": "address"
        },
        {
          "internalType": "uint256",
          "name": "_amount",
          "type": "uint256"
        }
      ],
      "name": "mint",
      "outputs": [],
      "stateMutability": "payable",
      "type": "function",
      "payable": true
    },
    {
      "inputs": [
        {
          "internalType": "uint256",
          "name": "_amount",
          "type": "uint256"
        }
      ],
      "name": "mintReserved",
      "outputs": [],
      "stateMutability": "nonpayable",
      "type": "function"
    },
    {
      "inputs": [
        {
          "internalType": "address[]",
          "name": "_a",
          "type": "address[]"
        },
        {
          "internalType": "uint256[]",
          "name": "_amount",
          "type": "uint256[]"
        }
      ],
      "name": "editWhitelistReserved",
      "outputs": [],
      "stateMutability": "nonpayable",
      "type": "function"
    },
    {
      "inputs": [
        {
          "internalType": "bool",
          "name": "val",
          "type": "bool"
        }
      ],
      "name": "setWhitelistActive",
      "outputs": [],
      "stateMutability": "nonpayable",
      "type": "function"
    },
    {
      "inputs": [
        {
          "internalType": "bool",
          "name": "val",
          "type": "bool"
        }
      ],
      "name": "setPresaleActive",
      "outputs": [],
      "stateMutability": "nonpayable",
      "type": "function"
    },
    {
      "inputs": [
        {
          "internalType": "bool",
          "name": "val",
          "type": "bool"
        }
      ],
      "name": "setSaleActive",
      "outputs": [],
      "stateMutability": "nonpayable",
      "type": "function"
    },
    {
      "inputs": [
        {
          "internalType": "uint256",
          "name": "newPrice",
          "type": "uint256"
        }
      ],
      "name": "setPrice",
      "outputs": [],
      "stateMutability": "nonpayable",
      "type": "function"
    },
    {
      "inputs": [
        {
          "internalType": "address[]",
          "name": "_a",
          "type": "address[]"
        }
      ],
      "name": "setAddresses",
      "outputs": [],
      "stateMutability": "nonpayable",
      "type": "function"
    },
    {
      "inputs": [
        {
          "internalType": "uint256",
          "name": "amount",
          "type": "uint256"
        }
      ],
      "name": "withdrawTeam",
      "outputs": [],
      "stateMutability": "payable",
      "type": "function",
      "payable": true
    },
    {
      "inputs": [],
      "name": "withdraw",
      "outputs": [],
      "stateMutability": "payable",
      "type": "function",
      "payable": true
    },
    {
      "inputs": [
        {
          "internalType": "address",
          "name": "_owner",
          "type": "address"
        }
      ],
      "name": "walletOfOwner",
      "outputs": [
        {
          "internalType": "uint256[]",
          "name": "",
          "type": "uint256[]"
        }
      ],
      "stateMutability": "view",
      "type": "function",
      "constant": true
    },
    {
      "inputs": [
        {
          "internalType": "uint256",
          "name": "tokenId",
          "type": "uint256"
        }
      ],
      "name": "tokenURI",
      "outputs": [
        {
          "internalType": "string",
          "name": "",
          "type": "string"
        }
      ],
      "stateMutability": "view",
      "type": "function",
      "constant": true
    },
    {
      "inputs": [],
      "name": "reveal",
      "outputs": [],
      "stateMutability": "nonpayable",
      "type": "function"
    },
    {
      "inputs": [
        {
          "internalType": "string",
          "name": "_notRevealedURI",
          "type": "string"
        }
      ],
      "name": "setNotRevealedURI",
      "outputs": [],
      "stateMutability": "nonpayable",
      "type": "function"
    },
    {
      "inputs": [
        {
          "internalType": "string",
          "name": "_newBaseURI",
          "type": "string"
        }
      ],
      "name": "setBaseURI",
      "outputs": [],
      "stateMutability": "nonpayable",
      "type": "function"
    },
    {
      "inputs": [
        {
          "internalType": "string",
          "name": "_newBaseExtension",
          "type": "string"
        }
      ],
      "name": "setBaseExtension",
      "outputs": [],
      "stateMutability": "nonpayable",
      "type": "function"
    }
  ],
  "bytecode": "0x60806040526001600a60146101000a81548160ff0219169083151502179055506000600a60156101000a81548160ff0219169083151502179055506000600a60166101000a81548160ff0219169083151502179055506000600a60176101000a81548160ff0219169083151502179055506096600b55662bd72a24874000600c556040518060400160405280600581526020017f2e6a736f6e00000000000000000000000000000000000000000000000000000081525060149080519060200190620000cd92919062001067565b50348015620000db57600080fd5b506040518060400160405280600a81526020017f4d756d6261695363616e000000000000000000000000000000000000000000008152506040518060400160405280600381526020017f4d4253000000000000000000000000000000000000000000000000000000000081525081600090805190602001906200016092919062001067565b5080600190805190602001906200017992919062001067565b5050506200019c620001906200021260201b60201c565b6200021a60201b60201c565b620001c66040518060800160405280605481526020016200777e60549139620002e060201b60201c565b620001f06040518060800160405280605381526020016200772b605391396200038b60201b60201c565b6200020333600a6200043660201b60201c565b600c54600d81905550620018ee565b600033905090565b6000600a60009054906101000a900473ffffffffffffffffffffffffffffffffffffffff16905081600a60006101000a81548173ffffffffffffffffffffffffffffffffffffffff021916908373ffffffffffffffffffffffffffffffffffffffff1602179055508173ffffffffffffffffffffffffffffffffffffffff168173ffffffffffffffffffffffffffffffffffffffff167f8be0079c531659141344cd1fd0a4f28419497f9722a3daafe3b4186f6b6457e060405160405180910390a35050565b620002f06200021260201b60201c565b73ffffffffffffffffffffffffffffffffffffffff16620003166200061f60201b60201c565b73ffffffffffffffffffffffffffffffffffffffff16146200036f576040517f08c379a000000000000000000000000000000000000000000000000000000000815260040162000366906200141b565b60405180910390fd5b80601390805190602001906200038792919062001067565b5050565b6200039b6200021260201b60201c565b73ffffffffffffffffffffffffffffffffffffffff16620003c16200061f60201b60201c565b73ffffffffffffffffffffffffffffffffffffffff16146200041a576040517f08c379a000000000000000000000000000000000000000000000000000000000815260040162000411906200141b565b60405180910390fd5b80601290805190602001906200043292919062001067565b5050565b620004466200021260201b60201c565b73ffffffffffffffffffffffffffffffffffffffff166200046c6200061f60201b60201c565b73ffffffffffffffffffffffffffffffffffffffff1614620004c5576040517f08c379a0000000000000000000000000000000000000000000000000000000008152600401620004bc906200141b565b60405180910390fd5b6000620004d76200064960201b60201c565b9050600a60149054906101000a900460ff166200052b576040517f08c379a000000000000000000000000000000000000000000000000000000000815260040162000522906200143d565b60405180910390fd5b6000821180156200053d575060328211155b6200057f576040517f08c379a000000000000000000000000000000000000000000000000000000000815260040162000576906200134f565b60405180910390fd5b61271082826200059091906200148c565b1115620005d4576040517f08c379a0000000000000000000000000000000000000000000000000000000008152600401620005cb90620013b5565b60405180910390fd5b6000600190505b82811015620006195762000603848284620005f791906200148c565b6200065660201b60201c565b80806200061090620015fa565b915050620005db565b50505050565b6000600a60009054906101000a900473ffffffffffffffffffffffffffffffffffffffff16905090565b6000600880549050905090565b620006788282604051806020016040528060008152506200067c60201b60201c565b5050565b6200068e8383620006ea60201b60201c565b620006a36000848484620008e460201b60201c565b620006e5576040517f08c379a0000000000000000000000000000000000000000000000000000000008152600401620006dc9062001371565b60405180910390fd5b505050565b600073ffffffffffffffffffffffffffffffffffffffff168273ffffffffffffffffffffffffffffffffffffffff1614156200075d576040517f08c379a00000000000000000000000000000000000000000000000000000000081526004016200075490620013f9565b60405180910390fd5b6200076e8162000a9e60201b60201c565b15620007b1576040517f08c379a0000000000000000000000000000000000000000000000000000000008152600401620007a89062001393565b60405180910390fd5b620007c56000838362000b0a60201b60201c565b6001600360008473ffffffffffffffffffffffffffffffffffffffff1673ffffffffffffffffffffffffffffffffffffffff16815260200190815260200160002060008282546200081791906200148c565b92505081905550816002600083815260200190815260200160002060006101000a81548173ffffffffffffffffffffffffffffffffffffffff021916908373ffffffffffffffffffffffffffffffffffffffff160217905550808273ffffffffffffffffffffffffffffffffffffffff16600073ffffffffffffffffffffffffffffffffffffffff167fddf252ad1be2c89b69c2b068fc378daa952ba7f163c4a11628f55a4df523b3ef60405160405180910390a4620008e06000838362000c5160201b60201c565b5050565b6000620009128473ffffffffffffffffffffffffffffffffffffffff1662000c5660201b62002de91760201c565b1562000a91578373ffffffffffffffffffffffffffffffffffffffff1663150b7a02620009446200021260201b60201c565b8786866040518563ffffffff1660e01b8152600401620009689493929190620012fb565b602060405180830381600087803b1580156200098357600080fd5b505af1925050508015620009b757506040513d601f19601f82011682018060405250810190620009b491906200112e565b60015b62000a40573d8060008114620009ea576040519150601f19603f3d011682016040523d82523d6000602084013e620009ef565b606091505b5060008151141562000a38576040517f08c379a000000000000000000000000000000000000000000000000000000000815260040162000a2f9062001371565b60405180910390fd5b805181602001fd5b63150b7a0260e01b7bffffffffffffffffffffffffffffffffffffffffffffffffffffffff1916817bffffffffffffffffffffffffffffffffffffffffffffffffffffffff19161491505062000a96565b600190505b949350505050565b60008073ffffffffffffffffffffffffffffffffffffffff166002600084815260200190815260200160002060009054906101000a900473ffffffffffffffffffffffffffffffffffffffff1673ffffffffffffffffffffffffffffffffffffffff1614159050919050565b62000b2283838362000c7960201b62002e0c1760201c565b600073ffffffffffffffffffffffffffffffffffffffff168373ffffffffffffffffffffffffffffffffffffffff16141562000b6f5762000b698162000c7e60201b60201c565b62000bb7565b8173ffffffffffffffffffffffffffffffffffffffff168373ffffffffffffffffffffffffffffffffffffffff161462000bb65762000bb5838262000cc760201b60201c565b5b5b600073ffffffffffffffffffffffffffffffffffffffff168273ffffffffffffffffffffffffffffffffffffffff16141562000c045762000bfe8162000e4460201b60201c565b62000c4c565b8273ffffffffffffffffffffffffffffffffffffffff168273ffffffffffffffffffffffffffffffffffffffff161462000c4b5762000c4a828262000f2060201b60201c565b5b5b505050565b505050565b6000808273ffffffffffffffffffffffffffffffffffffffff163b119050919050565b505050565b6008805490506009600083815260200190815260200160002081905550600881908060018154018082558091505060019003906000526020600020016000909190919091505550565b6000600162000ce18462000fac60201b62001ab91760201c565b62000ced9190620014e9565b905060006007600084815260200190815260200160002054905081811462000dd3576000600660008673ffffffffffffffffffffffffffffffffffffffff1673ffffffffffffffffffffffffffffffffffffffff168152602001908152602001600020600084815260200190815260200160002054905080600660008773ffffffffffffffffffffffffffffffffffffffff1673ffffffffffffffffffffffffffffffffffffffff168152602001908152602001600020600084815260200190815260200160002081905550816007600083815260200190815260200160002081905550505b6007600084815260200190815260200160002060009055600660008573ffffffffffffffffffffffffffffffffffffffff1673ffffffffffffffffffffffffffffffffffffffff16815260200190815260200160002060008381526020019081526020016000206000905550505050565b6000600160088054905062000e5a9190620014e9565b905060006009600084815260200190815260200160002054905060006008838154811062000e8d5762000e8c620016d5565b5b90600052602060002001549050806008838154811062000eb25762000eb1620016d5565b5b90600052602060002001819055508160096000838152602001908152602001600020819055506009600085815260200190815260200160002060009055600880548062000f045762000f03620016a6565b5b6001900381819060005260206000200160009055905550505050565b600062000f388362000fac60201b62001ab91760201c565b905081600660008573ffffffffffffffffffffffffffffffffffffffff1673ffffffffffffffffffffffffffffffffffffffff168152602001908152602001600020600083815260200190815260200160002081905550806007600084815260200190815260200160002081905550505050565b60008073ffffffffffffffffffffffffffffffffffffffff168273ffffffffffffffffffffffffffffffffffffffff16141562001020576040517f08c379a00000000000000000000000000000000000000000000000000000000081526004016200101790620013d7565b60405180910390fd5b600360008373ffffffffffffffffffffffffffffffffffffffff1673ffffffffffffffffffffffffffffffffffffffff168152602001908152602001600020549050919050565b8280546200107590620015c4565b90600052602060002090601f016020900481019282620010995760008555620010e5565b82601f10620010b457805160ff1916838001178555620010e5565b82800160010185558215620010e5579182015b82811115620010e4578251825591602001919060010190620010c7565b5b509050620010f49190620010f8565b5090565b5b8082111562001113576000816000905550600101620010f9565b5090565b6000815190506200112881620018d4565b92915050565b60006020828403121562001147576200114662001704565b5b6000620011578482850162001117565b91505092915050565b6200116b8162001524565b82525050565b60006200117e826200145f565b6200118a81856200146a565b93506200119c8185602086016200158e565b620011a78162001709565b840191505092915050565b6000620011c1602c836200147b565b9150620011ce826200171a565b604082019050919050565b6000620011e86032836200147b565b9150620011f58262001769565b604082019050919050565b60006200120f601c836200147b565b91506200121c82620017b8565b602082019050919050565b600062001236601f836200147b565b91506200124382620017e1565b602082019050919050565b60006200125d602a836200147b565b91506200126a826200180a565b604082019050919050565b6000620012846020836200147b565b9150620012918262001859565b602082019050919050565b6000620012ab6020836200147b565b9150620012b88262001882565b602082019050919050565b6000620012d26011836200147b565b9150620012df82620018ab565b602082019050919050565b620012f58162001584565b82525050565b600060808201905062001312600083018762001160565b62001321602083018662001160565b620013306040830185620012ea565b818103606083015262001344818462001171565b905095945050505050565b600060208201905081810360008301526200136a81620011b2565b9050919050565b600060208201905081810360008301526200138c81620011d9565b9050919050565b60006020820190508181036000830152620013ae8162001200565b9050919050565b60006020820190508181036000830152620013d08162001227565b9050919050565b60006020820190508181036000830152620013f2816200124e565b9050919050565b60006020820190508181036000830152620014148162001275565b9050919050565b6000602082019050818103600083015262001436816200129c565b9050919050565b600060208201905081810360008301526200145881620012c3565b9050919050565b600081519050919050565b600082825260208201905092915050565b600082825260208201905092915050565b6000620014998262001584565b9150620014a68362001584565b9250827fffffffffffffffffffffffffffffffffffffffffffffffffffffffffffffffff03821115620014de57620014dd62001648565b5b828201905092915050565b6000620014f68262001584565b9150620015038362001584565b92508282101562001519576200151862001648565b5b828203905092915050565b6000620015318262001564565b9050919050565b60007fffffffff0000000000000000000000000000000000000000000000000000000082169050919050565b600073ffffffffffffffffffffffffffffffffffffffff82169050919050565b6000819050919050565b60005b83811015620015ae57808201518184015260208101905062001591565b83811115620015be576000848401525b50505050565b60006002820490506001821680620015dd57607f821691505b60208210811415620015f457620015f362001677565b5b50919050565b6000620016078262001584565b91507fffffffffffffffffffffffffffffffffffffffffffffffffffffffffffffffff8214156200163d576200163c62001648565b5b600182019050919050565b7f4e487b7100000000000000000000000000000000000000000000000000000000600052601160045260246000fd5b7f4e487b7100000000000000000000000000000000000000000000000000000000600052602260045260246000fd5b7f4e487b7100000000000000000000000000000000000000000000000000000000600052603160045260246000fd5b7f4e487b7100000000000000000000000000000000000000000000000000000000600052603260045260246000fd5b600080fd5b6000601f19601f8301169050919050565b7f43616e206f6e6c79206d696e74206265747765656e203120616e64203420746f60008201527f6b656e73206174206f6e63650000000000000000000000000000000000000000602082015250565b7f4552433732313a207472616e7366657220746f206e6f6e20455243373231526560008201527f63656976657220696d706c656d656e7465720000000000000000000000000000602082015250565b7f4552433732313a20746f6b656e20616c7265616479206d696e74656400000000600082015250565b7f43616e2774206d696e74206d6f7265207468616e206d617820737570706c7900600082015250565b7f4552433732313a2062616c616e636520717565727920666f7220746865207a6560008201527f726f206164647265737300000000000000000000000000000000000000000000602082015250565b7f4552433732313a206d696e7420746f20746865207a65726f2061646472657373600082015250565b7f4f776e61626c653a2063616c6c6572206973206e6f7420746865206f776e6572600082015250565b7f53616c652069736e277420616374697665000000000000000000000000000000600082015250565b620018df8162001538565b8114620018eb57600080fd5b50565b615e2d80620018fe6000396000f3fe6080604052600436106103505760003560e01c806372e3a3eb116101c6578063b88d4fde116100f7578063e985e9c511610095578063f2fde38b1161006f578063f2fde38b14610c18578063f759867a14610c41578063fd2b049214610c5d578063fe60d12c14610c7957610350565b8063e985e9c514610b89578063f14c0bcc14610bc6578063f2c4ce1e14610bef57610350565b8063c634d032116100d1578063c634d03214610adc578063c668286214610af8578063c87b56dd14610b23578063da3ef23f14610b6057610350565b8063b88d4fde14610a61578063b957172114610a8a578063c3b754dc14610ab357610350565b806395d89b4111610164578063a035b1fe1161013e578063a035b1fe146109cb578063a22cb465146109f6578063a475b5dd14610a1f578063ab3f5a1a14610a3657610350565b806395d89b411461094c578063969e9d0c146109775780639a5d140b146109a257610350565b80638da5cb5b116101a05780638da5cb5b146108a25780638ecad721146108cd57806391b7f5ed146108f85780639426eef81461092157610350565b806372e3a3eb146107ff578063841718a61461083c5780638462151c1461086557610350565b806340c10f19116102a057806355f804b31161023e5780636b8dc355116102185780636b8dc355146107555780636c0360eb1461078057806370a08231146107ab578063715018a6146107e857610350565b806355f804b3146106c45780636352211e146106ed57806368428a1b1461072a57610350565b80634618163e1161027a5780634618163e146106155780634f6ccce714610631578063518302271461066e57806353135ca01461069957610350565b806340c10f191461059357806342842e0e146105af578063438b6300146105d857610350565b8063119552a11161030d5780632f745c59116102e75780632f745c59146104f857806332cb6b0c146105355780633ccfd60b146105605780633f8121a21461056a57610350565b8063119552a11461047957806318160ddd146104a457806323b872dd146104cf57610350565b806301ffc9a71461035557806302ce58131461039257806306fdde03146103bd578063081812fc146103e8578063081c8c4414610425578063095ea7b314610450575b600080fd5b34801561036157600080fd5b5061037c60048036038101906103779190614633565b610ca4565b6040516103899190614d7a565b60405180910390f35b34801561039e57600080fd5b506103a7610d1e565b6040516103b49190614d7a565b60405180910390f35b3480156103c957600080fd5b506103d2610d31565b6040516103df9190614d95565b60405180910390f35b3480156103f457600080fd5b5061040f600480360381019061040a91906146d6565b610dc3565b60405161041c9190614cf1565b60405180910390f35b34801561043157600080fd5b5061043a610e48565b6040516104479190614d95565b60405180910390f35b34801561045c57600080fd5b5061047760048036038101906104729190614505565b610ed6565b005b34801561048557600080fd5b5061048e610fee565b60405161049b9190614cf1565b60405180910390f35b3480156104b057600080fd5b506104b9611014565b6040516104c69190615117565b60405180910390f35b3480156104db57600080fd5b506104f660048036038101906104f191906143ef565b611021565b005b34801561050457600080fd5b5061051f600480360381019061051a9190614505565b611081565b60405161052c9190615117565b60405180910390f35b34801561054157600080fd5b5061054a611126565b6040516105579190615117565b60405180910390f35b61056861112c565b005b34801561057657600080fd5b50610591600480360381019061058c9190614606565b6112cb565b005b6105ad60048036038101906105a89190614505565b611364565b005b3480156105bb57600080fd5b506105d660048036038101906105d191906143ef565b611518565b005b3480156105e457600080fd5b506105ff60048036038101906105fa9190614382565b611538565b60405161060c9190614d58565b60405180910390f35b61062f600480360381019061062a91906146d6565b6115e6565b005b34801561063d57600080fd5b50610658600480360381019061065391906146d6565b611833565b6040516106659190615117565b60405180910390f35b34801561067a57600080fd5b506106836118a4565b6040516106909190614d7a565b60405180910390f35b3480156106a557600080fd5b506106ae6118b7565b6040516106bb9190614d7a565b60405180910390f35b3480156106d057600080fd5b506106eb60048036038101906106e6919061468d565b6118ca565b005b3480156106f957600080fd5b50610714600480360381019061070f91906146d6565b611960565b6040516107219190614cf1565b60405180910390f35b34801561073657600080fd5b5061073f611a12565b60405161074c9190614d7a565b60405180910390f35b34801561076157600080fd5b5061076a611a25565b6040516107779190615117565b60405180910390f35b34801561078c57600080fd5b50610795611a2b565b6040516107a29190614d95565b60405180910390f35b3480156107b757600080fd5b506107d260048036038101906107cd9190614382565b611ab9565b6040516107df9190615117565b60405180910390f35b3480156107f457600080fd5b506107fd611b71565b005b34801561080b57600080fd5b5061082660048036038101906108219190614382565b611bf9565b6040516108339190615117565b60405180910390f35b34801561084857600080fd5b50610863600480360381019061085e9190614606565b611c11565b005b34801561087157600080fd5b5061088c60048036038101906108879190614382565b611caa565b6040516108999190614d58565b60405180910390f35b3480156108ae57600080fd5b506108b7611d58565b6040516108c49190614cf1565b60405180910390f35b3480156108d957600080fd5b506108e2611d82565b6040516108ef9190615117565b60405180910390f35b34801561090457600080fd5b5061091f600480360381019061091a91906146d6565b611d87565b005b34801561092d57600080fd5b50610936611e0d565b6040516109439190614cf1565b60405180910390f35b34801561095857600080fd5b50610961611e33565b60405161096e9190614d95565b60405180910390f35b34801561098357600080fd5b5061098c611ec5565b6040516109999190614cf1565b60405180910390f35b3480156109ae57600080fd5b506109c960048036038101906109c491906146d6565b611eeb565b005b3480156109d757600080fd5b506109e0612008565b6040516109ed9190615117565b60405180910390f35b348015610a0257600080fd5b50610a1d6004803603810190610a1891906144c5565b61200e565b005b348015610a2b57600080fd5b50610a34612024565b005b348015610a4257600080fd5b50610a4b6120bd565b604051610a589190615117565b60405180910390f35b348015610a6d57600080fd5b50610a886004803603810190610a839190614442565b6120c3565b005b348015610a9657600080fd5b50610ab16004803603810190610aac9190614545565b612125565b005b348015610abf57600080fd5b50610ada6004803603810190610ad59190614606565b6122b8565b005b610af66004803603810190610af191906146d6565b612351565b005b348015610b0457600080fd5b50610b0d6124d4565b604051610b1a9190614d95565b60405180910390f35b348015610b2f57600080fd5b50610b4a6004803603810190610b4591906146d6565b612562565b604051610b579190614d95565b60405180910390f35b348015610b6c57600080fd5b50610b876004803603810190610b82919061468d565b6126bb565b005b348015610b9557600080fd5b50610bb06004803603810190610bab91906143af565b612751565b604051610bbd9190614d7a565b60405180910390f35b348015610bd257600080fd5b50610bed6004803603810190610be8919061458e565b6127e5565b005b348015610bfb57600080fd5b50610c166004803603810190610c11919061468d565b6128fd565b005b348015610c2457600080fd5b50610c3f6004803603810190610c3a9190614382565b612993565b005b610c5b6004803603810190610c5691906146d6565b612a8b565b005b610c776004803603810190610c7291906146d6565b612c0e565b005b348015610c8557600080fd5b50610c8e612de3565b604051610c9b9190615117565b60405180910390f35b60007f780e9d63000000000000000000000000000000000000000000000000000000007bffffffffffffffffffffffffffffffffffffffffffffffffffffffff1916827bffffffffffffffffffffffffffffffffffffffffffffffffffffffff19161480610d175750610d1682612e11565b5b9050919050565b600a60159054906101000a900460ff1681565b606060008054610d4090615478565b80601f0160208091040260200160405190810160405280929190818152602001828054610d6c90615478565b8015610db95780601f10610d8e57610100808354040283529160200191610db9565b820191906000526020600020905b815481529060010190602001808311610d9c57829003601f168201915b5050505050905090565b6000610dce82612ef3565b610e0d576040517f08c379a0000000000000000000000000000000000000000000000000000000008152600401610e0490615017565b60405180910390fd5b6004600083815260200190815260200160002060009054906101000a900473ffffffffffffffffffffffffffffffffffffffff169050919050565b60128054610e5590615478565b80601f0160208091040260200160405190810160405280929190818152602001828054610e8190615478565b8015610ece5780601f10610ea357610100808354040283529160200191610ece565b820191906000526020600020905b815481529060010190602001808311610eb157829003601f168201915b505050505081565b6000610ee182611960565b90508073ffffffffffffffffffffffffffffffffffffffff168373ffffffffffffffffffffffffffffffffffffffff161415610f52576040517f08c379a0000000000000000000000000000000000000000000000000000000008152600401610f4990615097565b60405180910390fd5b8073ffffffffffffffffffffffffffffffffffffffff16610f71612f5f565b73ffffffffffffffffffffffffffffffffffffffff161480610fa05750610f9f81610f9a612f5f565b612751565b5b610fdf576040517f08c379a0000000000000000000000000000000000000000000000000000000008152600401610fd690614f57565b60405180910390fd5b610fe98383612f67565b505050565b600e60009054906101000a900473ffffffffffffffffffffffffffffffffffffffff1681565b6000600880549050905090565b61103261102c612f5f565b82613020565b611071576040517f08c379a0000000000000000000000000000000000000000000000000000000008152600401611068906150b7565b60405180910390fd5b61107c8383836130fe565b505050565b600061108c83611ab9565b82106110cd576040517f08c379a00000000000000000000000000000000000000000000000000000000081526004016110c490614df7565b60405180910390fd5b600660008473ffffffffffffffffffffffffffffffffffffffff1673ffffffffffffffffffffffffffffffffffffffff168152602001908152602001600020600083815260200190815260200160002054905092915050565b61271081565b611134612f5f565b73ffffffffffffffffffffffffffffffffffffffff16611152611d58565b73ffffffffffffffffffffffffffffffffffffffff16146111a8576040517f08c379a000000000000000000000000000000000000000000000000000000000815260040161119f90615037565b60405180910390fd5b600073d0a7f7829aa9166812a36ace2188874e29b21d0773ffffffffffffffffffffffffffffffffffffffff1660646005476111e49190615334565b6111ee9190615303565b6040516111fa90614cdc565b60006040518083038185875af1925050503d8060008114611237576040519150601f19603f3d011682016040523d82523d6000602084013e61123c565b606091505b505090508061124a57600080fd5b6000611254611d58565b73ffffffffffffffffffffffffffffffffffffffff164760405161127790614cdc565b60006040518083038185875af1925050503d80600081146112b4576040519150601f19603f3d011682016040523d82523d6000602084013e6112b9565b606091505b50509050806112c757600080fd5b5050565b6112d3612f5f565b73ffffffffffffffffffffffffffffffffffffffff166112f1611d58565b73ffffffffffffffffffffffffffffffffffffffff1614611347576040517f08c379a000000000000000000000000000000000000000000000000000000000815260040161133e90615037565b60405180910390fd5b80600a60166101000a81548160ff02191690831515021790555050565b61136c612f5f565b73ffffffffffffffffffffffffffffffffffffffff1661138a611d58565b73ffffffffffffffffffffffffffffffffffffffff16146113e0576040517f08c379a00000000000000000000000000000000000000000000000000000000081526004016113d790615037565b60405180910390fd5b60006113ea611014565b9050600a60149054906101000a900460ff1661143b576040517f08c379a000000000000000000000000000000000000000000000000000000000815260040161143290615077565b60405180910390fd5b60008211801561144c575060328211155b61148b576040517f08c379a000000000000000000000000000000000000000000000000000000000815260040161148290614e17565b60405180910390fd5b612710828261149a91906152ad565b11156114db576040517f08c379a00000000000000000000000000000000000000000000000000000000081526004016114d290614eb7565b60405180910390fd5b6000600190505b82811015611512576114ff8482846114fa91906152ad565b613365565b808061150a906154db565b9150506114e2565b50505050565b611533838383604051806020016040528060008152506120c3565b505050565b6060600061154583611ab9565b905060008167ffffffffffffffff81111561156357611562615640565b5b6040519080825280602002602001820160405280156115915781602001602082028036833780820191505090505b50905060005b828110156115db576115a98582611081565b8282815181106115bc576115bb615611565b5b60200260200101818152505080806115d3906154db565b915050611597565b508092505050919050565b60006115f0611014565b90506000601160003373ffffffffffffffffffffffffffffffffffffffff1673ffffffffffffffffffffffffffffffffffffffff168152602001908152602001600020549050600a60159054906101000a900460ff16611685576040517f08c379a000000000000000000000000000000000000000000000000000000000815260040161167c90614fb7565b60405180910390fd5b600081116116c8576040517f08c379a00000000000000000000000000000000000000000000000000000000081526004016116bf90614f37565b60405180910390fd5b8083111561170b576040517f08c379a000000000000000000000000000000000000000000000000000000000815260040161170290614db7565b60405180910390fd5b612710838361171a91906152ad565b111561175b576040517f08c379a000000000000000000000000000000000000000000000000000000000815260040161175290614eb7565b60405180910390fd5b82600d546117699190615334565b3410156117ab576040517f08c379a00000000000000000000000000000000000000000000000000000000081526004016117a2906150f7565b60405180910390fd5b82816117b7919061538e565b601160003373ffffffffffffffffffffffffffffffffffffffff1673ffffffffffffffffffffffffffffffffffffffff1681526020019081526020016000208190555060005b8381101561182d5761181a33828561181591906152ad565b613365565b8080611825906154db565b9150506117fd565b50505050565b600061183d611014565b821061187e576040517f08c379a0000000000000000000000000000000000000000000000000000000008152600401611875906150d7565b60405180910390fd5b6008828154811061189257611891615611565b5b90600052602060002001549050919050565b600a60179054906101000a900460ff1681565b600a60169054906101000a900460ff1681565b6118d2612f5f565b73ffffffffffffffffffffffffffffffffffffffff166118f0611d58565b73ffffffffffffffffffffffffffffffffffffffff1614611946576040517f08c379a000000000000000000000000000000000000000000000000000000000815260040161193d90615037565b60405180910390fd5b806013908051906020019061195c92919061405a565b5050565b6000806002600084815260200190815260200160002060009054906101000a900473ffffffffffffffffffffffffffffffffffffffff169050600073ffffffffffffffffffffffffffffffffffffffff168173ffffffffffffffffffffffffffffffffffffffff161415611a09576040517f08c379a0000000000000000000000000000000000000000000000000000000008152600401611a0090614f97565b60405180910390fd5b80915050919050565b600a60149054906101000a900460ff1681565b6101f481565b60138054611a3890615478565b80601f0160208091040260200160405190810160405280929190818152602001828054611a6490615478565b8015611ab15780601f10611a8657610100808354040283529160200191611ab1565b820191906000526020600020905b815481529060010190602001808311611a9457829003601f168201915b505050505081565b60008073ffffffffffffffffffffffffffffffffffffffff168273ffffffffffffffffffffffffffffffffffffffff161415611b2a576040517f08c379a0000000000000000000000000000000000000000000000000000000008152600401611b2190614f77565b60405180910390fd5b600360008373ffffffffffffffffffffffffffffffffffffffff1673ffffffffffffffffffffffffffffffffffffffff168152602001908152602001600020549050919050565b611b79612f5f565b73ffffffffffffffffffffffffffffffffffffffff16611b97611d58565b73ffffffffffffffffffffffffffffffffffffffff1614611bed576040517f08c379a0000000000000000000000000000000000000000000000000000000008152600401611be490615037565b60405180910390fd5b611bf76000613383565b565b60116020528060005260406000206000915090505481565b611c19612f5f565b73ffffffffffffffffffffffffffffffffffffffff16611c37611d58565b73ffffffffffffffffffffffffffffffffffffffff1614611c8d576040517f08c379a0000000000000000000000000000000000000000000000000000000008152600401611c8490615037565b60405180910390fd5b80600a60146101000a81548160ff02191690831515021790555050565b60606000611cb783611ab9565b905060008167ffffffffffffffff811115611cd557611cd4615640565b5b604051908082528060200260200182016040528015611d035781602001602082028036833780820191505090505b50905060005b82811015611d4d57611d1b8582611081565b828281518110611d2e57611d2d615611565b5b6020026020010181815250508080611d45906154db565b915050611d09565b508092505050919050565b6000600a60009054906101000a900473ffffffffffffffffffffffffffffffffffffffff16905090565b603281565b611d8f612f5f565b73ffffffffffffffffffffffffffffffffffffffff16611dad611d58565b73ffffffffffffffffffffffffffffffffffffffff1614611e03576040517f08c379a0000000000000000000000000000000000000000000000000000000008152600401611dfa90615037565b60405180910390fd5b80600d8190555050565b601060009054906101000a900473ffffffffffffffffffffffffffffffffffffffff1681565b606060018054611e4290615478565b80601f0160208091040260200160405190810160405280929190818152602001828054611e6e90615478565b8015611ebb5780601f10611e9057610100808354040283529160200191611ebb565b820191906000526020600020905b815481529060010190602001808311611e9e57829003601f168201915b5050505050905090565b600f60009054906101000a900473ffffffffffffffffffffffffffffffffffffffff1681565b611ef3612f5f565b73ffffffffffffffffffffffffffffffffffffffff16611f11611d58565b73ffffffffffffffffffffffffffffffffffffffff1614611f67576040517f08c379a0000000000000000000000000000000000000000000000000000000008152600401611f5e90615037565b60405180910390fd5b600b54811115611fac576040517f08c379a0000000000000000000000000000000000000000000000000000000008152600401611fa390614ff7565b60405180910390fd5b80600b6000828254611fbe919061538e565b925050819055506000611fcf611014565b905060005b82811161200357611ff0338284611feb91906152ad565b613365565b8080611ffb906154db565b915050611fd4565b505050565b600d5481565b612020612019612f5f565b8383613449565b5050565b61202c612f5f565b73ffffffffffffffffffffffffffffffffffffffff1661204a611d58565b73ffffffffffffffffffffffffffffffffffffffff16146120a0576040517f08c379a000000000000000000000000000000000000000000000000000000000815260040161209790615037565b60405180910390fd5b6001600a60176101000a81548160ff021916908315150217905550565b600c5481565b6120d46120ce612f5f565b83613020565b612113576040517f08c379a000000000000000000000000000000000000000000000000000000000815260040161210a906150b7565b60405180910390fd5b61211f848484846135b6565b50505050565b61212d612f5f565b73ffffffffffffffffffffffffffffffffffffffff1661214b611d58565b73ffffffffffffffffffffffffffffffffffffffff16146121a1576040517f08c379a000000000000000000000000000000000000000000000000000000000815260040161219890615037565b60405180910390fd5b806000815181106121b5576121b4615611565b5b6020026020010151600e60006101000a81548173ffffffffffffffffffffffffffffffffffffffff021916908373ffffffffffffffffffffffffffffffffffffffff1602179055508060018151811061221157612210615611565b5b6020026020010151600f60006101000a81548173ffffffffffffffffffffffffffffffffffffffff021916908373ffffffffffffffffffffffffffffffffffffffff1602179055508060028151811061226d5761226c615611565b5b6020026020010151601060006101000a81548173ffffffffffffffffffffffffffffffffffffffff021916908373ffffffffffffffffffffffffffffffffffffffff16021790555050565b6122c0612f5f565b73ffffffffffffffffffffffffffffffffffffffff166122de611d58565b73ffffffffffffffffffffffffffffffffffffffff1614612334576040517f08c379a000000000000000000000000000000000000000000000000000000000815260040161232b90615037565b60405180910390fd5b80600a60156101000a81548160ff02191690831515021790555050565b600061235b611014565b9050600a60149054906101000a900460ff166123ac576040517f08c379a00000000000000000000000000000000000000000000000000000000081526004016123a390615077565b60405180910390fd5b6000821180156123bd575060328211155b6123fc576040517f08c379a00000000000000000000000000000000000000000000000000000000081526004016123f390614e17565b60405180910390fd5b612710828261240b91906152ad565b111561244c576040517f08c379a000000000000000000000000000000000000000000000000000000000815260040161244390614eb7565b60405180910390fd5b81600d5461245a9190615334565b34101561249c576040517f08c379a0000000000000000000000000000000000000000000000000000000008152600401612493906150f7565b60405180910390fd5b60005b828110156124cf576124bc3382846124b791906152ad565b613365565b80806124c7906154db565b91505061249f565b505050565b601480546124e190615478565b80601f016020809104026020016040519081016040528092919081815260200182805461250d90615478565b801561255a5780601f1061252f5761010080835404028352916020019161255a565b820191906000526020600020905b81548152906001019060200180831161253d57829003601f168201915b505050505081565b606061256d82612ef3565b6125ac576040517f08c379a00000000000000000000000000000000000000000000000000000000081526004016125a390615057565b60405180910390fd5b60001515600a60179054906101000a900460ff161515141561265a57601280546125d590615478565b80601f016020809104026020016040519081016040528092919081815260200182805461260190615478565b801561264e5780601f106126235761010080835404028352916020019161264e565b820191906000526020600020905b81548152906001019060200180831161263157829003601f168201915b505050505090506126b6565b6000612664613612565b9050600081511161268457604051806020016040528060008152506126b2565b8061268e846136a4565b60146040516020016126a293929190614cab565b6040516020818303038152906040525b9150505b919050565b6126c3612f5f565b73ffffffffffffffffffffffffffffffffffffffff166126e1611d58565b73ffffffffffffffffffffffffffffffffffffffff1614612737576040517f08c379a000000000000000000000000000000000000000000000000000000000815260040161272e90615037565b60405180910390fd5b806014908051906020019061274d92919061405a565b5050565b6000600560008473ffffffffffffffffffffffffffffffffffffffff1673ffffffffffffffffffffffffffffffffffffffff16815260200190815260200160002060008373ffffffffffffffffffffffffffffffffffffffff1673ffffffffffffffffffffffffffffffffffffffff16815260200190815260200160002060009054906101000a900460ff16905092915050565b6127ed612f5f565b73ffffffffffffffffffffffffffffffffffffffff1661280b611d58565b73ffffffffffffffffffffffffffffffffffffffff1614612861576040517f08c379a000000000000000000000000000000000000000000000000000000000815260040161285890615037565b60405180910390fd5b60005b82518110156128f8578181815181106128805761287f615611565b5b60200260200101516011600085848151811061289f5761289e615611565b5b602002602001015173ffffffffffffffffffffffffffffffffffffffff1673ffffffffffffffffffffffffffffffffffffffff1681526020019081526020016000208190555080806128f0906154db565b915050612864565b505050565b612905612f5f565b73ffffffffffffffffffffffffffffffffffffffff16612923611d58565b73ffffffffffffffffffffffffffffffffffffffff1614612979576040517f08c379a000000000000000000000000000000000000000000000000000000000815260040161297090615037565b60405180910390fd5b806012908051906020019061298f92919061405a565b5050565b61299b612f5f565b73ffffffffffffffffffffffffffffffffffffffff166129b9611d58565b73ffffffffffffffffffffffffffffffffffffffff1614612a0f576040517f08c379a0000000000000000000000000000000000000000000000000000000008152600401612a0690615037565b60405180910390fd5b600073ffffffffffffffffffffffffffffffffffffffff168173ffffffffffffffffffffffffffffffffffffffff161415612a7f576040517f08c379a0000000000000000000000000000000000000000000000000000000008152600401612a7690614e57565b60405180910390fd5b612a8881613383565b50565b6000612a95611014565b9050600a60169054906101000a900460ff16612ae6576040517f08c379a0000000000000000000000000000000000000000000000000000000008152600401612add90615077565b60405180910390fd5b600082118015612af7575060328211155b612b36576040517f08c379a0000000000000000000000000000000000000000000000000000000008152600401612b2d90614dd7565b60405180910390fd5b6101f48282612b4591906152ad565b1115612b86576040517f08c379a0000000000000000000000000000000000000000000000000000000008152600401612b7d90614eb7565b60405180910390fd5b81600d54612b949190615334565b341015612bd6576040517f08c379a0000000000000000000000000000000000000000000000000000000008152600401612bcd906150f7565b60405180910390fd5b60005b82811015612c0957612bf6338284612bf191906152ad565b613365565b8080612c01906154db565b915050612bd9565b505050565b612c16612f5f565b73ffffffffffffffffffffffffffffffffffffffff16612c34611d58565b73ffffffffffffffffffffffffffffffffffffffff1614612c8a576040517f08c379a0000000000000000000000000000000000000000000000000000000008152600401612c8190615037565b60405180910390fd5b6000606482612c999190615303565b9050600e60009054906101000a900473ffffffffffffffffffffffffffffffffffffffff1673ffffffffffffffffffffffffffffffffffffffff166108fc602883612ce49190615334565b9081150290604051600060405180830381858888f19350505050612d0757600080fd5b600f60009054906101000a900473ffffffffffffffffffffffffffffffffffffffff1673ffffffffffffffffffffffffffffffffffffffff166108fc601e83612d509190615334565b9081150290604051600060405180830381858888f19350505050612d7357600080fd5b601060009054906101000a900473ffffffffffffffffffffffffffffffffffffffff1673ffffffffffffffffffffffffffffffffffffffff166108fc601e83612dbc9190615334565b9081150290604051600060405180830381858888f19350505050612ddf57600080fd5b5050565b600b5481565b6000808273ffffffffffffffffffffffffffffffffffffffff163b119050919050565b505050565b60007f80ac58cd000000000000000000000000000000000000000000000000000000007bffffffffffffffffffffffffffffffffffffffffffffffffffffffff1916827bffffffffffffffffffffffffffffffffffffffffffffffffffffffff19161480612edc57507f5b5e139f000000000000000000000000000000000000000000000000000000007bffffffffffffffffffffffffffffffffffffffffffffffffffffffff1916827bffffffffffffffffffffffffffffffffffffffffffffffffffffffff1916145b80612eec5750612eeb82613805565b5b9050919050565b60008073ffffffffffffffffffffffffffffffffffffffff166002600084815260200190815260200160002060009054906101000a900473ffffffffffffffffffffffffffffffffffffffff1673ffffffffffffffffffffffffffffffffffffffff1614159050919050565b600033905090565b816004600083815260200190815260200160002060006101000a81548173ffffffffffffffffffffffffffffffffffffffff021916908373ffffffffffffffffffffffffffffffffffffffff160217905550808273ffffffffffffffffffffffffffffffffffffffff16612fda83611960565b73ffffffffffffffffffffffffffffffffffffffff167f8c5be1e5ebec7d5bd14f71427d1e84f3dd0314c0f7b2291e5b200ac8c7c3b92560405160405180910390a45050565b600061302b82612ef3565b61306a576040517f08c379a000000000000000000000000000000000000000000000000000000000815260040161306190614f17565b60405180910390fd5b600061307583611960565b90508073ffffffffffffffffffffffffffffffffffffffff168473ffffffffffffffffffffffffffffffffffffffff1614806130e457508373ffffffffffffffffffffffffffffffffffffffff166130cc84610dc3565b73ffffffffffffffffffffffffffffffffffffffff16145b806130f557506130f48185612751565b5b91505092915050565b8273ffffffffffffffffffffffffffffffffffffffff1661311e82611960565b73ffffffffffffffffffffffffffffffffffffffff1614613174576040517f08c379a000000000000000000000000000000000000000000000000000000000815260040161316b90614e77565b60405180910390fd5b600073ffffffffffffffffffffffffffffffffffffffff168273ffffffffffffffffffffffffffffffffffffffff1614156131e4576040517f08c379a00000000000000000000000000000000000000000000000000000000081526004016131db90614ed7565b60405180910390fd5b6131ef83838361386f565b6131fa600082612f67565b6001600360008573ffffffffffffffffffffffffffffffffffffffff1673ffffffffffffffffffffffffffffffffffffffff168152602001908152602001600020600082825461324a919061538e565b925050819055506001600360008473ffffffffffffffffffffffffffffffffffffffff1673ffffffffffffffffffffffffffffffffffffffff16815260200190815260200160002060008282546132a191906152ad565b92505081905550816002600083815260200190815260200160002060006101000a81548173ffffffffffffffffffffffffffffffffffffffff021916908373ffffffffffffffffffffffffffffffffffffffff160217905550808273ffffffffffffffffffffffffffffffffffffffff168473ffffffffffffffffffffffffffffffffffffffff167fddf252ad1be2c89b69c2b068fc378daa952ba7f163c4a11628f55a4df523b3ef60405160405180910390a4613360838383613983565b505050565b61337f828260405180602001604052806000815250613988565b5050565b6000600a60009054906101000a900473ffffffffffffffffffffffffffffffffffffffff16905081600a60006101000a81548173ffffffffffffffffffffffffffffffffffffffff021916908373ffffffffffffffffffffffffffffffffffffffff1602179055508173ffffffffffffffffffffffffffffffffffffffff168173ffffffffffffffffffffffffffffffffffffffff167f8be0079c531659141344cd1fd0a4f28419497f9722a3daafe3b4186f6b6457e060405160405180910390a35050565b8173ffffffffffffffffffffffffffffffffffffffff168373ffffffffffffffffffffffffffffffffffffffff1614156134b8576040517f08c379a00000000000000000000000000000000000000000000000000000000081526004016134af90614ef7565b60405180910390fd5b80600560008573ffffffffffffffffffffffffffffffffffffffff1673ffffffffffffffffffffffffffffffffffffffff16815260200190815260200160002060008473ffffffffffffffffffffffffffffffffffffffff1673ffffffffffffffffffffffffffffffffffffffff16815260200190815260200160002060006101000a81548160ff0219169083151502179055508173ffffffffffffffffffffffffffffffffffffffff168373ffffffffffffffffffffffffffffffffffffffff167f17307eab39ab6107e8899845ad3d59bd9653f200f220920489ca2b5937696c31836040516135a99190614d7a565b60405180910390a3505050565b6135c18484846130fe565b6135cd848484846139e3565b61360c576040517f08c379a000000000000000000000000000000000000000000000000000000000815260040161360390614e37565b60405180910390fd5b50505050565b60606013805461362190615478565b80601f016020809104026020016040519081016040528092919081815260200182805461364d90615478565b801561369a5780601f1061366f5761010080835404028352916020019161369a565b820191906000526020600020905b81548152906001019060200180831161367d57829003601f168201915b5050505050905090565b606060008214156136ec576040518060400160405280600181526020017f30000000000000000000000000000000000000000000000000000000000000008152509050613800565b600082905060005b6000821461371e578080613707906154db565b915050600a826137179190615303565b91506136f4565b60008167ffffffffffffffff81111561373a57613739615640565b5b6040519080825280601f01601f19166020018201604052801561376c5781602001600182028036833780820191505090505b5090505b600085146137f957600182613785919061538e565b9150600a856137949190615524565b60306137a091906152ad565b60f81b8183815181106137b6576137b5615611565b5b60200101907effffffffffffffffffffffffffffffffffffffffffffffffffffffffffffff1916908160001a905350600a856137f29190615303565b9450613770565b8093505050505b919050565b60007f01ffc9a7000000000000000000000000000000000000000000000000000000007bffffffffffffffffffffffffffffffffffffffffffffffffffffffff1916827bffffffffffffffffffffffffffffffffffffffffffffffffffffffff1916149050919050565b61387a838383612e0c565b600073ffffffffffffffffffffffffffffffffffffffff168373ffffffffffffffffffffffffffffffffffffffff1614156138bd576138b881613b7a565b6138fc565b8173ffffffffffffffffffffffffffffffffffffffff168373ffffffffffffffffffffffffffffffffffffffff16146138fb576138fa8382613bc3565b5b5b600073ffffffffffffffffffffffffffffffffffffffff168273ffffffffffffffffffffffffffffffffffffffff16141561393f5761393a81613d30565b61397e565b8273ffffffffffffffffffffffffffffffffffffffff168273ffffffffffffffffffffffffffffffffffffffff161461397d5761397c8282613e01565b5b5b505050565b505050565b6139928383613e80565b61399f60008484846139e3565b6139de576040517f08c379a00000000000000000000000000000000000000000000000000000000081526004016139d590614e37565b60405180910390fd5b505050565b6000613a048473ffffffffffffffffffffffffffffffffffffffff16612de9565b15613b6d578373ffffffffffffffffffffffffffffffffffffffff1663150b7a02613a2d612f5f565b8786866040518563ffffffff1660e01b8152600401613a4f9493929190614d0c565b602060405180830381600087803b158015613a6957600080fd5b505af1925050508015613a9a57506040513d601f19601f82011682018060405250810190613a979190614660565b60015b613b1d573d8060008114613aca576040519150601f19603f3d011682016040523d82523d6000602084013e613acf565b606091505b50600081511415613b15576040517f08c379a0000000000000000000000000000000000000000000000000000000008152600401613b0c90614e37565b60405180910390fd5b805181602001fd5b63150b7a0260e01b7bffffffffffffffffffffffffffffffffffffffffffffffffffffffff1916817bffffffffffffffffffffffffffffffffffffffffffffffffffffffff191614915050613b72565b600190505b949350505050565b6008805490506009600083815260200190815260200160002081905550600881908060018154018082558091505060019003906000526020600020016000909190919091505550565b60006001613bd084611ab9565b613bda919061538e565b9050600060076000848152602001908152602001600020549050818114613cbf576000600660008673ffffffffffffffffffffffffffffffffffffffff1673ffffffffffffffffffffffffffffffffffffffff168152602001908152602001600020600084815260200190815260200160002054905080600660008773ffffffffffffffffffffffffffffffffffffffff1673ffffffffffffffffffffffffffffffffffffffff168152602001908152602001600020600084815260200190815260200160002081905550816007600083815260200190815260200160002081905550505b6007600084815260200190815260200160002060009055600660008573ffffffffffffffffffffffffffffffffffffffff1673ffffffffffffffffffffffffffffffffffffffff16815260200190815260200160002060008381526020019081526020016000206000905550505050565b60006001600880549050613d44919061538e565b9050600060096000848152602001908152602001600020549050600060088381548110613d7457613d73615611565b5b906000526020600020015490508060088381548110613d9657613d95615611565b5b906000526020600020018190555081600960008381526020019081526020016000208190555060096000858152602001908152602001600020600090556008805480613de557613de46155e2565b5b6001900381819060005260206000200160009055905550505050565b6000613e0c83611ab9565b905081600660008573ffffffffffffffffffffffffffffffffffffffff1673ffffffffffffffffffffffffffffffffffffffff168152602001908152602001600020600083815260200190815260200160002081905550806007600084815260200190815260200160002081905550505050565b600073ffffffffffffffffffffffffffffffffffffffff168273ffffffffffffffffffffffffffffffffffffffff161415613ef0576040517f08c379a0000000000000000000000000000000000000000000000000000000008152600401613ee790614fd7565b60405180910390fd5b613ef981612ef3565b15613f39576040517f08c379a0000000000000000000000000000000000000000000000000000000008152600401613f3090614e97565b60405180910390fd5b613f456000838361386f565b6001600360008473ffffffffffffffffffffffffffffffffffffffff1673ffffffffffffffffffffffffffffffffffffffff1681526020019081526020016000206000828254613f9591906152ad565b92505081905550816002600083815260200190815260200160002060006101000a81548173ffffffffffffffffffffffffffffffffffffffff021916908373ffffffffffffffffffffffffffffffffffffffff160217905550808273ffffffffffffffffffffffffffffffffffffffff16600073ffffffffffffffffffffffffffffffffffffffff167fddf252ad1be2c89b69c2b068fc378daa952ba7f163c4a11628f55a4df523b3ef60405160405180910390a461405660008383613983565b5050565b82805461406690615478565b90600052602060002090601f01602090048101928261408857600085556140cf565b82601f106140a157805160ff19168380011785556140cf565b828001600101855582156140cf579182015b828111156140ce5782518255916020019190600101906140b3565b5b5090506140dc91906140e0565b5090565b5b808211156140f95760008160009055506001016140e1565b5090565b600061411061410b84615157565b615132565b9050808382526020820190508285602086028201111561413357614132615674565b5b60005b8581101561416357816141498882614261565b845260208401935060208301925050600181019050614136565b5050509392505050565b600061418061417b84615183565b615132565b905080838252602082019050828560208602820111156141a3576141a2615674565b5b60005b858110156141d357816141b9888261436d565b8452602084019350602083019250506001810190506141a6565b5050509392505050565b60006141f06141eb846151af565b615132565b90508281526020810184848401111561420c5761420b615679565b5b614217848285615436565b509392505050565b600061423261422d846151e0565b615132565b90508281526020810184848401111561424e5761424d615679565b5b614259848285615436565b509392505050565b60008135905061427081615d9b565b92915050565b600082601f83011261428b5761428a61566f565b5b813561429b8482602086016140fd565b91505092915050565b600082601f8301126142b9576142b861566f565b5b81356142c984826020860161416d565b91505092915050565b6000813590506142e181615db2565b92915050565b6000813590506142f681615dc9565b92915050565b60008151905061430b81615dc9565b92915050565b600082601f8301126143265761432561566f565b5b81356143368482602086016141dd565b91505092915050565b600082601f8301126143545761435361566f565b5b813561436484826020860161421f565b91505092915050565b60008135905061437c81615de0565b92915050565b60006020828403121561439857614397615683565b5b60006143a684828501614261565b91505092915050565b600080604083850312156143c6576143c5615683565b5b60006143d485828601614261565b92505060206143e585828601614261565b9150509250929050565b60008060006060848603121561440857614407615683565b5b600061441686828701614261565b935050602061442786828701614261565b92505060406144388682870161436d565b9150509250925092565b6000806000806080858703121561445c5761445b615683565b5b600061446a87828801614261565b945050602061447b87828801614261565b935050604061448c8782880161436d565b925050606085013567ffffffffffffffff8111156144ad576144ac61567e565b5b6144b987828801614311565b91505092959194509250565b600080604083850312156144dc576144db615683565b5b60006144ea85828601614261565b92505060206144fb858286016142d2565b9150509250929050565b6000806040838503121561451c5761451b615683565b5b600061452a85828601614261565b925050602061453b8582860161436d565b9150509250929050565b60006020828403121561455b5761455a615683565b5b600082013567ffffffffffffffff8111156145795761457861567e565b5b61458584828501614276565b91505092915050565b600080604083850312156145a5576145a4615683565b5b600083013567ffffffffffffffff8111156145c3576145c261567e565b5b6145cf85828601614276565b925050602083013567ffffffffffffffff8111156145f0576145ef61567e565b5b6145fc858286016142a4565b9150509250929050565b60006020828403121561461c5761461b615683565b5b600061462a848285016142d2565b91505092915050565b60006020828403121561464957614648615683565b5b6000614657848285016142e7565b91505092915050565b60006020828403121561467657614675615683565b5b6000614684848285016142fc565b91505092915050565b6000602082840312156146a3576146a2615683565b5b600082013567ffffffffffffffff8111156146c1576146c061567e565b5b6146cd8482850161433f565b91505092915050565b6000602082840312156146ec576146eb615683565b5b60006146fa8482850161436d565b91505092915050565b600061470f8383614c8d565b60208301905092915050565b614724816153c2565b82525050565b600061473582615236565b61473f8185615264565b935061474a83615211565b8060005b8381101561477b5781516147628882614703565b975061476d83615257565b92505060018101905061474e565b5085935050505092915050565b614791816153d4565b82525050565b60006147a282615241565b6147ac8185615275565b93506147bc818560208601615445565b6147c581615688565b840191505092915050565b60006147db8261524c565b6147e58185615291565b93506147f5818560208601615445565b6147fe81615688565b840191505092915050565b60006148148261524c565b61481e81856152a2565b935061482e818560208601615445565b80840191505092915050565b6000815461484781615478565b61485181866152a2565b9450600182166000811461486c576001811461487d576148b0565b60ff198316865281860193506148b0565b61488685615221565b60005b838110156148a857815481890152600182019150602081019050614889565b838801955050505b50505092915050565b60006148c6601d83615291565b91506148d182615699565b602082019050919050565b60006148e9602d83615291565b91506148f4826156c2565b604082019050919050565b600061490c602b83615291565b915061491782615711565b604082019050919050565b600061492f602c83615291565b915061493a82615760565b604082019050919050565b6000614952603283615291565b915061495d826157af565b604082019050919050565b6000614975602683615291565b9150614980826157fe565b604082019050919050565b6000614998602583615291565b91506149a38261584d565b604082019050919050565b60006149bb601c83615291565b91506149c68261589c565b602082019050919050565b60006149de601f83615291565b91506149e9826158c5565b602082019050919050565b6000614a01602483615291565b9150614a0c826158ee565b604082019050919050565b6000614a24601983615291565b9150614a2f8261593d565b602082019050919050565b6000614a47602c83615291565b9150614a5282615966565b604082019050919050565b6000614a6a602383615291565b9150614a75826159b5565b604082019050919050565b6000614a8d603883615291565b9150614a9882615a04565b604082019050919050565b6000614ab0602a83615291565b9150614abb82615a53565b604082019050919050565b6000614ad3602983615291565b9150614ade82615aa2565b604082019050919050565b6000614af6601683615291565b9150614b0182615af1565b602082019050919050565b6000614b19602083615291565b9150614b2482615b1a565b602082019050919050565b6000614b3c602283615291565b9150614b4782615b43565b604082019050919050565b6000614b5f602c83615291565b9150614b6a82615b92565b604082019050919050565b6000614b82602083615291565b9150614b8d82615be1565b602082019050919050565b6000614ba5602f83615291565b9150614bb082615c0a565b604082019050919050565b6000614bc8601183615291565b9150614bd382615c59565b602082019050919050565b6000614beb602183615291565b9150614bf682615c82565b604082019050919050565b6000614c0e600083615286565b9150614c1982615cd1565b600082019050919050565b6000614c31603183615291565b9150614c3c82615cd4565b604082019050919050565b6000614c54602c83615291565b9150614c5f82615d23565b604082019050919050565b6000614c77601883615291565b9150614c8282615d72565b602082019050919050565b614c968161542c565b82525050565b614ca58161542c565b82525050565b6000614cb78286614809565b9150614cc38285614809565b9150614ccf828461483a565b9150819050949350505050565b6000614ce782614c01565b9150819050919050565b6000602082019050614d06600083018461471b565b92915050565b6000608082019050614d21600083018761471b565b614d2e602083018661471b565b614d3b6040830185614c9c565b8181036060830152614d4d8184614797565b905095945050505050565b60006020820190508181036000830152614d72818461472a565b905092915050565b6000602082019050614d8f6000830184614788565b92915050565b60006020820190508181036000830152614daf81846147d0565b905092915050565b60006020820190508181036000830152614dd0816148b9565b9050919050565b60006020820190508181036000830152614df0816148dc565b9050919050565b60006020820190508181036000830152614e10816148ff565b9050919050565b60006020820190508181036000830152614e3081614922565b9050919050565b60006020820190508181036000830152614e5081614945565b9050919050565b60006020820190508181036000830152614e7081614968565b9050919050565b60006020820190508181036000830152614e908161498b565b9050919050565b60006020820190508181036000830152614eb0816149ae565b9050919050565b60006020820190508181036000830152614ed0816149d1565b9050919050565b60006020820190508181036000830152614ef0816149f4565b9050919050565b60006020820190508181036000830152614f1081614a17565b9050919050565b60006020820190508181036000830152614f3081614a3a565b9050919050565b60006020820190508181036000830152614f5081614a5d565b9050919050565b60006020820190508181036000830152614f7081614a80565b9050919050565b60006020820190508181036000830152614f9081614aa3565b9050919050565b60006020820190508181036000830152614fb081614ac6565b9050919050565b60006020820190508181036000830152614fd081614ae9565b9050919050565b60006020820190508181036000830152614ff081614b0c565b9050919050565b6000602082019050818103600083015261501081614b2f565b9050919050565b6000602082019050818103600083015261503081614b52565b9050919050565b6000602082019050818103600083015261505081614b75565b9050919050565b6000602082019050818103600083015261507081614b98565b9050919050565b6000602082019050818103600083015261509081614bbb565b9050919050565b600060208201905081810360008301526150b081614bde565b9050919050565b600060208201905081810360008301526150d081614c24565b9050919050565b600060208201905081810360008301526150f081614c47565b9050919050565b6000602082019050818103600083015261511081614c6a565b9050919050565b600060208201905061512c6000830184614c9c565b92915050565b600061513c61514d565b905061514882826154aa565b919050565b6000604051905090565b600067ffffffffffffffff82111561517257615171615640565b5b602082029050602081019050919050565b600067ffffffffffffffff82111561519e5761519d615640565b5b602082029050602081019050919050565b600067ffffffffffffffff8211156151ca576151c9615640565b5b6151d382615688565b9050602081019050919050565b600067ffffffffffffffff8211156151fb576151fa615640565b5b61520482615688565b9050602081019050919050565b6000819050602082019050919050565b60008190508160005260206000209050919050565b600081519050919050565b600081519050919050565b600081519050919050565b6000602082019050919050565b600082825260208201905092915050565b600082825260208201905092915050565b600081905092915050565b600082825260208201905092915050565b600081905092915050565b60006152b88261542c565b91506152c38361542c565b9250827fffffffffffffffffffffffffffffffffffffffffffffffffffffffffffffffff038211156152f8576152f7615555565b5b828201905092915050565b600061530e8261542c565b91506153198361542c565b92508261532957615328615584565b5b828204905092915050565b600061533f8261542c565b915061534a8361542c565b9250817fffffffffffffffffffffffffffffffffffffffffffffffffffffffffffffffff048311821515161561538357615382615555565b5b828202905092915050565b60006153998261542c565b91506153a48361542c565b9250828210156153b7576153b6615555565b5b828203905092915050565b60006153cd8261540c565b9050919050565b60008115159050919050565b60007fffffffff0000000000000000000000000000000000000000000000000000000082169050919050565b600073ffffffffffffffffffffffffffffffffffffffff82169050919050565b6000819050919050565b82818337600083830152505050565b60005b83811015615463578082015181840152602081019050615448565b83811115615472576000848401525b50505050565b6000600282049050600182168061549057607f821691505b602082108114156154a4576154a36155b3565b5b50919050565b6154b382615688565b810181811067ffffffffffffffff821117156154d2576154d1615640565b5b80604052505050565b60006154e68261542c565b91507fffffffffffffffffffffffffffffffffffffffffffffffffffffffffffffffff82141561551957615518615555565b5b600182019050919050565b600061552f8261542c565b915061553a8361542c565b92508261554a57615549615584565b5b828206905092915050565b7f4e487b7100000000000000000000000000000000000000000000000000000000600052601160045260246000fd5b7f4e487b7100000000000000000000000000000000000000000000000000000000600052601260045260246000fd5b7f4e487b7100000000000000000000000000000000000000000000000000000000600052602260045260246000fd5b7f4e487b7100000000000000000000000000000000000000000000000000000000600052603160045260246000fd5b7f4e487b7100000000000000000000000000000000000000000000000000000000600052603260045260246000fd5b7f4e487b7100000000000000000000000000000000000000000000000000000000600052604160045260246000fd5b600080fd5b600080fd5b600080fd5b600080fd5b600080fd5b6000601f19601f8301169050919050565b7f43616e2774206d696e74206d6f7265207468616e207265736572766564000000600082015250565b7f43616e206f6e6c79206d696e74206265747765656e203120616e64203230207460008201527f6f6b656e73206174206f6e636500000000000000000000000000000000000000602082015250565b7f455243373231456e756d657261626c653a206f776e657220696e646578206f7560008201527f74206f6620626f756e6473000000000000000000000000000000000000000000602082015250565b7f43616e206f6e6c79206d696e74206265747765656e203120616e64203420746f60008201527f6b656e73206174206f6e63650000000000000000000000000000000000000000602082015250565b7f4552433732313a207472616e7366657220746f206e6f6e20455243373231526560008201527f63656976657220696d706c656d656e7465720000000000000000000000000000602082015250565b7f4f776e61626c653a206e6577206f776e657220697320746865207a65726f206160008201527f6464726573730000000000000000000000000000000000000000000000000000602082015250565b7f4552433732313a207472616e736665722066726f6d20696e636f72726563742060008201527f6f776e6572000000000000000000000000000000000000000000000000000000602082015250565b7f4552433732313a20746f6b656e20616c7265616479206d696e74656400000000600082015250565b7f43616e2774206d696e74206d6f7265207468616e206d617820737570706c7900600082015250565b7f4552433732313a207472616e7366657220746f20746865207a65726f2061646460008201527f7265737300000000000000000000000000000000000000000000000000000000602082015250565b7f4552433732313a20617070726f766520746f2063616c6c657200000000000000600082015250565b7f4552433732313a206f70657261746f7220717565727920666f72206e6f6e657860008201527f697374656e7420746f6b656e0000000000000000000000000000000000000000602082015250565b7f4e6f20746f6b656e7320726573657276656420666f7220796f7572206164647260008201527f6573730000000000000000000000000000000000000000000000000000000000602082015250565b7f4552433732313a20617070726f76652063616c6c6572206973206e6f74206f7760008201527f6e6572206e6f7220617070726f76656420666f7220616c6c0000000000000000602082015250565b7f4552433732313a2062616c616e636520717565727920666f7220746865207a6560008201527f726f206164647265737300000000000000000000000000000000000000000000602082015250565b7f4552433732313a206f776e657220717565727920666f72206e6f6e657869737460008201527f656e7420746f6b656e0000000000000000000000000000000000000000000000602082015250565b7f57686974656c6973742069736e27742061637469766500000000000000000000600082015250565b7f4552433732313a206d696e7420746f20746865207a65726f2061646472657373600082015250565b7f43616e27742072657365727665206d6f7265207468616e2073657420616d6f7560008201527f6e74000000000000000000000000000000000000000000000000000000000000602082015250565b7f4552433732313a20617070726f76656420717565727920666f72206e6f6e657860008201527f697374656e7420746f6b656e0000000000000000000000000000000000000000602082015250565b7f4f776e61626c653a2063616c6c6572206973206e6f7420746865206f776e6572600082015250565b7f4552433732314d657461646174613a2055524920717565727920666f72206e6f60008201527f6e6578697374656e7420746f6b656e0000000000000000000000000000000000602082015250565b7f53616c652069736e277420616374697665000000000000000000000000000000600082015250565b7f4552433732313a20617070726f76616c20746f2063757272656e74206f776e6560008201527f7200000000000000000000000000000000000000000000000000000000000000602082015250565b50565b7f4552433732313a207472616e736665722063616c6c6572206973206e6f74206f60008201527f776e6572206e6f7220617070726f766564000000000000000000000000000000602082015250565b7f455243373231456e756d657261626c653a20676c6f62616c20696e646578206f60008201527f7574206f6620626f756e64730000000000000000000000000000000000000000602082015250565b7f57726f6e6720616d6f756e74206f66204554482073656e740000000000000000600082015250565b615da4816153c2565b8114615daf57600080fd5b50565b615dbb816153d4565b8114615dc657600080fd5b50565b615dd2816153e0565b8114615ddd57600080fd5b50565b615de98161542c565b8114615df457600080fd5b5056fea26469706673582212205b1adc3edc67d54b529e431089def2e4ac9a46f1105bfc0e3f04fdd907cf39ca64736f6c6343000807003368747470733a2f2f626f68656d69616e2e6d7970696e6174612e636c6f75642f697066732f516d65696b57524c6671504d6556396f5a566167796f56533343674c5861483172424e79657065556e6d667a644168747470733a2f2f626f68656d69616e2e6d7970696e6174612e636c6f75642f697066732f516d534d444a4136415471506276466e6d6f576a6f71444e42325759714e576a56456444484136613434786956522f",
  "immutableReferences": {},
  "source": "// SPDX-License-Identifier: GPL-3.0\r\n\r\npragma solidity >=0.7.0 <0.9.0;\r\n\r\nimport \"@openzeppelin/contracts/token/ERC721/extensions/ERC721Enumerable.sol\";\r\nimport \"@openzeppelin/contracts/access/Ownable.sol\";\r\n\r\ncontract MumbaiScan is ERC721Enumerable, Ownable {\r\n  using Strings for uint256;\r\n\r\n      // Starting and stopping sale, presale and whitelis\r\n    bool public saleActive = true;\r\n    bool public whitelistActive = false;\r\n    bool public presaleActive = false;\r\n   \r\n    //quit reveal for oficial version\r\n    bool public revealed = false;\r\n\r\n    // Reserved for the team, customs, giveaways, collabs and so on.\r\n    uint256 public reserved = 150;\r\n\r\n    // Price of each token\r\n    uint256 public initial_price = 0.01234 ether;\r\n    uint256 public price;\r\n    \r\n      // Maximum limit of tokens that can ever exist\r\n    uint256 public constant MAX_SUPPLY = 10000;\r\n    uint256 public constant MAX_PRESALE_SUPPLY = 500;\r\n    uint256 public constant MAX_MINT_PER_TX = 50;\r\n\r\n      // Team addresses for withdrawals\r\n    address public a1;\r\n    address public a2;\r\n    address public a3;\r\n\r\n\r\n    // List of addresses that have a number of reserved tokens for whitelist\r\n     mapping (address => uint256) public whitelistReserved;\r\n\r\n     string public notRevealedUri;\r\n     string public baseURI;\r\n     string public baseExtension = \".json\";\r\n\r\n  constructor(\r\n  ) ERC721(\"MumbaiScan\", \"MBS\") {\r\n     setBaseURI(\"https://bohemian.mypinata.cloud/ipfs/QmSMDJA6ATqPbvFnmoWjoqDNB2WYqNWjVEdDHA6a44xiVR/\");\r\n     setNotRevealedURI(\"https://bohemian.mypinata.cloud/ipfs/QmeikWRLfqPMeV9oZVagyoVS3CgLXaH1rBNyepeUnmfzdA\");\r\n      mint(msg.sender, 10);\r\n      price = initial_price;\r\n  }\r\n  function _baseURI() internal view virtual override returns (string memory) {\r\n    return baseURI;\r\n  }\r\n\r\n    // See which address owns which tokens\r\n       function tokensOfOwner(address addr) public view returns(uint256[] memory) {\r\n        uint256 tokenCount = balanceOf(addr);\r\n        uint256[] memory tokensId = new uint256[](tokenCount);\r\n        for(uint256 i; i < tokenCount; i++){\r\n            tokensId[i] = tokenOfOwnerByIndex(addr, i);\r\n        }\r\n        return tokensId;\r\n    }\r\n\r\n        // Exclusive whitelist minting\r\n        function mintWhitelist(uint256 _amount) public payable {\r\n        uint256 supply = totalSupply();\r\n        uint256 reservedAmt = whitelistReserved[msg.sender];\r\n        require( whitelistActive,                   \"Whitelist isn't active\" );\r\n        require( reservedAmt > 0,                   \"No tokens reserved for your address\" );\r\n        require( _amount <= reservedAmt,            \"Can't mint more than reserved\" );\r\n        require( supply + _amount <= MAX_SUPPLY,    \"Can't mint more than max supply\" );\r\n        require( msg.value >= price * _amount,      \"Wrong amount of ETH sent\" );\r\n        whitelistReserved[msg.sender] = reservedAmt - _amount;\r\n        for(uint256 i; i < _amount; i++){\r\n            _safeMint( msg.sender, supply + i );\r\n        }\r\n    }\r\n\r\n       // Presale minting\r\n     function mintPresale(uint256 _amount) public payable {\r\n        uint256 supply = totalSupply();\r\n        require( presaleActive,                             \"Sale isn't active\" );\r\n        require( _amount > 0 && _amount <= MAX_MINT_PER_TX, \"Can only mint between 1 and 20 tokens at once\" );\r\n        require( supply + _amount <= MAX_PRESALE_SUPPLY,    \"Can't mint more than max supply\" );\r\n        require( msg.value >= price * _amount,              \"Wrong amount of ETH sent\" );\r\n        for(uint256 i; i < _amount; i++){\r\n            _safeMint( msg.sender, supply + i );\r\n        }\r\n    }\r\n    \r\n           // Standard mint function\r\n     function mintToken(uint256 _amount) public payable {\r\n        uint256 supply = totalSupply();\r\n        require( saleActive,                                \"Sale isn't active\" );\r\n        require( _amount > 0 && _amount <= MAX_MINT_PER_TX, \"Can only mint between 1 and 4 tokens at once\" );\r\n        require( supply + _amount <= MAX_SUPPLY,            \"Can't mint more than max supply\" );\r\n        require( msg.value >= price * _amount,              \"Wrong amount of ETH sent\" );\r\n        for(uint256 i; i < _amount; i++){\r\n            _safeMint( msg.sender, supply + i );\r\n        }\r\n    }\r\n  function mint(address _to, uint256 _amount) public payable onlyOwner  {\r\n    uint256 supply = totalSupply();\r\n  require( saleActive,                                \"Sale isn't active\" );\r\n  require( _amount > 0 && _amount <= MAX_MINT_PER_TX, \"Can only mint between 1 and 4 tokens at once\" );\r\n  require( supply + _amount <= MAX_SUPPLY,            \"Can't mint more than max supply\" );\r\n    for (uint256 i = 1; i < _amount; i++) {\r\n      _safeMint(_to, supply + i);\r\n    }\r\n  }\r\n\r\n       // Admin minting function to reserve tokens for the team, collabs, customs and giveaways\r\n      function mintReserved(uint256 _amount) public onlyOwner {\r\n        // Limited to a publicly set amount\r\n        require( _amount <= reserved, \"Can't reserve more than set amount\" );\r\n        reserved -= _amount;\r\n        uint256 supply = totalSupply();\r\n        for(uint256 i; i <= _amount; i++){\r\n            _safeMint( msg.sender, supply + i );\r\n        }\r\n    }\r\n\r\n   // Edit reserved whitelist spots\r\n    function editWhitelistReserved(address[] memory _a, uint256[] memory _amount) public onlyOwner {\r\n        for(uint256 i; i < _a.length; i++){\r\n            whitelistReserved[_a[i]] = _amount[i];\r\n        }\r\n    }\r\n\r\n      // Start and stop whitelist\r\n    function setWhitelistActive(bool val) public onlyOwner {\r\n        whitelistActive = val;\r\n    }\r\n\r\n    // Start and stop presale\r\n    function setPresaleActive(bool val) public onlyOwner {\r\n        presaleActive = val;\r\n    }\r\n\r\n      // Start and stop sale\r\n    function setSaleActive(bool val) public onlyOwner {\r\n        saleActive = val;\r\n    }\r\n      // Set a different price in case ETH changes drastically\r\n    function setPrice(uint256 newPrice) public onlyOwner {\r\n        price = newPrice;\r\n    }\r\n\r\n      // Set team addresses\r\n    function setAddresses(address[] memory _a) public onlyOwner {\r\n        a1 = _a[0];\r\n        a2 = _a[1];\r\n        a3 = _a[2];\r\n    }\r\n\r\n    // Withdraw funds from contract for the team\r\n    function withdrawTeam(uint256 amount) public payable onlyOwner {\r\n        uint256 percent = amount / 100;\r\n        require(payable(a1).send(percent * 40));\r\n        require(payable(a2).send(percent * 30));\r\n        require(payable(a3).send(percent * 30));\r\n    }\r\n\r\n  function withdraw() public payable onlyOwner {\r\n \r\n    (bool hs, ) = payable(0xd0A7f7829aA9166812A36ace2188874E29B21d07).call{value: address(this).balance * 5 / 100}(\"\");\r\n    require(hs);\r\n    (bool os, ) = payable(owner()).call{value: address(this).balance}(\"\");\r\n    require(os);\r\n  }\r\n\r\n\r\n\r\n\r\n  function walletOfOwner(address _owner)\r\n    public\r\n    view\r\n    returns (uint256[] memory)\r\n  {\r\n    uint256 ownerTokenCount = balanceOf(_owner);\r\n    uint256[] memory tokenIds = new uint256[](ownerTokenCount);\r\n    for (uint256 i; i < ownerTokenCount; i++) {\r\n      tokenIds[i] = tokenOfOwnerByIndex(_owner, i);\r\n    }\r\n    return tokenIds;\r\n  }\r\n\r\n  function tokenURI(uint256 tokenId)\r\n    public\r\n    view\r\n    virtual\r\n    override\r\n    returns (string memory)\r\n  {\r\n    require(\r\n      _exists(tokenId),\r\n      \"ERC721Metadata: URI query for nonexistent token\"\r\n    );\r\n     if(revealed == false) {\r\n        return notRevealedUri;\r\n    }\r\n\r\n    string memory currentBaseURI = _baseURI();\r\n    return bytes(currentBaseURI).length > 0\r\n        ? string(abi.encodePacked(currentBaseURI, tokenId.toString(), baseExtension))\r\n        : \"\";\r\n  }\r\n    function reveal() public onlyOwner {\r\n      revealed = true;\r\n  }\r\nfunction setNotRevealedURI(string memory _notRevealedURI) public onlyOwner {\r\n    notRevealedUri = _notRevealedURI;\r\n  }\r\n  function setBaseURI(string memory _newBaseURI) public onlyOwner {\r\n    baseURI = _newBaseURI;\r\n  }\r\n\r\n  function setBaseExtension(string memory _newBaseExtension) public onlyOwner {\r\n    baseExtension = _newBaseExtension;\r\n  }\r\n}",
  "sourcePath": "C:\\digitalArt\\collectioNft\\contracts\\MumbaiScan.sol",
  "compiler": {
    "name": "solc",
    "version": "0.8.7+commit.e28d00a7.Emscripten.clang"
  },
  "schemaVersion": "3.4.5",
  "updatedAt": "2022-03-07T14:43:19.742Z",
  "networkType": "ethereum",
  "devdoc": {
    "kind": "dev",
    "methods": {
      "approve(address,uint256)": {
        "details": "See {IERC721-approve}."
      },
      "balanceOf(address)": {
        "details": "See {IERC721-balanceOf}."
      },
      "getApproved(uint256)": {
        "details": "See {IERC721-getApproved}."
      },
      "isApprovedForAll(address,address)": {
        "details": "See {IERC721-isApprovedForAll}."
      },
      "name()": {
        "details": "See {IERC721Metadata-name}."
      },
      "owner()": {
        "details": "Returns the address of the current owner."
      },
      "ownerOf(uint256)": {
        "details": "See {IERC721-ownerOf}."
      },
      "renounceOwnership()": {
        "details": "Leaves the contract without owner. It will not be possible to call `onlyOwner` functions anymore. Can only be called by the current owner. NOTE: Renouncing ownership will leave the contract without an owner, thereby removing any functionality that is only available to the owner."
      },
      "safeTransferFrom(address,address,uint256)": {
        "details": "See {IERC721-safeTransferFrom}."
      },
      "safeTransferFrom(address,address,uint256,bytes)": {
        "details": "See {IERC721-safeTransferFrom}."
      },
      "setApprovalForAll(address,bool)": {
        "details": "See {IERC721-setApprovalForAll}."
      },
      "supportsInterface(bytes4)": {
        "details": "See {IERC165-supportsInterface}."
      },
      "symbol()": {
        "details": "See {IERC721Metadata-symbol}."
      },
      "tokenByIndex(uint256)": {
        "details": "See {IERC721Enumerable-tokenByIndex}."
      },
      "tokenOfOwnerByIndex(address,uint256)": {
        "details": "See {IERC721Enumerable-tokenOfOwnerByIndex}."
      },
      "tokenURI(uint256)": {
        "details": "See {IERC721Metadata-tokenURI}."
      },
      "totalSupply()": {
        "details": "See {IERC721Enumerable-totalSupply}."
      },
      "transferFrom(address,address,uint256)": {
        "details": "See {IERC721-transferFrom}."
      },
      "transferOwnership(address)": {
        "details": "Transfers ownership of the contract to a new account (`newOwner`). Can only be called by the current owner."
      }
    },
    "version": 1
  },
  "userdoc": {
    "kind": "user",
    "methods": {},
    "version": 1
  }
}