{
  "contractName": "MumbaiUltimate",
  "abi": [
    {
      "inputs": [],
      "stateMutability": "nonpayable",
      "type": "constructor"
    },
    {
      "anonymous": false,
      "inputs": [
        {
          "indexed": true,
          "internalType": "address",
          "name": "owner",
          "type": "address"
        },
        {
          "indexed": true,
          "internalType": "address",
          "name": "approved",
          "type": "address"
        },
        {
          "indexed": true,
          "internalType": "uint256",
          "name": "tokenId",
          "type": "uint256"
        }
      ],
      "name": "Approval",
      "type": "event"
    },
    {
      "anonymous": false,
      "inputs": [
        {
          "indexed": true,
          "internalType": "address",
          "name": "owner",
          "type": "address"
        },
        {
          "indexed": true,
          "internalType": "address",
          "name": "operator",
          "type": "address"
        },
        {
          "indexed": false,
          "internalType": "bool",
          "name": "approved",
          "type": "bool"
        }
      ],
      "name": "ApprovalForAll",
      "type": "event"
    },
    {
      "anonymous": false,
      "inputs": [
        {
          "indexed": true,
          "internalType": "address",
          "name": "previousOwner",
          "type": "address"
        },
        {
          "indexed": true,
          "internalType": "address",
          "name": "newOwner",
          "type": "address"
        }
      ],
      "name": "OwnershipTransferred",
      "type": "event"
    },
    {
      "anonymous": false,
      "inputs": [
        {
          "indexed": true,
          "internalType": "address",
          "name": "from",
          "type": "address"
        },
        {
          "indexed": true,
          "internalType": "address",
          "name": "to",
          "type": "address"
        },
        {
          "indexed": true,
          "internalType": "uint256",
          "name": "tokenId",
          "type": "uint256"
        }
      ],
      "name": "Transfer",
      "type": "event"
    },
    {
      "inputs": [],
      "name": "MAX_MINT_PER_TX",
      "outputs": [
        {
          "internalType": "uint256",
          "name": "",
          "type": "uint256"
        }
      ],
      "stateMutability": "view",
      "type": "function",
      "constant": true
    },
    {
      "inputs": [],
      "name": "MAX_PRESALE_SUPPLY",
      "outputs": [
        {
          "internalType": "uint256",
          "name": "",
          "type": "uint256"
        }
      ],
      "stateMutability": "view",
      "type": "function",
      "constant": true
    },
    {
      "inputs": [],
      "name": "MAX_SUPPLY",
      "outputs": [
        {
          "internalType": "uint256",
          "name": "",
          "type": "uint256"
        }
      ],
      "stateMutability": "view",
      "type": "function",
      "constant": true
    },
    {
      "inputs": [],
      "name": "a1",
      "outputs": [
        {
          "internalType": "address",
          "name": "",
          "type": "address"
        }
      ],
      "stateMutability": "view",
      "type": "function",
      "constant": true
    },
    {
      "inputs": [],
      "name": "a2",
      "outputs": [
        {
          "internalType": "address",
          "name": "",
          "type": "address"
        }
      ],
      "stateMutability": "view",
      "type": "function",
      "constant": true
    },
    {
      "inputs": [],
      "name": "a3",
      "outputs": [
        {
          "internalType": "address",
          "name": "",
          "type": "address"
        }
      ],
      "stateMutability": "view",
      "type": "function",
      "constant": true
    },
    {
      "inputs": [
        {
          "internalType": "address",
          "name": "to",
          "type": "address"
        },
        {
          "internalType": "uint256",
          "name": "tokenId",
          "type": "uint256"
        }
      ],
      "name": "approve",
      "outputs": [],
      "stateMutability": "nonpayable",
      "type": "function"
    },
    {
      "inputs": [
        {
          "internalType": "address",
          "name": "owner",
          "type": "address"
        }
      ],
      "name": "balanceOf",
      "outputs": [
        {
          "internalType": "uint256",
          "name": "",
          "type": "uint256"
        }
      ],
      "stateMutability": "view",
      "type": "function",
      "constant": true
    },
    {
      "inputs": [],
      "name": "baseExtension",
      "outputs": [
        {
          "internalType": "string",
          "name": "",
          "type": "string"
        }
      ],
      "stateMutability": "view",
      "type": "function",
      "constant": true
    },
    {
      "inputs": [],
      "name": "baseURI",
      "outputs": [
        {
          "internalType": "string",
          "name": "",
          "type": "string"
        }
      ],
      "stateMutability": "view",
      "type": "function",
      "constant": true
    },
    {
      "inputs": [
        {
          "internalType": "uint256",
          "name": "tokenId",
          "type": "uint256"
        }
      ],
      "name": "getApproved",
      "outputs": [
        {
          "internalType": "address",
          "name": "",
          "type": "address"
        }
      ],
      "stateMutability": "view",
      "type": "function",
      "constant": true
    },
    {
      "inputs": [],
      "name": "initial_price",
      "outputs": [
        {
          "internalType": "uint256",
          "name": "",
          "type": "uint256"
        }
      ],
      "stateMutability": "view",
      "type": "function",
      "constant": true
    },
    {
      "inputs": [
        {
          "internalType": "address",
          "name": "owner",
          "type": "address"
        },
        {
          "internalType": "address",
          "name": "operator",
          "type": "address"
        }
      ],
      "name": "isApprovedForAll",
      "outputs": [
        {
          "internalType": "bool",
          "name": "",
          "type": "bool"
        }
      ],
      "stateMutability": "view",
      "type": "function",
      "constant": true
    },
    {
      "inputs": [],
      "name": "name",
      "outputs": [
        {
          "internalType": "string",
          "name": "",
          "type": "string"
        }
      ],
      "stateMutability": "view",
      "type": "function",
      "constant": true
    },
    {
      "inputs": [],
      "name": "notRevealedUri",
      "outputs": [
        {
          "internalType": "string",
          "name": "",
          "type": "string"
        }
      ],
      "stateMutability": "view",
      "type": "function",
      "constant": true
    },
    {
      "inputs": [],
      "name": "owner",
      "outputs": [
        {
          "internalType": "address",
          "name": "",
          "type": "address"
        }
      ],
      "stateMutability": "view",
      "type": "function",
      "constant": true
    },
    {
      "inputs": [
        {
          "internalType": "uint256",
          "name": "tokenId",
          "type": "uint256"
        }
      ],
      "name": "ownerOf",
      "outputs": [
        {
          "internalType": "address",
          "name": "",
          "type": "address"
        }
      ],
      "stateMutability": "view",
      "type": "function",
      "constant": true
    },
    {
      "inputs": [],
      "name": "presaleActive",
      "outputs": [
        {
          "internalType": "bool",
          "name": "",
          "type": "bool"
        }
      ],
      "stateMutability": "view",
      "type": "function",
      "constant": true
    },
    {
      "inputs": [],
      "name": "price",
      "outputs": [
        {
          "internalType": "uint256",
          "name": "",
          "type": "uint256"
        }
      ],
      "stateMutability": "view",
      "type": "function",
      "constant": true
    },
    {
      "inputs": [],
      "name": "renounceOwnership",
      "outputs": [],
      "stateMutability": "nonpayable",
      "type": "function"
    },
    {
      "inputs": [],
      "name": "reserved",
      "outputs": [
        {
          "internalType": "uint256",
          "name": "",
          "type": "uint256"
        }
      ],
      "stateMutability": "view",
      "type": "function",
      "constant": true
    },
    {
      "inputs": [],
      "name": "revealed",
      "outputs": [
        {
          "internalType": "bool",
          "name": "",
          "type": "bool"
        }
      ],
      "stateMutability": "view",
      "type": "function",
      "constant": true
    },
    {
      "inputs": [
        {
          "internalType": "address",
          "name": "from",
          "type": "address"
        },
        {
          "internalType": "address",
          "name": "to",
          "type": "address"
        },
        {
          "internalType": "uint256",
          "name": "tokenId",
          "type": "uint256"
        }
      ],
      "name": "safeTransferFrom",
      "outputs": [],
      "stateMutability": "nonpayable",
      "type": "function"
    },
    {
      "inputs": [
        {
          "internalType": "address",
          "name": "from",
          "type": "address"
        },
        {
          "internalType": "address",
          "name": "to",
          "type": "address"
        },
        {
          "internalType": "uint256",
          "name": "tokenId",
          "type": "uint256"
        },
        {
          "internalType": "bytes",
          "name": "_data",
          "type": "bytes"
        }
      ],
      "name": "safeTransferFrom",
      "outputs": [],
      "stateMutability": "nonpayable",
      "type": "function"
    },
    {
      "inputs": [],
      "name": "saleActive",
      "outputs": [
        {
          "internalType": "bool",
          "name": "",
          "type": "bool"
        }
      ],
      "stateMutability": "view",
      "type": "function",
      "constant": true
    },
    {
      "inputs": [
        {
          "internalType": "address",
          "name": "operator",
          "type": "address"
        },
        {
          "internalType": "bool",
          "name": "approved",
          "type": "bool"
        }
      ],
      "name": "setApprovalForAll",
      "outputs": [],
      "stateMutability": "nonpayable",
      "type": "function"
    },
    {
      "inputs": [
        {
          "internalType": "bytes4",
          "name": "interfaceId",
          "type": "bytes4"
        }
      ],
      "name": "supportsInterface",
      "outputs": [
        {
          "internalType": "bool",
          "name": "",
          "type": "bool"
        }
      ],
      "stateMutability": "view",
      "type": "function",
      "constant": true
    },
    {
      "inputs": [],
      "name": "symbol",
      "outputs": [
        {
          "internalType": "string",
          "name": "",
          "type": "string"
        }
      ],
      "stateMutability": "view",
      "type": "function",
      "constant": true
    },
    {
      "inputs": [
        {
          "internalType": "uint256",
          "name": "index",
          "type": "uint256"
        }
      ],
      "name": "tokenByIndex",
      "outputs": [
        {
          "internalType": "uint256",
          "name": "",
          "type": "uint256"
        }
      ],
      "stateMutability": "view",
      "type": "function",
      "constant": true
    },
    {
      "inputs": [
        {
          "internalType": "address",
          "name": "owner",
          "type": "address"
        },
        {
          "internalType": "uint256",
          "name": "index",
          "type": "uint256"
        }
      ],
      "name": "tokenOfOwnerByIndex",
      "outputs": [
        {
          "internalType": "uint256",
          "name": "",
          "type": "uint256"
        }
      ],
      "stateMutability": "view",
      "type": "function",
      "constant": true
    },
    {
      "inputs": [],
      "name": "totalSupply",
      "outputs": [
        {
          "internalType": "uint256",
          "name": "",
          "type": "uint256"
        }
      ],
      "stateMutability": "view",
      "type": "function",
      "constant": true
    },
    {
      "inputs": [
        {
          "internalType": "address",
          "name": "from",
          "type": "address"
        },
        {
          "internalType": "address",
          "name": "to",
          "type": "address"
        },
        {
          "internalType": "uint256",
          "name": "tokenId",
          "type": "uint256"
        }
      ],
      "name": "transferFrom",
      "outputs": [],
      "stateMutability": "nonpayable",
      "type": "function"
    },
    {
      "inputs": [
        {
          "internalType": "address",
          "name": "newOwner",
          "type": "address"
        }
      ],
      "name": "transferOwnership",
      "outputs": [],
      "stateMutability": "nonpayable",
      "type": "function"
    },
    {
      "inputs": [],
      "name": "whitelistActive",
      "outputs": [
        {
          "internalType": "bool",
          "name": "",
          "type": "bool"
        }
      ],
      "stateMutability": "view",
      "type": "function",
      "constant": true
    },
    {
      "inputs": [
        {
          "internalType": "address",
          "name": "",
          "type": "address"
        }
      ],
      "name": "whitelistReserved",
      "outputs": [
        {
          "internalType": "uint256",
          "name": "",
          "type": "uint256"
        }
      ],
      "stateMutability": "view",
      "type": "function",
      "constant": true
    },
    {
      "inputs": [
        {
          "internalType": "address",
          "name": "addr",
          "type": "address"
        }
      ],
      "name": "tokensOfOwner",
      "outputs": [
        {
          "internalType": "uint256[]",
          "name": "",
          "type": "uint256[]"
        }
      ],
      "stateMutability": "view",
      "type": "function",
      "constant": true
    },
    {
      "inputs": [
        {
          "internalType": "uint256",
          "name": "_amount",
          "type": "uint256"
        }
      ],
      "name": "mintWhitelist",
      "outputs": [],
      "stateMutability": "payable",
      "type": "function",
      "payable": true
    },
    {
      "inputs": [
        {
          "internalType": "uint256",
          "name": "_amount",
          "type": "uint256"
        }
      ],
      "name": "mintPresale",
      "outputs": [],
      "stateMutability": "payable",
      "type": "function",
      "payable": true
    },
    {
      "inputs": [
        {
          "internalType": "uint256",
          "name": "_amount",
          "type": "uint256"
        }
      ],
      "name": "mintToken",
      "outputs": [],
      "stateMutability": "payable",
      "type": "function",
      "payable": true
    },
    {
      "inputs": [
        {
          "internalType": "uint256",
          "name": "_amount",
          "type": "uint256"
        }
      ],
      "name": "mintReserved",
      "outputs": [],
      "stateMutability": "nonpayable",
      "type": "function"
    },
    {
      "inputs": [
        {
          "internalType": "address[]",
          "name": "_a",
          "type": "address[]"
        },
        {
          "internalType": "uint256[]",
          "name": "_amount",
          "type": "uint256[]"
        }
      ],
      "name": "editWhitelistReserved",
      "outputs": [],
      "stateMutability": "nonpayable",
      "type": "function"
    },
    {
      "inputs": [
        {
          "internalType": "bool",
          "name": "val",
          "type": "bool"
        }
      ],
      "name": "setWhitelistActive",
      "outputs": [],
      "stateMutability": "nonpayable",
      "type": "function"
    },
    {
      "inputs": [
        {
          "internalType": "bool",
          "name": "val",
          "type": "bool"
        }
      ],
      "name": "setPresaleActive",
      "outputs": [],
      "stateMutability": "nonpayable",
      "type": "function"
    },
    {
      "inputs": [
        {
          "internalType": "bool",
          "name": "val",
          "type": "bool"
        }
      ],
      "name": "setSaleActive",
      "outputs": [],
      "stateMutability": "nonpayable",
      "type": "function"
    },
    {
      "inputs": [
        {
          "internalType": "uint256",
          "name": "newPrice",
          "type": "uint256"
        }
      ],
      "name": "setPrice",
      "outputs": [],
      "stateMutability": "nonpayable",
      "type": "function"
    },
    {
      "inputs": [
        {
          "internalType": "address[]",
          "name": "_a",
          "type": "address[]"
        }
      ],
      "name": "setAddresses",
      "outputs": [],
      "stateMutability": "nonpayable",
      "type": "function"
    },
    {
      "inputs": [
        {
          "internalType": "uint256",
          "name": "amount",
          "type": "uint256"
        }
      ],
      "name": "withdrawTeam",
      "outputs": [],
      "stateMutability": "payable",
      "type": "function",
      "payable": true
    },
    {
      "inputs": [],
      "name": "withdraw",
      "outputs": [],
      "stateMutability": "payable",
      "type": "function",
      "payable": true
    },
    {
      "inputs": [
        {
          "internalType": "address",
          "name": "_owner",
          "type": "address"
        }
      ],
      "name": "walletOfOwner",
      "outputs": [
        {
          "internalType": "uint256[]",
          "name": "",
          "type": "uint256[]"
        }
      ],
      "stateMutability": "view",
      "type": "function",
      "constant": true
    },
    {
      "inputs": [
        {
          "internalType": "uint256",
          "name": "tokenId",
          "type": "uint256"
        }
      ],
      "name": "tokenURI",
      "outputs": [
        {
          "internalType": "string",
          "name": "",
          "type": "string"
        }
      ],
      "stateMutability": "view",
      "type": "function",
      "constant": true
    },
    {
      "inputs": [],
      "name": "reveal",
      "outputs": [],
      "stateMutability": "nonpayable",
      "type": "function"
    },
    {
      "inputs": [
        {
          "internalType": "string",
          "name": "_notRevealedURI",
          "type": "string"
        }
      ],
      "name": "setNotRevealedURI",
      "outputs": [],
      "stateMutability": "nonpayable",
      "type": "function"
    },
    {
      "inputs": [
        {
          "internalType": "string",
          "name": "_newBaseURI",
          "type": "string"
        }
      ],
      "name": "setBaseURI",
      "outputs": [],
      "stateMutability": "nonpayable",
      "type": "function"
    },
    {
      "inputs": [
        {
          "internalType": "string",
          "name": "_newBaseExtension",
          "type": "string"
        }
      ],
      "name": "setBaseExtension",
      "outputs": [],
      "stateMutability": "nonpayable",
      "type": "function"
    }
  ],
  "bytecode": "0x60806040526001600a60146101000a81548160ff0219169083151502179055506000600a60156101000a81548160ff0219169083151502179055506000600a60166101000a81548160ff0219169083151502179055506000600a60176101000a81548160ff0219169083151502179055506096600b55662bd72a24874000600c556040518060400160405280600581526020017f2e6a736f6e00000000000000000000000000000000000000000000000000000081525060149080519060200190620000cd92919062001027565b50348015620000db57600080fd5b506040518060400160405280600e81526020017f4d756d626169556c74696d6174650000000000000000000000000000000000008152506040518060400160405280600281526020017f4d5500000000000000000000000000000000000000000000000000000000000081525081600090805190602001906200016092919062001027565b5080600190805190602001906200017992919062001027565b5050506200019c620001906200021160201b60201c565b6200021960201b60201c565b620001c66040518060800160405280605481526020016200762660549139620002df60201b60201c565b620001f0604051806080016040528060538152602001620075d3605391396200038a60201b60201c565b62000202600a6200043560201b60201c565b600c54600d8190555062001981565b600033905090565b6000600a60009054906101000a900473ffffffffffffffffffffffffffffffffffffffff16905081600a60006101000a81548173ffffffffffffffffffffffffffffffffffffffff021916908373ffffffffffffffffffffffffffffffffffffffff1602179055508173ffffffffffffffffffffffffffffffffffffffff168173ffffffffffffffffffffffffffffffffffffffff167f8be0079c531659141344cd1fd0a4f28419497f9722a3daafe3b4186f6b6457e060405160405180910390a35050565b620002ef6200021160201b60201c565b73ffffffffffffffffffffffffffffffffffffffff1662000315620005df60201b60201c565b73ffffffffffffffffffffffffffffffffffffffff16146200036e576040517f08c379a0000000000000000000000000000000000000000000000000000000008152600401620003659062001402565b60405180910390fd5b80601390805190602001906200038692919062001027565b5050565b6200039a6200021160201b60201c565b73ffffffffffffffffffffffffffffffffffffffff16620003c0620005df60201b60201c565b73ffffffffffffffffffffffffffffffffffffffff161462000419576040517f08c379a0000000000000000000000000000000000000000000000000000000008152600401620004109062001402565b60405180910390fd5b80601290805190602001906200043192919062001027565b5050565b6000620004476200060960201b60201c565b9050600a60149054906101000a900460ff166200049b576040517f08c379a0000000000000000000000000000000000000000000000000000000008152600401620004929062001424565b60405180910390fd5b600082118015620004ad575060328211155b620004ef576040517f08c379a0000000000000000000000000000000000000000000000000000000008152600401620004e69062001336565b60405180910390fd5b612710828262000500919062001495565b111562000544576040517f08c379a00000000000000000000000000000000000000000000000000000000081526004016200053b906200139c565b60405180910390fd5b81600d54620005549190620014f2565b34101562000599576040517f08c379a0000000000000000000000000000000000000000000000000000000008152600401620005909062001446565b60405180910390fd5b60005b82811015620005da57620005c4338284620005b8919062001495565b6200061660201b60201c565b8080620005d19062001664565b9150506200059c565b505050565b6000600a60009054906101000a900473ffffffffffffffffffffffffffffffffffffffff16905090565b6000600880549050905090565b620006388282604051806020016040528060008152506200063c60201b60201c565b5050565b6200064e8383620006aa60201b60201c565b620006636000848484620008a460201b60201c565b620006a5576040517f08c379a00000000000000000000000000000000000000000000000000000000081526004016200069c9062001358565b60405180910390fd5b505050565b600073ffffffffffffffffffffffffffffffffffffffff168273ffffffffffffffffffffffffffffffffffffffff1614156200071d576040517f08c379a00000000000000000000000000000000000000000000000000000000081526004016200071490620013e0565b60405180910390fd5b6200072e8162000a5e60201b60201c565b1562000771576040517f08c379a000000000000000000000000000000000000000000000000000000000815260040162000768906200137a565b60405180910390fd5b620007856000838362000aca60201b60201c565b6001600360008473ffffffffffffffffffffffffffffffffffffffff1673ffffffffffffffffffffffffffffffffffffffff1681526020019081526020016000206000828254620007d7919062001495565b92505081905550816002600083815260200190815260200160002060006101000a81548173ffffffffffffffffffffffffffffffffffffffff021916908373ffffffffffffffffffffffffffffffffffffffff160217905550808273ffffffffffffffffffffffffffffffffffffffff16600073ffffffffffffffffffffffffffffffffffffffff167fddf252ad1be2c89b69c2b068fc378daa952ba7f163c4a11628f55a4df523b3ef60405160405180910390a4620008a06000838362000c1160201b60201c565b5050565b6000620008d28473ffffffffffffffffffffffffffffffffffffffff1662000c1660201b62002bfe1760201c565b1562000a51578373ffffffffffffffffffffffffffffffffffffffff1663150b7a02620009046200021160201b60201c565b8786866040518563ffffffff1660e01b8152600401620009289493929190620012e2565b602060405180830381600087803b1580156200094357600080fd5b505af19250505080156200097757506040513d601f19601f82011682018060405250810190620009749190620010ee565b60015b62000a00573d8060008114620009aa576040519150601f19603f3d011682016040523d82523d6000602084013e620009af565b606091505b50600081511415620009f8576040517f08c379a0000000000000000000000000000000000000000000000000000000008152600401620009ef9062001358565b60405180910390fd5b805181602001fd5b63150b7a0260e01b7bffffffffffffffffffffffffffffffffffffffffffffffffffffffff1916817bffffffffffffffffffffffffffffffffffffffffffffffffffffffff19161491505062000a56565b600190505b949350505050565b60008073ffffffffffffffffffffffffffffffffffffffff166002600084815260200190815260200160002060009054906101000a900473ffffffffffffffffffffffffffffffffffffffff1673ffffffffffffffffffffffffffffffffffffffff1614159050919050565b62000ae283838362000c3960201b62002c211760201c565b600073ffffffffffffffffffffffffffffffffffffffff168373ffffffffffffffffffffffffffffffffffffffff16141562000b2f5762000b298162000c3e60201b60201c565b62000b77565b8173ffffffffffffffffffffffffffffffffffffffff168373ffffffffffffffffffffffffffffffffffffffff161462000b765762000b75838262000c8760201b60201c565b5b5b600073ffffffffffffffffffffffffffffffffffffffff168273ffffffffffffffffffffffffffffffffffffffff16141562000bc45762000bbe8162000e0460201b60201c565b62000c0c565b8273ffffffffffffffffffffffffffffffffffffffff168273ffffffffffffffffffffffffffffffffffffffff161462000c0b5762000c0a828262000ee060201b60201c565b5b5b505050565b505050565b6000808273ffffffffffffffffffffffffffffffffffffffff163b119050919050565b505050565b6008805490506009600083815260200190815260200160002081905550600881908060018154018082558091505060019003906000526020600020016000909190919091505550565b6000600162000ca18462000f6c60201b620018ce1760201c565b62000cad919062001553565b905060006007600084815260200190815260200160002054905081811462000d93576000600660008673ffffffffffffffffffffffffffffffffffffffff1673ffffffffffffffffffffffffffffffffffffffff168152602001908152602001600020600084815260200190815260200160002054905080600660008773ffffffffffffffffffffffffffffffffffffffff1673ffffffffffffffffffffffffffffffffffffffff168152602001908152602001600020600084815260200190815260200160002081905550816007600083815260200190815260200160002081905550505b6007600084815260200190815260200160002060009055600660008573ffffffffffffffffffffffffffffffffffffffff1673ffffffffffffffffffffffffffffffffffffffff16815260200190815260200160002060008381526020019081526020016000206000905550505050565b6000600160088054905062000e1a919062001553565b905060006009600084815260200190815260200160002054905060006008838154811062000e4d5762000e4c6200173f565b5b90600052602060002001549050806008838154811062000e725762000e716200173f565b5b90600052602060002001819055508160096000838152602001908152602001600020819055506009600085815260200190815260200160002060009055600880548062000ec45762000ec362001710565b5b6001900381819060005260206000200160009055905550505050565b600062000ef88362000f6c60201b620018ce1760201c565b905081600660008573ffffffffffffffffffffffffffffffffffffffff1673ffffffffffffffffffffffffffffffffffffffff168152602001908152602001600020600083815260200190815260200160002081905550806007600084815260200190815260200160002081905550505050565b60008073ffffffffffffffffffffffffffffffffffffffff168273ffffffffffffffffffffffffffffffffffffffff16141562000fe0576040517f08c379a000000000000000000000000000000000000000000000000000000000815260040162000fd790620013be565b60405180910390fd5b600360008373ffffffffffffffffffffffffffffffffffffffff1673ffffffffffffffffffffffffffffffffffffffff168152602001908152602001600020549050919050565b82805462001035906200162e565b90600052602060002090601f016020900481019282620010595760008555620010a5565b82601f106200107457805160ff1916838001178555620010a5565b82800160010185558215620010a5579182015b82811115620010a457825182559160200191906001019062001087565b5b509050620010b49190620010b8565b5090565b5b80821115620010d3576000816000905550600101620010b9565b5090565b600081519050620010e88162001967565b92915050565b6000602082840312156200110757620011066200176e565b5b60006200111784828501620010d7565b91505092915050565b6200112b816200158e565b82525050565b60006200113e8262001468565b6200114a818562001473565b93506200115c818560208601620015f8565b620011678162001773565b840191505092915050565b600062001181602c8362001484565b91506200118e8262001784565b604082019050919050565b6000620011a860328362001484565b9150620011b582620017d3565b604082019050919050565b6000620011cf601c8362001484565b9150620011dc8262001822565b602082019050919050565b6000620011f6601f8362001484565b915062001203826200184b565b602082019050919050565b60006200121d602a8362001484565b91506200122a8262001874565b604082019050919050565b60006200124460208362001484565b91506200125182620018c3565b602082019050919050565b60006200126b60208362001484565b91506200127882620018ec565b602082019050919050565b60006200129260118362001484565b91506200129f8262001915565b602082019050919050565b6000620012b960188362001484565b9150620012c6826200193e565b602082019050919050565b620012dc81620015ee565b82525050565b6000608082019050620012f9600083018762001120565b62001308602083018662001120565b620013176040830185620012d1565b81810360608301526200132b818462001131565b905095945050505050565b60006020820190508181036000830152620013518162001172565b9050919050565b60006020820190508181036000830152620013738162001199565b9050919050565b600060208201905081810360008301526200139581620011c0565b9050919050565b60006020820190508181036000830152620013b781620011e7565b9050919050565b60006020820190508181036000830152620013d9816200120e565b9050919050565b60006020820190508181036000830152620013fb8162001235565b9050919050565b600060208201905081810360008301526200141d816200125c565b9050919050565b600060208201905081810360008301526200143f8162001283565b9050919050565b600060208201905081810360008301526200146181620012aa565b9050919050565b600081519050919050565b600082825260208201905092915050565b600082825260208201905092915050565b6000620014a282620015ee565b9150620014af83620015ee565b9250827fffffffffffffffffffffffffffffffffffffffffffffffffffffffffffffffff03821115620014e757620014e6620016b2565b5b828201905092915050565b6000620014ff82620015ee565b91506200150c83620015ee565b9250817fffffffffffffffffffffffffffffffffffffffffffffffffffffffffffffffff0483118215151615620015485762001547620016b2565b5b828202905092915050565b60006200156082620015ee565b91506200156d83620015ee565b925082821015620015835762001582620016b2565b5b828203905092915050565b60006200159b82620015ce565b9050919050565b60007fffffffff0000000000000000000000000000000000000000000000000000000082169050919050565b600073ffffffffffffffffffffffffffffffffffffffff82169050919050565b6000819050919050565b60005b8381101562001618578082015181840152602081019050620015fb565b8381111562001628576000848401525b50505050565b600060028204905060018216806200164757607f821691505b602082108114156200165e576200165d620016e1565b5b50919050565b60006200167182620015ee565b91507fffffffffffffffffffffffffffffffffffffffffffffffffffffffffffffffff821415620016a757620016a6620016b2565b5b600182019050919050565b7f4e487b7100000000000000000000000000000000000000000000000000000000600052601160045260246000fd5b7f4e487b7100000000000000000000000000000000000000000000000000000000600052602260045260246000fd5b7f4e487b7100000000000000000000000000000000000000000000000000000000600052603160045260246000fd5b7f4e487b7100000000000000000000000000000000000000000000000000000000600052603260045260246000fd5b600080fd5b6000601f19601f8301169050919050565b7f43616e206f6e6c79206d696e74206265747765656e203120616e64203420746f60008201527f6b656e73206174206f6e63650000000000000000000000000000000000000000602082015250565b7f4552433732313a207472616e7366657220746f206e6f6e20455243373231526560008201527f63656976657220696d706c656d656e7465720000000000000000000000000000602082015250565b7f4552433732313a20746f6b656e20616c7265616479206d696e74656400000000600082015250565b7f43616e2774206d696e74206d6f7265207468616e206d617820737570706c7900600082015250565b7f4552433732313a2062616c616e636520717565727920666f7220746865207a6560008201527f726f206164647265737300000000000000000000000000000000000000000000602082015250565b7f4552433732313a206d696e7420746f20746865207a65726f2061646472657373600082015250565b7f4f776e61626c653a2063616c6c6572206973206e6f7420746865206f776e6572600082015250565b7f53616c652069736e277420616374697665000000000000000000000000000000600082015250565b7f57726f6e6720616d6f756e74206f66204554482073656e740000000000000000600082015250565b6200197281620015a2565b81146200197e57600080fd5b50565b615c4280620019916000396000f3fe6080604052600436106103355760003560e01c8063841718a6116101ab578063b88d4fde116100f7578063e985e9c511610095578063f2fde38b1161006f578063f2fde38b14610be1578063f759867a14610c0a578063fd2b049214610c26578063fe60d12c14610c4257610335565b8063e985e9c514610b52578063f14c0bcc14610b8f578063f2c4ce1e14610bb857610335565b8063c634d032116100d1578063c634d03214610aa5578063c668286214610ac1578063c87b56dd14610aec578063da3ef23f14610b2957610335565b8063b88d4fde14610a2a578063b957172114610a53578063c3b754dc14610a7c57610335565b806395d89b4111610164578063a035b1fe1161013e578063a035b1fe14610994578063a22cb465146109bf578063a475b5dd146109e8578063ab3f5a1a146109ff57610335565b806395d89b4114610915578063969e9d0c146109405780639a5d140b1461096b57610335565b8063841718a6146108055780638462151c1461082e5780638da5cb5b1461086b5780638ecad7211461089657806391b7f5ed146108c15780639426eef8146108ea57610335565b806342842e0e116102855780636352211e116102235780636c0360eb116101fd5780636c0360eb1461074957806370a0823114610774578063715018a6146107b157806372e3a3eb146107c857610335565b80636352211e146106b657806368428a1b146106f35780636b8dc3551461071e57610335565b80634f6ccce71161025f5780634f6ccce7146105fa578063518302271461063757806353135ca01461066257806355f804b31461068d57610335565b806342842e0e14610578578063438b6300146105a15780634618163e146105de57610335565b8063119552a1116102f25780632f745c59116102cc5780632f745c59146104dd57806332cb6b0c1461051a5780633ccfd60b146105455780633f8121a21461054f57610335565b8063119552a11461045e57806318160ddd1461048957806323b872dd146104b457610335565b806301ffc9a71461033a57806302ce58131461037757806306fdde03146103a2578063081812fc146103cd578063081c8c441461040a578063095ea7b314610435575b600080fd5b34801561034657600080fd5b50610361600480360381019061035c9190614448565b610c6d565b60405161036e9190614b8f565b60405180910390f35b34801561038357600080fd5b5061038c610ce7565b6040516103999190614b8f565b60405180910390f35b3480156103ae57600080fd5b506103b7610cfa565b6040516103c49190614baa565b60405180910390f35b3480156103d957600080fd5b506103f460048036038101906103ef91906144eb565b610d8c565b6040516104019190614b06565b60405180910390f35b34801561041657600080fd5b5061041f610e11565b60405161042c9190614baa565b60405180910390f35b34801561044157600080fd5b5061045c6004803603810190610457919061431a565b610e9f565b005b34801561046a57600080fd5b50610473610fb7565b6040516104809190614b06565b60405180910390f35b34801561049557600080fd5b5061049e610fdd565b6040516104ab9190614f2c565b60405180910390f35b3480156104c057600080fd5b506104db60048036038101906104d69190614204565b610fea565b005b3480156104e957600080fd5b5061050460048036038101906104ff919061431a565b61104a565b6040516105119190614f2c565b60405180910390f35b34801561052657600080fd5b5061052f6110ef565b60405161053c9190614f2c565b60405180910390f35b61054d6110f5565b005b34801561055b57600080fd5b506105766004803603810190610571919061441b565b611294565b005b34801561058457600080fd5b5061059f600480360381019061059a9190614204565b61132d565b005b3480156105ad57600080fd5b506105c860048036038101906105c39190614197565b61134d565b6040516105d59190614b6d565b60405180910390f35b6105f860048036038101906105f391906144eb565b6113fb565b005b34801561060657600080fd5b50610621600480360381019061061c91906144eb565b611648565b60405161062e9190614f2c565b60405180910390f35b34801561064357600080fd5b5061064c6116b9565b6040516106599190614b8f565b60405180910390f35b34801561066e57600080fd5b506106776116cc565b6040516106849190614b8f565b60405180910390f35b34801561069957600080fd5b506106b460048036038101906106af91906144a2565b6116df565b005b3480156106c257600080fd5b506106dd60048036038101906106d891906144eb565b611775565b6040516106ea9190614b06565b60405180910390f35b3480156106ff57600080fd5b50610708611827565b6040516107159190614b8f565b60405180910390f35b34801561072a57600080fd5b5061073361183a565b6040516107409190614f2c565b60405180910390f35b34801561075557600080fd5b5061075e611840565b60405161076b9190614baa565b60405180910390f35b34801561078057600080fd5b5061079b60048036038101906107969190614197565b6118ce565b6040516107a89190614f2c565b60405180910390f35b3480156107bd57600080fd5b506107c6611986565b005b3480156107d457600080fd5b506107ef60048036038101906107ea9190614197565b611a0e565b6040516107fc9190614f2c565b60405180910390f35b34801561081157600080fd5b5061082c6004803603810190610827919061441b565b611a26565b005b34801561083a57600080fd5b5061085560048036038101906108509190614197565b611abf565b6040516108629190614b6d565b60405180910390f35b34801561087757600080fd5b50610880611b6d565b60405161088d9190614b06565b60405180910390f35b3480156108a257600080fd5b506108ab611b97565b6040516108b89190614f2c565b60405180910390f35b3480156108cd57600080fd5b506108e860048036038101906108e391906144eb565b611b9c565b005b3480156108f657600080fd5b506108ff611c22565b60405161090c9190614b06565b60405180910390f35b34801561092157600080fd5b5061092a611c48565b6040516109379190614baa565b60405180910390f35b34801561094c57600080fd5b50610955611cda565b6040516109629190614b06565b60405180910390f35b34801561097757600080fd5b50610992600480360381019061098d91906144eb565b611d00565b005b3480156109a057600080fd5b506109a9611e1d565b6040516109b69190614f2c565b60405180910390f35b3480156109cb57600080fd5b506109e660048036038101906109e191906142da565b611e23565b005b3480156109f457600080fd5b506109fd611e39565b005b348015610a0b57600080fd5b50610a14611ed2565b604051610a219190614f2c565b60405180910390f35b348015610a3657600080fd5b50610a516004803603810190610a4c9190614257565b611ed8565b005b348015610a5f57600080fd5b50610a7a6004803603810190610a75919061435a565b611f3a565b005b348015610a8857600080fd5b50610aa36004803603810190610a9e919061441b565b6120cd565b005b610abf6004803603810190610aba91906144eb565b612166565b005b348015610acd57600080fd5b50610ad66122e9565b604051610ae39190614baa565b60405180910390f35b348015610af857600080fd5b50610b136004803603810190610b0e91906144eb565b612377565b604051610b209190614baa565b60405180910390f35b348015610b3557600080fd5b50610b506004803603810190610b4b91906144a2565b6124d0565b005b348015610b5e57600080fd5b50610b796004803603810190610b7491906141c4565b612566565b604051610b869190614b8f565b60405180910390f35b348015610b9b57600080fd5b50610bb66004803603810190610bb191906143a3565b6125fa565b005b348015610bc457600080fd5b50610bdf6004803603810190610bda91906144a2565b612712565b005b348015610bed57600080fd5b50610c086004803603810190610c039190614197565b6127a8565b005b610c246004803603810190610c1f91906144eb565b6128a0565b005b610c406004803603810190610c3b91906144eb565b612a23565b005b348015610c4e57600080fd5b50610c57612bf8565b604051610c649190614f2c565b60405180910390f35b60007f780e9d63000000000000000000000000000000000000000000000000000000007bffffffffffffffffffffffffffffffffffffffffffffffffffffffff1916827bffffffffffffffffffffffffffffffffffffffffffffffffffffffff19161480610ce05750610cdf82612c26565b5b9050919050565b600a60159054906101000a900460ff1681565b606060008054610d099061528d565b80601f0160208091040260200160405190810160405280929190818152602001828054610d359061528d565b8015610d825780601f10610d5757610100808354040283529160200191610d82565b820191906000526020600020905b815481529060010190602001808311610d6557829003601f168201915b5050505050905090565b6000610d9782612d08565b610dd6576040517f08c379a0000000000000000000000000000000000000000000000000000000008152600401610dcd90614e2c565b60405180910390fd5b6004600083815260200190815260200160002060009054906101000a900473ffffffffffffffffffffffffffffffffffffffff169050919050565b60128054610e1e9061528d565b80601f0160208091040260200160405190810160405280929190818152602001828054610e4a9061528d565b8015610e975780601f10610e6c57610100808354040283529160200191610e97565b820191906000526020600020905b815481529060010190602001808311610e7a57829003601f168201915b505050505081565b6000610eaa82611775565b90508073ffffffffffffffffffffffffffffffffffffffff168373ffffffffffffffffffffffffffffffffffffffff161415610f1b576040517f08c379a0000000000000000000000000000000000000000000000000000000008152600401610f1290614eac565b60405180910390fd5b8073ffffffffffffffffffffffffffffffffffffffff16610f3a612d74565b73ffffffffffffffffffffffffffffffffffffffff161480610f695750610f6881610f63612d74565b612566565b5b610fa8576040517f08c379a0000000000000000000000000000000000000000000000000000000008152600401610f9f90614d6c565b60405180910390fd5b610fb28383612d7c565b505050565b600e60009054906101000a900473ffffffffffffffffffffffffffffffffffffffff1681565b6000600880549050905090565b610ffb610ff5612d74565b82612e35565b61103a576040517f08c379a000000000000000000000000000000000000000000000000000000000815260040161103190614ecc565b60405180910390fd5b611045838383612f13565b505050565b6000611055836118ce565b8210611096576040517f08c379a000000000000000000000000000000000000000000000000000000000815260040161108d90614c0c565b60405180910390fd5b600660008473ffffffffffffffffffffffffffffffffffffffff1673ffffffffffffffffffffffffffffffffffffffff168152602001908152602001600020600083815260200190815260200160002054905092915050565b61271081565b6110fd612d74565b73ffffffffffffffffffffffffffffffffffffffff1661111b611b6d565b73ffffffffffffffffffffffffffffffffffffffff1614611171576040517f08c379a000000000000000000000000000000000000000000000000000000000815260040161116890614e4c565b60405180910390fd5b600073d0a7f7829aa9166812a36ace2188874e29b21d0773ffffffffffffffffffffffffffffffffffffffff1660646005476111ad9190615149565b6111b79190615118565b6040516111c390614af1565b60006040518083038185875af1925050503d8060008114611200576040519150601f19603f3d011682016040523d82523d6000602084013e611205565b606091505b505090508061121357600080fd5b600061121d611b6d565b73ffffffffffffffffffffffffffffffffffffffff164760405161124090614af1565b60006040518083038185875af1925050503d806000811461127d576040519150601f19603f3d011682016040523d82523d6000602084013e611282565b606091505b505090508061129057600080fd5b5050565b61129c612d74565b73ffffffffffffffffffffffffffffffffffffffff166112ba611b6d565b73ffffffffffffffffffffffffffffffffffffffff1614611310576040517f08c379a000000000000000000000000000000000000000000000000000000000815260040161130790614e4c565b60405180910390fd5b80600a60166101000a81548160ff02191690831515021790555050565b61134883838360405180602001604052806000815250611ed8565b505050565b6060600061135a836118ce565b905060008167ffffffffffffffff81111561137857611377615455565b5b6040519080825280602002602001820160405280156113a65781602001602082028036833780820191505090505b50905060005b828110156113f0576113be858261104a565b8282815181106113d1576113d0615426565b5b60200260200101818152505080806113e8906152f0565b9150506113ac565b508092505050919050565b6000611405610fdd565b90506000601160003373ffffffffffffffffffffffffffffffffffffffff1673ffffffffffffffffffffffffffffffffffffffff168152602001908152602001600020549050600a60159054906101000a900460ff1661149a576040517f08c379a000000000000000000000000000000000000000000000000000000000815260040161149190614dcc565b60405180910390fd5b600081116114dd576040517f08c379a00000000000000000000000000000000000000000000000000000000081526004016114d490614d4c565b60405180910390fd5b80831115611520576040517f08c379a000000000000000000000000000000000000000000000000000000000815260040161151790614bcc565b60405180910390fd5b612710838361152f91906150c2565b1115611570576040517f08c379a000000000000000000000000000000000000000000000000000000000815260040161156790614ccc565b60405180910390fd5b82600d5461157e9190615149565b3410156115c0576040517f08c379a00000000000000000000000000000000000000000000000000000000081526004016115b790614f0c565b60405180910390fd5b82816115cc91906151a3565b601160003373ffffffffffffffffffffffffffffffffffffffff1673ffffffffffffffffffffffffffffffffffffffff1681526020019081526020016000208190555060005b838110156116425761162f33828561162a91906150c2565b61317a565b808061163a906152f0565b915050611612565b50505050565b6000611652610fdd565b8210611693576040517f08c379a000000000000000000000000000000000000000000000000000000000815260040161168a90614eec565b60405180910390fd5b600882815481106116a7576116a6615426565b5b90600052602060002001549050919050565b600a60179054906101000a900460ff1681565b600a60169054906101000a900460ff1681565b6116e7612d74565b73ffffffffffffffffffffffffffffffffffffffff16611705611b6d565b73ffffffffffffffffffffffffffffffffffffffff161461175b576040517f08c379a000000000000000000000000000000000000000000000000000000000815260040161175290614e4c565b60405180910390fd5b8060139080519060200190611771929190613e6f565b5050565b6000806002600084815260200190815260200160002060009054906101000a900473ffffffffffffffffffffffffffffffffffffffff169050600073ffffffffffffffffffffffffffffffffffffffff168173ffffffffffffffffffffffffffffffffffffffff16141561181e576040517f08c379a000000000000000000000000000000000000000000000000000000000815260040161181590614dac565b60405180910390fd5b80915050919050565b600a60149054906101000a900460ff1681565b6101f481565b6013805461184d9061528d565b80601f01602080910402602001604051908101604052809291908181526020018280546118799061528d565b80156118c65780601f1061189b576101008083540402835291602001916118c6565b820191906000526020600020905b8154815290600101906020018083116118a957829003601f168201915b505050505081565b60008073ffffffffffffffffffffffffffffffffffffffff168273ffffffffffffffffffffffffffffffffffffffff16141561193f576040517f08c379a000000000000000000000000000000000000000000000000000000000815260040161193690614d8c565b60405180910390fd5b600360008373ffffffffffffffffffffffffffffffffffffffff1673ffffffffffffffffffffffffffffffffffffffff168152602001908152602001600020549050919050565b61198e612d74565b73ffffffffffffffffffffffffffffffffffffffff166119ac611b6d565b73ffffffffffffffffffffffffffffffffffffffff1614611a02576040517f08c379a00000000000000000000000000000000000000000000000000000000081526004016119f990614e4c565b60405180910390fd5b611a0c6000613198565b565b60116020528060005260406000206000915090505481565b611a2e612d74565b73ffffffffffffffffffffffffffffffffffffffff16611a4c611b6d565b73ffffffffffffffffffffffffffffffffffffffff1614611aa2576040517f08c379a0000000000000000000000000000000000000000000000000000000008152600401611a9990614e4c565b60405180910390fd5b80600a60146101000a81548160ff02191690831515021790555050565b60606000611acc836118ce565b905060008167ffffffffffffffff811115611aea57611ae9615455565b5b604051908082528060200260200182016040528015611b185781602001602082028036833780820191505090505b50905060005b82811015611b6257611b30858261104a565b828281518110611b4357611b42615426565b5b6020026020010181815250508080611b5a906152f0565b915050611b1e565b508092505050919050565b6000600a60009054906101000a900473ffffffffffffffffffffffffffffffffffffffff16905090565b603281565b611ba4612d74565b73ffffffffffffffffffffffffffffffffffffffff16611bc2611b6d565b73ffffffffffffffffffffffffffffffffffffffff1614611c18576040517f08c379a0000000000000000000000000000000000000000000000000000000008152600401611c0f90614e4c565b60405180910390fd5b80600d8190555050565b601060009054906101000a900473ffffffffffffffffffffffffffffffffffffffff1681565b606060018054611c579061528d565b80601f0160208091040260200160405190810160405280929190818152602001828054611c839061528d565b8015611cd05780601f10611ca557610100808354040283529160200191611cd0565b820191906000526020600020905b815481529060010190602001808311611cb357829003601f168201915b5050505050905090565b600f60009054906101000a900473ffffffffffffffffffffffffffffffffffffffff1681565b611d08612d74565b73ffffffffffffffffffffffffffffffffffffffff16611d26611b6d565b73ffffffffffffffffffffffffffffffffffffffff1614611d7c576040517f08c379a0000000000000000000000000000000000000000000000000000000008152600401611d7390614e4c565b60405180910390fd5b600b54811115611dc1576040517f08c379a0000000000000000000000000000000000000000000000000000000008152600401611db890614e0c565b60405180910390fd5b80600b6000828254611dd391906151a3565b925050819055506000611de4610fdd565b905060005b828111611e1857611e05338284611e0091906150c2565b61317a565b8080611e10906152f0565b915050611de9565b505050565b600d5481565b611e35611e2e612d74565b838361325e565b5050565b611e41612d74565b73ffffffffffffffffffffffffffffffffffffffff16611e5f611b6d565b73ffffffffffffffffffffffffffffffffffffffff1614611eb5576040517f08c379a0000000000000000000000000000000000000000000000000000000008152600401611eac90614e4c565b60405180910390fd5b6001600a60176101000a81548160ff021916908315150217905550565b600c5481565b611ee9611ee3612d74565b83612e35565b611f28576040517f08c379a0000000000000000000000000000000000000000000000000000000008152600401611f1f90614ecc565b60405180910390fd5b611f34848484846133cb565b50505050565b611f42612d74565b73ffffffffffffffffffffffffffffffffffffffff16611f60611b6d565b73ffffffffffffffffffffffffffffffffffffffff1614611fb6576040517f08c379a0000000000000000000000000000000000000000000000000000000008152600401611fad90614e4c565b60405180910390fd5b80600081518110611fca57611fc9615426565b5b6020026020010151600e60006101000a81548173ffffffffffffffffffffffffffffffffffffffff021916908373ffffffffffffffffffffffffffffffffffffffff1602179055508060018151811061202657612025615426565b5b6020026020010151600f60006101000a81548173ffffffffffffffffffffffffffffffffffffffff021916908373ffffffffffffffffffffffffffffffffffffffff1602179055508060028151811061208257612081615426565b5b6020026020010151601060006101000a81548173ffffffffffffffffffffffffffffffffffffffff021916908373ffffffffffffffffffffffffffffffffffffffff16021790555050565b6120d5612d74565b73ffffffffffffffffffffffffffffffffffffffff166120f3611b6d565b73ffffffffffffffffffffffffffffffffffffffff1614612149576040517f08c379a000000000000000000000000000000000000000000000000000000000815260040161214090614e4c565b60405180910390fd5b80600a60156101000a81548160ff02191690831515021790555050565b6000612170610fdd565b9050600a60149054906101000a900460ff166121c1576040517f08c379a00000000000000000000000000000000000000000000000000000000081526004016121b890614e8c565b60405180910390fd5b6000821180156121d2575060328211155b612211576040517f08c379a000000000000000000000000000000000000000000000000000000000815260040161220890614c2c565b60405180910390fd5b612710828261222091906150c2565b1115612261576040517f08c379a000000000000000000000000000000000000000000000000000000000815260040161225890614ccc565b60405180910390fd5b81600d5461226f9190615149565b3410156122b1576040517f08c379a00000000000000000000000000000000000000000000000000000000081526004016122a890614f0c565b60405180910390fd5b60005b828110156122e4576122d13382846122cc91906150c2565b61317a565b80806122dc906152f0565b9150506122b4565b505050565b601480546122f69061528d565b80601f01602080910402602001604051908101604052809291908181526020018280546123229061528d565b801561236f5780601f106123445761010080835404028352916020019161236f565b820191906000526020600020905b81548152906001019060200180831161235257829003601f168201915b505050505081565b606061238282612d08565b6123c1576040517f08c379a00000000000000000000000000000000000000000000000000000000081526004016123b890614e6c565b60405180910390fd5b60001515600a60179054906101000a900460ff161515141561246f57601280546123ea9061528d565b80601f01602080910402602001604051908101604052809291908181526020018280546124169061528d565b80156124635780601f1061243857610100808354040283529160200191612463565b820191906000526020600020905b81548152906001019060200180831161244657829003601f168201915b505050505090506124cb565b6000612479613427565b9050600081511161249957604051806020016040528060008152506124c7565b806124a3846134b9565b60146040516020016124b793929190614ac0565b6040516020818303038152906040525b9150505b919050565b6124d8612d74565b73ffffffffffffffffffffffffffffffffffffffff166124f6611b6d565b73ffffffffffffffffffffffffffffffffffffffff161461254c576040517f08c379a000000000000000000000000000000000000000000000000000000000815260040161254390614e4c565b60405180910390fd5b8060149080519060200190612562929190613e6f565b5050565b6000600560008473ffffffffffffffffffffffffffffffffffffffff1673ffffffffffffffffffffffffffffffffffffffff16815260200190815260200160002060008373ffffffffffffffffffffffffffffffffffffffff1673ffffffffffffffffffffffffffffffffffffffff16815260200190815260200160002060009054906101000a900460ff16905092915050565b612602612d74565b73ffffffffffffffffffffffffffffffffffffffff16612620611b6d565b73ffffffffffffffffffffffffffffffffffffffff1614612676576040517f08c379a000000000000000000000000000000000000000000000000000000000815260040161266d90614e4c565b60405180910390fd5b60005b825181101561270d5781818151811061269557612694615426565b5b6020026020010151601160008584815181106126b4576126b3615426565b5b602002602001015173ffffffffffffffffffffffffffffffffffffffff1673ffffffffffffffffffffffffffffffffffffffff168152602001908152602001600020819055508080612705906152f0565b915050612679565b505050565b61271a612d74565b73ffffffffffffffffffffffffffffffffffffffff16612738611b6d565b73ffffffffffffffffffffffffffffffffffffffff161461278e576040517f08c379a000000000000000000000000000000000000000000000000000000000815260040161278590614e4c565b60405180910390fd5b80601290805190602001906127a4929190613e6f565b5050565b6127b0612d74565b73ffffffffffffffffffffffffffffffffffffffff166127ce611b6d565b73ffffffffffffffffffffffffffffffffffffffff1614612824576040517f08c379a000000000000000000000000000000000000000000000000000000000815260040161281b90614e4c565b60405180910390fd5b600073ffffffffffffffffffffffffffffffffffffffff168173ffffffffffffffffffffffffffffffffffffffff161415612894576040517f08c379a000000000000000000000000000000000000000000000000000000000815260040161288b90614c6c565b60405180910390fd5b61289d81613198565b50565b60006128aa610fdd565b9050600a60169054906101000a900460ff166128fb576040517f08c379a00000000000000000000000000000000000000000000000000000000081526004016128f290614e8c565b60405180910390fd5b60008211801561290c575060328211155b61294b576040517f08c379a000000000000000000000000000000000000000000000000000000000815260040161294290614bec565b60405180910390fd5b6101f4828261295a91906150c2565b111561299b576040517f08c379a000000000000000000000000000000000000000000000000000000000815260040161299290614ccc565b60405180910390fd5b81600d546129a99190615149565b3410156129eb576040517f08c379a00000000000000000000000000000000000000000000000000000000081526004016129e290614f0c565b60405180910390fd5b60005b82811015612a1e57612a0b338284612a0691906150c2565b61317a565b8080612a16906152f0565b9150506129ee565b505050565b612a2b612d74565b73ffffffffffffffffffffffffffffffffffffffff16612a49611b6d565b73ffffffffffffffffffffffffffffffffffffffff1614612a9f576040517f08c379a0000000000000000000000000000000000000000000000000000000008152600401612a9690614e4c565b60405180910390fd5b6000606482612aae9190615118565b9050600e60009054906101000a900473ffffffffffffffffffffffffffffffffffffffff1673ffffffffffffffffffffffffffffffffffffffff166108fc602883612af99190615149565b9081150290604051600060405180830381858888f19350505050612b1c57600080fd5b600f60009054906101000a900473ffffffffffffffffffffffffffffffffffffffff1673ffffffffffffffffffffffffffffffffffffffff166108fc601e83612b659190615149565b9081150290604051600060405180830381858888f19350505050612b8857600080fd5b601060009054906101000a900473ffffffffffffffffffffffffffffffffffffffff1673ffffffffffffffffffffffffffffffffffffffff166108fc601e83612bd19190615149565b9081150290604051600060405180830381858888f19350505050612bf457600080fd5b5050565b600b5481565b6000808273ffffffffffffffffffffffffffffffffffffffff163b119050919050565b505050565b60007f80ac58cd000000000000000000000000000000000000000000000000000000007bffffffffffffffffffffffffffffffffffffffffffffffffffffffff1916827bffffffffffffffffffffffffffffffffffffffffffffffffffffffff19161480612cf157507f5b5e139f000000000000000000000000000000000000000000000000000000007bffffffffffffffffffffffffffffffffffffffffffffffffffffffff1916827bffffffffffffffffffffffffffffffffffffffffffffffffffffffff1916145b80612d015750612d008261361a565b5b9050919050565b60008073ffffffffffffffffffffffffffffffffffffffff166002600084815260200190815260200160002060009054906101000a900473ffffffffffffffffffffffffffffffffffffffff1673ffffffffffffffffffffffffffffffffffffffff1614159050919050565b600033905090565b816004600083815260200190815260200160002060006101000a81548173ffffffffffffffffffffffffffffffffffffffff021916908373ffffffffffffffffffffffffffffffffffffffff160217905550808273ffffffffffffffffffffffffffffffffffffffff16612def83611775565b73ffffffffffffffffffffffffffffffffffffffff167f8c5be1e5ebec7d5bd14f71427d1e84f3dd0314c0f7b2291e5b200ac8c7c3b92560405160405180910390a45050565b6000612e4082612d08565b612e7f576040517f08c379a0000000000000000000000000000000000000000000000000000000008152600401612e7690614d2c565b60405180910390fd5b6000612e8a83611775565b90508073ffffffffffffffffffffffffffffffffffffffff168473ffffffffffffffffffffffffffffffffffffffff161480612ef957508373ffffffffffffffffffffffffffffffffffffffff16612ee184610d8c565b73ffffffffffffffffffffffffffffffffffffffff16145b80612f0a5750612f098185612566565b5b91505092915050565b8273ffffffffffffffffffffffffffffffffffffffff16612f3382611775565b73ffffffffffffffffffffffffffffffffffffffff1614612f89576040517f08c379a0000000000000000000000000000000000000000000000000000000008152600401612f8090614c8c565b60405180910390fd5b600073ffffffffffffffffffffffffffffffffffffffff168273ffffffffffffffffffffffffffffffffffffffff161415612ff9576040517f08c379a0000000000000000000000000000000000000000000000000000000008152600401612ff090614cec565b60405180910390fd5b613004838383613684565b61300f600082612d7c565b6001600360008573ffffffffffffffffffffffffffffffffffffffff1673ffffffffffffffffffffffffffffffffffffffff168152602001908152602001600020600082825461305f91906151a3565b925050819055506001600360008473ffffffffffffffffffffffffffffffffffffffff1673ffffffffffffffffffffffffffffffffffffffff16815260200190815260200160002060008282546130b691906150c2565b92505081905550816002600083815260200190815260200160002060006101000a81548173ffffffffffffffffffffffffffffffffffffffff021916908373ffffffffffffffffffffffffffffffffffffffff160217905550808273ffffffffffffffffffffffffffffffffffffffff168473ffffffffffffffffffffffffffffffffffffffff167fddf252ad1be2c89b69c2b068fc378daa952ba7f163c4a11628f55a4df523b3ef60405160405180910390a4613175838383613798565b505050565b61319482826040518060200160405280600081525061379d565b5050565b6000600a60009054906101000a900473ffffffffffffffffffffffffffffffffffffffff16905081600a60006101000a81548173ffffffffffffffffffffffffffffffffffffffff021916908373ffffffffffffffffffffffffffffffffffffffff1602179055508173ffffffffffffffffffffffffffffffffffffffff168173ffffffffffffffffffffffffffffffffffffffff167f8be0079c531659141344cd1fd0a4f28419497f9722a3daafe3b4186f6b6457e060405160405180910390a35050565b8173ffffffffffffffffffffffffffffffffffffffff168373ffffffffffffffffffffffffffffffffffffffff1614156132cd576040517f08c379a00000000000000000000000000000000000000000000000000000000081526004016132c490614d0c565b60405180910390fd5b80600560008573ffffffffffffffffffffffffffffffffffffffff1673ffffffffffffffffffffffffffffffffffffffff16815260200190815260200160002060008473ffffffffffffffffffffffffffffffffffffffff1673ffffffffffffffffffffffffffffffffffffffff16815260200190815260200160002060006101000a81548160ff0219169083151502179055508173ffffffffffffffffffffffffffffffffffffffff168373ffffffffffffffffffffffffffffffffffffffff167f17307eab39ab6107e8899845ad3d59bd9653f200f220920489ca2b5937696c31836040516133be9190614b8f565b60405180910390a3505050565b6133d6848484612f13565b6133e2848484846137f8565b613421576040517f08c379a000000000000000000000000000000000000000000000000000000000815260040161341890614c4c565b60405180910390fd5b50505050565b6060601380546134369061528d565b80601f01602080910402602001604051908101604052809291908181526020018280546134629061528d565b80156134af5780601f10613484576101008083540402835291602001916134af565b820191906000526020600020905b81548152906001019060200180831161349257829003601f168201915b5050505050905090565b60606000821415613501576040518060400160405280600181526020017f30000000000000000000000000000000000000000000000000000000000000008152509050613615565b600082905060005b6000821461353357808061351c906152f0565b915050600a8261352c9190615118565b9150613509565b60008167ffffffffffffffff81111561354f5761354e615455565b5b6040519080825280601f01601f1916602001820160405280156135815781602001600182028036833780820191505090505b5090505b6000851461360e5760018261359a91906151a3565b9150600a856135a99190615339565b60306135b591906150c2565b60f81b8183815181106135cb576135ca615426565b5b60200101907effffffffffffffffffffffffffffffffffffffffffffffffffffffffffffff1916908160001a905350600a856136079190615118565b9450613585565b8093505050505b919050565b60007f01ffc9a7000000000000000000000000000000000000000000000000000000007bffffffffffffffffffffffffffffffffffffffffffffffffffffffff1916827bffffffffffffffffffffffffffffffffffffffffffffffffffffffff1916149050919050565b61368f838383612c21565b600073ffffffffffffffffffffffffffffffffffffffff168373ffffffffffffffffffffffffffffffffffffffff1614156136d2576136cd8161398f565b613711565b8173ffffffffffffffffffffffffffffffffffffffff168373ffffffffffffffffffffffffffffffffffffffff16146137105761370f83826139d8565b5b5b600073ffffffffffffffffffffffffffffffffffffffff168273ffffffffffffffffffffffffffffffffffffffff1614156137545761374f81613b45565b613793565b8273ffffffffffffffffffffffffffffffffffffffff168273ffffffffffffffffffffffffffffffffffffffff1614613792576137918282613c16565b5b5b505050565b505050565b6137a78383613c95565b6137b460008484846137f8565b6137f3576040517f08c379a00000000000000000000000000000000000000000000000000000000081526004016137ea90614c4c565b60405180910390fd5b505050565b60006138198473ffffffffffffffffffffffffffffffffffffffff16612bfe565b15613982578373ffffffffffffffffffffffffffffffffffffffff1663150b7a02613842612d74565b8786866040518563ffffffff1660e01b81526004016138649493929190614b21565b602060405180830381600087803b15801561387e57600080fd5b505af19250505080156138af57506040513d601f19601f820116820180604052508101906138ac9190614475565b60015b613932573d80600081146138df576040519150601f19603f3d011682016040523d82523d6000602084013e6138e4565b606091505b5060008151141561392a576040517f08c379a000000000000000000000000000000000000000000000000000000000815260040161392190614c4c565b60405180910390fd5b805181602001fd5b63150b7a0260e01b7bffffffffffffffffffffffffffffffffffffffffffffffffffffffff1916817bffffffffffffffffffffffffffffffffffffffffffffffffffffffff191614915050613987565b600190505b949350505050565b6008805490506009600083815260200190815260200160002081905550600881908060018154018082558091505060019003906000526020600020016000909190919091505550565b600060016139e5846118ce565b6139ef91906151a3565b9050600060076000848152602001908152602001600020549050818114613ad4576000600660008673ffffffffffffffffffffffffffffffffffffffff1673ffffffffffffffffffffffffffffffffffffffff168152602001908152602001600020600084815260200190815260200160002054905080600660008773ffffffffffffffffffffffffffffffffffffffff1673ffffffffffffffffffffffffffffffffffffffff168152602001908152602001600020600084815260200190815260200160002081905550816007600083815260200190815260200160002081905550505b6007600084815260200190815260200160002060009055600660008573ffffffffffffffffffffffffffffffffffffffff1673ffffffffffffffffffffffffffffffffffffffff16815260200190815260200160002060008381526020019081526020016000206000905550505050565b60006001600880549050613b5991906151a3565b9050600060096000848152602001908152602001600020549050600060088381548110613b8957613b88615426565b5b906000526020600020015490508060088381548110613bab57613baa615426565b5b906000526020600020018190555081600960008381526020019081526020016000208190555060096000858152602001908152602001600020600090556008805480613bfa57613bf96153f7565b5b6001900381819060005260206000200160009055905550505050565b6000613c21836118ce565b905081600660008573ffffffffffffffffffffffffffffffffffffffff1673ffffffffffffffffffffffffffffffffffffffff168152602001908152602001600020600083815260200190815260200160002081905550806007600084815260200190815260200160002081905550505050565b600073ffffffffffffffffffffffffffffffffffffffff168273ffffffffffffffffffffffffffffffffffffffff161415613d05576040517f08c379a0000000000000000000000000000000000000000000000000000000008152600401613cfc90614dec565b60405180910390fd5b613d0e81612d08565b15613d4e576040517f08c379a0000000000000000000000000000000000000000000000000000000008152600401613d4590614cac565b60405180910390fd5b613d5a60008383613684565b6001600360008473ffffffffffffffffffffffffffffffffffffffff1673ffffffffffffffffffffffffffffffffffffffff1681526020019081526020016000206000828254613daa91906150c2565b92505081905550816002600083815260200190815260200160002060006101000a81548173ffffffffffffffffffffffffffffffffffffffff021916908373ffffffffffffffffffffffffffffffffffffffff160217905550808273ffffffffffffffffffffffffffffffffffffffff16600073ffffffffffffffffffffffffffffffffffffffff167fddf252ad1be2c89b69c2b068fc378daa952ba7f163c4a11628f55a4df523b3ef60405160405180910390a4613e6b60008383613798565b5050565b828054613e7b9061528d565b90600052602060002090601f016020900481019282613e9d5760008555613ee4565b82601f10613eb657805160ff1916838001178555613ee4565b82800160010185558215613ee4579182015b82811115613ee3578251825591602001919060010190613ec8565b5b509050613ef19190613ef5565b5090565b5b80821115613f0e576000816000905550600101613ef6565b5090565b6000613f25613f2084614f6c565b614f47565b90508083825260208201905082856020860282011115613f4857613f47615489565b5b60005b85811015613f785781613f5e8882614076565b845260208401935060208301925050600181019050613f4b565b5050509392505050565b6000613f95613f9084614f98565b614f47565b90508083825260208201905082856020860282011115613fb857613fb7615489565b5b60005b85811015613fe85781613fce8882614182565b845260208401935060208301925050600181019050613fbb565b5050509392505050565b600061400561400084614fc4565b614f47565b9050828152602081018484840111156140215761402061548e565b5b61402c84828561524b565b509392505050565b600061404761404284614ff5565b614f47565b9050828152602081018484840111156140635761406261548e565b5b61406e84828561524b565b509392505050565b60008135905061408581615bb0565b92915050565b600082601f8301126140a05761409f615484565b5b81356140b0848260208601613f12565b91505092915050565b600082601f8301126140ce576140cd615484565b5b81356140de848260208601613f82565b91505092915050565b6000813590506140f681615bc7565b92915050565b60008135905061410b81615bde565b92915050565b60008151905061412081615bde565b92915050565b600082601f83011261413b5761413a615484565b5b813561414b848260208601613ff2565b91505092915050565b600082601f83011261416957614168615484565b5b8135614179848260208601614034565b91505092915050565b60008135905061419181615bf5565b92915050565b6000602082840312156141ad576141ac615498565b5b60006141bb84828501614076565b91505092915050565b600080604083850312156141db576141da615498565b5b60006141e985828601614076565b92505060206141fa85828601614076565b9150509250929050565b60008060006060848603121561421d5761421c615498565b5b600061422b86828701614076565b935050602061423c86828701614076565b925050604061424d86828701614182565b9150509250925092565b6000806000806080858703121561427157614270615498565b5b600061427f87828801614076565b945050602061429087828801614076565b93505060406142a187828801614182565b925050606085013567ffffffffffffffff8111156142c2576142c1615493565b5b6142ce87828801614126565b91505092959194509250565b600080604083850312156142f1576142f0615498565b5b60006142ff85828601614076565b9250506020614310858286016140e7565b9150509250929050565b6000806040838503121561433157614330615498565b5b600061433f85828601614076565b925050602061435085828601614182565b9150509250929050565b6000602082840312156143705761436f615498565b5b600082013567ffffffffffffffff81111561438e5761438d615493565b5b61439a8482850161408b565b91505092915050565b600080604083850312156143ba576143b9615498565b5b600083013567ffffffffffffffff8111156143d8576143d7615493565b5b6143e48582860161408b565b925050602083013567ffffffffffffffff81111561440557614404615493565b5b614411858286016140b9565b9150509250929050565b60006020828403121561443157614430615498565b5b600061443f848285016140e7565b91505092915050565b60006020828403121561445e5761445d615498565b5b600061446c848285016140fc565b91505092915050565b60006020828403121561448b5761448a615498565b5b600061449984828501614111565b91505092915050565b6000602082840312156144b8576144b7615498565b5b600082013567ffffffffffffffff8111156144d6576144d5615493565b5b6144e284828501614154565b91505092915050565b60006020828403121561450157614500615498565b5b600061450f84828501614182565b91505092915050565b60006145248383614aa2565b60208301905092915050565b614539816151d7565b82525050565b600061454a8261504b565b6145548185615079565b935061455f83615026565b8060005b838110156145905781516145778882614518565b97506145828361506c565b925050600181019050614563565b5085935050505092915050565b6145a6816151e9565b82525050565b60006145b782615056565b6145c1818561508a565b93506145d181856020860161525a565b6145da8161549d565b840191505092915050565b60006145f082615061565b6145fa81856150a6565b935061460a81856020860161525a565b6146138161549d565b840191505092915050565b600061462982615061565b61463381856150b7565b935061464381856020860161525a565b80840191505092915050565b6000815461465c8161528d565b61466681866150b7565b945060018216600081146146815760018114614692576146c5565b60ff198316865281860193506146c5565b61469b85615036565b60005b838110156146bd5781548189015260018201915060208101905061469e565b838801955050505b50505092915050565b60006146db601d836150a6565b91506146e6826154ae565b602082019050919050565b60006146fe602d836150a6565b9150614709826154d7565b604082019050919050565b6000614721602b836150a6565b915061472c82615526565b604082019050919050565b6000614744602c836150a6565b915061474f82615575565b604082019050919050565b60006147676032836150a6565b9150614772826155c4565b604082019050919050565b600061478a6026836150a6565b915061479582615613565b604082019050919050565b60006147ad6025836150a6565b91506147b882615662565b604082019050919050565b60006147d0601c836150a6565b91506147db826156b1565b602082019050919050565b60006147f3601f836150a6565b91506147fe826156da565b602082019050919050565b60006148166024836150a6565b915061482182615703565b604082019050919050565b60006148396019836150a6565b915061484482615752565b602082019050919050565b600061485c602c836150a6565b91506148678261577b565b604082019050919050565b600061487f6023836150a6565b915061488a826157ca565b604082019050919050565b60006148a26038836150a6565b91506148ad82615819565b604082019050919050565b60006148c5602a836150a6565b91506148d082615868565b604082019050919050565b60006148e86029836150a6565b91506148f3826158b7565b604082019050919050565b600061490b6016836150a6565b915061491682615906565b602082019050919050565b600061492e6020836150a6565b91506149398261592f565b602082019050919050565b60006149516022836150a6565b915061495c82615958565b604082019050919050565b6000614974602c836150a6565b915061497f826159a7565b604082019050919050565b60006149976020836150a6565b91506149a2826159f6565b602082019050919050565b60006149ba602f836150a6565b91506149c582615a1f565b604082019050919050565b60006149dd6011836150a6565b91506149e882615a6e565b602082019050919050565b6000614a006021836150a6565b9150614a0b82615a97565b604082019050919050565b6000614a2360008361509b565b9150614a2e82615ae6565b600082019050919050565b6000614a466031836150a6565b9150614a5182615ae9565b604082019050919050565b6000614a69602c836150a6565b9150614a7482615b38565b604082019050919050565b6000614a8c6018836150a6565b9150614a9782615b87565b602082019050919050565b614aab81615241565b82525050565b614aba81615241565b82525050565b6000614acc828661461e565b9150614ad8828561461e565b9150614ae4828461464f565b9150819050949350505050565b6000614afc82614a16565b9150819050919050565b6000602082019050614b1b6000830184614530565b92915050565b6000608082019050614b366000830187614530565b614b436020830186614530565b614b506040830185614ab1565b8181036060830152614b6281846145ac565b905095945050505050565b60006020820190508181036000830152614b87818461453f565b905092915050565b6000602082019050614ba4600083018461459d565b92915050565b60006020820190508181036000830152614bc481846145e5565b905092915050565b60006020820190508181036000830152614be5816146ce565b9050919050565b60006020820190508181036000830152614c05816146f1565b9050919050565b60006020820190508181036000830152614c2581614714565b9050919050565b60006020820190508181036000830152614c4581614737565b9050919050565b60006020820190508181036000830152614c658161475a565b9050919050565b60006020820190508181036000830152614c858161477d565b9050919050565b60006020820190508181036000830152614ca5816147a0565b9050919050565b60006020820190508181036000830152614cc5816147c3565b9050919050565b60006020820190508181036000830152614ce5816147e6565b9050919050565b60006020820190508181036000830152614d0581614809565b9050919050565b60006020820190508181036000830152614d258161482c565b9050919050565b60006020820190508181036000830152614d458161484f565b9050919050565b60006020820190508181036000830152614d6581614872565b9050919050565b60006020820190508181036000830152614d8581614895565b9050919050565b60006020820190508181036000830152614da5816148b8565b9050919050565b60006020820190508181036000830152614dc5816148db565b9050919050565b60006020820190508181036000830152614de5816148fe565b9050919050565b60006020820190508181036000830152614e0581614921565b9050919050565b60006020820190508181036000830152614e2581614944565b9050919050565b60006020820190508181036000830152614e4581614967565b9050919050565b60006020820190508181036000830152614e658161498a565b9050919050565b60006020820190508181036000830152614e85816149ad565b9050919050565b60006020820190508181036000830152614ea5816149d0565b9050919050565b60006020820190508181036000830152614ec5816149f3565b9050919050565b60006020820190508181036000830152614ee581614a39565b9050919050565b60006020820190508181036000830152614f0581614a5c565b9050919050565b60006020820190508181036000830152614f2581614a7f565b9050919050565b6000602082019050614f416000830184614ab1565b92915050565b6000614f51614f62565b9050614f5d82826152bf565b919050565b6000604051905090565b600067ffffffffffffffff821115614f8757614f86615455565b5b602082029050602081019050919050565b600067ffffffffffffffff821115614fb357614fb2615455565b5b602082029050602081019050919050565b600067ffffffffffffffff821115614fdf57614fde615455565b5b614fe88261549d565b9050602081019050919050565b600067ffffffffffffffff8211156150105761500f615455565b5b6150198261549d565b9050602081019050919050565b6000819050602082019050919050565b60008190508160005260206000209050919050565b600081519050919050565b600081519050919050565b600081519050919050565b6000602082019050919050565b600082825260208201905092915050565b600082825260208201905092915050565b600081905092915050565b600082825260208201905092915050565b600081905092915050565b60006150cd82615241565b91506150d883615241565b9250827fffffffffffffffffffffffffffffffffffffffffffffffffffffffffffffffff0382111561510d5761510c61536a565b5b828201905092915050565b600061512382615241565b915061512e83615241565b92508261513e5761513d615399565b5b828204905092915050565b600061515482615241565b915061515f83615241565b9250817fffffffffffffffffffffffffffffffffffffffffffffffffffffffffffffffff04831182151516156151985761519761536a565b5b828202905092915050565b60006151ae82615241565b91506151b983615241565b9250828210156151cc576151cb61536a565b5b828203905092915050565b60006151e282615221565b9050919050565b60008115159050919050565b60007fffffffff0000000000000000000000000000000000000000000000000000000082169050919050565b600073ffffffffffffffffffffffffffffffffffffffff82169050919050565b6000819050919050565b82818337600083830152505050565b60005b8381101561527857808201518184015260208101905061525d565b83811115615287576000848401525b50505050565b600060028204905060018216806152a557607f821691505b602082108114156152b9576152b86153c8565b5b50919050565b6152c88261549d565b810181811067ffffffffffffffff821117156152e7576152e6615455565b5b80604052505050565b60006152fb82615241565b91507fffffffffffffffffffffffffffffffffffffffffffffffffffffffffffffffff82141561532e5761532d61536a565b5b600182019050919050565b600061534482615241565b915061534f83615241565b92508261535f5761535e615399565b5b828206905092915050565b7f4e487b7100000000000000000000000000000000000000000000000000000000600052601160045260246000fd5b7f4e487b7100000000000000000000000000000000000000000000000000000000600052601260045260246000fd5b7f4e487b7100000000000000000000000000000000000000000000000000000000600052602260045260246000fd5b7f4e487b7100000000000000000000000000000000000000000000000000000000600052603160045260246000fd5b7f4e487b7100000000000000000000000000000000000000000000000000000000600052603260045260246000fd5b7f4e487b7100000000000000000000000000000000000000000000000000000000600052604160045260246000fd5b600080fd5b600080fd5b600080fd5b600080fd5b600080fd5b6000601f19601f8301169050919050565b7f43616e2774206d696e74206d6f7265207468616e207265736572766564000000600082015250565b7f43616e206f6e6c79206d696e74206265747765656e203120616e64203230207460008201527f6f6b656e73206174206f6e636500000000000000000000000000000000000000602082015250565b7f455243373231456e756d657261626c653a206f776e657220696e646578206f7560008201527f74206f6620626f756e6473000000000000000000000000000000000000000000602082015250565b7f43616e206f6e6c79206d696e74206265747765656e203120616e64203420746f60008201527f6b656e73206174206f6e63650000000000000000000000000000000000000000602082015250565b7f4552433732313a207472616e7366657220746f206e6f6e20455243373231526560008201527f63656976657220696d706c656d656e7465720000000000000000000000000000602082015250565b7f4f776e61626c653a206e6577206f776e657220697320746865207a65726f206160008201527f6464726573730000000000000000000000000000000000000000000000000000602082015250565b7f4552433732313a207472616e736665722066726f6d20696e636f72726563742060008201527f6f776e6572000000000000000000000000000000000000000000000000000000602082015250565b7f4552433732313a20746f6b656e20616c7265616479206d696e74656400000000600082015250565b7f43616e2774206d696e74206d6f7265207468616e206d617820737570706c7900600082015250565b7f4552433732313a207472616e7366657220746f20746865207a65726f2061646460008201527f7265737300000000000000000000000000000000000000000000000000000000602082015250565b7f4552433732313a20617070726f766520746f2063616c6c657200000000000000600082015250565b7f4552433732313a206f70657261746f7220717565727920666f72206e6f6e657860008201527f697374656e7420746f6b656e0000000000000000000000000000000000000000602082015250565b7f4e6f20746f6b656e7320726573657276656420666f7220796f7572206164647260008201527f6573730000000000000000000000000000000000000000000000000000000000602082015250565b7f4552433732313a20617070726f76652063616c6c6572206973206e6f74206f7760008201527f6e6572206e6f7220617070726f76656420666f7220616c6c0000000000000000602082015250565b7f4552433732313a2062616c616e636520717565727920666f7220746865207a6560008201527f726f206164647265737300000000000000000000000000000000000000000000602082015250565b7f4552433732313a206f776e657220717565727920666f72206e6f6e657869737460008201527f656e7420746f6b656e0000000000000000000000000000000000000000000000602082015250565b7f57686974656c6973742069736e27742061637469766500000000000000000000600082015250565b7f4552433732313a206d696e7420746f20746865207a65726f2061646472657373600082015250565b7f43616e27742072657365727665206d6f7265207468616e2073657420616d6f7560008201527f6e74000000000000000000000000000000000000000000000000000000000000602082015250565b7f4552433732313a20617070726f76656420717565727920666f72206e6f6e657860008201527f697374656e7420746f6b656e0000000000000000000000000000000000000000602082015250565b7f4f776e61626c653a2063616c6c6572206973206e6f7420746865206f776e6572600082015250565b7f4552433732314d657461646174613a2055524920717565727920666f72206e6f60008201527f6e6578697374656e7420746f6b656e0000000000000000000000000000000000602082015250565b7f53616c652069736e277420616374697665000000000000000000000000000000600082015250565b7f4552433732313a20617070726f76616c20746f2063757272656e74206f776e6560008201527f7200000000000000000000000000000000000000000000000000000000000000602082015250565b50565b7f4552433732313a207472616e736665722063616c6c6572206973206e6f74206f60008201527f776e6572206e6f7220617070726f766564000000000000000000000000000000602082015250565b7f455243373231456e756d657261626c653a20676c6f62616c20696e646578206f60008201527f7574206f6620626f756e64730000000000000000000000000000000000000000602082015250565b7f57726f6e6720616d6f756e74206f66204554482073656e740000000000000000600082015250565b615bb9816151d7565b8114615bc457600080fd5b50565b615bd0816151e9565b8114615bdb57600080fd5b50565b615be7816151f5565b8114615bf257600080fd5b50565b615bfe81615241565b8114615c0957600080fd5b5056fea26469706673582212207f9ad2b7e06703baba83fedb7f026682824a42dc03f3ddc8e8e4a494999ce98264736f6c6343000807003368747470733a2f2f626f68656d69616e2e6d7970696e6174612e636c6f75642f697066732f516d65696b57524c6671504d6556396f5a566167796f56533343674c5861483172424e79657065556e6d667a644168747470733a2f2f626f68656d69616e2e6d7970696e6174612e636c6f75642f697066732f516d534d444a4136415471506276466e6d6f576a6f71444e42325759714e576a56456444484136613434786956522f",
  "immutableReferences": {},
  "source": "// SPDX-License-Identifier: GPL-3.0\r\n\r\npragma solidity >=0.7.0 <0.9.0;\r\n\r\nimport \"@openzeppelin/contracts/token/ERC721/extensions/ERC721Enumerable.sol\";\r\nimport \"@openzeppelin/contracts/access/Ownable.sol\";\r\n\r\ncontract MumbaiUltimate is ERC721Enumerable, Ownable {\r\n  using Strings for uint256;\r\n\r\n      // Starting and stopping sale, presale and whitelis\r\n    bool public saleActive = true;\r\n    bool public whitelistActive = false;\r\n    bool public presaleActive = false;\r\n   \r\n    //quit reveal for oficial version\r\n    bool public revealed = false;\r\n\r\n    // Reserved for the team, customs, giveaways, collabs and so on.\r\n    uint256 public reserved = 150;\r\n\r\n    // Price of each token\r\n    uint256 public initial_price = 0.01234 ether;\r\n    uint256 public price;\r\n    \r\n      // Maximum limit of tokens that can ever exist\r\n    uint256 public constant MAX_SUPPLY = 10000;\r\n    uint256 public constant MAX_PRESALE_SUPPLY = 500;\r\n    uint256 public constant MAX_MINT_PER_TX = 50;\r\n\r\n      // Team addresses for withdrawals\r\n    address public a1;\r\n    address public a2;\r\n    address public a3;\r\n\r\n\r\n    // List of addresses that have a number of reserved tokens for whitelist\r\n     mapping (address => uint256) public whitelistReserved;\r\n\r\n     string public notRevealedUri;\r\n     string public baseURI;\r\n     string public baseExtension = \".json\";\r\n\r\n  constructor(\r\n  ) ERC721(\"MumbaiUltimate\", \"MU\") {\r\n     setBaseURI(\"https://bohemian.mypinata.cloud/ipfs/QmSMDJA6ATqPbvFnmoWjoqDNB2WYqNWjVEdDHA6a44xiVR/\");\r\n     setNotRevealedURI(\"https://bohemian.mypinata.cloud/ipfs/QmeikWRLfqPMeV9oZVagyoVS3CgLXaH1rBNyepeUnmfzdA\");\r\n      mintToken(10);\r\n      price = initial_price;\r\n  }\r\n  function _baseURI() internal view virtual override returns (string memory) {\r\n    return baseURI;\r\n  }\r\n\r\n    // See which address owns which tokens\r\n       function tokensOfOwner(address addr) public view returns(uint256[] memory) {\r\n        uint256 tokenCount = balanceOf(addr);\r\n        uint256[] memory tokensId = new uint256[](tokenCount);\r\n        for(uint256 i; i < tokenCount; i++){\r\n            tokensId[i] = tokenOfOwnerByIndex(addr, i);\r\n        }\r\n        return tokensId;\r\n    }\r\n\r\n        // Exclusive whitelist minting\r\n        function mintWhitelist(uint256 _amount) public payable {\r\n        uint256 supply = totalSupply();\r\n        uint256 reservedAmt = whitelistReserved[msg.sender];\r\n        require( whitelistActive,                   \"Whitelist isn't active\" );\r\n        require( reservedAmt > 0,                   \"No tokens reserved for your address\" );\r\n        require( _amount <= reservedAmt,            \"Can't mint more than reserved\" );\r\n        require( supply + _amount <= MAX_SUPPLY,    \"Can't mint more than max supply\" );\r\n        require( msg.value >= price * _amount,      \"Wrong amount of ETH sent\" );\r\n        whitelistReserved[msg.sender] = reservedAmt - _amount;\r\n        for(uint256 i; i < _amount; i++){\r\n            _safeMint( msg.sender, supply + i );\r\n        }\r\n    }\r\n\r\n       // Presale minting\r\n     function mintPresale(uint256 _amount) public payable {\r\n        uint256 supply = totalSupply();\r\n        require( presaleActive,                             \"Sale isn't active\" );\r\n        require( _amount > 0 && _amount <= MAX_MINT_PER_TX, \"Can only mint between 1 and 20 tokens at once\" );\r\n        require( supply + _amount <= MAX_PRESALE_SUPPLY,    \"Can't mint more than max supply\" );\r\n        require( msg.value >= price * _amount,              \"Wrong amount of ETH sent\" );\r\n        for(uint256 i; i < _amount; i++){\r\n            _safeMint( msg.sender, supply + i );\r\n        }\r\n    }\r\n    \r\n           // Standard mint function\r\n     function mintToken(uint256 _amount) public payable {\r\n        uint256 supply = totalSupply();\r\n        require( saleActive,                                \"Sale isn't active\" );\r\n        require( _amount > 0 && _amount <= MAX_MINT_PER_TX, \"Can only mint between 1 and 4 tokens at once\" );\r\n        require( supply + _amount <= MAX_SUPPLY,            \"Can't mint more than max supply\" );\r\n        require( msg.value >= price * _amount,              \"Wrong amount of ETH sent\" );\r\n        for(uint256 i; i < _amount; i++){\r\n            _safeMint( msg.sender, supply + i );\r\n        }\r\n    }\r\n       // Admin minting function to reserve tokens for the team, collabs, customs and giveaways\r\n      function mintReserved(uint256 _amount) public onlyOwner {\r\n        // Limited to a publicly set amount\r\n        require( _amount <= reserved, \"Can't reserve more than set amount\" );\r\n        reserved -= _amount;\r\n        uint256 supply = totalSupply();\r\n        for(uint256 i; i <= _amount; i++){\r\n            _safeMint( msg.sender, supply + i );\r\n        }\r\n    }\r\n\r\n   // Edit reserved whitelist spots\r\n    function editWhitelistReserved(address[] memory _a, uint256[] memory _amount) public onlyOwner {\r\n        for(uint256 i; i < _a.length; i++){\r\n            whitelistReserved[_a[i]] = _amount[i];\r\n        }\r\n    }\r\n\r\n      // Start and stop whitelist\r\n    function setWhitelistActive(bool val) public onlyOwner {\r\n        whitelistActive = val;\r\n    }\r\n\r\n    // Start and stop presale\r\n    function setPresaleActive(bool val) public onlyOwner {\r\n        presaleActive = val;\r\n    }\r\n\r\n      // Start and stop sale\r\n    function setSaleActive(bool val) public onlyOwner {\r\n        saleActive = val;\r\n    }\r\n      // Set a different price in case ETH changes drastically\r\n    function setPrice(uint256 newPrice) public onlyOwner {\r\n        price = newPrice;\r\n    }\r\n\r\n      // Set team addresses\r\n    function setAddresses(address[] memory _a) public onlyOwner {\r\n        a1 = _a[0];\r\n        a2 = _a[1];\r\n        a3 = _a[2];\r\n    }\r\n\r\n    // Withdraw funds from contract for the team\r\n    function withdrawTeam(uint256 amount) public payable onlyOwner {\r\n        uint256 percent = amount / 100;\r\n        require(payable(a1).send(percent * 40));\r\n        require(payable(a2).send(percent * 30));\r\n        require(payable(a3).send(percent * 30));\r\n    }\r\n\r\n  function withdraw() public payable onlyOwner {\r\n \r\n    (bool hs, ) = payable(0xd0A7f7829aA9166812A36ace2188874E29B21d07).call{value: address(this).balance * 5 / 100}(\"\");\r\n    require(hs);\r\n    (bool os, ) = payable(owner()).call{value: address(this).balance}(\"\");\r\n    require(os);\r\n  }\r\n\r\n\r\n\r\n\r\n  function walletOfOwner(address _owner)\r\n    public\r\n    view\r\n    returns (uint256[] memory)\r\n  {\r\n    uint256 ownerTokenCount = balanceOf(_owner);\r\n    uint256[] memory tokenIds = new uint256[](ownerTokenCount);\r\n    for (uint256 i; i < ownerTokenCount; i++) {\r\n      tokenIds[i] = tokenOfOwnerByIndex(_owner, i);\r\n    }\r\n    return tokenIds;\r\n  }\r\n\r\n  function tokenURI(uint256 tokenId)\r\n    public\r\n    view\r\n    virtual\r\n    override\r\n    returns (string memory)\r\n  {\r\n    require(\r\n      _exists(tokenId),\r\n      \"ERC721Metadata: URI query for nonexistent token\"\r\n    );\r\n     if(revealed == false) {\r\n        return notRevealedUri;\r\n    }\r\n\r\n    string memory currentBaseURI = _baseURI();\r\n    return bytes(currentBaseURI).length > 0\r\n        ? string(abi.encodePacked(currentBaseURI, tokenId.toString(), baseExtension))\r\n        : \"\";\r\n  }\r\n    function reveal() public onlyOwner {\r\n      revealed = true;\r\n  }\r\nfunction setNotRevealedURI(string memory _notRevealedURI) public onlyOwner {\r\n    notRevealedUri = _notRevealedURI;\r\n  }\r\n  function setBaseURI(string memory _newBaseURI) public onlyOwner {\r\n    baseURI = _newBaseURI;\r\n  }\r\n\r\n  function setBaseExtension(string memory _newBaseExtension) public onlyOwner {\r\n    baseExtension = _newBaseExtension;\r\n  }\r\n}",
  "sourcePath": "C:\\digitalArt\\collectioNft\\contracts\\MumbaiUltimate.sol",
  "compiler": {
    "name": "solc",
    "version": "0.8.7+commit.e28d00a7.Emscripten.clang"
  },
  "schemaVersion": "3.4.5",
  "updatedAt": "2022-03-07T15:38:52.336Z",
  "networkType": "ethereum",
  "devdoc": {
    "kind": "dev",
    "methods": {
      "approve(address,uint256)": {
        "details": "See {IERC721-approve}."
      },
      "balanceOf(address)": {
        "details": "See {IERC721-balanceOf}."
      },
      "getApproved(uint256)": {
        "details": "See {IERC721-getApproved}."
      },
      "isApprovedForAll(address,address)": {
        "details": "See {IERC721-isApprovedForAll}."
      },
      "name()": {
        "details": "See {IERC721Metadata-name}."
      },
      "owner()": {
        "details": "Returns the address of the current owner."
      },
      "ownerOf(uint256)": {
        "details": "See {IERC721-ownerOf}."
      },
      "renounceOwnership()": {
        "details": "Leaves the contract without owner. It will not be possible to call `onlyOwner` functions anymore. Can only be called by the current owner. NOTE: Renouncing ownership will leave the contract without an owner, thereby removing any functionality that is only available to the owner."
      },
      "safeTransferFrom(address,address,uint256)": {
        "details": "See {IERC721-safeTransferFrom}."
      },
      "safeTransferFrom(address,address,uint256,bytes)": {
        "details": "See {IERC721-safeTransferFrom}."
      },
      "setApprovalForAll(address,bool)": {
        "details": "See {IERC721-setApprovalForAll}."
      },
      "supportsInterface(bytes4)": {
        "details": "See {IERC165-supportsInterface}."
      },
      "symbol()": {
        "details": "See {IERC721Metadata-symbol}."
      },
      "tokenByIndex(uint256)": {
        "details": "See {IERC721Enumerable-tokenByIndex}."
      },
      "tokenOfOwnerByIndex(address,uint256)": {
        "details": "See {IERC721Enumerable-tokenOfOwnerByIndex}."
      },
      "tokenURI(uint256)": {
        "details": "See {IERC721Metadata-tokenURI}."
      },
      "totalSupply()": {
        "details": "See {IERC721Enumerable-totalSupply}."
      },
      "transferFrom(address,address,uint256)": {
        "details": "See {IERC721-transferFrom}."
      },
      "transferOwnership(address)": {
        "details": "Transfers ownership of the contract to a new account (`newOwner`). Can only be called by the current owner."
      }
    },
    "version": 1
  },
  "userdoc": {
    "kind": "user",
    "methods": {},
    "version": 1
  }
}