{
  "contractName": "PolygonVerify",
  "abi": [
    {
      "inputs": [],
      "stateMutability": "nonpayable",
      "type": "constructor"
    },
    {
      "anonymous": false,
      "inputs": [
        {
          "indexed": true,
          "internalType": "address",
          "name": "owner",
          "type": "address"
        },
        {
          "indexed": true,
          "internalType": "address",
          "name": "approved",
          "type": "address"
        },
        {
          "indexed": true,
          "internalType": "uint256",
          "name": "tokenId",
          "type": "uint256"
        }
      ],
      "name": "Approval",
      "type": "event"
    },
    {
      "anonymous": false,
      "inputs": [
        {
          "indexed": true,
          "internalType": "address",
          "name": "owner",
          "type": "address"
        },
        {
          "indexed": true,
          "internalType": "address",
          "name": "operator",
          "type": "address"
        },
        {
          "indexed": false,
          "internalType": "bool",
          "name": "approved",
          "type": "bool"
        }
      ],
      "name": "ApprovalForAll",
      "type": "event"
    },
    {
      "anonymous": false,
      "inputs": [
        {
          "indexed": true,
          "internalType": "address",
          "name": "previousOwner",
          "type": "address"
        },
        {
          "indexed": true,
          "internalType": "address",
          "name": "newOwner",
          "type": "address"
        }
      ],
      "name": "OwnershipTransferred",
      "type": "event"
    },
    {
      "anonymous": false,
      "inputs": [
        {
          "indexed": true,
          "internalType": "address",
          "name": "from",
          "type": "address"
        },
        {
          "indexed": true,
          "internalType": "address",
          "name": "to",
          "type": "address"
        },
        {
          "indexed": true,
          "internalType": "uint256",
          "name": "tokenId",
          "type": "uint256"
        }
      ],
      "name": "Transfer",
      "type": "event"
    },
    {
      "inputs": [],
      "name": "MAX_MINT_PER_TX",
      "outputs": [
        {
          "internalType": "uint256",
          "name": "",
          "type": "uint256"
        }
      ],
      "stateMutability": "view",
      "type": "function",
      "constant": true
    },
    {
      "inputs": [],
      "name": "MAX_PRESALE_SUPPLY",
      "outputs": [
        {
          "internalType": "uint256",
          "name": "",
          "type": "uint256"
        }
      ],
      "stateMutability": "view",
      "type": "function",
      "constant": true
    },
    {
      "inputs": [],
      "name": "MAX_SUPPLY",
      "outputs": [
        {
          "internalType": "uint256",
          "name": "",
          "type": "uint256"
        }
      ],
      "stateMutability": "view",
      "type": "function",
      "constant": true
    },
    {
      "inputs": [],
      "name": "a1",
      "outputs": [
        {
          "internalType": "address",
          "name": "",
          "type": "address"
        }
      ],
      "stateMutability": "view",
      "type": "function",
      "constant": true
    },
    {
      "inputs": [],
      "name": "a2",
      "outputs": [
        {
          "internalType": "address",
          "name": "",
          "type": "address"
        }
      ],
      "stateMutability": "view",
      "type": "function",
      "constant": true
    },
    {
      "inputs": [],
      "name": "a3",
      "outputs": [
        {
          "internalType": "address",
          "name": "",
          "type": "address"
        }
      ],
      "stateMutability": "view",
      "type": "function",
      "constant": true
    },
    {
      "inputs": [
        {
          "internalType": "address",
          "name": "to",
          "type": "address"
        },
        {
          "internalType": "uint256",
          "name": "tokenId",
          "type": "uint256"
        }
      ],
      "name": "approve",
      "outputs": [],
      "stateMutability": "nonpayable",
      "type": "function"
    },
    {
      "inputs": [
        {
          "internalType": "address",
          "name": "owner",
          "type": "address"
        }
      ],
      "name": "balanceOf",
      "outputs": [
        {
          "internalType": "uint256",
          "name": "",
          "type": "uint256"
        }
      ],
      "stateMutability": "view",
      "type": "function",
      "constant": true
    },
    {
      "inputs": [],
      "name": "baseExtension",
      "outputs": [
        {
          "internalType": "string",
          "name": "",
          "type": "string"
        }
      ],
      "stateMutability": "view",
      "type": "function",
      "constant": true
    },
    {
      "inputs": [],
      "name": "baseURI",
      "outputs": [
        {
          "internalType": "string",
          "name": "",
          "type": "string"
        }
      ],
      "stateMutability": "view",
      "type": "function",
      "constant": true
    },
    {
      "inputs": [],
      "name": "cost",
      "outputs": [
        {
          "internalType": "uint256",
          "name": "",
          "type": "uint256"
        }
      ],
      "stateMutability": "view",
      "type": "function",
      "constant": true
    },
    {
      "inputs": [
        {
          "internalType": "uint256",
          "name": "tokenId",
          "type": "uint256"
        }
      ],
      "name": "getApproved",
      "outputs": [
        {
          "internalType": "address",
          "name": "",
          "type": "address"
        }
      ],
      "stateMutability": "view",
      "type": "function",
      "constant": true
    },
    {
      "inputs": [],
      "name": "initial_price",
      "outputs": [
        {
          "internalType": "uint256",
          "name": "",
          "type": "uint256"
        }
      ],
      "stateMutability": "view",
      "type": "function",
      "constant": true
    },
    {
      "inputs": [
        {
          "internalType": "address",
          "name": "owner",
          "type": "address"
        },
        {
          "internalType": "address",
          "name": "operator",
          "type": "address"
        }
      ],
      "name": "isApprovedForAll",
      "outputs": [
        {
          "internalType": "bool",
          "name": "",
          "type": "bool"
        }
      ],
      "stateMutability": "view",
      "type": "function",
      "constant": true
    },
    {
      "inputs": [],
      "name": "maxMintAmount",
      "outputs": [
        {
          "internalType": "uint256",
          "name": "",
          "type": "uint256"
        }
      ],
      "stateMutability": "view",
      "type": "function",
      "constant": true
    },
    {
      "inputs": [],
      "name": "maxSupply",
      "outputs": [
        {
          "internalType": "uint256",
          "name": "",
          "type": "uint256"
        }
      ],
      "stateMutability": "view",
      "type": "function",
      "constant": true
    },
    {
      "inputs": [],
      "name": "name",
      "outputs": [
        {
          "internalType": "string",
          "name": "",
          "type": "string"
        }
      ],
      "stateMutability": "view",
      "type": "function",
      "constant": true
    },
    {
      "inputs": [],
      "name": "owner",
      "outputs": [
        {
          "internalType": "address",
          "name": "",
          "type": "address"
        }
      ],
      "stateMutability": "view",
      "type": "function",
      "constant": true
    },
    {
      "inputs": [
        {
          "internalType": "uint256",
          "name": "tokenId",
          "type": "uint256"
        }
      ],
      "name": "ownerOf",
      "outputs": [
        {
          "internalType": "address",
          "name": "",
          "type": "address"
        }
      ],
      "stateMutability": "view",
      "type": "function",
      "constant": true
    },
    {
      "inputs": [],
      "name": "paused",
      "outputs": [
        {
          "internalType": "bool",
          "name": "",
          "type": "bool"
        }
      ],
      "stateMutability": "view",
      "type": "function",
      "constant": true
    },
    {
      "inputs": [],
      "name": "presaleActive",
      "outputs": [
        {
          "internalType": "bool",
          "name": "",
          "type": "bool"
        }
      ],
      "stateMutability": "view",
      "type": "function",
      "constant": true
    },
    {
      "inputs": [],
      "name": "price",
      "outputs": [
        {
          "internalType": "uint256",
          "name": "",
          "type": "uint256"
        }
      ],
      "stateMutability": "view",
      "type": "function",
      "constant": true
    },
    {
      "inputs": [],
      "name": "renounceOwnership",
      "outputs": [],
      "stateMutability": "nonpayable",
      "type": "function"
    },
    {
      "inputs": [],
      "name": "reserved",
      "outputs": [
        {
          "internalType": "uint256",
          "name": "",
          "type": "uint256"
        }
      ],
      "stateMutability": "view",
      "type": "function",
      "constant": true
    },
    {
      "inputs": [
        {
          "internalType": "address",
          "name": "from",
          "type": "address"
        },
        {
          "internalType": "address",
          "name": "to",
          "type": "address"
        },
        {
          "internalType": "uint256",
          "name": "tokenId",
          "type": "uint256"
        }
      ],
      "name": "safeTransferFrom",
      "outputs": [],
      "stateMutability": "nonpayable",
      "type": "function"
    },
    {
      "inputs": [
        {
          "internalType": "address",
          "name": "from",
          "type": "address"
        },
        {
          "internalType": "address",
          "name": "to",
          "type": "address"
        },
        {
          "internalType": "uint256",
          "name": "tokenId",
          "type": "uint256"
        },
        {
          "internalType": "bytes",
          "name": "_data",
          "type": "bytes"
        }
      ],
      "name": "safeTransferFrom",
      "outputs": [],
      "stateMutability": "nonpayable",
      "type": "function"
    },
    {
      "inputs": [],
      "name": "saleActive",
      "outputs": [
        {
          "internalType": "bool",
          "name": "",
          "type": "bool"
        }
      ],
      "stateMutability": "view",
      "type": "function",
      "constant": true
    },
    {
      "inputs": [
        {
          "internalType": "address",
          "name": "operator",
          "type": "address"
        },
        {
          "internalType": "bool",
          "name": "approved",
          "type": "bool"
        }
      ],
      "name": "setApprovalForAll",
      "outputs": [],
      "stateMutability": "nonpayable",
      "type": "function"
    },
    {
      "inputs": [
        {
          "internalType": "bytes4",
          "name": "interfaceId",
          "type": "bytes4"
        }
      ],
      "name": "supportsInterface",
      "outputs": [
        {
          "internalType": "bool",
          "name": "",
          "type": "bool"
        }
      ],
      "stateMutability": "view",
      "type": "function",
      "constant": true
    },
    {
      "inputs": [],
      "name": "symbol",
      "outputs": [
        {
          "internalType": "string",
          "name": "",
          "type": "string"
        }
      ],
      "stateMutability": "view",
      "type": "function",
      "constant": true
    },
    {
      "inputs": [
        {
          "internalType": "uint256",
          "name": "index",
          "type": "uint256"
        }
      ],
      "name": "tokenByIndex",
      "outputs": [
        {
          "internalType": "uint256",
          "name": "",
          "type": "uint256"
        }
      ],
      "stateMutability": "view",
      "type": "function",
      "constant": true
    },
    {
      "inputs": [
        {
          "internalType": "address",
          "name": "owner",
          "type": "address"
        },
        {
          "internalType": "uint256",
          "name": "index",
          "type": "uint256"
        }
      ],
      "name": "tokenOfOwnerByIndex",
      "outputs": [
        {
          "internalType": "uint256",
          "name": "",
          "type": "uint256"
        }
      ],
      "stateMutability": "view",
      "type": "function",
      "constant": true
    },
    {
      "inputs": [],
      "name": "totalSupply",
      "outputs": [
        {
          "internalType": "uint256",
          "name": "",
          "type": "uint256"
        }
      ],
      "stateMutability": "view",
      "type": "function",
      "constant": true
    },
    {
      "inputs": [
        {
          "internalType": "address",
          "name": "from",
          "type": "address"
        },
        {
          "internalType": "address",
          "name": "to",
          "type": "address"
        },
        {
          "internalType": "uint256",
          "name": "tokenId",
          "type": "uint256"
        }
      ],
      "name": "transferFrom",
      "outputs": [],
      "stateMutability": "nonpayable",
      "type": "function"
    },
    {
      "inputs": [
        {
          "internalType": "address",
          "name": "newOwner",
          "type": "address"
        }
      ],
      "name": "transferOwnership",
      "outputs": [],
      "stateMutability": "nonpayable",
      "type": "function"
    },
    {
      "inputs": [],
      "name": "whitelistActive",
      "outputs": [
        {
          "internalType": "bool",
          "name": "",
          "type": "bool"
        }
      ],
      "stateMutability": "view",
      "type": "function",
      "constant": true
    },
    {
      "inputs": [
        {
          "internalType": "address",
          "name": "",
          "type": "address"
        }
      ],
      "name": "whitelistReserved",
      "outputs": [
        {
          "internalType": "uint256",
          "name": "",
          "type": "uint256"
        }
      ],
      "stateMutability": "view",
      "type": "function",
      "constant": true
    },
    {
      "inputs": [
        {
          "internalType": "address",
          "name": "",
          "type": "address"
        }
      ],
      "name": "whitelisted",
      "outputs": [
        {
          "internalType": "bool",
          "name": "",
          "type": "bool"
        }
      ],
      "stateMutability": "view",
      "type": "function",
      "constant": true
    },
    {
      "inputs": [
        {
          "internalType": "address",
          "name": "addr",
          "type": "address"
        }
      ],
      "name": "tokensOfOwner",
      "outputs": [
        {
          "internalType": "uint256[]",
          "name": "",
          "type": "uint256[]"
        }
      ],
      "stateMutability": "view",
      "type": "function",
      "constant": true
    },
    {
      "inputs": [
        {
          "internalType": "uint256",
          "name": "_amount",
          "type": "uint256"
        }
      ],
      "name": "mintWhitelist",
      "outputs": [],
      "stateMutability": "payable",
      "type": "function",
      "payable": true
    },
    {
      "inputs": [
        {
          "internalType": "uint256",
          "name": "_amount",
          "type": "uint256"
        }
      ],
      "name": "mintPresale",
      "outputs": [],
      "stateMutability": "payable",
      "type": "function",
      "payable": true
    },
    {
      "inputs": [
        {
          "internalType": "uint256",
          "name": "_amount",
          "type": "uint256"
        }
      ],
      "name": "mintToken",
      "outputs": [],
      "stateMutability": "payable",
      "type": "function",
      "payable": true
    },
    {
      "inputs": [
        {
          "internalType": "uint256",
          "name": "_amount",
          "type": "uint256"
        }
      ],
      "name": "mintReserved",
      "outputs": [],
      "stateMutability": "nonpayable",
      "type": "function"
    },
    {
      "inputs": [
        {
          "internalType": "address[]",
          "name": "_a",
          "type": "address[]"
        },
        {
          "internalType": "uint256[]",
          "name": "_amount",
          "type": "uint256[]"
        }
      ],
      "name": "editWhitelistReserved",
      "outputs": [],
      "stateMutability": "nonpayable",
      "type": "function"
    },
    {
      "inputs": [
        {
          "internalType": "bool",
          "name": "val",
          "type": "bool"
        }
      ],
      "name": "setWhitelistActive",
      "outputs": [],
      "stateMutability": "nonpayable",
      "type": "function"
    },
    {
      "inputs": [
        {
          "internalType": "bool",
          "name": "val",
          "type": "bool"
        }
      ],
      "name": "setPresaleActive",
      "outputs": [],
      "stateMutability": "nonpayable",
      "type": "function"
    },
    {
      "inputs": [
        {
          "internalType": "bool",
          "name": "val",
          "type": "bool"
        }
      ],
      "name": "setSaleActive",
      "outputs": [],
      "stateMutability": "nonpayable",
      "type": "function"
    },
    {
      "inputs": [
        {
          "internalType": "uint256",
          "name": "newPrice",
          "type": "uint256"
        }
      ],
      "name": "setPrice",
      "outputs": [],
      "stateMutability": "nonpayable",
      "type": "function"
    },
    {
      "inputs": [
        {
          "internalType": "address[]",
          "name": "_a",
          "type": "address[]"
        }
      ],
      "name": "setAddresses",
      "outputs": [],
      "stateMutability": "nonpayable",
      "type": "function"
    },
    {
      "inputs": [
        {
          "internalType": "uint256",
          "name": "amount",
          "type": "uint256"
        }
      ],
      "name": "withdrawTeam",
      "outputs": [],
      "stateMutability": "payable",
      "type": "function",
      "payable": true
    },
    {
      "inputs": [
        {
          "internalType": "address",
          "name": "_owner",
          "type": "address"
        }
      ],
      "name": "walletOfOwner",
      "outputs": [
        {
          "internalType": "uint256[]",
          "name": "",
          "type": "uint256[]"
        }
      ],
      "stateMutability": "view",
      "type": "function",
      "constant": true
    },
    {
      "inputs": [
        {
          "internalType": "uint256",
          "name": "tokenId",
          "type": "uint256"
        }
      ],
      "name": "tokenURI",
      "outputs": [
        {
          "internalType": "string",
          "name": "",
          "type": "string"
        }
      ],
      "stateMutability": "view",
      "type": "function",
      "constant": true
    },
    {
      "inputs": [
        {
          "internalType": "string",
          "name": "_newBaseURI",
          "type": "string"
        }
      ],
      "name": "setBaseURI",
      "outputs": [],
      "stateMutability": "nonpayable",
      "type": "function"
    },
    {
      "inputs": [
        {
          "internalType": "string",
          "name": "_newBaseExtension",
          "type": "string"
        }
      ],
      "name": "setBaseExtension",
      "outputs": [],
      "stateMutability": "nonpayable",
      "type": "function"
    },
    {
      "inputs": [
        {
          "internalType": "bool",
          "name": "_state",
          "type": "bool"
        }
      ],
      "name": "pause",
      "outputs": [],
      "stateMutability": "nonpayable",
      "type": "function"
    },
    {
      "inputs": [
        {
          "internalType": "address",
          "name": "_user",
          "type": "address"
        }
      ],
      "name": "whitelistUser",
      "outputs": [],
      "stateMutability": "nonpayable",
      "type": "function"
    },
    {
      "inputs": [
        {
          "internalType": "address",
          "name": "_user",
          "type": "address"
        }
      ],
      "name": "removeWhitelistUser",
      "outputs": [],
      "stateMutability": "nonpayable",
      "type": "function"
    }
  ],
  "bytecode": "0x60806040526000600a60146101000a81548160ff0219169083151502179055506000600a60156101000a81548160ff0219169083151502179055506000600a60166101000a81548160ff0219169083151502179055506096600b55668e1bc9bf040000600c556040518060400160405280600581526020017f2e6a736f6e00000000000000000000000000000000000000000000000000000081525060139080519060200190620000b292919062000385565b50662386f26fc1000060145561271060155560146016556000601760006101000a81548160ff021916908315150217905550348015620000f157600080fd5b506040518060400160405280600d81526020017f506f6c79676f6e566572696679000000000000000000000000000000000000008152506040518060400160405280600381526020017f424252000000000000000000000000000000000000000000000000000000000081525081600090805190602001906200017692919062000385565b5080600190805190602001906200018f92919062000385565b505050620001b2620001a6620001e260201b60201c565b620001ea60201b60201c565b620001dc6040518060800160405280605481526020016200608c60549139620002b060201b60201c565b6200051d565b600033905090565b6000600a60009054906101000a900473ffffffffffffffffffffffffffffffffffffffff16905081600a60006101000a81548173ffffffffffffffffffffffffffffffffffffffff021916908373ffffffffffffffffffffffffffffffffffffffff1602179055508173ffffffffffffffffffffffffffffffffffffffff168173ffffffffffffffffffffffffffffffffffffffff167f8be0079c531659141344cd1fd0a4f28419497f9722a3daafe3b4186f6b6457e060405160405180910390a35050565b620002c0620001e260201b60201c565b73ffffffffffffffffffffffffffffffffffffffff16620002e66200035b60201b60201c565b73ffffffffffffffffffffffffffffffffffffffff16146200033f576040517f08c379a0000000000000000000000000000000000000000000000000000000008152600401620003369062000496565b60405180910390fd5b80601290805190602001906200035792919062000385565b5050565b6000600a60009054906101000a900473ffffffffffffffffffffffffffffffffffffffff16905090565b8280546200039390620004e7565b90600052602060002090601f016020900481019282620003b7576000855562000403565b82601f10620003d257805160ff191683800117855562000403565b8280016001018555821562000403579182015b8281111562000402578251825591602001919060010190620003e5565b5b50905062000412919062000416565b5090565b5b808211156200043157600081600090555060010162000417565b5090565b600082825260208201905092915050565b7f4f776e61626c653a2063616c6c6572206973206e6f7420746865206f776e6572600082015250565b60006200047e60208362000435565b91506200048b8262000446565b602082019050919050565b60006020820190508181036000830152620004b1816200046f565b9050919050565b7f4e487b7100000000000000000000000000000000000000000000000000000000600052602260045260246000fd5b600060028204905060018216806200050057607f821691505b60208210811415620005175762000516620004b8565b5b50919050565b615b5f806200052d6000396000f3fe6080604052600436106103765760003560e01c8063715018a6116101d1578063b88d4fde11610102578063d936547e116100a0578063f2fde38b1161006f578063f2fde38b14610ce6578063f759867a14610d0f578063fd2b049214610d2b578063fe60d12c14610d4757610376565b8063d936547e14610c1a578063da3ef23f14610c57578063e985e9c514610c80578063f14c0bcc14610cbd57610376565b8063c634d032116100dc578063c634d03214610b6b578063c668286214610b87578063c87b56dd14610bb2578063d5abeb0114610bef57610376565b8063b88d4fde14610af0578063b957172114610b19578063c3b754dc14610b4257610376565b80639426eef81161016f5780639a5d140b116101495780639a5d140b14610a48578063a035b1fe14610a71578063a22cb46514610a9c578063ab3f5a1a14610ac557610376565b80639426eef8146109c757806395d89b41146109f2578063969e9d0c14610a1d57610376565b80638462151c116101ab5780638462151c1461090b5780638da5cb5b146109485780638ecad7211461097357806391b7f5ed1461099e57610376565b8063715018a61461088e57806372e3a3eb146108a5578063841718a6146108e257610376565b80633f8121a2116102ab57806355f804b31161024957806368428a1b1161022357806368428a1b146107d05780636b8dc355146107fb5780636c0360eb1461082657806370a082311461085157610376565b806355f804b31461073f5780635c975abb146107685780636352211e1461079357610376565b80634618163e116102855780634618163e146106925780634a4c560d146106ae5780634f6ccce7146106d757806353135ca01461071457610376565b80633f8121a21461060357806342842e0e1461062c578063438b63001461065557610376565b806313faede61161031857806323b872dd116102f257806323b872dd146105495780632f745c591461057257806330cc7ae0146105af57806332cb6b0c146105d857610376565b806313faede6146104c857806318160ddd146104f3578063239c70ae1461051e57610376565b806306fdde031161035457806306fdde031461040c578063081812fc14610437578063095ea7b314610474578063119552a11461049d57610376565b806301ffc9a71461037b57806302329a29146103b857806302ce5813146103e1575b600080fd5b34801561038757600080fd5b506103a2600480360381019061039d9190613eef565b610d72565b6040516103af9190613f37565b60405180910390f35b3480156103c457600080fd5b506103df60048036038101906103da9190613f7e565b610dec565b005b3480156103ed57600080fd5b506103f6610e85565b6040516104039190613f37565b60405180910390f35b34801561041857600080fd5b50610421610e98565b60405161042e9190614044565b60405180910390f35b34801561044357600080fd5b5061045e6004803603810190610459919061409c565b610f2a565b60405161046b919061410a565b60405180910390f35b34801561048057600080fd5b5061049b60048036038101906104969190614151565b610faf565b005b3480156104a957600080fd5b506104b26110c7565b6040516104bf919061410a565b60405180910390f35b3480156104d457600080fd5b506104dd6110ed565b6040516104ea91906141a0565b60405180910390f35b3480156104ff57600080fd5b506105086110f3565b60405161051591906141a0565b60405180910390f35b34801561052a57600080fd5b50610533611100565b60405161054091906141a0565b60405180910390f35b34801561055557600080fd5b50610570600480360381019061056b91906141bb565b611106565b005b34801561057e57600080fd5b5061059960048036038101906105949190614151565b611166565b6040516105a691906141a0565b60405180910390f35b3480156105bb57600080fd5b506105d660048036038101906105d1919061420e565b61120b565b005b3480156105e457600080fd5b506105ed6112e2565b6040516105fa91906141a0565b60405180910390f35b34801561060f57600080fd5b5061062a60048036038101906106259190613f7e565b6112e8565b005b34801561063857600080fd5b50610653600480360381019061064e91906141bb565b611381565b005b34801561066157600080fd5b5061067c6004803603810190610677919061420e565b6113a1565b60405161068991906142f9565b60405180910390f35b6106ac60048036038101906106a7919061409c565b61144f565b005b3480156106ba57600080fd5b506106d560048036038101906106d0919061420e565b61169b565b005b3480156106e357600080fd5b506106fe60048036038101906106f9919061409c565b611772565b60405161070b91906141a0565b60405180910390f35b34801561072057600080fd5b506107296117e3565b6040516107369190613f37565b60405180910390f35b34801561074b57600080fd5b5061076660048036038101906107619190614450565b6117f6565b005b34801561077457600080fd5b5061077d61188c565b60405161078a9190613f37565b60405180910390f35b34801561079f57600080fd5b506107ba60048036038101906107b5919061409c565b61189f565b6040516107c7919061410a565b60405180910390f35b3480156107dc57600080fd5b506107e5611951565b6040516107f29190613f37565b60405180910390f35b34801561080757600080fd5b50610810611964565b60405161081d91906141a0565b60405180910390f35b34801561083257600080fd5b5061083b61196a565b6040516108489190614044565b60405180910390f35b34801561085d57600080fd5b506108786004803603810190610873919061420e565b6119f8565b60405161088591906141a0565b60405180910390f35b34801561089a57600080fd5b506108a3611ab0565b005b3480156108b157600080fd5b506108cc60048036038101906108c7919061420e565b611b38565b6040516108d991906141a0565b60405180910390f35b3480156108ee57600080fd5b5061090960048036038101906109049190613f7e565b611b50565b005b34801561091757600080fd5b50610932600480360381019061092d919061420e565b611be9565b60405161093f91906142f9565b60405180910390f35b34801561095457600080fd5b5061095d611c97565b60405161096a919061410a565b60405180910390f35b34801561097f57600080fd5b50610988611cc1565b60405161099591906141a0565b60405180910390f35b3480156109aa57600080fd5b506109c560048036038101906109c0919061409c565b611cc6565b005b3480156109d357600080fd5b506109dc611d4c565b6040516109e9919061410a565b60405180910390f35b3480156109fe57600080fd5b50610a07611d72565b604051610a149190614044565b60405180910390f35b348015610a2957600080fd5b50610a32611e04565b604051610a3f919061410a565b60405180910390f35b348015610a5457600080fd5b50610a6f6004803603810190610a6a919061409c565b611e2a565b005b348015610a7d57600080fd5b50610a86611f48565b604051610a9391906141a0565b60405180910390f35b348015610aa857600080fd5b50610ac36004803603810190610abe9190614499565b611f4e565b005b348015610ad157600080fd5b50610ada611f64565b604051610ae791906141a0565b60405180910390f35b348015610afc57600080fd5b50610b176004803603810190610b12919061457a565b611f6a565b005b348015610b2557600080fd5b50610b406004803603810190610b3b91906146c5565b611fcc565b005b348015610b4e57600080fd5b50610b696004803603810190610b649190613f7e565b61215f565b005b610b856004803603810190610b80919061409c565b6121f8565b005b348015610b9357600080fd5b50610b9c61237a565b604051610ba99190614044565b60405180910390f35b348015610bbe57600080fd5b50610bd96004803603810190610bd4919061409c565b612408565b604051610be69190614044565b60405180910390f35b348015610bfb57600080fd5b50610c046124b2565b604051610c1191906141a0565b60405180910390f35b348015610c2657600080fd5b50610c416004803603810190610c3c919061420e565b6124b8565b604051610c4e9190613f37565b60405180910390f35b348015610c6357600080fd5b50610c7e6004803603810190610c799190614450565b6124d8565b005b348015610c8c57600080fd5b50610ca76004803603810190610ca2919061470e565b61256e565b604051610cb49190613f37565b60405180910390f35b348015610cc957600080fd5b50610ce46004803603810190610cdf9190614811565b612602565b005b348015610cf257600080fd5b50610d0d6004803603810190610d08919061420e565b61271a565b005b610d296004803603810190610d24919061409c565b612812565b005b610d456004803603810190610d40919061409c565b612994565b005b348015610d5357600080fd5b50610d5c612b69565b604051610d6991906141a0565b60405180910390f35b60007f780e9d63000000000000000000000000000000000000000000000000000000007bffffffffffffffffffffffffffffffffffffffffffffffffffffffff1916827bffffffffffffffffffffffffffffffffffffffffffffffffffffffff19161480610de55750610de482612b6f565b5b9050919050565b610df4612c51565b73ffffffffffffffffffffffffffffffffffffffff16610e12611c97565b73ffffffffffffffffffffffffffffffffffffffff1614610e68576040517f08c379a0000000000000000000000000000000000000000000000000000000008152600401610e5f906148d5565b60405180910390fd5b80601760006101000a81548160ff02191690831515021790555050565b600a60159054906101000a900460ff1681565b606060008054610ea790614924565b80601f0160208091040260200160405190810160405280929190818152602001828054610ed390614924565b8015610f205780601f10610ef557610100808354040283529160200191610f20565b820191906000526020600020905b815481529060010190602001808311610f0357829003601f168201915b5050505050905090565b6000610f3582612c59565b610f74576040517f08c379a0000000000000000000000000000000000000000000000000000000008152600401610f6b906149c8565b60405180910390fd5b6004600083815260200190815260200160002060009054906101000a900473ffffffffffffffffffffffffffffffffffffffff169050919050565b6000610fba8261189f565b90508073ffffffffffffffffffffffffffffffffffffffff168373ffffffffffffffffffffffffffffffffffffffff16141561102b576040517f08c379a000000000000000000000000000000000000000000000000000000000815260040161102290614a5a565b60405180910390fd5b8073ffffffffffffffffffffffffffffffffffffffff1661104a612c51565b73ffffffffffffffffffffffffffffffffffffffff161480611079575061107881611073612c51565b61256e565b5b6110b8576040517f08c379a00000000000000000000000000000000000000000000000000000000081526004016110af90614aec565b60405180910390fd5b6110c28383612cc5565b505050565b600e60009054906101000a900473ffffffffffffffffffffffffffffffffffffffff1681565b60145481565b6000600880549050905090565b60165481565b611117611111612c51565b82612d7e565b611156576040517f08c379a000000000000000000000000000000000000000000000000000000000815260040161114d90614b7e565b60405180910390fd5b611161838383612e5c565b505050565b6000611171836119f8565b82106111b2576040517f08c379a00000000000000000000000000000000000000000000000000000000081526004016111a990614c10565b60405180910390fd5b600660008473ffffffffffffffffffffffffffffffffffffffff1673ffffffffffffffffffffffffffffffffffffffff168152602001908152602001600020600083815260200190815260200160002054905092915050565b611213612c51565b73ffffffffffffffffffffffffffffffffffffffff16611231611c97565b73ffffffffffffffffffffffffffffffffffffffff1614611287576040517f08c379a000000000000000000000000000000000000000000000000000000000815260040161127e906148d5565b60405180910390fd5b6000601860008373ffffffffffffffffffffffffffffffffffffffff1673ffffffffffffffffffffffffffffffffffffffff16815260200190815260200160002060006101000a81548160ff02191690831515021790555050565b61271081565b6112f0612c51565b73ffffffffffffffffffffffffffffffffffffffff1661130e611c97565b73ffffffffffffffffffffffffffffffffffffffff1614611364576040517f08c379a000000000000000000000000000000000000000000000000000000000815260040161135b906148d5565b60405180910390fd5b80600a60166101000a81548160ff02191690831515021790555050565b61139c83838360405180602001604052806000815250611f6a565b505050565b606060006113ae836119f8565b905060008167ffffffffffffffff8111156113cc576113cb614325565b5b6040519080825280602002602001820160405280156113fa5781602001602082028036833780820191505090505b50905060005b82811015611444576114128582611166565b82828151811061142557611424614c30565b5b602002602001018181525050808061143c90614c8e565b915050611400565b508092505050919050565b60006114596110f3565b90506000601160003373ffffffffffffffffffffffffffffffffffffffff1673ffffffffffffffffffffffffffffffffffffffff168152602001908152602001600020549050600a60159054906101000a900460ff166114ee576040517f08c379a00000000000000000000000000000000000000000000000000000000081526004016114e590614d23565b60405180910390fd5b60008111611531576040517f08c379a000000000000000000000000000000000000000000000000000000000815260040161152890614db5565b60405180910390fd5b80831115611574576040517f08c379a000000000000000000000000000000000000000000000000000000000815260040161156b90614e21565b60405180910390fd5b61271083836115839190614e41565b11156115c4576040517f08c379a00000000000000000000000000000000000000000000000000000000081526004016115bb90614ee3565b60405180910390fd5b82600d546115d29190614f03565b3414611613576040517f08c379a000000000000000000000000000000000000000000000000000000000815260040161160a90614fa9565b60405180910390fd5b828161161f9190614fc9565b601160003373ffffffffffffffffffffffffffffffffffffffff1673ffffffffffffffffffffffffffffffffffffffff1681526020019081526020016000208190555060005b838110156116955761168233828561167d9190614e41565b6130c3565b808061168d90614c8e565b915050611665565b50505050565b6116a3612c51565b73ffffffffffffffffffffffffffffffffffffffff166116c1611c97565b73ffffffffffffffffffffffffffffffffffffffff1614611717576040517f08c379a000000000000000000000000000000000000000000000000000000000815260040161170e906148d5565b60405180910390fd5b6001601860008373ffffffffffffffffffffffffffffffffffffffff1673ffffffffffffffffffffffffffffffffffffffff16815260200190815260200160002060006101000a81548160ff02191690831515021790555050565b600061177c6110f3565b82106117bd576040517f08c379a00000000000000000000000000000000000000000000000000000000081526004016117b49061506f565b60405180910390fd5b600882815481106117d1576117d0614c30565b5b90600052602060002001549050919050565b600a60169054906101000a900460ff1681565b6117fe612c51565b73ffffffffffffffffffffffffffffffffffffffff1661181c611c97565b73ffffffffffffffffffffffffffffffffffffffff1614611872576040517f08c379a0000000000000000000000000000000000000000000000000000000008152600401611869906148d5565b60405180910390fd5b8060129080519060200190611888929190613de0565b5050565b601760009054906101000a900460ff1681565b6000806002600084815260200190815260200160002060009054906101000a900473ffffffffffffffffffffffffffffffffffffffff169050600073ffffffffffffffffffffffffffffffffffffffff168173ffffffffffffffffffffffffffffffffffffffff161415611948576040517f08c379a000000000000000000000000000000000000000000000000000000000815260040161193f90615101565b60405180910390fd5b80915050919050565b600a60149054906101000a900460ff1681565b6101f481565b6012805461197790614924565b80601f01602080910402602001604051908101604052809291908181526020018280546119a390614924565b80156119f05780601f106119c5576101008083540402835291602001916119f0565b820191906000526020600020905b8154815290600101906020018083116119d357829003601f168201915b505050505081565b60008073ffffffffffffffffffffffffffffffffffffffff168273ffffffffffffffffffffffffffffffffffffffff161415611a69576040517f08c379a0000000000000000000000000000000000000000000000000000000008152600401611a6090615193565b60405180910390fd5b600360008373ffffffffffffffffffffffffffffffffffffffff1673ffffffffffffffffffffffffffffffffffffffff168152602001908152602001600020549050919050565b611ab8612c51565b73ffffffffffffffffffffffffffffffffffffffff16611ad6611c97565b73ffffffffffffffffffffffffffffffffffffffff1614611b2c576040517f08c379a0000000000000000000000000000000000000000000000000000000008152600401611b23906148d5565b60405180910390fd5b611b3660006130e1565b565b60116020528060005260406000206000915090505481565b611b58612c51565b73ffffffffffffffffffffffffffffffffffffffff16611b76611c97565b73ffffffffffffffffffffffffffffffffffffffff1614611bcc576040517f08c379a0000000000000000000000000000000000000000000000000000000008152600401611bc3906148d5565b60405180910390fd5b80600a60146101000a81548160ff02191690831515021790555050565b60606000611bf6836119f8565b905060008167ffffffffffffffff811115611c1457611c13614325565b5b604051908082528060200260200182016040528015611c425781602001602082028036833780820191505090505b50905060005b82811015611c8c57611c5a8582611166565b828281518110611c6d57611c6c614c30565b5b6020026020010181815250508080611c8490614c8e565b915050611c48565b508092505050919050565b6000600a60009054906101000a900473ffffffffffffffffffffffffffffffffffffffff16905090565b601481565b611cce612c51565b73ffffffffffffffffffffffffffffffffffffffff16611cec611c97565b73ffffffffffffffffffffffffffffffffffffffff1614611d42576040517f08c379a0000000000000000000000000000000000000000000000000000000008152600401611d39906148d5565b60405180910390fd5b80600d8190555050565b601060009054906101000a900473ffffffffffffffffffffffffffffffffffffffff1681565b606060018054611d8190614924565b80601f0160208091040260200160405190810160405280929190818152602001828054611dad90614924565b8015611dfa5780601f10611dcf57610100808354040283529160200191611dfa565b820191906000526020600020905b815481529060010190602001808311611ddd57829003601f168201915b5050505050905090565b600f60009054906101000a900473ffffffffffffffffffffffffffffffffffffffff1681565b611e32612c51565b73ffffffffffffffffffffffffffffffffffffffff16611e50611c97565b73ffffffffffffffffffffffffffffffffffffffff1614611ea6576040517f08c379a0000000000000000000000000000000000000000000000000000000008152600401611e9d906148d5565b60405180910390fd5b600b54811115611eeb576040517f08c379a0000000000000000000000000000000000000000000000000000000008152600401611ee290615225565b60405180910390fd5b80600b6000828254611efd9190614fc9565b925050819055506000611f0e6110f3565b905060005b82811015611f4357611f30338284611f2b9190614e41565b6130c3565b8080611f3b90614c8e565b915050611f13565b505050565b600d5481565b611f60611f59612c51565b83836131a7565b5050565b600c5481565b611f7b611f75612c51565b83612d7e565b611fba576040517f08c379a0000000000000000000000000000000000000000000000000000000008152600401611fb190614b7e565b60405180910390fd5b611fc684848484613314565b50505050565b611fd4612c51565b73ffffffffffffffffffffffffffffffffffffffff16611ff2611c97565b73ffffffffffffffffffffffffffffffffffffffff1614612048576040517f08c379a000000000000000000000000000000000000000000000000000000000815260040161203f906148d5565b60405180910390fd5b8060008151811061205c5761205b614c30565b5b6020026020010151600e60006101000a81548173ffffffffffffffffffffffffffffffffffffffff021916908373ffffffffffffffffffffffffffffffffffffffff160217905550806001815181106120b8576120b7614c30565b5b6020026020010151600f60006101000a81548173ffffffffffffffffffffffffffffffffffffffff021916908373ffffffffffffffffffffffffffffffffffffffff1602179055508060028151811061211457612113614c30565b5b6020026020010151601060006101000a81548173ffffffffffffffffffffffffffffffffffffffff021916908373ffffffffffffffffffffffffffffffffffffffff16021790555050565b612167612c51565b73ffffffffffffffffffffffffffffffffffffffff16612185611c97565b73ffffffffffffffffffffffffffffffffffffffff16146121db576040517f08c379a00000000000000000000000000000000000000000000000000000000081526004016121d2906148d5565b60405180910390fd5b80600a60156101000a81548160ff02191690831515021790555050565b60006122026110f3565b9050600a60149054906101000a900460ff16612253576040517f08c379a000000000000000000000000000000000000000000000000000000000815260040161224a90615291565b60405180910390fd5b600082118015612264575060148211155b6122a3576040517f08c379a000000000000000000000000000000000000000000000000000000000815260040161229a90615323565b60405180910390fd5b61271082826122b29190614e41565b11156122f3576040517f08c379a00000000000000000000000000000000000000000000000000000000081526004016122ea90614ee3565b60405180910390fd5b81600d546123019190614f03565b3414612342576040517f08c379a000000000000000000000000000000000000000000000000000000000815260040161233990614fa9565b60405180910390fd5b60005b828110156123755761236233828461235d9190614e41565b6130c3565b808061236d90614c8e565b915050612345565b505050565b6013805461238790614924565b80601f01602080910402602001604051908101604052809291908181526020018280546123b390614924565b80156124005780601f106123d557610100808354040283529160200191612400565b820191906000526020600020905b8154815290600101906020018083116123e357829003601f168201915b505050505081565b606061241382612c59565b612452576040517f08c379a0000000000000000000000000000000000000000000000000000000008152600401612449906153b5565b60405180910390fd5b600061245c613370565b9050600081511161247c57604051806020016040528060008152506124aa565b8061248684613402565b601360405160200161249a939291906154a5565b6040516020818303038152906040525b915050919050565b60155481565b60186020528060005260406000206000915054906101000a900460ff1681565b6124e0612c51565b73ffffffffffffffffffffffffffffffffffffffff166124fe611c97565b73ffffffffffffffffffffffffffffffffffffffff1614612554576040517f08c379a000000000000000000000000000000000000000000000000000000000815260040161254b906148d5565b60405180910390fd5b806013908051906020019061256a929190613de0565b5050565b6000600560008473ffffffffffffffffffffffffffffffffffffffff1673ffffffffffffffffffffffffffffffffffffffff16815260200190815260200160002060008373ffffffffffffffffffffffffffffffffffffffff1673ffffffffffffffffffffffffffffffffffffffff16815260200190815260200160002060009054906101000a900460ff16905092915050565b61260a612c51565b73ffffffffffffffffffffffffffffffffffffffff16612628611c97565b73ffffffffffffffffffffffffffffffffffffffff161461267e576040517f08c379a0000000000000000000000000000000000000000000000000000000008152600401612675906148d5565b60405180910390fd5b60005b82518110156127155781818151811061269d5761269c614c30565b5b6020026020010151601160008584815181106126bc576126bb614c30565b5b602002602001015173ffffffffffffffffffffffffffffffffffffffff1673ffffffffffffffffffffffffffffffffffffffff16815260200190815260200160002081905550808061270d90614c8e565b915050612681565b505050565b612722612c51565b73ffffffffffffffffffffffffffffffffffffffff16612740611c97565b73ffffffffffffffffffffffffffffffffffffffff1614612796576040517f08c379a000000000000000000000000000000000000000000000000000000000815260040161278d906148d5565b60405180910390fd5b600073ffffffffffffffffffffffffffffffffffffffff168173ffffffffffffffffffffffffffffffffffffffff161415612806576040517f08c379a00000000000000000000000000000000000000000000000000000000081526004016127fd90615548565b60405180910390fd5b61280f816130e1565b50565b600061281c6110f3565b9050600a60169054906101000a900460ff1661286d576040517f08c379a000000000000000000000000000000000000000000000000000000000815260040161286490615291565b60405180910390fd5b60008211801561287e575060148211155b6128bd576040517f08c379a00000000000000000000000000000000000000000000000000000000081526004016128b4906155da565b60405180910390fd5b6101f482826128cc9190614e41565b111561290d576040517f08c379a000000000000000000000000000000000000000000000000000000000815260040161290490614ee3565b60405180910390fd5b81600d5461291b9190614f03565b341461295c576040517f08c379a000000000000000000000000000000000000000000000000000000000815260040161295390614fa9565b60405180910390fd5b60005b8281101561298f5761297c3382846129779190614e41565b6130c3565b808061298790614c8e565b91505061295f565b505050565b61299c612c51565b73ffffffffffffffffffffffffffffffffffffffff166129ba611c97565b73ffffffffffffffffffffffffffffffffffffffff1614612a10576040517f08c379a0000000000000000000000000000000000000000000000000000000008152600401612a07906148d5565b60405180910390fd5b6000606482612a1f9190615629565b9050600e60009054906101000a900473ffffffffffffffffffffffffffffffffffffffff1673ffffffffffffffffffffffffffffffffffffffff166108fc602883612a6a9190614f03565b9081150290604051600060405180830381858888f19350505050612a8d57600080fd5b600f60009054906101000a900473ffffffffffffffffffffffffffffffffffffffff1673ffffffffffffffffffffffffffffffffffffffff166108fc601e83612ad69190614f03565b9081150290604051600060405180830381858888f19350505050612af957600080fd5b601060009054906101000a900473ffffffffffffffffffffffffffffffffffffffff1673ffffffffffffffffffffffffffffffffffffffff166108fc601e83612b429190614f03565b9081150290604051600060405180830381858888f19350505050612b6557600080fd5b5050565b600b5481565b60007f80ac58cd000000000000000000000000000000000000000000000000000000007bffffffffffffffffffffffffffffffffffffffffffffffffffffffff1916827bffffffffffffffffffffffffffffffffffffffffffffffffffffffff19161480612c3a57507f5b5e139f000000000000000000000000000000000000000000000000000000007bffffffffffffffffffffffffffffffffffffffffffffffffffffffff1916827bffffffffffffffffffffffffffffffffffffffffffffffffffffffff1916145b80612c4a5750612c4982613563565b5b9050919050565b600033905090565b60008073ffffffffffffffffffffffffffffffffffffffff166002600084815260200190815260200160002060009054906101000a900473ffffffffffffffffffffffffffffffffffffffff1673ffffffffffffffffffffffffffffffffffffffff1614159050919050565b816004600083815260200190815260200160002060006101000a81548173ffffffffffffffffffffffffffffffffffffffff021916908373ffffffffffffffffffffffffffffffffffffffff160217905550808273ffffffffffffffffffffffffffffffffffffffff16612d388361189f565b73ffffffffffffffffffffffffffffffffffffffff167f8c5be1e5ebec7d5bd14f71427d1e84f3dd0314c0f7b2291e5b200ac8c7c3b92560405160405180910390a45050565b6000612d8982612c59565b612dc8576040517f08c379a0000000000000000000000000000000000000000000000000000000008152600401612dbf906156cc565b60405180910390fd5b6000612dd38361189f565b90508073ffffffffffffffffffffffffffffffffffffffff168473ffffffffffffffffffffffffffffffffffffffff161480612e4257508373ffffffffffffffffffffffffffffffffffffffff16612e2a84610f2a565b73ffffffffffffffffffffffffffffffffffffffff16145b80612e535750612e52818561256e565b5b91505092915050565b8273ffffffffffffffffffffffffffffffffffffffff16612e7c8261189f565b73ffffffffffffffffffffffffffffffffffffffff1614612ed2576040517f08c379a0000000000000000000000000000000000000000000000000000000008152600401612ec99061575e565b60405180910390fd5b600073ffffffffffffffffffffffffffffffffffffffff168273ffffffffffffffffffffffffffffffffffffffff161415612f42576040517f08c379a0000000000000000000000000000000000000000000000000000000008152600401612f39906157f0565b60405180910390fd5b612f4d8383836135cd565b612f58600082612cc5565b6001600360008573ffffffffffffffffffffffffffffffffffffffff1673ffffffffffffffffffffffffffffffffffffffff1681526020019081526020016000206000828254612fa89190614fc9565b925050819055506001600360008473ffffffffffffffffffffffffffffffffffffffff1673ffffffffffffffffffffffffffffffffffffffff1681526020019081526020016000206000828254612fff9190614e41565b92505081905550816002600083815260200190815260200160002060006101000a81548173ffffffffffffffffffffffffffffffffffffffff021916908373ffffffffffffffffffffffffffffffffffffffff160217905550808273ffffffffffffffffffffffffffffffffffffffff168473ffffffffffffffffffffffffffffffffffffffff167fddf252ad1be2c89b69c2b068fc378daa952ba7f163c4a11628f55a4df523b3ef60405160405180910390a46130be8383836136e1565b505050565b6130dd8282604051806020016040528060008152506136e6565b5050565b6000600a60009054906101000a900473ffffffffffffffffffffffffffffffffffffffff16905081600a60006101000a81548173ffffffffffffffffffffffffffffffffffffffff021916908373ffffffffffffffffffffffffffffffffffffffff1602179055508173ffffffffffffffffffffffffffffffffffffffff168173ffffffffffffffffffffffffffffffffffffffff167f8be0079c531659141344cd1fd0a4f28419497f9722a3daafe3b4186f6b6457e060405160405180910390a35050565b8173ffffffffffffffffffffffffffffffffffffffff168373ffffffffffffffffffffffffffffffffffffffff161415613216576040517f08c379a000000000000000000000000000000000000000000000000000000000815260040161320d9061585c565b60405180910390fd5b80600560008573ffffffffffffffffffffffffffffffffffffffff1673ffffffffffffffffffffffffffffffffffffffff16815260200190815260200160002060008473ffffffffffffffffffffffffffffffffffffffff1673ffffffffffffffffffffffffffffffffffffffff16815260200190815260200160002060006101000a81548160ff0219169083151502179055508173ffffffffffffffffffffffffffffffffffffffff168373ffffffffffffffffffffffffffffffffffffffff167f17307eab39ab6107e8899845ad3d59bd9653f200f220920489ca2b5937696c31836040516133079190613f37565b60405180910390a3505050565b61331f848484612e5c565b61332b84848484613741565b61336a576040517f08c379a0000000000000000000000000000000000000000000000000000000008152600401613361906158ee565b60405180910390fd5b50505050565b60606012805461337f90614924565b80601f01602080910402602001604051908101604052809291908181526020018280546133ab90614924565b80156133f85780601f106133cd576101008083540402835291602001916133f8565b820191906000526020600020905b8154815290600101906020018083116133db57829003601f168201915b5050505050905090565b6060600082141561344a576040518060400160405280600181526020017f3000000000000000000000000000000000000000000000000000000000000000815250905061355e565b600082905060005b6000821461347c57808061346590614c8e565b915050600a826134759190615629565b9150613452565b60008167ffffffffffffffff81111561349857613497614325565b5b6040519080825280601f01601f1916602001820160405280156134ca5781602001600182028036833780820191505090505b5090505b60008514613557576001826134e39190614fc9565b9150600a856134f2919061590e565b60306134fe9190614e41565b60f81b81838151811061351457613513614c30565b5b60200101907effffffffffffffffffffffffffffffffffffffffffffffffffffffffffffff1916908160001a905350600a856135509190615629565b94506134ce565b8093505050505b919050565b60007f01ffc9a7000000000000000000000000000000000000000000000000000000007bffffffffffffffffffffffffffffffffffffffffffffffffffffffff1916827bffffffffffffffffffffffffffffffffffffffffffffffffffffffff1916149050919050565b6135d88383836138d8565b600073ffffffffffffffffffffffffffffffffffffffff168373ffffffffffffffffffffffffffffffffffffffff16141561361b57613616816138dd565b61365a565b8173ffffffffffffffffffffffffffffffffffffffff168373ffffffffffffffffffffffffffffffffffffffff1614613659576136588382613926565b5b5b600073ffffffffffffffffffffffffffffffffffffffff168273ffffffffffffffffffffffffffffffffffffffff16141561369d5761369881613a93565b6136dc565b8273ffffffffffffffffffffffffffffffffffffffff168273ffffffffffffffffffffffffffffffffffffffff16146136db576136da8282613b64565b5b5b505050565b505050565b6136f08383613be3565b6136fd6000848484613741565b61373c576040517f08c379a0000000000000000000000000000000000000000000000000000000008152600401613733906158ee565b60405180910390fd5b505050565b60006137628473ffffffffffffffffffffffffffffffffffffffff16613dbd565b156138cb578373ffffffffffffffffffffffffffffffffffffffff1663150b7a0261378b612c51565b8786866040518563ffffffff1660e01b81526004016137ad9493929190615994565b602060405180830381600087803b1580156137c757600080fd5b505af19250505080156137f857506040513d601f19601f820116820180604052508101906137f591906159f5565b60015b61387b573d8060008114613828576040519150601f19603f3d011682016040523d82523d6000602084013e61382d565b606091505b50600081511415613873576040517f08c379a000000000000000000000000000000000000000000000000000000000815260040161386a906158ee565b60405180910390fd5b805181602001fd5b63150b7a0260e01b7bffffffffffffffffffffffffffffffffffffffffffffffffffffffff1916817bffffffffffffffffffffffffffffffffffffffffffffffffffffffff1916149150506138d0565b600190505b949350505050565b505050565b6008805490506009600083815260200190815260200160002081905550600881908060018154018082558091505060019003906000526020600020016000909190919091505550565b60006001613933846119f8565b61393d9190614fc9565b9050600060076000848152602001908152602001600020549050818114613a22576000600660008673ffffffffffffffffffffffffffffffffffffffff1673ffffffffffffffffffffffffffffffffffffffff168152602001908152602001600020600084815260200190815260200160002054905080600660008773ffffffffffffffffffffffffffffffffffffffff1673ffffffffffffffffffffffffffffffffffffffff168152602001908152602001600020600084815260200190815260200160002081905550816007600083815260200190815260200160002081905550505b6007600084815260200190815260200160002060009055600660008573ffffffffffffffffffffffffffffffffffffffff1673ffffffffffffffffffffffffffffffffffffffff16815260200190815260200160002060008381526020019081526020016000206000905550505050565b60006001600880549050613aa79190614fc9565b9050600060096000848152602001908152602001600020549050600060088381548110613ad757613ad6614c30565b5b906000526020600020015490508060088381548110613af957613af8614c30565b5b906000526020600020018190555081600960008381526020019081526020016000208190555060096000858152602001908152602001600020600090556008805480613b4857613b47615a22565b5b6001900381819060005260206000200160009055905550505050565b6000613b6f836119f8565b905081600660008573ffffffffffffffffffffffffffffffffffffffff1673ffffffffffffffffffffffffffffffffffffffff168152602001908152602001600020600083815260200190815260200160002081905550806007600084815260200190815260200160002081905550505050565b600073ffffffffffffffffffffffffffffffffffffffff168273ffffffffffffffffffffffffffffffffffffffff161415613c53576040517f08c379a0000000000000000000000000000000000000000000000000000000008152600401613c4a90615a9d565b60405180910390fd5b613c5c81612c59565b15613c9c576040517f08c379a0000000000000000000000000000000000000000000000000000000008152600401613c9390615b09565b60405180910390fd5b613ca8600083836135cd565b6001600360008473ffffffffffffffffffffffffffffffffffffffff1673ffffffffffffffffffffffffffffffffffffffff1681526020019081526020016000206000828254613cf89190614e41565b92505081905550816002600083815260200190815260200160002060006101000a81548173ffffffffffffffffffffffffffffffffffffffff021916908373ffffffffffffffffffffffffffffffffffffffff160217905550808273ffffffffffffffffffffffffffffffffffffffff16600073ffffffffffffffffffffffffffffffffffffffff167fddf252ad1be2c89b69c2b068fc378daa952ba7f163c4a11628f55a4df523b3ef60405160405180910390a4613db9600083836136e1565b5050565b6000808273ffffffffffffffffffffffffffffffffffffffff163b119050919050565b828054613dec90614924565b90600052602060002090601f016020900481019282613e0e5760008555613e55565b82601f10613e2757805160ff1916838001178555613e55565b82800160010185558215613e55579182015b82811115613e54578251825591602001919060010190613e39565b5b509050613e629190613e66565b5090565b5b80821115613e7f576000816000905550600101613e67565b5090565b6000604051905090565b600080fd5b600080fd5b60007fffffffff0000000000000000000000000000000000000000000000000000000082169050919050565b613ecc81613e97565b8114613ed757600080fd5b50565b600081359050613ee981613ec3565b92915050565b600060208284031215613f0557613f04613e8d565b5b6000613f1384828501613eda565b91505092915050565b60008115159050919050565b613f3181613f1c565b82525050565b6000602082019050613f4c6000830184613f28565b92915050565b613f5b81613f1c565b8114613f6657600080fd5b50565b600081359050613f7881613f52565b92915050565b600060208284031215613f9457613f93613e8d565b5b6000613fa284828501613f69565b91505092915050565b600081519050919050565b600082825260208201905092915050565b60005b83811015613fe5578082015181840152602081019050613fca565b83811115613ff4576000848401525b50505050565b6000601f19601f8301169050919050565b600061401682613fab565b6140208185613fb6565b9350614030818560208601613fc7565b61403981613ffa565b840191505092915050565b6000602082019050818103600083015261405e818461400b565b905092915050565b6000819050919050565b61407981614066565b811461408457600080fd5b50565b60008135905061409681614070565b92915050565b6000602082840312156140b2576140b1613e8d565b5b60006140c084828501614087565b91505092915050565b600073ffffffffffffffffffffffffffffffffffffffff82169050919050565b60006140f4826140c9565b9050919050565b614104816140e9565b82525050565b600060208201905061411f60008301846140fb565b92915050565b61412e816140e9565b811461413957600080fd5b50565b60008135905061414b81614125565b92915050565b6000806040838503121561416857614167613e8d565b5b60006141768582860161413c565b925050602061418785828601614087565b9150509250929050565b61419a81614066565b82525050565b60006020820190506141b56000830184614191565b92915050565b6000806000606084860312156141d4576141d3613e8d565b5b60006141e28682870161413c565b93505060206141f38682870161413c565b925050604061420486828701614087565b9150509250925092565b60006020828403121561422457614223613e8d565b5b60006142328482850161413c565b91505092915050565b600081519050919050565b600082825260208201905092915050565b6000819050602082019050919050565b61427081614066565b82525050565b60006142828383614267565b60208301905092915050565b6000602082019050919050565b60006142a68261423b565b6142b08185614246565b93506142bb83614257565b8060005b838110156142ec5781516142d38882614276565b97506142de8361428e565b9250506001810190506142bf565b5085935050505092915050565b60006020820190508181036000830152614313818461429b565b905092915050565b600080fd5b600080fd5b7f4e487b7100000000000000000000000000000000000000000000000000000000600052604160045260246000fd5b61435d82613ffa565b810181811067ffffffffffffffff8211171561437c5761437b614325565b5b80604052505050565b600061438f613e83565b905061439b8282614354565b919050565b600067ffffffffffffffff8211156143bb576143ba614325565b5b6143c482613ffa565b9050602081019050919050565b82818337600083830152505050565b60006143f36143ee846143a0565b614385565b90508281526020810184848401111561440f5761440e614320565b5b61441a8482856143d1565b509392505050565b600082601f8301126144375761443661431b565b5b81356144478482602086016143e0565b91505092915050565b60006020828403121561446657614465613e8d565b5b600082013567ffffffffffffffff81111561448457614483613e92565b5b61449084828501614422565b91505092915050565b600080604083850312156144b0576144af613e8d565b5b60006144be8582860161413c565b92505060206144cf85828601613f69565b9150509250929050565b600067ffffffffffffffff8211156144f4576144f3614325565b5b6144fd82613ffa565b9050602081019050919050565b600061451d614518846144d9565b614385565b90508281526020810184848401111561453957614538614320565b5b6145448482856143d1565b509392505050565b600082601f8301126145615761456061431b565b5b813561457184826020860161450a565b91505092915050565b6000806000806080858703121561459457614593613e8d565b5b60006145a28782880161413c565b94505060206145b38782880161413c565b93505060406145c487828801614087565b925050606085013567ffffffffffffffff8111156145e5576145e4613e92565b5b6145f18782880161454c565b91505092959194509250565b600067ffffffffffffffff82111561461857614617614325565b5b602082029050602081019050919050565b600080fd5b600061464161463c846145fd565b614385565b9050808382526020820190506020840283018581111561466457614663614629565b5b835b8181101561468d5780614679888261413c565b845260208401935050602081019050614666565b5050509392505050565b600082601f8301126146ac576146ab61431b565b5b81356146bc84826020860161462e565b91505092915050565b6000602082840312156146db576146da613e8d565b5b600082013567ffffffffffffffff8111156146f9576146f8613e92565b5b61470584828501614697565b91505092915050565b6000806040838503121561472557614724613e8d565b5b60006147338582860161413c565b92505060206147448582860161413c565b9150509250929050565b600067ffffffffffffffff82111561476957614768614325565b5b602082029050602081019050919050565b600061478d6147888461474e565b614385565b905080838252602082019050602084028301858111156147b0576147af614629565b5b835b818110156147d957806147c58882614087565b8452602084019350506020810190506147b2565b5050509392505050565b600082601f8301126147f8576147f761431b565b5b813561480884826020860161477a565b91505092915050565b6000806040838503121561482857614827613e8d565b5b600083013567ffffffffffffffff81111561484657614845613e92565b5b61485285828601614697565b925050602083013567ffffffffffffffff81111561487357614872613e92565b5b61487f858286016147e3565b9150509250929050565b7f4f776e61626c653a2063616c6c6572206973206e6f7420746865206f776e6572600082015250565b60006148bf602083613fb6565b91506148ca82614889565b602082019050919050565b600060208201905081810360008301526148ee816148b2565b9050919050565b7f4e487b7100000000000000000000000000000000000000000000000000000000600052602260045260246000fd5b6000600282049050600182168061493c57607f821691505b602082108114156149505761494f6148f5565b5b50919050565b7f4552433732313a20617070726f76656420717565727920666f72206e6f6e657860008201527f697374656e7420746f6b656e0000000000000000000000000000000000000000602082015250565b60006149b2602c83613fb6565b91506149bd82614956565b604082019050919050565b600060208201905081810360008301526149e1816149a5565b9050919050565b7f4552433732313a20617070726f76616c20746f2063757272656e74206f776e6560008201527f7200000000000000000000000000000000000000000000000000000000000000602082015250565b6000614a44602183613fb6565b9150614a4f826149e8565b604082019050919050565b60006020820190508181036000830152614a7381614a37565b9050919050565b7f4552433732313a20617070726f76652063616c6c6572206973206e6f74206f7760008201527f6e6572206e6f7220617070726f76656420666f7220616c6c0000000000000000602082015250565b6000614ad6603883613fb6565b9150614ae182614a7a565b604082019050919050565b60006020820190508181036000830152614b0581614ac9565b9050919050565b7f4552433732313a207472616e736665722063616c6c6572206973206e6f74206f60008201527f776e6572206e6f7220617070726f766564000000000000000000000000000000602082015250565b6000614b68603183613fb6565b9150614b7382614b0c565b604082019050919050565b60006020820190508181036000830152614b9781614b5b565b9050919050565b7f455243373231456e756d657261626c653a206f776e657220696e646578206f7560008201527f74206f6620626f756e6473000000000000000000000000000000000000000000602082015250565b6000614bfa602b83613fb6565b9150614c0582614b9e565b604082019050919050565b60006020820190508181036000830152614c2981614bed565b9050919050565b7f4e487b7100000000000000000000000000000000000000000000000000000000600052603260045260246000fd5b7f4e487b7100000000000000000000000000000000000000000000000000000000600052601160045260246000fd5b6000614c9982614066565b91507fffffffffffffffffffffffffffffffffffffffffffffffffffffffffffffffff821415614ccc57614ccb614c5f565b5b600182019050919050565b7f57686974656c6973742069736e27742061637469766500000000000000000000600082015250565b6000614d0d601683613fb6565b9150614d1882614cd7565b602082019050919050565b60006020820190508181036000830152614d3c81614d00565b9050919050565b7f4e6f20746f6b656e7320726573657276656420666f7220796f7572206164647260008201527f6573730000000000000000000000000000000000000000000000000000000000602082015250565b6000614d9f602383613fb6565b9150614daa82614d43565b604082019050919050565b60006020820190508181036000830152614dce81614d92565b9050919050565b7f43616e2774206d696e74206d6f7265207468616e207265736572766564000000600082015250565b6000614e0b601d83613fb6565b9150614e1682614dd5565b602082019050919050565b60006020820190508181036000830152614e3a81614dfe565b9050919050565b6000614e4c82614066565b9150614e5783614066565b9250827fffffffffffffffffffffffffffffffffffffffffffffffffffffffffffffffff03821115614e8c57614e8b614c5f565b5b828201905092915050565b7f43616e2774206d696e74206d6f7265207468616e206d617820737570706c7900600082015250565b6000614ecd601f83613fb6565b9150614ed882614e97565b602082019050919050565b60006020820190508181036000830152614efc81614ec0565b9050919050565b6000614f0e82614066565b9150614f1983614066565b9250817fffffffffffffffffffffffffffffffffffffffffffffffffffffffffffffffff0483118215151615614f5257614f51614c5f565b5b828202905092915050565b7f57726f6e6720616d6f756e74206f66204554482073656e740000000000000000600082015250565b6000614f93601883613fb6565b9150614f9e82614f5d565b602082019050919050565b60006020820190508181036000830152614fc281614f86565b9050919050565b6000614fd482614066565b9150614fdf83614066565b925082821015614ff257614ff1614c5f565b5b828203905092915050565b7f455243373231456e756d657261626c653a20676c6f62616c20696e646578206f60008201527f7574206f6620626f756e64730000000000000000000000000000000000000000602082015250565b6000615059602c83613fb6565b915061506482614ffd565b604082019050919050565b600060208201905081810360008301526150888161504c565b9050919050565b7f4552433732313a206f776e657220717565727920666f72206e6f6e657869737460008201527f656e7420746f6b656e0000000000000000000000000000000000000000000000602082015250565b60006150eb602983613fb6565b91506150f68261508f565b604082019050919050565b6000602082019050818103600083015261511a816150de565b9050919050565b7f4552433732313a2062616c616e636520717565727920666f7220746865207a6560008201527f726f206164647265737300000000000000000000000000000000000000000000602082015250565b600061517d602a83613fb6565b915061518882615121565b604082019050919050565b600060208201905081810360008301526151ac81615170565b9050919050565b7f43616e27742072657365727665206d6f7265207468616e2073657420616d6f7560008201527f6e74000000000000000000000000000000000000000000000000000000000000602082015250565b600061520f602283613fb6565b915061521a826151b3565b604082019050919050565b6000602082019050818103600083015261523e81615202565b9050919050565b7f53616c652069736e277420616374697665000000000000000000000000000000600082015250565b600061527b601183613fb6565b915061528682615245565b602082019050919050565b600060208201905081810360008301526152aa8161526e565b9050919050565b7f43616e206f6e6c79206d696e74206265747765656e203120616e64203130207460008201527f6f6b656e73206174206f6e636500000000000000000000000000000000000000602082015250565b600061530d602d83613fb6565b9150615318826152b1565b604082019050919050565b6000602082019050818103600083015261533c81615300565b9050919050565b7f4552433732314d657461646174613a2055524920717565727920666f72206e6f60008201527f6e6578697374656e7420746f6b656e0000000000000000000000000000000000602082015250565b600061539f602f83613fb6565b91506153aa82615343565b604082019050919050565b600060208201905081810360008301526153ce81615392565b9050919050565b600081905092915050565b60006153eb82613fab565b6153f581856153d5565b9350615405818560208601613fc7565b80840191505092915050565b60008190508160005260206000209050919050565b6000815461543381614924565b61543d81866153d5565b9450600182166000811461545857600181146154695761549c565b60ff1983168652818601935061549c565b61547285615411565b60005b8381101561549457815481890152600182019150602081019050615475565b838801955050505b50505092915050565b60006154b182866153e0565b91506154bd82856153e0565b91506154c98284615426565b9150819050949350505050565b7f4f776e61626c653a206e6577206f776e657220697320746865207a65726f206160008201527f6464726573730000000000000000000000000000000000000000000000000000602082015250565b6000615532602683613fb6565b915061553d826154d6565b604082019050919050565b6000602082019050818103600083015261556181615525565b9050919050565b7f43616e206f6e6c79206d696e74206265747765656e203120616e64203230207460008201527f6f6b656e73206174206f6e636500000000000000000000000000000000000000602082015250565b60006155c4602d83613fb6565b91506155cf82615568565b604082019050919050565b600060208201905081810360008301526155f3816155b7565b9050919050565b7f4e487b7100000000000000000000000000000000000000000000000000000000600052601260045260246000fd5b600061563482614066565b915061563f83614066565b92508261564f5761564e6155fa565b5b828204905092915050565b7f4552433732313a206f70657261746f7220717565727920666f72206e6f6e657860008201527f697374656e7420746f6b656e0000000000000000000000000000000000000000602082015250565b60006156b6602c83613fb6565b91506156c18261565a565b604082019050919050565b600060208201905081810360008301526156e5816156a9565b9050919050565b7f4552433732313a207472616e736665722066726f6d20696e636f72726563742060008201527f6f776e6572000000000000000000000000000000000000000000000000000000602082015250565b6000615748602583613fb6565b9150615753826156ec565b604082019050919050565b600060208201905081810360008301526157778161573b565b9050919050565b7f4552433732313a207472616e7366657220746f20746865207a65726f2061646460008201527f7265737300000000000000000000000000000000000000000000000000000000602082015250565b60006157da602483613fb6565b91506157e58261577e565b604082019050919050565b60006020820190508181036000830152615809816157cd565b9050919050565b7f4552433732313a20617070726f766520746f2063616c6c657200000000000000600082015250565b6000615846601983613fb6565b915061585182615810565b602082019050919050565b6000602082019050818103600083015261587581615839565b9050919050565b7f4552433732313a207472616e7366657220746f206e6f6e20455243373231526560008201527f63656976657220696d706c656d656e7465720000000000000000000000000000602082015250565b60006158d8603283613fb6565b91506158e38261587c565b604082019050919050565b60006020820190508181036000830152615907816158cb565b9050919050565b600061591982614066565b915061592483614066565b925082615934576159336155fa565b5b828206905092915050565b600081519050919050565b600082825260208201905092915050565b60006159668261593f565b615970818561594a565b9350615980818560208601613fc7565b61598981613ffa565b840191505092915050565b60006080820190506159a960008301876140fb565b6159b660208301866140fb565b6159c36040830185614191565b81810360608301526159d5818461595b565b905095945050505050565b6000815190506159ef81613ec3565b92915050565b600060208284031215615a0b57615a0a613e8d565b5b6000615a19848285016159e0565b91505092915050565b7f4e487b7100000000000000000000000000000000000000000000000000000000600052603160045260246000fd5b7f4552433732313a206d696e7420746f20746865207a65726f2061646472657373600082015250565b6000615a87602083613fb6565b9150615a9282615a51565b602082019050919050565b60006020820190508181036000830152615ab681615a7a565b9050919050565b7f4552433732313a20746f6b656e20616c7265616479206d696e74656400000000600082015250565b6000615af3601c83613fb6565b9150615afe82615abd565b602082019050919050565b60006020820190508181036000830152615b2281615ae6565b905091905056fea2646970667358221220de697bd9e663be404072bb25108b8e93097db4bd36103644031a1e8b2794089d64736f6c6343000809003368747470733a2f2f626f68656d69616e2e6d7970696e6174612e636c6f75642f697066732f516d5633584b743264436e5878463261777944313247794331313774664c6779417a6e44724d7a324747383746592f",
  "immutableReferences": {},
  "source": "// SPDX-License-Identifier: GPL-3.0\r\n\r\npragma solidity >=0.7.0 <0.9.0;\r\n\r\nimport \"@openzeppelin/contracts/token/ERC721/extensions/ERC721Enumerable.sol\";\r\nimport \"@openzeppelin/contracts/access/Ownable.sol\";\r\n\r\ncontract PolygonVerify is ERC721Enumerable, Ownable {\r\n  using Strings for uint256;\r\n\r\n      // Starting and stopping sale, presale and whitelist\r\n    bool public saleActive = false;\r\n    bool public whitelistActive = false;\r\n    bool public presaleActive = false;\r\n\r\n      // Reserved for the team, customs, giveaways, collabs and so on.\r\n    uint256 public reserved = 150;\r\n\r\n    // Price of each token\r\n    uint256 public initial_price = 0.04 ether;\r\n    uint256 public price;\r\n\r\n    // Maximum limit of tokens that can ever exist\r\n    uint256 public constant MAX_SUPPLY = 10000;\r\n    uint256 public constant MAX_PRESALE_SUPPLY = 500;\r\n    uint256 public constant MAX_MINT_PER_TX = 20;\r\n\r\n\r\n      // Team addresses for withdrawals\r\n    address public a1;\r\n    address public a2;\r\n    address public a3;\r\n\r\n    // List of addresses that have a number of reserved tokens for whitelist\r\n    mapping (address => uint256) public whitelistReserved;\r\n\r\n  string public baseURI;\r\n  string public baseExtension = \".json\";\r\n  uint256 public cost = 0.01 ether;\r\n  uint256 public maxSupply = 10000;\r\n  uint256 public maxMintAmount = 20;\r\n  bool public paused = false;\r\n  mapping(address => bool) public whitelisted;\r\n  constructor(\r\n  ) ERC721(\"PolygonVerify\", \"BBR\") {\r\n     setBaseURI(\"https://bohemian.mypinata.cloud/ipfs/QmV3XKt2dCnXxF2awyD12GyC117tfLgyAznDrMz2GG87FY/\");\r\n    //  mint(msg.sender, 5);\r\n  }\r\n  function _baseURI() internal view virtual override returns (string memory) {\r\n    return baseURI;\r\n  }\r\n\r\n// See which address owns which tokens\r\n    function tokensOfOwner(address addr) public view returns(uint256[] memory) {\r\n        uint256 tokenCount = balanceOf(addr);\r\n        uint256[] memory tokensId = new uint256[](tokenCount);\r\n        for(uint256 i; i < tokenCount; i++){\r\n            tokensId[i] = tokenOfOwnerByIndex(addr, i);\r\n        }\r\n        return tokensId;\r\n    }\r\n\r\n\r\n\r\n        // Exclusive whitelist minting\r\n    function mintWhitelist(uint256 _amount) public payable {\r\n        uint256 supply = totalSupply();\r\n        uint256 reservedAmt = whitelistReserved[msg.sender];\r\n        require( whitelistActive,                   \"Whitelist isn't active\" );\r\n        require( reservedAmt > 0,                   \"No tokens reserved for your address\" );\r\n        require( _amount <= reservedAmt,            \"Can't mint more than reserved\" );\r\n        require( supply + _amount <= MAX_SUPPLY,    \"Can't mint more than max supply\" );\r\n        require( msg.value == price * _amount,      \"Wrong amount of ETH sent\" );\r\n        whitelistReserved[msg.sender] = reservedAmt - _amount;\r\n        for(uint256 i; i < _amount; i++){\r\n            _safeMint( msg.sender, supply + i );\r\n        }\r\n    }\r\n // Presale minting\r\n    function mintPresale(uint256 _amount) public payable {\r\n        uint256 supply = totalSupply();\r\n        require( presaleActive,                             \"Sale isn't active\" );\r\n        require( _amount > 0 && _amount <= MAX_MINT_PER_TX, \"Can only mint between 1 and 20 tokens at once\" );\r\n        require( supply + _amount <= MAX_PRESALE_SUPPLY,    \"Can't mint more than max supply\" );\r\n        require( msg.value == price * _amount,              \"Wrong amount of ETH sent\" );\r\n        for(uint256 i; i < _amount; i++){\r\n            _safeMint( msg.sender, supply + i );\r\n        }\r\n    }\r\n\r\n\r\n    \r\n    // Standard mint function\r\n    function mintToken(uint256 _amount) public payable {\r\n        uint256 supply = totalSupply();\r\n        require( saleActive,                                \"Sale isn't active\" );\r\n        require( _amount > 0 && _amount <= MAX_MINT_PER_TX, \"Can only mint between 1 and 10 tokens at once\" );\r\n        require( supply + _amount <= MAX_SUPPLY,            \"Can't mint more than max supply\" );\r\n        require( msg.value == price * _amount,              \"Wrong amount of ETH sent\" );\r\n        for(uint256 i; i < _amount; i++){\r\n            _safeMint( msg.sender, supply + i );\r\n        }\r\n    }\r\n\r\n\r\n  // Admin minting function to reserve tokens for the team, collabs, customs and giveaways\r\n    function mintReserved(uint256 _amount) public onlyOwner {\r\n        // Limited to a publicly set amount\r\n        require( _amount <= reserved, \"Can't reserve more than set amount\" );\r\n        reserved -= _amount;\r\n        uint256 supply = totalSupply();\r\n        for(uint256 i; i < _amount; i++){\r\n            _safeMint( msg.sender, supply + i );\r\n        }\r\n    }\r\n\r\n\r\n\r\n   // Edit reserved whitelist spots\r\n    function editWhitelistReserved(address[] memory _a, uint256[] memory _amount) public onlyOwner {\r\n        for(uint256 i; i < _a.length; i++){\r\n            whitelistReserved[_a[i]] = _amount[i];\r\n        }\r\n    }\r\n\r\n\r\n      // Start and stop whitelist\r\n    function setWhitelistActive(bool val) public onlyOwner {\r\n        whitelistActive = val;\r\n    }\r\n\r\n    // Start and stop presale\r\n    function setPresaleActive(bool val) public onlyOwner {\r\n        presaleActive = val;\r\n    }\r\n\r\n    // Start and stop sale\r\n    function setSaleActive(bool val) public onlyOwner {\r\n        saleActive = val;\r\n    }\r\n\r\n\r\n       // Set new baseURI\r\n    // function setBaseURI(string memory baseURI) public onlyOwner {\r\n    //    baseTokenURI  = baseURI;\r\n    // }\r\n\r\n    // Set a different price in case ETH changes drastically\r\n    function setPrice(uint256 newPrice) public onlyOwner {\r\n        price = newPrice;\r\n    }\r\n\r\n  // Set team addresses\r\n    function setAddresses(address[] memory _a) public onlyOwner {\r\n        a1 = _a[0];\r\n        a2 = _a[1];\r\n        a3 = _a[2];\r\n    }\r\n\r\n    // Withdraw funds from contract for the team\r\n ///esta funcion se encarga de los pagos a los diferentes componenetas  del equipo\r\n    function withdrawTeam(uint256 amount) public payable onlyOwner {\r\n        uint256 percent = amount / 100;\r\n        require(payable(a1).send(percent * 40));\r\n        require(payable(a2).send(percent * 30));\r\n        require(payable(a3).send(percent * 30));\r\n    }\r\n\r\n\r\n\r\n\r\n\r\n\r\n\r\n\r\n//   function mint(address _to, uint256 _mintAmount) public payable {\r\n//     uint256 supply = totalSupply();\r\n//     require(!paused);\r\n//     require(_mintAmount > 0);\r\n//     require(_mintAmount <= maxMintAmount);\r\n//     require(supply + _mintAmount <= maxSupply);\r\n\r\n//     if (msg.sender != owner()) {\r\n//         if(whitelisted[msg.sender] != true) {\r\n//           require(msg.value >= cost * _mintAmount);\r\n//         }\r\n//     }\r\n\r\n//     for (uint256 i = 1; i <= _mintAmount; i++) {\r\n//       _safeMint(_to, supply + i);\r\n//     }\r\n//   }\r\n\r\n  function walletOfOwner(address _owner)\r\n    public\r\n    view\r\n    returns (uint256[] memory)\r\n  {\r\n    uint256 ownerTokenCount = balanceOf(_owner);\r\n    uint256[] memory tokenIds = new uint256[](ownerTokenCount);\r\n    for (uint256 i; i < ownerTokenCount; i++) {\r\n      tokenIds[i] = tokenOfOwnerByIndex(_owner, i);\r\n    }\r\n    return tokenIds;\r\n  }\r\n\r\n  function tokenURI(uint256 tokenId)\r\n    public\r\n    view\r\n    virtual\r\n    override\r\n    returns (string memory)\r\n  {\r\n    require(\r\n      _exists(tokenId),\r\n      \"ERC721Metadata: URI query for nonexistent token\"\r\n    );\r\n\r\n    string memory currentBaseURI = _baseURI();\r\n    return bytes(currentBaseURI).length > 0\r\n        ? string(abi.encodePacked(currentBaseURI, tokenId.toString(), baseExtension))\r\n        : \"\";\r\n  }\r\n\r\n//   //only owner\r\n//   function setCost(uint256 _newCost) public onlyOwner {\r\n//     cost = _newCost;\r\n//   }\r\n\r\n//   function setmaxMintAmount(uint256 _newmaxMintAmount) public onlyOwner {\r\n//     maxMintAmount = _newmaxMintAmount;\r\n//   }\r\n\r\n  function setBaseURI(string memory _newBaseURI) public onlyOwner {\r\n    baseURI = _newBaseURI;\r\n  }\r\n\r\n  function setBaseExtension(string memory _newBaseExtension) public onlyOwner {\r\n    baseExtension = _newBaseExtension;\r\n  }\r\n\r\n  function pause(bool _state) public onlyOwner {\r\n    paused = _state;\r\n  }\r\n \r\n function whitelistUser(address _user) public onlyOwner {\r\n    whitelisted[_user] = true;\r\n  }\r\n \r\n  function removeWhitelistUser(address _user) public onlyOwner {\r\n    whitelisted[_user] = false;\r\n  }\r\n// ///esta funcion se encarga de los pagos \r\n//   function withdraw() public payable onlyOwner {\r\n//     // This will pay HashLips 5% of the initial sale.\r\n//     // You can remove this if you want, or keep it in to support HashLips and his channel.\r\n//     // =============================================================================\r\n//     (bool hs, ) = payable(0xa5F60597f4292e08228f608368Ec774C90Fa8b56).call{value: address(this).balance * 5 / 100}(\"\");\r\n//     require(hs);\r\n//     // =============================================================================\r\n    \r\n//     // This will payout the owner 95% of the contract balance.\r\n//     // Do not remove this otherwise you will not be able to withdraw the funds.\r\n//     // =============================================================================\r\n//     (bool os, ) = payable(owner()).call{value: address(this).balance}(\"\");\r\n//     require(os);\r\n//     // =============================================================================\r\n//   }\r\n}",
  "sourcePath": "C:\\digitalArt\\collectioNft\\contracts\\PolygonVerify.sol",
  "compiler": {
    "name": "solc",
    "version": "0.8.9+commit.e5eed63a.Emscripten.clang"
  },
  "schemaVersion": "3.4.4",
  "updatedAt": "2022-02-12T02:55:21.449Z",
  "networkType": "ethereum",
  "devdoc": {
    "kind": "dev",
    "methods": {
      "approve(address,uint256)": {
        "details": "See {IERC721-approve}."
      },
      "balanceOf(address)": {
        "details": "See {IERC721-balanceOf}."
      },
      "getApproved(uint256)": {
        "details": "See {IERC721-getApproved}."
      },
      "isApprovedForAll(address,address)": {
        "details": "See {IERC721-isApprovedForAll}."
      },
      "name()": {
        "details": "See {IERC721Metadata-name}."
      },
      "owner()": {
        "details": "Returns the address of the current owner."
      },
      "ownerOf(uint256)": {
        "details": "See {IERC721-ownerOf}."
      },
      "renounceOwnership()": {
        "details": "Leaves the contract without owner. It will not be possible to call `onlyOwner` functions anymore. Can only be called by the current owner. NOTE: Renouncing ownership will leave the contract without an owner, thereby removing any functionality that is only available to the owner."
      },
      "safeTransferFrom(address,address,uint256)": {
        "details": "See {IERC721-safeTransferFrom}."
      },
      "safeTransferFrom(address,address,uint256,bytes)": {
        "details": "See {IERC721-safeTransferFrom}."
      },
      "setApprovalForAll(address,bool)": {
        "details": "See {IERC721-setApprovalForAll}."
      },
      "supportsInterface(bytes4)": {
        "details": "See {IERC165-supportsInterface}."
      },
      "symbol()": {
        "details": "See {IERC721Metadata-symbol}."
      },
      "tokenByIndex(uint256)": {
        "details": "See {IERC721Enumerable-tokenByIndex}."
      },
      "tokenOfOwnerByIndex(address,uint256)": {
        "details": "See {IERC721Enumerable-tokenOfOwnerByIndex}."
      },
      "tokenURI(uint256)": {
        "details": "See {IERC721Metadata-tokenURI}."
      },
      "totalSupply()": {
        "details": "See {IERC721Enumerable-totalSupply}."
      },
      "transferFrom(address,address,uint256)": {
        "details": "See {IERC721-transferFrom}."
      },
      "transferOwnership(address)": {
        "details": "Transfers ownership of the contract to a new account (`newOwner`). Can only be called by the current owner."
      }
    },
    "version": 1
  },
  "userdoc": {
    "kind": "user",
    "methods": {
      "withdrawTeam(uint256)": {
        "notice": "esta funcion se encarga de los pagos a los diferentes componenetas  del equipo"
      }
    },
    "version": 1
  }
}