{
  "contractName": "Polygon",
  "abi": [
    {
      "inputs": [],
      "stateMutability": "nonpayable",
      "type": "constructor"
    },
    {
      "anonymous": false,
      "inputs": [
        {
          "indexed": true,
          "internalType": "address",
          "name": "owner",
          "type": "address"
        },
        {
          "indexed": true,
          "internalType": "address",
          "name": "approved",
          "type": "address"
        },
        {
          "indexed": true,
          "internalType": "uint256",
          "name": "tokenId",
          "type": "uint256"
        }
      ],
      "name": "Approval",
      "type": "event"
    },
    {
      "anonymous": false,
      "inputs": [
        {
          "indexed": true,
          "internalType": "address",
          "name": "owner",
          "type": "address"
        },
        {
          "indexed": true,
          "internalType": "address",
          "name": "operator",
          "type": "address"
        },
        {
          "indexed": false,
          "internalType": "bool",
          "name": "approved",
          "type": "bool"
        }
      ],
      "name": "ApprovalForAll",
      "type": "event"
    },
    {
      "anonymous": false,
      "inputs": [
        {
          "indexed": true,
          "internalType": "address",
          "name": "previousOwner",
          "type": "address"
        },
        {
          "indexed": true,
          "internalType": "address",
          "name": "newOwner",
          "type": "address"
        }
      ],
      "name": "OwnershipTransferred",
      "type": "event"
    },
    {
      "anonymous": false,
      "inputs": [
        {
          "indexed": true,
          "internalType": "address",
          "name": "from",
          "type": "address"
        },
        {
          "indexed": true,
          "internalType": "address",
          "name": "to",
          "type": "address"
        },
        {
          "indexed": true,
          "internalType": "uint256",
          "name": "tokenId",
          "type": "uint256"
        }
      ],
      "name": "Transfer",
      "type": "event"
    },
    {
      "inputs": [],
      "name": "MAX_MINT_PER_TX",
      "outputs": [
        {
          "internalType": "uint256",
          "name": "",
          "type": "uint256"
        }
      ],
      "stateMutability": "view",
      "type": "function",
      "constant": true
    },
    {
      "inputs": [],
      "name": "MAX_PRESALE_SUPPLY",
      "outputs": [
        {
          "internalType": "uint256",
          "name": "",
          "type": "uint256"
        }
      ],
      "stateMutability": "view",
      "type": "function",
      "constant": true
    },
    {
      "inputs": [],
      "name": "MAX_SUPPLY",
      "outputs": [
        {
          "internalType": "uint256",
          "name": "",
          "type": "uint256"
        }
      ],
      "stateMutability": "view",
      "type": "function",
      "constant": true
    },
    {
      "inputs": [],
      "name": "a1",
      "outputs": [
        {
          "internalType": "address",
          "name": "",
          "type": "address"
        }
      ],
      "stateMutability": "view",
      "type": "function",
      "constant": true
    },
    {
      "inputs": [],
      "name": "a2",
      "outputs": [
        {
          "internalType": "address",
          "name": "",
          "type": "address"
        }
      ],
      "stateMutability": "view",
      "type": "function",
      "constant": true
    },
    {
      "inputs": [],
      "name": "a3",
      "outputs": [
        {
          "internalType": "address",
          "name": "",
          "type": "address"
        }
      ],
      "stateMutability": "view",
      "type": "function",
      "constant": true
    },
    {
      "inputs": [
        {
          "internalType": "address",
          "name": "to",
          "type": "address"
        },
        {
          "internalType": "uint256",
          "name": "tokenId",
          "type": "uint256"
        }
      ],
      "name": "approve",
      "outputs": [],
      "stateMutability": "nonpayable",
      "type": "function"
    },
    {
      "inputs": [
        {
          "internalType": "address",
          "name": "owner",
          "type": "address"
        }
      ],
      "name": "balanceOf",
      "outputs": [
        {
          "internalType": "uint256",
          "name": "",
          "type": "uint256"
        }
      ],
      "stateMutability": "view",
      "type": "function",
      "constant": true
    },
    {
      "inputs": [],
      "name": "baseExtension",
      "outputs": [
        {
          "internalType": "string",
          "name": "",
          "type": "string"
        }
      ],
      "stateMutability": "view",
      "type": "function",
      "constant": true
    },
    {
      "inputs": [],
      "name": "baseURI",
      "outputs": [
        {
          "internalType": "string",
          "name": "",
          "type": "string"
        }
      ],
      "stateMutability": "view",
      "type": "function",
      "constant": true
    },
    {
      "inputs": [
        {
          "internalType": "uint256",
          "name": "tokenId",
          "type": "uint256"
        }
      ],
      "name": "getApproved",
      "outputs": [
        {
          "internalType": "address",
          "name": "",
          "type": "address"
        }
      ],
      "stateMutability": "view",
      "type": "function",
      "constant": true
    },
    {
      "inputs": [],
      "name": "initial_price",
      "outputs": [
        {
          "internalType": "uint256",
          "name": "",
          "type": "uint256"
        }
      ],
      "stateMutability": "view",
      "type": "function",
      "constant": true
    },
    {
      "inputs": [
        {
          "internalType": "address",
          "name": "owner",
          "type": "address"
        },
        {
          "internalType": "address",
          "name": "operator",
          "type": "address"
        }
      ],
      "name": "isApprovedForAll",
      "outputs": [
        {
          "internalType": "bool",
          "name": "",
          "type": "bool"
        }
      ],
      "stateMutability": "view",
      "type": "function",
      "constant": true
    },
    {
      "inputs": [],
      "name": "name",
      "outputs": [
        {
          "internalType": "string",
          "name": "",
          "type": "string"
        }
      ],
      "stateMutability": "view",
      "type": "function",
      "constant": true
    },
    {
      "inputs": [],
      "name": "owner",
      "outputs": [
        {
          "internalType": "address",
          "name": "",
          "type": "address"
        }
      ],
      "stateMutability": "view",
      "type": "function",
      "constant": true
    },
    {
      "inputs": [
        {
          "internalType": "uint256",
          "name": "tokenId",
          "type": "uint256"
        }
      ],
      "name": "ownerOf",
      "outputs": [
        {
          "internalType": "address",
          "name": "",
          "type": "address"
        }
      ],
      "stateMutability": "view",
      "type": "function",
      "constant": true
    },
    {
      "inputs": [],
      "name": "presaleActive",
      "outputs": [
        {
          "internalType": "bool",
          "name": "",
          "type": "bool"
        }
      ],
      "stateMutability": "view",
      "type": "function",
      "constant": true
    },
    {
      "inputs": [],
      "name": "price",
      "outputs": [
        {
          "internalType": "uint256",
          "name": "",
          "type": "uint256"
        }
      ],
      "stateMutability": "view",
      "type": "function",
      "constant": true
    },
    {
      "inputs": [],
      "name": "renounceOwnership",
      "outputs": [],
      "stateMutability": "nonpayable",
      "type": "function"
    },
    {
      "inputs": [],
      "name": "reserved",
      "outputs": [
        {
          "internalType": "uint256",
          "name": "",
          "type": "uint256"
        }
      ],
      "stateMutability": "view",
      "type": "function",
      "constant": true
    },
    {
      "inputs": [
        {
          "internalType": "address",
          "name": "from",
          "type": "address"
        },
        {
          "internalType": "address",
          "name": "to",
          "type": "address"
        },
        {
          "internalType": "uint256",
          "name": "tokenId",
          "type": "uint256"
        }
      ],
      "name": "safeTransferFrom",
      "outputs": [],
      "stateMutability": "nonpayable",
      "type": "function"
    },
    {
      "inputs": [
        {
          "internalType": "address",
          "name": "from",
          "type": "address"
        },
        {
          "internalType": "address",
          "name": "to",
          "type": "address"
        },
        {
          "internalType": "uint256",
          "name": "tokenId",
          "type": "uint256"
        },
        {
          "internalType": "bytes",
          "name": "_data",
          "type": "bytes"
        }
      ],
      "name": "safeTransferFrom",
      "outputs": [],
      "stateMutability": "nonpayable",
      "type": "function"
    },
    {
      "inputs": [],
      "name": "saleActive",
      "outputs": [
        {
          "internalType": "bool",
          "name": "",
          "type": "bool"
        }
      ],
      "stateMutability": "view",
      "type": "function",
      "constant": true
    },
    {
      "inputs": [
        {
          "internalType": "address",
          "name": "operator",
          "type": "address"
        },
        {
          "internalType": "bool",
          "name": "approved",
          "type": "bool"
        }
      ],
      "name": "setApprovalForAll",
      "outputs": [],
      "stateMutability": "nonpayable",
      "type": "function"
    },
    {
      "inputs": [
        {
          "internalType": "bytes4",
          "name": "interfaceId",
          "type": "bytes4"
        }
      ],
      "name": "supportsInterface",
      "outputs": [
        {
          "internalType": "bool",
          "name": "",
          "type": "bool"
        }
      ],
      "stateMutability": "view",
      "type": "function",
      "constant": true
    },
    {
      "inputs": [],
      "name": "symbol",
      "outputs": [
        {
          "internalType": "string",
          "name": "",
          "type": "string"
        }
      ],
      "stateMutability": "view",
      "type": "function",
      "constant": true
    },
    {
      "inputs": [
        {
          "internalType": "uint256",
          "name": "index",
          "type": "uint256"
        }
      ],
      "name": "tokenByIndex",
      "outputs": [
        {
          "internalType": "uint256",
          "name": "",
          "type": "uint256"
        }
      ],
      "stateMutability": "view",
      "type": "function",
      "constant": true
    },
    {
      "inputs": [
        {
          "internalType": "address",
          "name": "owner",
          "type": "address"
        },
        {
          "internalType": "uint256",
          "name": "index",
          "type": "uint256"
        }
      ],
      "name": "tokenOfOwnerByIndex",
      "outputs": [
        {
          "internalType": "uint256",
          "name": "",
          "type": "uint256"
        }
      ],
      "stateMutability": "view",
      "type": "function",
      "constant": true
    },
    {
      "inputs": [],
      "name": "totalSupply",
      "outputs": [
        {
          "internalType": "uint256",
          "name": "",
          "type": "uint256"
        }
      ],
      "stateMutability": "view",
      "type": "function",
      "constant": true
    },
    {
      "inputs": [
        {
          "internalType": "address",
          "name": "from",
          "type": "address"
        },
        {
          "internalType": "address",
          "name": "to",
          "type": "address"
        },
        {
          "internalType": "uint256",
          "name": "tokenId",
          "type": "uint256"
        }
      ],
      "name": "transferFrom",
      "outputs": [],
      "stateMutability": "nonpayable",
      "type": "function"
    },
    {
      "inputs": [
        {
          "internalType": "address",
          "name": "newOwner",
          "type": "address"
        }
      ],
      "name": "transferOwnership",
      "outputs": [],
      "stateMutability": "nonpayable",
      "type": "function"
    },
    {
      "inputs": [],
      "name": "whitelistActive",
      "outputs": [
        {
          "internalType": "bool",
          "name": "",
          "type": "bool"
        }
      ],
      "stateMutability": "view",
      "type": "function",
      "constant": true
    },
    {
      "inputs": [
        {
          "internalType": "address",
          "name": "",
          "type": "address"
        }
      ],
      "name": "whitelistReserved",
      "outputs": [
        {
          "internalType": "uint256",
          "name": "",
          "type": "uint256"
        }
      ],
      "stateMutability": "view",
      "type": "function",
      "constant": true
    },
    {
      "inputs": [
        {
          "internalType": "address",
          "name": "addr",
          "type": "address"
        }
      ],
      "name": "tokensOfOwner",
      "outputs": [
        {
          "internalType": "uint256[]",
          "name": "",
          "type": "uint256[]"
        }
      ],
      "stateMutability": "view",
      "type": "function",
      "constant": true
    },
    {
      "inputs": [
        {
          "internalType": "uint256",
          "name": "_amount",
          "type": "uint256"
        }
      ],
      "name": "mintWhitelist",
      "outputs": [],
      "stateMutability": "payable",
      "type": "function",
      "payable": true
    },
    {
      "inputs": [
        {
          "internalType": "uint256",
          "name": "_amount",
          "type": "uint256"
        }
      ],
      "name": "mintPresale",
      "outputs": [],
      "stateMutability": "payable",
      "type": "function",
      "payable": true
    },
    {
      "inputs": [
        {
          "internalType": "uint256",
          "name": "_amount",
          "type": "uint256"
        }
      ],
      "name": "mintToken",
      "outputs": [],
      "stateMutability": "payable",
      "type": "function",
      "payable": true
    },
    {
      "inputs": [
        {
          "internalType": "uint256",
          "name": "_amount",
          "type": "uint256"
        }
      ],
      "name": "mintReserved",
      "outputs": [],
      "stateMutability": "nonpayable",
      "type": "function"
    },
    {
      "inputs": [
        {
          "internalType": "address[]",
          "name": "_a",
          "type": "address[]"
        },
        {
          "internalType": "uint256[]",
          "name": "_amount",
          "type": "uint256[]"
        }
      ],
      "name": "editWhitelistReserved",
      "outputs": [],
      "stateMutability": "nonpayable",
      "type": "function"
    },
    {
      "inputs": [
        {
          "internalType": "bool",
          "name": "val",
          "type": "bool"
        }
      ],
      "name": "setWhitelistActive",
      "outputs": [],
      "stateMutability": "nonpayable",
      "type": "function"
    },
    {
      "inputs": [
        {
          "internalType": "bool",
          "name": "val",
          "type": "bool"
        }
      ],
      "name": "setPresaleActive",
      "outputs": [],
      "stateMutability": "nonpayable",
      "type": "function"
    },
    {
      "inputs": [
        {
          "internalType": "bool",
          "name": "val",
          "type": "bool"
        }
      ],
      "name": "setSaleActive",
      "outputs": [],
      "stateMutability": "nonpayable",
      "type": "function"
    },
    {
      "inputs": [
        {
          "internalType": "uint256",
          "name": "newPrice",
          "type": "uint256"
        }
      ],
      "name": "setPrice",
      "outputs": [],
      "stateMutability": "nonpayable",
      "type": "function"
    },
    {
      "inputs": [
        {
          "internalType": "address[]",
          "name": "_a",
          "type": "address[]"
        }
      ],
      "name": "setAddresses",
      "outputs": [],
      "stateMutability": "nonpayable",
      "type": "function"
    },
    {
      "inputs": [
        {
          "internalType": "uint256",
          "name": "amount",
          "type": "uint256"
        }
      ],
      "name": "withdrawTeam",
      "outputs": [],
      "stateMutability": "payable",
      "type": "function",
      "payable": true
    },
    {
      "inputs": [
        {
          "internalType": "address",
          "name": "_owner",
          "type": "address"
        }
      ],
      "name": "walletOfOwner",
      "outputs": [
        {
          "internalType": "uint256[]",
          "name": "",
          "type": "uint256[]"
        }
      ],
      "stateMutability": "view",
      "type": "function",
      "constant": true
    },
    {
      "inputs": [
        {
          "internalType": "uint256",
          "name": "tokenId",
          "type": "uint256"
        }
      ],
      "name": "tokenURI",
      "outputs": [
        {
          "internalType": "string",
          "name": "",
          "type": "string"
        }
      ],
      "stateMutability": "view",
      "type": "function",
      "constant": true
    },
    {
      "inputs": [
        {
          "internalType": "string",
          "name": "_newBaseURI",
          "type": "string"
        }
      ],
      "name": "setBaseURI",
      "outputs": [],
      "stateMutability": "nonpayable",
      "type": "function"
    },
    {
      "inputs": [
        {
          "internalType": "string",
          "name": "_newBaseExtension",
          "type": "string"
        }
      ],
      "name": "setBaseExtension",
      "outputs": [],
      "stateMutability": "nonpayable",
      "type": "function"
    }
  ],
  "bytecode": "0x60806040526000600a60146101000a81548160ff0219169083151502179055506000600a60156101000a81548160ff0219169083151502179055506000600a60166101000a81548160ff0219169083151502179055506096600b55668e1bc9bf040000600c556040518060400160405280600581526020017f2e6a736f6e00000000000000000000000000000000000000000000000000000081525060139080519060200190620000b29291906200035d565b50348015620000c057600080fd5b506040518060400160405280600781526020017f506f6c79676f6e000000000000000000000000000000000000000000000000008152506040518060400160405280600381526020017f504f4c00000000000000000000000000000000000000000000000000000000008152508160009080519060200190620001459291906200035d565b5080600190805190602001906200015e9291906200035d565b5050506200018162000175620001ba60201b60201c565b620001c260201b60201c565b620001ab60405180608001604052806054815260200162005ba8605491396200028860201b60201c565b600c54600d81905550620004f5565b600033905090565b6000600a60009054906101000a900473ffffffffffffffffffffffffffffffffffffffff16905081600a60006101000a81548173ffffffffffffffffffffffffffffffffffffffff021916908373ffffffffffffffffffffffffffffffffffffffff1602179055508173ffffffffffffffffffffffffffffffffffffffff168173ffffffffffffffffffffffffffffffffffffffff167f8be0079c531659141344cd1fd0a4f28419497f9722a3daafe3b4186f6b6457e060405160405180910390a35050565b62000298620001ba60201b60201c565b73ffffffffffffffffffffffffffffffffffffffff16620002be6200033360201b60201c565b73ffffffffffffffffffffffffffffffffffffffff161462000317576040517f08c379a00000000000000000000000000000000000000000000000000000000081526004016200030e906200046e565b60405180910390fd5b80601290805190602001906200032f9291906200035d565b5050565b6000600a60009054906101000a900473ffffffffffffffffffffffffffffffffffffffff16905090565b8280546200036b90620004bf565b90600052602060002090601f0160209004810192826200038f5760008555620003db565b82601f10620003aa57805160ff1916838001178555620003db565b82800160010185558215620003db579182015b82811115620003da578251825591602001919060010190620003bd565b5b509050620003ea9190620003ee565b5090565b5b8082111562000409576000816000905550600101620003ef565b5090565b600082825260208201905092915050565b7f4f776e61626c653a2063616c6c6572206973206e6f7420746865206f776e6572600082015250565b6000620004566020836200040d565b915062000463826200041e565b602082019050919050565b60006020820190508181036000830152620004898162000447565b9050919050565b7f4e487b7100000000000000000000000000000000000000000000000000000000600052602260045260246000fd5b60006002820490506001821680620004d857607f821691505b60208210811415620004ef57620004ee62000490565b5b50919050565b6156a380620005056000396000f3fe6080604052600436106102ae5760003560e01c8063841718a611610175578063b88d4fde116100dc578063da3ef23f11610095578063f2fde38b1161006f578063f2fde38b14610aba578063f759867a14610ae3578063fd2b049214610aff578063fe60d12c14610b1b576102ae565b8063da3ef23f14610a2b578063e985e9c514610a54578063f14c0bcc14610a91576102ae565b8063b88d4fde1461092c578063b957172114610955578063c3b754dc1461097e578063c634d032146109a7578063c6682862146109c3578063c87b56dd146109ee576102ae565b806395d89b411161012e57806395d89b411461082e578063969e9d0c146108595780639a5d140b14610884578063a035b1fe146108ad578063a22cb465146108d8578063ab3f5a1a14610901576102ae565b8063841718a61461071e5780638462151c146107475780638da5cb5b146107845780638ecad721146107af57806391b7f5ed146107da5780639426eef814610803576102ae565b8063438b63001161021957806368428a1b116101d257806368428a1b1461060c5780636b8dc355146106375780636c0360eb1461066257806370a082311461068d578063715018a6146106ca57806372e3a3eb146106e1576102ae565b8063438b6300146104e55780634618163e146105225780634f6ccce71461053e57806353135ca01461057b57806355f804b3146105a65780636352211e146105cf576102ae565b806318160ddd1161026b57806318160ddd146103d757806323b872dd146104025780632f745c591461042b57806332cb6b0c146104685780633f8121a21461049357806342842e0e146104bc576102ae565b806301ffc9a7146102b357806302ce5813146102f057806306fdde031461031b578063081812fc14610346578063095ea7b314610383578063119552a1146103ac575b600080fd5b3480156102bf57600080fd5b506102da60048036038101906102d59190613a33565b610b46565b6040516102e79190613a7b565b60405180910390f35b3480156102fc57600080fd5b50610305610bc0565b6040516103129190613a7b565b60405180910390f35b34801561032757600080fd5b50610330610bd3565b60405161033d9190613b2f565b60405180910390f35b34801561035257600080fd5b5061036d60048036038101906103689190613b87565b610c65565b60405161037a9190613bf5565b60405180910390f35b34801561038f57600080fd5b506103aa60048036038101906103a59190613c3c565b610cea565b005b3480156103b857600080fd5b506103c1610e02565b6040516103ce9190613bf5565b60405180910390f35b3480156103e357600080fd5b506103ec610e28565b6040516103f99190613c8b565b60405180910390f35b34801561040e57600080fd5b5061042960048036038101906104249190613ca6565b610e35565b005b34801561043757600080fd5b50610452600480360381019061044d9190613c3c565b610e95565b60405161045f9190613c8b565b60405180910390f35b34801561047457600080fd5b5061047d610f3a565b60405161048a9190613c8b565b60405180910390f35b34801561049f57600080fd5b506104ba60048036038101906104b59190613d25565b610f40565b005b3480156104c857600080fd5b506104e360048036038101906104de9190613ca6565b610fd9565b005b3480156104f157600080fd5b5061050c60048036038101906105079190613d52565b610ff9565b6040516105199190613e3d565b60405180910390f35b61053c60048036038101906105379190613b87565b6110a7565b005b34801561054a57600080fd5b5061056560048036038101906105609190613b87565b6112f2565b6040516105729190613c8b565b60405180910390f35b34801561058757600080fd5b50610590611363565b60405161059d9190613a7b565b60405180910390f35b3480156105b257600080fd5b506105cd60048036038101906105c89190613f94565b611376565b005b3480156105db57600080fd5b506105f660048036038101906105f19190613b87565b61140c565b6040516106039190613bf5565b60405180910390f35b34801561061857600080fd5b506106216114be565b60405161062e9190613a7b565b60405180910390f35b34801561064357600080fd5b5061064c6114d1565b6040516106599190613c8b565b60405180910390f35b34801561066e57600080fd5b506106776114d7565b6040516106849190613b2f565b60405180910390f35b34801561069957600080fd5b506106b460048036038101906106af9190613d52565b611565565b6040516106c19190613c8b565b60405180910390f35b3480156106d657600080fd5b506106df61161d565b005b3480156106ed57600080fd5b5061070860048036038101906107039190613d52565b6116a5565b6040516107159190613c8b565b60405180910390f35b34801561072a57600080fd5b5061074560048036038101906107409190613d25565b6116bd565b005b34801561075357600080fd5b5061076e60048036038101906107699190613d52565b611756565b60405161077b9190613e3d565b60405180910390f35b34801561079057600080fd5b50610799611804565b6040516107a69190613bf5565b60405180910390f35b3480156107bb57600080fd5b506107c461182e565b6040516107d19190613c8b565b60405180910390f35b3480156107e657600080fd5b5061080160048036038101906107fc9190613b87565b611833565b005b34801561080f57600080fd5b506108186118b9565b6040516108259190613bf5565b60405180910390f35b34801561083a57600080fd5b506108436118df565b6040516108509190613b2f565b60405180910390f35b34801561086557600080fd5b5061086e611971565b60405161087b9190613bf5565b60405180910390f35b34801561089057600080fd5b506108ab60048036038101906108a69190613b87565b611997565b005b3480156108b957600080fd5b506108c2611ab4565b6040516108cf9190613c8b565b60405180910390f35b3480156108e457600080fd5b506108ff60048036038101906108fa9190613fdd565b611aba565b005b34801561090d57600080fd5b50610916611ad0565b6040516109239190613c8b565b60405180910390f35b34801561093857600080fd5b50610953600480360381019061094e91906140be565b611ad6565b005b34801561096157600080fd5b5061097c60048036038101906109779190614209565b611b38565b005b34801561098a57600080fd5b506109a560048036038101906109a09190613d25565b611ccb565b005b6109c160048036038101906109bc9190613b87565b611d64565b005b3480156109cf57600080fd5b506109d8611ee5565b6040516109e59190613b2f565b60405180910390f35b3480156109fa57600080fd5b50610a156004803603810190610a109190613b87565b611f73565b604051610a229190613b2f565b60405180910390f35b348015610a3757600080fd5b50610a526004803603810190610a4d9190613f94565b61201d565b005b348015610a6057600080fd5b50610a7b6004803603810190610a769190614252565b6120b3565b604051610a889190613a7b565b60405180910390f35b348015610a9d57600080fd5b50610ab86004803603810190610ab39190614355565b612147565b005b348015610ac657600080fd5b50610ae16004803603810190610adc9190613d52565b61225f565b005b610afd6004803603810190610af89190613b87565b612357565b005b610b196004803603810190610b149190613b87565b6124d8565b005b348015610b2757600080fd5b50610b306126ad565b604051610b3d9190613c8b565b60405180910390f35b60007f780e9d63000000000000000000000000000000000000000000000000000000007bffffffffffffffffffffffffffffffffffffffffffffffffffffffff1916827bffffffffffffffffffffffffffffffffffffffffffffffffffffffff19161480610bb95750610bb8826126b3565b5b9050919050565b600a60159054906101000a900460ff1681565b606060008054610be2906143fc565b80601f0160208091040260200160405190810160405280929190818152602001828054610c0e906143fc565b8015610c5b5780601f10610c3057610100808354040283529160200191610c5b565b820191906000526020600020905b815481529060010190602001808311610c3e57829003601f168201915b5050505050905090565b6000610c7082612795565b610caf576040517f08c379a0000000000000000000000000000000000000000000000000000000008152600401610ca6906144a0565b60405180910390fd5b6004600083815260200190815260200160002060009054906101000a900473ffffffffffffffffffffffffffffffffffffffff169050919050565b6000610cf58261140c565b90508073ffffffffffffffffffffffffffffffffffffffff168373ffffffffffffffffffffffffffffffffffffffff161415610d66576040517f08c379a0000000000000000000000000000000000000000000000000000000008152600401610d5d90614532565b60405180910390fd5b8073ffffffffffffffffffffffffffffffffffffffff16610d85612801565b73ffffffffffffffffffffffffffffffffffffffff161480610db45750610db381610dae612801565b6120b3565b5b610df3576040517f08c379a0000000000000000000000000000000000000000000000000000000008152600401610dea906145c4565b60405180910390fd5b610dfd8383612809565b505050565b600e60009054906101000a900473ffffffffffffffffffffffffffffffffffffffff1681565b6000600880549050905090565b610e46610e40612801565b826128c2565b610e85576040517f08c379a0000000000000000000000000000000000000000000000000000000008152600401610e7c90614656565b60405180910390fd5b610e908383836129a0565b505050565b6000610ea083611565565b8210610ee1576040517f08c379a0000000000000000000000000000000000000000000000000000000008152600401610ed8906146e8565b60405180910390fd5b600660008473ffffffffffffffffffffffffffffffffffffffff1673ffffffffffffffffffffffffffffffffffffffff168152602001908152602001600020600083815260200190815260200160002054905092915050565b61271081565b610f48612801565b73ffffffffffffffffffffffffffffffffffffffff16610f66611804565b73ffffffffffffffffffffffffffffffffffffffff1614610fbc576040517f08c379a0000000000000000000000000000000000000000000000000000000008152600401610fb390614754565b60405180910390fd5b80600a60166101000a81548160ff02191690831515021790555050565b610ff483838360405180602001604052806000815250611ad6565b505050565b6060600061100683611565565b905060008167ffffffffffffffff81111561102457611023613e69565b5b6040519080825280602002602001820160405280156110525781602001602082028036833780820191505090505b50905060005b8281101561109c5761106a8582610e95565b82828151811061107d5761107c614774565b5b6020026020010181815250508080611094906147d2565b915050611058565b508092505050919050565b60006110b1610e28565b90506000601160003373ffffffffffffffffffffffffffffffffffffffff1673ffffffffffffffffffffffffffffffffffffffff168152602001908152602001600020549050600a60159054906101000a900460ff16611146576040517f08c379a000000000000000000000000000000000000000000000000000000000815260040161113d90614867565b60405180910390fd5b60008111611189576040517f08c379a0000000000000000000000000000000000000000000000000000000008152600401611180906148f9565b60405180910390fd5b808311156111cc576040517f08c379a00000000000000000000000000000000000000000000000000000000081526004016111c390614965565b60405180910390fd5b61271083836111db9190614985565b111561121c576040517f08c379a000000000000000000000000000000000000000000000000000000000815260040161121390614a27565b60405180910390fd5b82600d5461122a9190614a47565b341461126b576040517f08c379a000000000000000000000000000000000000000000000000000000000815260040161126290614aed565b60405180910390fd5b82816112779190614b0d565b601160003373ffffffffffffffffffffffffffffffffffffffff1673ffffffffffffffffffffffffffffffffffffffff1681526020019081526020016000208190555060005b8381116112ec576112d93382856112d49190614985565b612c07565b80806112e4906147d2565b9150506112bd565b50505050565b60006112fc610e28565b821061133d576040517f08c379a000000000000000000000000000000000000000000000000000000000815260040161133490614bb3565b60405180910390fd5b6008828154811061135157611350614774565b5b90600052602060002001549050919050565b600a60169054906101000a900460ff1681565b61137e612801565b73ffffffffffffffffffffffffffffffffffffffff1661139c611804565b73ffffffffffffffffffffffffffffffffffffffff16146113f2576040517f08c379a00000000000000000000000000000000000000000000000000000000081526004016113e990614754565b60405180910390fd5b8060129080519060200190611408929190613924565b5050565b6000806002600084815260200190815260200160002060009054906101000a900473ffffffffffffffffffffffffffffffffffffffff169050600073ffffffffffffffffffffffffffffffffffffffff168173ffffffffffffffffffffffffffffffffffffffff1614156114b5576040517f08c379a00000000000000000000000000000000000000000000000000000000081526004016114ac90614c45565b60405180910390fd5b80915050919050565b600a60149054906101000a900460ff1681565b6101f481565b601280546114e4906143fc565b80601f0160208091040260200160405190810160405280929190818152602001828054611510906143fc565b801561155d5780601f106115325761010080835404028352916020019161155d565b820191906000526020600020905b81548152906001019060200180831161154057829003601f168201915b505050505081565b60008073ffffffffffffffffffffffffffffffffffffffff168273ffffffffffffffffffffffffffffffffffffffff1614156115d6576040517f08c379a00000000000000000000000000000000000000000000000000000000081526004016115cd90614cd7565b60405180910390fd5b600360008373ffffffffffffffffffffffffffffffffffffffff1673ffffffffffffffffffffffffffffffffffffffff168152602001908152602001600020549050919050565b611625612801565b73ffffffffffffffffffffffffffffffffffffffff16611643611804565b73ffffffffffffffffffffffffffffffffffffffff1614611699576040517f08c379a000000000000000000000000000000000000000000000000000000000815260040161169090614754565b60405180910390fd5b6116a36000612c25565b565b60116020528060005260406000206000915090505481565b6116c5612801565b73ffffffffffffffffffffffffffffffffffffffff166116e3611804565b73ffffffffffffffffffffffffffffffffffffffff1614611739576040517f08c379a000000000000000000000000000000000000000000000000000000000815260040161173090614754565b60405180910390fd5b80600a60146101000a81548160ff02191690831515021790555050565b6060600061176383611565565b905060008167ffffffffffffffff81111561178157611780613e69565b5b6040519080825280602002602001820160405280156117af5781602001602082028036833780820191505090505b50905060005b828110156117f9576117c78582610e95565b8282815181106117da576117d9614774565b5b60200260200101818152505080806117f1906147d2565b9150506117b5565b508092505050919050565b6000600a60009054906101000a900473ffffffffffffffffffffffffffffffffffffffff16905090565b601481565b61183b612801565b73ffffffffffffffffffffffffffffffffffffffff16611859611804565b73ffffffffffffffffffffffffffffffffffffffff16146118af576040517f08c379a00000000000000000000000000000000000000000000000000000000081526004016118a690614754565b60405180910390fd5b80600d8190555050565b601060009054906101000a900473ffffffffffffffffffffffffffffffffffffffff1681565b6060600180546118ee906143fc565b80601f016020809104026020016040519081016040528092919081815260200182805461191a906143fc565b80156119675780601f1061193c57610100808354040283529160200191611967565b820191906000526020600020905b81548152906001019060200180831161194a57829003601f168201915b5050505050905090565b600f60009054906101000a900473ffffffffffffffffffffffffffffffffffffffff1681565b61199f612801565b73ffffffffffffffffffffffffffffffffffffffff166119bd611804565b73ffffffffffffffffffffffffffffffffffffffff1614611a13576040517f08c379a0000000000000000000000000000000000000000000000000000000008152600401611a0a90614754565b60405180910390fd5b600b54811115611a58576040517f08c379a0000000000000000000000000000000000000000000000000000000008152600401611a4f90614d69565b60405180910390fd5b80600b6000828254611a6a9190614b0d565b925050819055506000611a7b610e28565b905060005b828111611aaf57611a9c338284611a979190614985565b612c07565b8080611aa7906147d2565b915050611a80565b505050565b600d5481565b611acc611ac5612801565b8383612ceb565b5050565b600c5481565b611ae7611ae1612801565b836128c2565b611b26576040517f08c379a0000000000000000000000000000000000000000000000000000000008152600401611b1d90614656565b60405180910390fd5b611b3284848484612e58565b50505050565b611b40612801565b73ffffffffffffffffffffffffffffffffffffffff16611b5e611804565b73ffffffffffffffffffffffffffffffffffffffff1614611bb4576040517f08c379a0000000000000000000000000000000000000000000000000000000008152600401611bab90614754565b60405180910390fd5b80600081518110611bc857611bc7614774565b5b6020026020010151600e60006101000a81548173ffffffffffffffffffffffffffffffffffffffff021916908373ffffffffffffffffffffffffffffffffffffffff16021790555080600181518110611c2457611c23614774565b5b6020026020010151600f60006101000a81548173ffffffffffffffffffffffffffffffffffffffff021916908373ffffffffffffffffffffffffffffffffffffffff16021790555080600281518110611c8057611c7f614774565b5b6020026020010151601060006101000a81548173ffffffffffffffffffffffffffffffffffffffff021916908373ffffffffffffffffffffffffffffffffffffffff16021790555050565b611cd3612801565b73ffffffffffffffffffffffffffffffffffffffff16611cf1611804565b73ffffffffffffffffffffffffffffffffffffffff1614611d47576040517f08c379a0000000000000000000000000000000000000000000000000000000008152600401611d3e90614754565b60405180910390fd5b80600a60156101000a81548160ff02191690831515021790555050565b6000611d6e610e28565b9050600a60149054906101000a900460ff16611dbf576040517f08c379a0000000000000000000000000000000000000000000000000000000008152600401611db690614dd5565b60405180910390fd5b600082118015611dd0575060148211155b611e0f576040517f08c379a0000000000000000000000000000000000000000000000000000000008152600401611e0690614e67565b60405180910390fd5b6127108282611e1e9190614985565b1115611e5f576040517f08c379a0000000000000000000000000000000000000000000000000000000008152600401611e5690614a27565b60405180910390fd5b81600d54611e6d9190614a47565b3414611eae576040517f08c379a0000000000000000000000000000000000000000000000000000000008152600401611ea590614aed565b60405180910390fd5b60005b828111611ee057611ecd338284611ec89190614985565b612c07565b8080611ed8906147d2565b915050611eb1565b505050565b60138054611ef2906143fc565b80601f0160208091040260200160405190810160405280929190818152602001828054611f1e906143fc565b8015611f6b5780601f10611f4057610100808354040283529160200191611f6b565b820191906000526020600020905b815481529060010190602001808311611f4e57829003601f168201915b505050505081565b6060611f7e82612795565b611fbd576040517f08c379a0000000000000000000000000000000000000000000000000000000008152600401611fb490614ef9565b60405180910390fd5b6000611fc7612eb4565b90506000815111611fe75760405180602001604052806000815250612015565b80611ff184612f46565b601360405160200161200593929190614fe9565b6040516020818303038152906040525b915050919050565b612025612801565b73ffffffffffffffffffffffffffffffffffffffff16612043611804565b73ffffffffffffffffffffffffffffffffffffffff1614612099576040517f08c379a000000000000000000000000000000000000000000000000000000000815260040161209090614754565b60405180910390fd5b80601390805190602001906120af929190613924565b5050565b6000600560008473ffffffffffffffffffffffffffffffffffffffff1673ffffffffffffffffffffffffffffffffffffffff16815260200190815260200160002060008373ffffffffffffffffffffffffffffffffffffffff1673ffffffffffffffffffffffffffffffffffffffff16815260200190815260200160002060009054906101000a900460ff16905092915050565b61214f612801565b73ffffffffffffffffffffffffffffffffffffffff1661216d611804565b73ffffffffffffffffffffffffffffffffffffffff16146121c3576040517f08c379a00000000000000000000000000000000000000000000000000000000081526004016121ba90614754565b60405180910390fd5b60005b825181101561225a578181815181106121e2576121e1614774565b5b60200260200101516011600085848151811061220157612200614774565b5b602002602001015173ffffffffffffffffffffffffffffffffffffffff1673ffffffffffffffffffffffffffffffffffffffff168152602001908152602001600020819055508080612252906147d2565b9150506121c6565b505050565b612267612801565b73ffffffffffffffffffffffffffffffffffffffff16612285611804565b73ffffffffffffffffffffffffffffffffffffffff16146122db576040517f08c379a00000000000000000000000000000000000000000000000000000000081526004016122d290614754565b60405180910390fd5b600073ffffffffffffffffffffffffffffffffffffffff168173ffffffffffffffffffffffffffffffffffffffff16141561234b576040517f08c379a00000000000000000000000000000000000000000000000000000000081526004016123429061508c565b60405180910390fd5b61235481612c25565b50565b6000612361610e28565b9050600a60169054906101000a900460ff166123b2576040517f08c379a00000000000000000000000000000000000000000000000000000000081526004016123a990614dd5565b60405180910390fd5b6000821180156123c3575060148211155b612402576040517f08c379a00000000000000000000000000000000000000000000000000000000081526004016123f99061511e565b60405180910390fd5b6101f482826124119190614985565b1115612452576040517f08c379a000000000000000000000000000000000000000000000000000000000815260040161244990614a27565b60405180910390fd5b81600d546124609190614a47565b34146124a1576040517f08c379a000000000000000000000000000000000000000000000000000000000815260040161249890614aed565b60405180910390fd5b60005b8281116124d3576124c03382846124bb9190614985565b612c07565b80806124cb906147d2565b9150506124a4565b505050565b6124e0612801565b73ffffffffffffffffffffffffffffffffffffffff166124fe611804565b73ffffffffffffffffffffffffffffffffffffffff1614612554576040517f08c379a000000000000000000000000000000000000000000000000000000000815260040161254b90614754565b60405180910390fd5b6000606482612563919061516d565b9050600e60009054906101000a900473ffffffffffffffffffffffffffffffffffffffff1673ffffffffffffffffffffffffffffffffffffffff166108fc6028836125ae9190614a47565b9081150290604051600060405180830381858888f193505050506125d157600080fd5b600f60009054906101000a900473ffffffffffffffffffffffffffffffffffffffff1673ffffffffffffffffffffffffffffffffffffffff166108fc601e8361261a9190614a47565b9081150290604051600060405180830381858888f1935050505061263d57600080fd5b601060009054906101000a900473ffffffffffffffffffffffffffffffffffffffff1673ffffffffffffffffffffffffffffffffffffffff166108fc601e836126869190614a47565b9081150290604051600060405180830381858888f193505050506126a957600080fd5b5050565b600b5481565b60007f80ac58cd000000000000000000000000000000000000000000000000000000007bffffffffffffffffffffffffffffffffffffffffffffffffffffffff1916827bffffffffffffffffffffffffffffffffffffffffffffffffffffffff1916148061277e57507f5b5e139f000000000000000000000000000000000000000000000000000000007bffffffffffffffffffffffffffffffffffffffffffffffffffffffff1916827bffffffffffffffffffffffffffffffffffffffffffffffffffffffff1916145b8061278e575061278d826130a7565b5b9050919050565b60008073ffffffffffffffffffffffffffffffffffffffff166002600084815260200190815260200160002060009054906101000a900473ffffffffffffffffffffffffffffffffffffffff1673ffffffffffffffffffffffffffffffffffffffff1614159050919050565b600033905090565b816004600083815260200190815260200160002060006101000a81548173ffffffffffffffffffffffffffffffffffffffff021916908373ffffffffffffffffffffffffffffffffffffffff160217905550808273ffffffffffffffffffffffffffffffffffffffff1661287c8361140c565b73ffffffffffffffffffffffffffffffffffffffff167f8c5be1e5ebec7d5bd14f71427d1e84f3dd0314c0f7b2291e5b200ac8c7c3b92560405160405180910390a45050565b60006128cd82612795565b61290c576040517f08c379a000000000000000000000000000000000000000000000000000000000815260040161290390615210565b60405180910390fd5b60006129178361140c565b90508073ffffffffffffffffffffffffffffffffffffffff168473ffffffffffffffffffffffffffffffffffffffff16148061298657508373ffffffffffffffffffffffffffffffffffffffff1661296e84610c65565b73ffffffffffffffffffffffffffffffffffffffff16145b80612997575061299681856120b3565b5b91505092915050565b8273ffffffffffffffffffffffffffffffffffffffff166129c08261140c565b73ffffffffffffffffffffffffffffffffffffffff1614612a16576040517f08c379a0000000000000000000000000000000000000000000000000000000008152600401612a0d906152a2565b60405180910390fd5b600073ffffffffffffffffffffffffffffffffffffffff168273ffffffffffffffffffffffffffffffffffffffff161415612a86576040517f08c379a0000000000000000000000000000000000000000000000000000000008152600401612a7d90615334565b60405180910390fd5b612a91838383613111565b612a9c600082612809565b6001600360008573ffffffffffffffffffffffffffffffffffffffff1673ffffffffffffffffffffffffffffffffffffffff1681526020019081526020016000206000828254612aec9190614b0d565b925050819055506001600360008473ffffffffffffffffffffffffffffffffffffffff1673ffffffffffffffffffffffffffffffffffffffff1681526020019081526020016000206000828254612b439190614985565b92505081905550816002600083815260200190815260200160002060006101000a81548173ffffffffffffffffffffffffffffffffffffffff021916908373ffffffffffffffffffffffffffffffffffffffff160217905550808273ffffffffffffffffffffffffffffffffffffffff168473ffffffffffffffffffffffffffffffffffffffff167fddf252ad1be2c89b69c2b068fc378daa952ba7f163c4a11628f55a4df523b3ef60405160405180910390a4612c02838383613225565b505050565b612c2182826040518060200160405280600081525061322a565b5050565b6000600a60009054906101000a900473ffffffffffffffffffffffffffffffffffffffff16905081600a60006101000a81548173ffffffffffffffffffffffffffffffffffffffff021916908373ffffffffffffffffffffffffffffffffffffffff1602179055508173ffffffffffffffffffffffffffffffffffffffff168173ffffffffffffffffffffffffffffffffffffffff167f8be0079c531659141344cd1fd0a4f28419497f9722a3daafe3b4186f6b6457e060405160405180910390a35050565b8173ffffffffffffffffffffffffffffffffffffffff168373ffffffffffffffffffffffffffffffffffffffff161415612d5a576040517f08c379a0000000000000000000000000000000000000000000000000000000008152600401612d51906153a0565b60405180910390fd5b80600560008573ffffffffffffffffffffffffffffffffffffffff1673ffffffffffffffffffffffffffffffffffffffff16815260200190815260200160002060008473ffffffffffffffffffffffffffffffffffffffff1673ffffffffffffffffffffffffffffffffffffffff16815260200190815260200160002060006101000a81548160ff0219169083151502179055508173ffffffffffffffffffffffffffffffffffffffff168373ffffffffffffffffffffffffffffffffffffffff167f17307eab39ab6107e8899845ad3d59bd9653f200f220920489ca2b5937696c3183604051612e4b9190613a7b565b60405180910390a3505050565b612e638484846129a0565b612e6f84848484613285565b612eae576040517f08c379a0000000000000000000000000000000000000000000000000000000008152600401612ea590615432565b60405180910390fd5b50505050565b606060128054612ec3906143fc565b80601f0160208091040260200160405190810160405280929190818152602001828054612eef906143fc565b8015612f3c5780601f10612f1157610100808354040283529160200191612f3c565b820191906000526020600020905b815481529060010190602001808311612f1f57829003601f168201915b5050505050905090565b60606000821415612f8e576040518060400160405280600181526020017f300000000000000000000000000000000000000000000000000000000000000081525090506130a2565b600082905060005b60008214612fc0578080612fa9906147d2565b915050600a82612fb9919061516d565b9150612f96565b60008167ffffffffffffffff811115612fdc57612fdb613e69565b5b6040519080825280601f01601f19166020018201604052801561300e5781602001600182028036833780820191505090505b5090505b6000851461309b576001826130279190614b0d565b9150600a856130369190615452565b60306130429190614985565b60f81b81838151811061305857613057614774565b5b60200101907effffffffffffffffffffffffffffffffffffffffffffffffffffffffffffff1916908160001a905350600a85613094919061516d565b9450613012565b8093505050505b919050565b60007f01ffc9a7000000000000000000000000000000000000000000000000000000007bffffffffffffffffffffffffffffffffffffffffffffffffffffffff1916827bffffffffffffffffffffffffffffffffffffffffffffffffffffffff1916149050919050565b61311c83838361341c565b600073ffffffffffffffffffffffffffffffffffffffff168373ffffffffffffffffffffffffffffffffffffffff16141561315f5761315a81613421565b61319e565b8173ffffffffffffffffffffffffffffffffffffffff168373ffffffffffffffffffffffffffffffffffffffff161461319d5761319c838261346a565b5b5b600073ffffffffffffffffffffffffffffffffffffffff168273ffffffffffffffffffffffffffffffffffffffff1614156131e1576131dc816135d7565b613220565b8273ffffffffffffffffffffffffffffffffffffffff168273ffffffffffffffffffffffffffffffffffffffff161461321f5761321e82826136a8565b5b5b505050565b505050565b6132348383613727565b6132416000848484613285565b613280576040517f08c379a000000000000000000000000000000000000000000000000000000000815260040161327790615432565b60405180910390fd5b505050565b60006132a68473ffffffffffffffffffffffffffffffffffffffff16613901565b1561340f578373ffffffffffffffffffffffffffffffffffffffff1663150b7a026132cf612801565b8786866040518563ffffffff1660e01b81526004016132f194939291906154d8565b602060405180830381600087803b15801561330b57600080fd5b505af192505050801561333c57506040513d601f19601f820116820180604052508101906133399190615539565b60015b6133bf573d806000811461336c576040519150601f19603f3d011682016040523d82523d6000602084013e613371565b606091505b506000815114156133b7576040517f08c379a00000000000000000000000000000000000000000000000000000000081526004016133ae90615432565b60405180910390fd5b805181602001fd5b63150b7a0260e01b7bffffffffffffffffffffffffffffffffffffffffffffffffffffffff1916817bffffffffffffffffffffffffffffffffffffffffffffffffffffffff191614915050613414565b600190505b949350505050565b505050565b6008805490506009600083815260200190815260200160002081905550600881908060018154018082558091505060019003906000526020600020016000909190919091505550565b6000600161347784611565565b6134819190614b0d565b9050600060076000848152602001908152602001600020549050818114613566576000600660008673ffffffffffffffffffffffffffffffffffffffff1673ffffffffffffffffffffffffffffffffffffffff168152602001908152602001600020600084815260200190815260200160002054905080600660008773ffffffffffffffffffffffffffffffffffffffff1673ffffffffffffffffffffffffffffffffffffffff168152602001908152602001600020600084815260200190815260200160002081905550816007600083815260200190815260200160002081905550505b6007600084815260200190815260200160002060009055600660008573ffffffffffffffffffffffffffffffffffffffff1673ffffffffffffffffffffffffffffffffffffffff16815260200190815260200160002060008381526020019081526020016000206000905550505050565b600060016008805490506135eb9190614b0d565b905060006009600084815260200190815260200160002054905060006008838154811061361b5761361a614774565b5b90600052602060002001549050806008838154811061363d5761363c614774565b5b90600052602060002001819055508160096000838152602001908152602001600020819055506009600085815260200190815260200160002060009055600880548061368c5761368b615566565b5b6001900381819060005260206000200160009055905550505050565b60006136b383611565565b905081600660008573ffffffffffffffffffffffffffffffffffffffff1673ffffffffffffffffffffffffffffffffffffffff168152602001908152602001600020600083815260200190815260200160002081905550806007600084815260200190815260200160002081905550505050565b600073ffffffffffffffffffffffffffffffffffffffff168273ffffffffffffffffffffffffffffffffffffffff161415613797576040517f08c379a000000000000000000000000000000000000000000000000000000000815260040161378e906155e1565b60405180910390fd5b6137a081612795565b156137e0576040517f08c379a00000000000000000000000000000000000000000000000000000000081526004016137d79061564d565b60405180910390fd5b6137ec60008383613111565b6001600360008473ffffffffffffffffffffffffffffffffffffffff1673ffffffffffffffffffffffffffffffffffffffff168152602001908152602001600020600082825461383c9190614985565b92505081905550816002600083815260200190815260200160002060006101000a81548173ffffffffffffffffffffffffffffffffffffffff021916908373ffffffffffffffffffffffffffffffffffffffff160217905550808273ffffffffffffffffffffffffffffffffffffffff16600073ffffffffffffffffffffffffffffffffffffffff167fddf252ad1be2c89b69c2b068fc378daa952ba7f163c4a11628f55a4df523b3ef60405160405180910390a46138fd60008383613225565b5050565b6000808273ffffffffffffffffffffffffffffffffffffffff163b119050919050565b828054613930906143fc565b90600052602060002090601f0160209004810192826139525760008555613999565b82601f1061396b57805160ff1916838001178555613999565b82800160010185558215613999579182015b8281111561399857825182559160200191906001019061397d565b5b5090506139a691906139aa565b5090565b5b808211156139c35760008160009055506001016139ab565b5090565b6000604051905090565b600080fd5b600080fd5b60007fffffffff0000000000000000000000000000000000000000000000000000000082169050919050565b613a10816139db565b8114613a1b57600080fd5b50565b600081359050613a2d81613a07565b92915050565b600060208284031215613a4957613a486139d1565b5b6000613a5784828501613a1e565b91505092915050565b60008115159050919050565b613a7581613a60565b82525050565b6000602082019050613a906000830184613a6c565b92915050565b600081519050919050565b600082825260208201905092915050565b60005b83811015613ad0578082015181840152602081019050613ab5565b83811115613adf576000848401525b50505050565b6000601f19601f8301169050919050565b6000613b0182613a96565b613b0b8185613aa1565b9350613b1b818560208601613ab2565b613b2481613ae5565b840191505092915050565b60006020820190508181036000830152613b498184613af6565b905092915050565b6000819050919050565b613b6481613b51565b8114613b6f57600080fd5b50565b600081359050613b8181613b5b565b92915050565b600060208284031215613b9d57613b9c6139d1565b5b6000613bab84828501613b72565b91505092915050565b600073ffffffffffffffffffffffffffffffffffffffff82169050919050565b6000613bdf82613bb4565b9050919050565b613bef81613bd4565b82525050565b6000602082019050613c0a6000830184613be6565b92915050565b613c1981613bd4565b8114613c2457600080fd5b50565b600081359050613c3681613c10565b92915050565b60008060408385031215613c5357613c526139d1565b5b6000613c6185828601613c27565b9250506020613c7285828601613b72565b9150509250929050565b613c8581613b51565b82525050565b6000602082019050613ca06000830184613c7c565b92915050565b600080600060608486031215613cbf57613cbe6139d1565b5b6000613ccd86828701613c27565b9350506020613cde86828701613c27565b9250506040613cef86828701613b72565b9150509250925092565b613d0281613a60565b8114613d0d57600080fd5b50565b600081359050613d1f81613cf9565b92915050565b600060208284031215613d3b57613d3a6139d1565b5b6000613d4984828501613d10565b91505092915050565b600060208284031215613d6857613d676139d1565b5b6000613d7684828501613c27565b91505092915050565b600081519050919050565b600082825260208201905092915050565b6000819050602082019050919050565b613db481613b51565b82525050565b6000613dc68383613dab565b60208301905092915050565b6000602082019050919050565b6000613dea82613d7f565b613df48185613d8a565b9350613dff83613d9b565b8060005b83811015613e30578151613e178882613dba565b9750613e2283613dd2565b925050600181019050613e03565b5085935050505092915050565b60006020820190508181036000830152613e578184613ddf565b905092915050565b600080fd5b600080fd5b7f4e487b7100000000000000000000000000000000000000000000000000000000600052604160045260246000fd5b613ea182613ae5565b810181811067ffffffffffffffff82111715613ec057613ebf613e69565b5b80604052505050565b6000613ed36139c7565b9050613edf8282613e98565b919050565b600067ffffffffffffffff821115613eff57613efe613e69565b5b613f0882613ae5565b9050602081019050919050565b82818337600083830152505050565b6000613f37613f3284613ee4565b613ec9565b905082815260208101848484011115613f5357613f52613e64565b5b613f5e848285613f15565b509392505050565b600082601f830112613f7b57613f7a613e5f565b5b8135613f8b848260208601613f24565b91505092915050565b600060208284031215613faa57613fa96139d1565b5b600082013567ffffffffffffffff811115613fc857613fc76139d6565b5b613fd484828501613f66565b91505092915050565b60008060408385031215613ff457613ff36139d1565b5b600061400285828601613c27565b925050602061401385828601613d10565b9150509250929050565b600067ffffffffffffffff82111561403857614037613e69565b5b61404182613ae5565b9050602081019050919050565b600061406161405c8461401d565b613ec9565b90508281526020810184848401111561407d5761407c613e64565b5b614088848285613f15565b509392505050565b600082601f8301126140a5576140a4613e5f565b5b81356140b584826020860161404e565b91505092915050565b600080600080608085870312156140d8576140d76139d1565b5b60006140e687828801613c27565b94505060206140f787828801613c27565b935050604061410887828801613b72565b925050606085013567ffffffffffffffff811115614129576141286139d6565b5b61413587828801614090565b91505092959194509250565b600067ffffffffffffffff82111561415c5761415b613e69565b5b602082029050602081019050919050565b600080fd5b600061418561418084614141565b613ec9565b905080838252602082019050602084028301858111156141a8576141a761416d565b5b835b818110156141d157806141bd8882613c27565b8452602084019350506020810190506141aa565b5050509392505050565b600082601f8301126141f0576141ef613e5f565b5b8135614200848260208601614172565b91505092915050565b60006020828403121561421f5761421e6139d1565b5b600082013567ffffffffffffffff81111561423d5761423c6139d6565b5b614249848285016141db565b91505092915050565b60008060408385031215614269576142686139d1565b5b600061427785828601613c27565b925050602061428885828601613c27565b9150509250929050565b600067ffffffffffffffff8211156142ad576142ac613e69565b5b602082029050602081019050919050565b60006142d16142cc84614292565b613ec9565b905080838252602082019050602084028301858111156142f4576142f361416d565b5b835b8181101561431d57806143098882613b72565b8452602084019350506020810190506142f6565b5050509392505050565b600082601f83011261433c5761433b613e5f565b5b813561434c8482602086016142be565b91505092915050565b6000806040838503121561436c5761436b6139d1565b5b600083013567ffffffffffffffff81111561438a576143896139d6565b5b614396858286016141db565b925050602083013567ffffffffffffffff8111156143b7576143b66139d6565b5b6143c385828601614327565b9150509250929050565b7f4e487b7100000000000000000000000000000000000000000000000000000000600052602260045260246000fd5b6000600282049050600182168061441457607f821691505b60208210811415614428576144276143cd565b5b50919050565b7f4552433732313a20617070726f76656420717565727920666f72206e6f6e657860008201527f697374656e7420746f6b656e0000000000000000000000000000000000000000602082015250565b600061448a602c83613aa1565b91506144958261442e565b604082019050919050565b600060208201905081810360008301526144b98161447d565b9050919050565b7f4552433732313a20617070726f76616c20746f2063757272656e74206f776e6560008201527f7200000000000000000000000000000000000000000000000000000000000000602082015250565b600061451c602183613aa1565b9150614527826144c0565b604082019050919050565b6000602082019050818103600083015261454b8161450f565b9050919050565b7f4552433732313a20617070726f76652063616c6c6572206973206e6f74206f7760008201527f6e6572206e6f7220617070726f76656420666f7220616c6c0000000000000000602082015250565b60006145ae603883613aa1565b91506145b982614552565b604082019050919050565b600060208201905081810360008301526145dd816145a1565b9050919050565b7f4552433732313a207472616e736665722063616c6c6572206973206e6f74206f60008201527f776e6572206e6f7220617070726f766564000000000000000000000000000000602082015250565b6000614640603183613aa1565b915061464b826145e4565b604082019050919050565b6000602082019050818103600083015261466f81614633565b9050919050565b7f455243373231456e756d657261626c653a206f776e657220696e646578206f7560008201527f74206f6620626f756e6473000000000000000000000000000000000000000000602082015250565b60006146d2602b83613aa1565b91506146dd82614676565b604082019050919050565b60006020820190508181036000830152614701816146c5565b9050919050565b7f4f776e61626c653a2063616c6c6572206973206e6f7420746865206f776e6572600082015250565b600061473e602083613aa1565b915061474982614708565b602082019050919050565b6000602082019050818103600083015261476d81614731565b9050919050565b7f4e487b7100000000000000000000000000000000000000000000000000000000600052603260045260246000fd5b7f4e487b7100000000000000000000000000000000000000000000000000000000600052601160045260246000fd5b60006147dd82613b51565b91507fffffffffffffffffffffffffffffffffffffffffffffffffffffffffffffffff8214156148105761480f6147a3565b5b600182019050919050565b7f57686974656c6973742069736e27742061637469766500000000000000000000600082015250565b6000614851601683613aa1565b915061485c8261481b565b602082019050919050565b6000602082019050818103600083015261488081614844565b9050919050565b7f4e6f20746f6b656e7320726573657276656420666f7220796f7572206164647260008201527f6573730000000000000000000000000000000000000000000000000000000000602082015250565b60006148e3602383613aa1565b91506148ee82614887565b604082019050919050565b60006020820190508181036000830152614912816148d6565b9050919050565b7f43616e2774206d696e74206d6f7265207468616e207265736572766564000000600082015250565b600061494f601d83613aa1565b915061495a82614919565b602082019050919050565b6000602082019050818103600083015261497e81614942565b9050919050565b600061499082613b51565b915061499b83613b51565b9250827fffffffffffffffffffffffffffffffffffffffffffffffffffffffffffffffff038211156149d0576149cf6147a3565b5b828201905092915050565b7f43616e2774206d696e74206d6f7265207468616e206d617820737570706c7900600082015250565b6000614a11601f83613aa1565b9150614a1c826149db565b602082019050919050565b60006020820190508181036000830152614a4081614a04565b9050919050565b6000614a5282613b51565b9150614a5d83613b51565b9250817fffffffffffffffffffffffffffffffffffffffffffffffffffffffffffffffff0483118215151615614a9657614a956147a3565b5b828202905092915050565b7f57726f6e6720616d6f756e74206f66204554482073656e740000000000000000600082015250565b6000614ad7601883613aa1565b9150614ae282614aa1565b602082019050919050565b60006020820190508181036000830152614b0681614aca565b9050919050565b6000614b1882613b51565b9150614b2383613b51565b925082821015614b3657614b356147a3565b5b828203905092915050565b7f455243373231456e756d657261626c653a20676c6f62616c20696e646578206f60008201527f7574206f6620626f756e64730000000000000000000000000000000000000000602082015250565b6000614b9d602c83613aa1565b9150614ba882614b41565b604082019050919050565b60006020820190508181036000830152614bcc81614b90565b9050919050565b7f4552433732313a206f776e657220717565727920666f72206e6f6e657869737460008201527f656e7420746f6b656e0000000000000000000000000000000000000000000000602082015250565b6000614c2f602983613aa1565b9150614c3a82614bd3565b604082019050919050565b60006020820190508181036000830152614c5e81614c22565b9050919050565b7f4552433732313a2062616c616e636520717565727920666f7220746865207a6560008201527f726f206164647265737300000000000000000000000000000000000000000000602082015250565b6000614cc1602a83613aa1565b9150614ccc82614c65565b604082019050919050565b60006020820190508181036000830152614cf081614cb4565b9050919050565b7f43616e27742072657365727665206d6f7265207468616e2073657420616d6f7560008201527f6e74000000000000000000000000000000000000000000000000000000000000602082015250565b6000614d53602283613aa1565b9150614d5e82614cf7565b604082019050919050565b60006020820190508181036000830152614d8281614d46565b9050919050565b7f53616c652069736e277420616374697665000000000000000000000000000000600082015250565b6000614dbf601183613aa1565b9150614dca82614d89565b602082019050919050565b60006020820190508181036000830152614dee81614db2565b9050919050565b7f43616e206f6e6c79206d696e74206265747765656e203120616e64203130207460008201527f6f6b656e73206174206f6e636500000000000000000000000000000000000000602082015250565b6000614e51602d83613aa1565b9150614e5c82614df5565b604082019050919050565b60006020820190508181036000830152614e8081614e44565b9050919050565b7f4552433732314d657461646174613a2055524920717565727920666f72206e6f60008201527f6e6578697374656e7420746f6b656e0000000000000000000000000000000000602082015250565b6000614ee3602f83613aa1565b9150614eee82614e87565b604082019050919050565b60006020820190508181036000830152614f1281614ed6565b9050919050565b600081905092915050565b6000614f2f82613a96565b614f398185614f19565b9350614f49818560208601613ab2565b80840191505092915050565b60008190508160005260206000209050919050565b60008154614f77816143fc565b614f818186614f19565b94506001821660008114614f9c5760018114614fad57614fe0565b60ff19831686528186019350614fe0565b614fb685614f55565b60005b83811015614fd857815481890152600182019150602081019050614fb9565b838801955050505b50505092915050565b6000614ff58286614f24565b91506150018285614f24565b915061500d8284614f6a565b9150819050949350505050565b7f4f776e61626c653a206e6577206f776e657220697320746865207a65726f206160008201527f6464726573730000000000000000000000000000000000000000000000000000602082015250565b6000615076602683613aa1565b91506150818261501a565b604082019050919050565b600060208201905081810360008301526150a581615069565b9050919050565b7f43616e206f6e6c79206d696e74206265747765656e203120616e64203230207460008201527f6f6b656e73206174206f6e636500000000000000000000000000000000000000602082015250565b6000615108602d83613aa1565b9150615113826150ac565b604082019050919050565b60006020820190508181036000830152615137816150fb565b9050919050565b7f4e487b7100000000000000000000000000000000000000000000000000000000600052601260045260246000fd5b600061517882613b51565b915061518383613b51565b9250826151935761519261513e565b5b828204905092915050565b7f4552433732313a206f70657261746f7220717565727920666f72206e6f6e657860008201527f697374656e7420746f6b656e0000000000000000000000000000000000000000602082015250565b60006151fa602c83613aa1565b91506152058261519e565b604082019050919050565b60006020820190508181036000830152615229816151ed565b9050919050565b7f4552433732313a207472616e736665722066726f6d20696e636f72726563742060008201527f6f776e6572000000000000000000000000000000000000000000000000000000602082015250565b600061528c602583613aa1565b915061529782615230565b604082019050919050565b600060208201905081810360008301526152bb8161527f565b9050919050565b7f4552433732313a207472616e7366657220746f20746865207a65726f2061646460008201527f7265737300000000000000000000000000000000000000000000000000000000602082015250565b600061531e602483613aa1565b9150615329826152c2565b604082019050919050565b6000602082019050818103600083015261534d81615311565b9050919050565b7f4552433732313a20617070726f766520746f2063616c6c657200000000000000600082015250565b600061538a601983613aa1565b915061539582615354565b602082019050919050565b600060208201905081810360008301526153b98161537d565b9050919050565b7f4552433732313a207472616e7366657220746f206e6f6e20455243373231526560008201527f63656976657220696d706c656d656e7465720000000000000000000000000000602082015250565b600061541c603283613aa1565b9150615427826153c0565b604082019050919050565b6000602082019050818103600083015261544b8161540f565b9050919050565b600061545d82613b51565b915061546883613b51565b9250826154785761547761513e565b5b828206905092915050565b600081519050919050565b600082825260208201905092915050565b60006154aa82615483565b6154b4818561548e565b93506154c4818560208601613ab2565b6154cd81613ae5565b840191505092915050565b60006080820190506154ed6000830187613be6565b6154fa6020830186613be6565b6155076040830185613c7c565b8181036060830152615519818461549f565b905095945050505050565b60008151905061553381613a07565b92915050565b60006020828403121561554f5761554e6139d1565b5b600061555d84828501615524565b91505092915050565b7f4e487b7100000000000000000000000000000000000000000000000000000000600052603160045260246000fd5b7f4552433732313a206d696e7420746f20746865207a65726f2061646472657373600082015250565b60006155cb602083613aa1565b91506155d682615595565b602082019050919050565b600060208201905081810360008301526155fa816155be565b9050919050565b7f4552433732313a20746f6b656e20616c7265616479206d696e74656400000000600082015250565b6000615637601c83613aa1565b915061564282615601565b602082019050919050565b600060208201905081810360008301526156668161562a565b905091905056fea2646970667358221220ac0f90b58110dacb58f204eb4e87f7f05cb5d9bedb6f1f71127d36b81cce1e0864736f6c6343000809003368747470733a2f2f626f68656d69616e2e6d7970696e6174612e636c6f75642f697066732f516d5633584b743264436e5878463261777944313247794331313774664c6779417a6e44724d7a324747383746592f",
  "immutableReferences": {},
  "source": "// SPDX-License-Identifier: GPL-3.0\r\n\r\npragma solidity >=0.7.0 <0.9.0;\r\n\r\nimport \"@openzeppelin/contracts/token/ERC721/extensions/ERC721Enumerable.sol\";\r\nimport \"@openzeppelin/contracts/access/Ownable.sol\";\r\n\r\ncontract Polygon is ERC721Enumerable, Ownable {\r\n  using Strings for uint256;\r\n\r\n      // Starting and stopping sale, presale and whitelis\r\n      //Inicio y detencin de venta, preventa y whitelis // variables inicializadas en false para que una ves que se lanse el samrt contract no se pueda realizar ventas ni prevententas\r\n    bool public saleActive = false;\r\n    bool public whitelistActive = false;\r\n    bool public presaleActive = false;\r\n\r\n\r\n      // Reserved for the team, customs, giveaways, collabs and so on.\r\n      //Reservado para el equipo, costumbres, sorteos, colaboraciones, etc. reservado una cantidad n para el equip\r\n    uint256 public reserved = 150;\r\n\r\n\r\n      // Price of each token\r\n      //precio de cada token\r\n    uint256 public initial_price = 0.04 ether;\r\n    // uint256 public initial_price = 0.04 matic;\r\n    uint256 public price;\r\n\r\n    \r\n      // Maximum limit of tokens that can ever exist\r\n      //Lmite mximo de tokens que pueden existir  limite de tokens que se puede mintear  limite de token que pueden pasar a preventa\r\n    uint256 public constant MAX_SUPPLY = 10000;\r\n    uint256 public constant MAX_PRESALE_SUPPLY = 500;\r\n    uint256 public constant MAX_MINT_PER_TX = 20;\r\n\r\n\r\n      // Team addresses for withdrawals\r\n      //Direcciones de equipo para retiros de los fondos\r\n    address public a1;\r\n    address public a2;\r\n    address public a3;\r\n\r\n\r\n    // List of addresses that have a number of reserved tokens for whitelist\r\n    //Lista de direcciones que tienen una cantidad de tokens reservados para la lista blanca\r\n    mapping (address => uint256) public whitelistReserved;\r\n\r\n  string public baseURI;\r\n  string public baseExtension = \".json\";\r\n  \r\n\r\n  // uint256 public cost = 0.01 ether;\r\n  // uint256 public maxSupply = 10000;\r\n  // uint256 public maxMintAmount = 20;\r\n  // bool public paused = false;\r\n  // mapping(address => bool) public whitelisted;\r\n\r\n\r\n\r\n  constructor(\r\n  ) ERC721(\"Polygon\", \"POL\") {\r\n     setBaseURI(\"https://bohemian.mypinata.cloud/ipfs/QmV3XKt2dCnXxF2awyD12GyC117tfLgyAznDrMz2GG87FY/\");\r\n      price = initial_price;\r\n    //  mint(msg.sender, 5);\r\n  }\r\n  function _baseURI() internal view virtual override returns (string memory) {\r\n    return baseURI;\r\n  }\r\n\r\n    // See which address owns which tokens\r\n    //Ver qu direccin posee qu tokens \r\n    function tokensOfOwner(address addr) public view returns(uint256[] memory) {\r\n        uint256 tokenCount = balanceOf(addr);\r\n        uint256[] memory tokensId = new uint256[](tokenCount);\r\n        for(uint256 i; i < tokenCount; i++){\r\n            tokensId[i] = tokenOfOwnerByIndex(addr, i);\r\n        }\r\n        return tokensId;\r\n    }\r\n\r\n\r\n        // Exclusive whitelist minting\r\n        // Minado exclusivo de listas blancas\r\n    function mintWhitelist(uint256 _amount) public payable {\r\n        uint256 supply = totalSupply();\r\n        uint256 reservedAmt = whitelistReserved[msg.sender];\r\n        require( whitelistActive,                   \"Whitelist isn't active\" );\r\n        require( reservedAmt > 0,                   \"No tokens reserved for your address\" );\r\n        require( _amount <= reservedAmt,            \"Can't mint more than reserved\" );\r\n        require( supply + _amount <= MAX_SUPPLY,    \"Can't mint more than max supply\" );\r\n        require( msg.value == price * _amount,      \"Wrong amount of ETH sent\" );\r\n        whitelistReserved[msg.sender] = reservedAmt - _amount;\r\n        for(uint256 i; i <= _amount; i++){\r\n            _safeMint( msg.sender, supply + i );\r\n        }\r\n    }\r\n // Presale minting\r\n //acuacin preventa\r\n    function mintPresale(uint256 _amount) public payable {\r\n        uint256 supply = totalSupply();\r\n        require( presaleActive,                             \"Sale isn't active\" );\r\n        require( _amount > 0 && _amount <= MAX_MINT_PER_TX, \"Can only mint between 1 and 20 tokens at once\" );\r\n        require( supply + _amount <= MAX_PRESALE_SUPPLY,    \"Can't mint more than max supply\" );\r\n        require( msg.value == price * _amount,              \"Wrong amount of ETH sent\" );\r\n        for(uint256 i; i <= _amount; i++){\r\n            _safeMint( msg.sender, supply + i );\r\n        }\r\n    }\r\n\r\n\r\n    \r\n    // Standard mint function\r\n    //Funcin estndar de mint\r\n    function mintToken(uint256 _amount) public payable {\r\n        uint256 supply = totalSupply();\r\n        require( saleActive,                                \"Sale isn't active\" );\r\n        require( _amount > 0 && _amount <= MAX_MINT_PER_TX, \"Can only mint between 1 and 10 tokens at once\" );\r\n        require( supply + _amount <= MAX_SUPPLY,            \"Can't mint more than max supply\" );\r\n        require( msg.value == price * _amount,              \"Wrong amount of ETH sent\" );\r\n        for(uint256 i; i <= _amount; i++){\r\n            _safeMint( msg.sender, supply + i );\r\n        }\r\n    }\r\n\r\n\r\n  // Admin minting function to reserve tokens for the team, collabs, customs and giveaways\r\n  //Funcin de acuacin de administrador para reservar tokens para el equipo, colaboraciones, costumbres y obsequios\r\n    function mintReserved(uint256 _amount) public onlyOwner {\r\n        // Limited to a publicly set amount\r\n        //Limitado a una cantidad establecida pblicamente\r\n        require( _amount <= reserved, \"Can't reserve more than set amount\" );\r\n        reserved -= _amount;\r\n        uint256 supply = totalSupply();\r\n        for(uint256 i; i <= _amount; i++){\r\n            _safeMint( msg.sender, supply + i );\r\n        }\r\n    }\r\n\r\n\r\n\r\n   // Edit reserved whitelist spots\r\n    function editWhitelistReserved(address[] memory _a, uint256[] memory _amount) public onlyOwner {\r\n        for(uint256 i; i < _a.length; i++){\r\n            whitelistReserved[_a[i]] = _amount[i];\r\n        }\r\n    }\r\n\r\n\r\n      // Start and stop whitelist\r\n    function setWhitelistActive(bool val) public onlyOwner {\r\n        whitelistActive = val;\r\n    }\r\n\r\n    // Start and stop presale\r\n    function setPresaleActive(bool val) public onlyOwner {\r\n        presaleActive = val;\r\n    }\r\n\r\n    // Start and stop sale\r\n    function setSaleActive(bool val) public onlyOwner {\r\n        saleActive = val;\r\n    }\r\n\r\n\r\n       // Set new baseURI\r\n    // function setBaseURI(string memory baseURI) public onlyOwner {\r\n    //    baseTokenURI  = baseURI;\r\n    // }\r\n\r\n    // Set a different price in case ETH changes drastically\r\n    function setPrice(uint256 newPrice) public onlyOwner {\r\n        price = newPrice;\r\n    }\r\n\r\n  // Set team addresses\r\n    function setAddresses(address[] memory _a) public onlyOwner {\r\n        a1 = _a[0];\r\n        a2 = _a[1];\r\n        a3 = _a[2];\r\n    }\r\n\r\n    // Withdraw funds from contract for the team\r\n ///esta funcion se encarga de los pagos a los diferentes componenetas  del equipo\r\n    function withdrawTeam(uint256 amount) public payable onlyOwner {\r\n        uint256 percent = amount / 100;\r\n        require(payable(a1).send(percent * 40));\r\n        require(payable(a2).send(percent * 30));\r\n        require(payable(a3).send(percent * 30));\r\n    }\r\n\r\n\r\n\r\n\r\n\r\n\r\n\r\n\r\n//   function mint(address _to, uint256 _mintAmount) public payable {\r\n//     uint256 supply = totalSupply();\r\n//     require(!paused);\r\n//     require(_mintAmount > 0);\r\n//     require(_mintAmount <= maxMintAmount);\r\n//     require(supply + _mintAmount <= maxSupply);\r\n\r\n//     if (msg.sender != owner()) {\r\n//         if(whitelisted[msg.sender] != true) {\r\n//           require(msg.value >= cost * _mintAmount);\r\n//         }\r\n//     }\r\n\r\n//     for (uint256 i = 1; i <= _mintAmount; i++) {\r\n//       _safeMint(_to, supply + i);\r\n//     }\r\n//   }\r\n\r\n  function walletOfOwner(address _owner)\r\n    public\r\n    view\r\n    returns (uint256[] memory)\r\n  {\r\n    uint256 ownerTokenCount = balanceOf(_owner);\r\n    uint256[] memory tokenIds = new uint256[](ownerTokenCount);\r\n    for (uint256 i; i < ownerTokenCount; i++) {\r\n      tokenIds[i] = tokenOfOwnerByIndex(_owner, i);\r\n    }\r\n    return tokenIds;\r\n  }\r\n\r\n  function tokenURI(uint256 tokenId)\r\n    public\r\n    view\r\n    virtual\r\n    override\r\n    returns (string memory)\r\n  {\r\n    require(\r\n      _exists(tokenId),\r\n      \"ERC721Metadata: URI query for nonexistent token\"\r\n    );\r\n\r\n    string memory currentBaseURI = _baseURI();\r\n    return bytes(currentBaseURI).length > 0\r\n        ? string(abi.encodePacked(currentBaseURI, tokenId.toString(), baseExtension))\r\n        : \"\";\r\n  }\r\n\r\n//   //only owner\r\n//   function setCost(uint256 _newCost) public onlyOwner {\r\n//     cost = _newCost;\r\n//   }\r\n\r\n//   function setmaxMintAmount(uint256 _newmaxMintAmount) public onlyOwner {\r\n//     maxMintAmount = _newmaxMintAmount;\r\n//   }\r\n\r\n  function setBaseURI(string memory _newBaseURI) public onlyOwner {\r\n    baseURI = _newBaseURI;\r\n  }\r\n\r\n  function setBaseExtension(string memory _newBaseExtension) public onlyOwner {\r\n    baseExtension = _newBaseExtension;\r\n  }\r\n\r\n  // function pause(bool _state) public onlyOwner {\r\n  //   paused = _state;\r\n  // }\r\n \r\n//  function whitelistUser(address _user) public onlyOwner {\r\n//     whitelisted[_user] = true;\r\n//   }\r\n \r\n  // function removeWhitelistUser(address _user) public onlyOwner {\r\n  //   whitelisted[_user] = false;\r\n  // }\r\n// ///esta funcion se encarga de los pagos \r\n//   function withdraw() public payable onlyOwner {\r\n//     // This will pay HashLips 5% of the initial sale.\r\n//     // You can remove this if you want, or keep it in to support HashLips and his channel.\r\n//     // =============================================================================\r\n//     (bool hs, ) = payable(0xa5F60597f4292e08228f608368Ec774C90Fa8b56).call{value: address(this).balance * 5 / 100}(\"\");\r\n//     require(hs);\r\n//     // =============================================================================\r\n    \r\n//     // This will payout the owner 95% of the contract balance.\r\n//     // Do not remove this otherwise you will not be able to withdraw the funds.\r\n//     // =============================================================================\r\n//     (bool os, ) = payable(owner()).call{value: address(this).balance}(\"\");\r\n//     require(os);\r\n//     // =============================================================================\r\n//   }\r\n}",
  "sourcePath": "C:\\digitalArt\\collectioNft\\contracts\\Polygon.sol",
  "compiler": {
    "name": "solc",
    "version": "0.8.9+commit.e5eed63a.Emscripten.clang"
  },
  "schemaVersion": "3.4.4",
  "updatedAt": "2022-02-16T22:37:26.303Z",
  "networkType": "ethereum",
  "devdoc": {
    "kind": "dev",
    "methods": {
      "approve(address,uint256)": {
        "details": "See {IERC721-approve}."
      },
      "balanceOf(address)": {
        "details": "See {IERC721-balanceOf}."
      },
      "getApproved(uint256)": {
        "details": "See {IERC721-getApproved}."
      },
      "isApprovedForAll(address,address)": {
        "details": "See {IERC721-isApprovedForAll}."
      },
      "name()": {
        "details": "See {IERC721Metadata-name}."
      },
      "owner()": {
        "details": "Returns the address of the current owner."
      },
      "ownerOf(uint256)": {
        "details": "See {IERC721-ownerOf}."
      },
      "renounceOwnership()": {
        "details": "Leaves the contract without owner. It will not be possible to call `onlyOwner` functions anymore. Can only be called by the current owner. NOTE: Renouncing ownership will leave the contract without an owner, thereby removing any functionality that is only available to the owner."
      },
      "safeTransferFrom(address,address,uint256)": {
        "details": "See {IERC721-safeTransferFrom}."
      },
      "safeTransferFrom(address,address,uint256,bytes)": {
        "details": "See {IERC721-safeTransferFrom}."
      },
      "setApprovalForAll(address,bool)": {
        "details": "See {IERC721-setApprovalForAll}."
      },
      "supportsInterface(bytes4)": {
        "details": "See {IERC165-supportsInterface}."
      },
      "symbol()": {
        "details": "See {IERC721Metadata-symbol}."
      },
      "tokenByIndex(uint256)": {
        "details": "See {IERC721Enumerable-tokenByIndex}."
      },
      "tokenOfOwnerByIndex(address,uint256)": {
        "details": "See {IERC721Enumerable-tokenOfOwnerByIndex}."
      },
      "tokenURI(uint256)": {
        "details": "See {IERC721Metadata-tokenURI}."
      },
      "totalSupply()": {
        "details": "See {IERC721Enumerable-totalSupply}."
      },
      "transferFrom(address,address,uint256)": {
        "details": "See {IERC721-transferFrom}."
      },
      "transferOwnership(address)": {
        "details": "Transfers ownership of the contract to a new account (`newOwner`). Can only be called by the current owner."
      }
    },
    "version": 1
  },
  "userdoc": {
    "kind": "user",
    "methods": {
      "withdrawTeam(uint256)": {
        "notice": "esta funcion se encarga de los pagos a los diferentes componenetas  del equipo"
      }
    },
    "version": 1
  }
}