{
  "contractName": "Ultimate",
  "abi": [
    {
      "inputs": [],
      "stateMutability": "nonpayable",
      "type": "constructor"
    },
    {
      "anonymous": false,
      "inputs": [
        {
          "indexed": true,
          "internalType": "address",
          "name": "owner",
          "type": "address"
        },
        {
          "indexed": true,
          "internalType": "address",
          "name": "approved",
          "type": "address"
        },
        {
          "indexed": true,
          "internalType": "uint256",
          "name": "tokenId",
          "type": "uint256"
        }
      ],
      "name": "Approval",
      "type": "event"
    },
    {
      "anonymous": false,
      "inputs": [
        {
          "indexed": true,
          "internalType": "address",
          "name": "owner",
          "type": "address"
        },
        {
          "indexed": true,
          "internalType": "address",
          "name": "operator",
          "type": "address"
        },
        {
          "indexed": false,
          "internalType": "bool",
          "name": "approved",
          "type": "bool"
        }
      ],
      "name": "ApprovalForAll",
      "type": "event"
    },
    {
      "anonymous": false,
      "inputs": [
        {
          "indexed": true,
          "internalType": "address",
          "name": "previousOwner",
          "type": "address"
        },
        {
          "indexed": true,
          "internalType": "address",
          "name": "newOwner",
          "type": "address"
        }
      ],
      "name": "OwnershipTransferred",
      "type": "event"
    },
    {
      "anonymous": false,
      "inputs": [
        {
          "indexed": true,
          "internalType": "address",
          "name": "from",
          "type": "address"
        },
        {
          "indexed": true,
          "internalType": "address",
          "name": "to",
          "type": "address"
        },
        {
          "indexed": true,
          "internalType": "uint256",
          "name": "tokenId",
          "type": "uint256"
        }
      ],
      "name": "Transfer",
      "type": "event"
    },
    {
      "inputs": [],
      "name": "MAX_MINT_PER_TX",
      "outputs": [
        {
          "internalType": "uint256",
          "name": "",
          "type": "uint256"
        }
      ],
      "stateMutability": "view",
      "type": "function",
      "constant": true
    },
    {
      "inputs": [],
      "name": "MAX_PRESALE_SUPPLY",
      "outputs": [
        {
          "internalType": "uint256",
          "name": "",
          "type": "uint256"
        }
      ],
      "stateMutability": "view",
      "type": "function",
      "constant": true
    },
    {
      "inputs": [],
      "name": "MAX_SUPPLY",
      "outputs": [
        {
          "internalType": "uint256",
          "name": "",
          "type": "uint256"
        }
      ],
      "stateMutability": "view",
      "type": "function",
      "constant": true
    },
    {
      "inputs": [],
      "name": "a1",
      "outputs": [
        {
          "internalType": "address",
          "name": "",
          "type": "address"
        }
      ],
      "stateMutability": "view",
      "type": "function",
      "constant": true
    },
    {
      "inputs": [],
      "name": "a2",
      "outputs": [
        {
          "internalType": "address",
          "name": "",
          "type": "address"
        }
      ],
      "stateMutability": "view",
      "type": "function",
      "constant": true
    },
    {
      "inputs": [],
      "name": "a3",
      "outputs": [
        {
          "internalType": "address",
          "name": "",
          "type": "address"
        }
      ],
      "stateMutability": "view",
      "type": "function",
      "constant": true
    },
    {
      "inputs": [
        {
          "internalType": "address",
          "name": "to",
          "type": "address"
        },
        {
          "internalType": "uint256",
          "name": "tokenId",
          "type": "uint256"
        }
      ],
      "name": "approve",
      "outputs": [],
      "stateMutability": "nonpayable",
      "type": "function"
    },
    {
      "inputs": [
        {
          "internalType": "address",
          "name": "owner",
          "type": "address"
        }
      ],
      "name": "balanceOf",
      "outputs": [
        {
          "internalType": "uint256",
          "name": "",
          "type": "uint256"
        }
      ],
      "stateMutability": "view",
      "type": "function",
      "constant": true
    },
    {
      "inputs": [],
      "name": "baseExtension",
      "outputs": [
        {
          "internalType": "string",
          "name": "",
          "type": "string"
        }
      ],
      "stateMutability": "view",
      "type": "function",
      "constant": true
    },
    {
      "inputs": [],
      "name": "baseURI",
      "outputs": [
        {
          "internalType": "string",
          "name": "",
          "type": "string"
        }
      ],
      "stateMutability": "view",
      "type": "function",
      "constant": true
    },
    {
      "inputs": [
        {
          "internalType": "uint256",
          "name": "tokenId",
          "type": "uint256"
        }
      ],
      "name": "getApproved",
      "outputs": [
        {
          "internalType": "address",
          "name": "",
          "type": "address"
        }
      ],
      "stateMutability": "view",
      "type": "function",
      "constant": true
    },
    {
      "inputs": [],
      "name": "initial_price",
      "outputs": [
        {
          "internalType": "uint256",
          "name": "",
          "type": "uint256"
        }
      ],
      "stateMutability": "view",
      "type": "function",
      "constant": true
    },
    {
      "inputs": [
        {
          "internalType": "address",
          "name": "owner",
          "type": "address"
        },
        {
          "internalType": "address",
          "name": "operator",
          "type": "address"
        }
      ],
      "name": "isApprovedForAll",
      "outputs": [
        {
          "internalType": "bool",
          "name": "",
          "type": "bool"
        }
      ],
      "stateMutability": "view",
      "type": "function",
      "constant": true
    },
    {
      "inputs": [],
      "name": "name",
      "outputs": [
        {
          "internalType": "string",
          "name": "",
          "type": "string"
        }
      ],
      "stateMutability": "view",
      "type": "function",
      "constant": true
    },
    {
      "inputs": [],
      "name": "owner",
      "outputs": [
        {
          "internalType": "address",
          "name": "",
          "type": "address"
        }
      ],
      "stateMutability": "view",
      "type": "function",
      "constant": true
    },
    {
      "inputs": [
        {
          "internalType": "uint256",
          "name": "tokenId",
          "type": "uint256"
        }
      ],
      "name": "ownerOf",
      "outputs": [
        {
          "internalType": "address",
          "name": "",
          "type": "address"
        }
      ],
      "stateMutability": "view",
      "type": "function",
      "constant": true
    },
    {
      "inputs": [],
      "name": "presaleActive",
      "outputs": [
        {
          "internalType": "bool",
          "name": "",
          "type": "bool"
        }
      ],
      "stateMutability": "view",
      "type": "function",
      "constant": true
    },
    {
      "inputs": [],
      "name": "price",
      "outputs": [
        {
          "internalType": "uint256",
          "name": "",
          "type": "uint256"
        }
      ],
      "stateMutability": "view",
      "type": "function",
      "constant": true
    },
    {
      "inputs": [],
      "name": "renounceOwnership",
      "outputs": [],
      "stateMutability": "nonpayable",
      "type": "function"
    },
    {
      "inputs": [],
      "name": "reserved",
      "outputs": [
        {
          "internalType": "uint256",
          "name": "",
          "type": "uint256"
        }
      ],
      "stateMutability": "view",
      "type": "function",
      "constant": true
    },
    {
      "inputs": [
        {
          "internalType": "address",
          "name": "from",
          "type": "address"
        },
        {
          "internalType": "address",
          "name": "to",
          "type": "address"
        },
        {
          "internalType": "uint256",
          "name": "tokenId",
          "type": "uint256"
        }
      ],
      "name": "safeTransferFrom",
      "outputs": [],
      "stateMutability": "nonpayable",
      "type": "function"
    },
    {
      "inputs": [
        {
          "internalType": "address",
          "name": "from",
          "type": "address"
        },
        {
          "internalType": "address",
          "name": "to",
          "type": "address"
        },
        {
          "internalType": "uint256",
          "name": "tokenId",
          "type": "uint256"
        },
        {
          "internalType": "bytes",
          "name": "_data",
          "type": "bytes"
        }
      ],
      "name": "safeTransferFrom",
      "outputs": [],
      "stateMutability": "nonpayable",
      "type": "function"
    },
    {
      "inputs": [],
      "name": "saleActive",
      "outputs": [
        {
          "internalType": "bool",
          "name": "",
          "type": "bool"
        }
      ],
      "stateMutability": "view",
      "type": "function",
      "constant": true
    },
    {
      "inputs": [
        {
          "internalType": "address",
          "name": "operator",
          "type": "address"
        },
        {
          "internalType": "bool",
          "name": "approved",
          "type": "bool"
        }
      ],
      "name": "setApprovalForAll",
      "outputs": [],
      "stateMutability": "nonpayable",
      "type": "function"
    },
    {
      "inputs": [
        {
          "internalType": "bytes4",
          "name": "interfaceId",
          "type": "bytes4"
        }
      ],
      "name": "supportsInterface",
      "outputs": [
        {
          "internalType": "bool",
          "name": "",
          "type": "bool"
        }
      ],
      "stateMutability": "view",
      "type": "function",
      "constant": true
    },
    {
      "inputs": [],
      "name": "symbol",
      "outputs": [
        {
          "internalType": "string",
          "name": "",
          "type": "string"
        }
      ],
      "stateMutability": "view",
      "type": "function",
      "constant": true
    },
    {
      "inputs": [
        {
          "internalType": "uint256",
          "name": "index",
          "type": "uint256"
        }
      ],
      "name": "tokenByIndex",
      "outputs": [
        {
          "internalType": "uint256",
          "name": "",
          "type": "uint256"
        }
      ],
      "stateMutability": "view",
      "type": "function",
      "constant": true
    },
    {
      "inputs": [
        {
          "internalType": "address",
          "name": "owner",
          "type": "address"
        },
        {
          "internalType": "uint256",
          "name": "index",
          "type": "uint256"
        }
      ],
      "name": "tokenOfOwnerByIndex",
      "outputs": [
        {
          "internalType": "uint256",
          "name": "",
          "type": "uint256"
        }
      ],
      "stateMutability": "view",
      "type": "function",
      "constant": true
    },
    {
      "inputs": [],
      "name": "totalSupply",
      "outputs": [
        {
          "internalType": "uint256",
          "name": "",
          "type": "uint256"
        }
      ],
      "stateMutability": "view",
      "type": "function",
      "constant": true
    },
    {
      "inputs": [
        {
          "internalType": "address",
          "name": "from",
          "type": "address"
        },
        {
          "internalType": "address",
          "name": "to",
          "type": "address"
        },
        {
          "internalType": "uint256",
          "name": "tokenId",
          "type": "uint256"
        }
      ],
      "name": "transferFrom",
      "outputs": [],
      "stateMutability": "nonpayable",
      "type": "function"
    },
    {
      "inputs": [
        {
          "internalType": "address",
          "name": "newOwner",
          "type": "address"
        }
      ],
      "name": "transferOwnership",
      "outputs": [],
      "stateMutability": "nonpayable",
      "type": "function"
    },
    {
      "inputs": [],
      "name": "whitelistActive",
      "outputs": [
        {
          "internalType": "bool",
          "name": "",
          "type": "bool"
        }
      ],
      "stateMutability": "view",
      "type": "function",
      "constant": true
    },
    {
      "inputs": [
        {
          "internalType": "address",
          "name": "",
          "type": "address"
        }
      ],
      "name": "whitelistReserved",
      "outputs": [
        {
          "internalType": "uint256",
          "name": "",
          "type": "uint256"
        }
      ],
      "stateMutability": "view",
      "type": "function",
      "constant": true
    },
    {
      "inputs": [
        {
          "internalType": "address",
          "name": "addr",
          "type": "address"
        }
      ],
      "name": "tokensOfOwner",
      "outputs": [
        {
          "internalType": "uint256[]",
          "name": "",
          "type": "uint256[]"
        }
      ],
      "stateMutability": "view",
      "type": "function",
      "constant": true
    },
    {
      "inputs": [
        {
          "internalType": "uint256",
          "name": "_amount",
          "type": "uint256"
        }
      ],
      "name": "mintWhitelist",
      "outputs": [],
      "stateMutability": "payable",
      "type": "function",
      "payable": true
    },
    {
      "inputs": [
        {
          "internalType": "uint256",
          "name": "_amount",
          "type": "uint256"
        }
      ],
      "name": "mintPresale",
      "outputs": [],
      "stateMutability": "payable",
      "type": "function",
      "payable": true
    },
    {
      "inputs": [
        {
          "internalType": "uint256",
          "name": "_amount",
          "type": "uint256"
        }
      ],
      "name": "mintToken",
      "outputs": [],
      "stateMutability": "payable",
      "type": "function",
      "payable": true
    },
    {
      "inputs": [
        {
          "internalType": "uint256",
          "name": "_amount",
          "type": "uint256"
        }
      ],
      "name": "mintReserved",
      "outputs": [],
      "stateMutability": "nonpayable",
      "type": "function"
    },
    {
      "inputs": [
        {
          "internalType": "address[]",
          "name": "_a",
          "type": "address[]"
        },
        {
          "internalType": "uint256[]",
          "name": "_amount",
          "type": "uint256[]"
        }
      ],
      "name": "editWhitelistReserved",
      "outputs": [],
      "stateMutability": "nonpayable",
      "type": "function"
    },
    {
      "inputs": [
        {
          "internalType": "bool",
          "name": "val",
          "type": "bool"
        }
      ],
      "name": "setWhitelistActive",
      "outputs": [],
      "stateMutability": "nonpayable",
      "type": "function"
    },
    {
      "inputs": [
        {
          "internalType": "bool",
          "name": "val",
          "type": "bool"
        }
      ],
      "name": "setPresaleActive",
      "outputs": [],
      "stateMutability": "nonpayable",
      "type": "function"
    },
    {
      "inputs": [
        {
          "internalType": "bool",
          "name": "val",
          "type": "bool"
        }
      ],
      "name": "setSaleActive",
      "outputs": [],
      "stateMutability": "nonpayable",
      "type": "function"
    },
    {
      "inputs": [
        {
          "internalType": "uint256",
          "name": "newPrice",
          "type": "uint256"
        }
      ],
      "name": "setPrice",
      "outputs": [],
      "stateMutability": "nonpayable",
      "type": "function"
    },
    {
      "inputs": [
        {
          "internalType": "address[]",
          "name": "_a",
          "type": "address[]"
        }
      ],
      "name": "setAddresses",
      "outputs": [],
      "stateMutability": "nonpayable",
      "type": "function"
    },
    {
      "inputs": [
        {
          "internalType": "uint256",
          "name": "amount",
          "type": "uint256"
        }
      ],
      "name": "withdrawTeam",
      "outputs": [],
      "stateMutability": "payable",
      "type": "function",
      "payable": true
    },
    {
      "inputs": [],
      "name": "withdraw",
      "outputs": [],
      "stateMutability": "payable",
      "type": "function",
      "payable": true
    },
    {
      "inputs": [
        {
          "internalType": "address",
          "name": "_owner",
          "type": "address"
        }
      ],
      "name": "walletOfOwner",
      "outputs": [
        {
          "internalType": "uint256[]",
          "name": "",
          "type": "uint256[]"
        }
      ],
      "stateMutability": "view",
      "type": "function",
      "constant": true
    },
    {
      "inputs": [
        {
          "internalType": "uint256",
          "name": "tokenId",
          "type": "uint256"
        }
      ],
      "name": "tokenURI",
      "outputs": [
        {
          "internalType": "string",
          "name": "",
          "type": "string"
        }
      ],
      "stateMutability": "view",
      "type": "function",
      "constant": true
    },
    {
      "inputs": [
        {
          "internalType": "string",
          "name": "_newBaseURI",
          "type": "string"
        }
      ],
      "name": "setBaseURI",
      "outputs": [],
      "stateMutability": "nonpayable",
      "type": "function"
    },
    {
      "inputs": [
        {
          "internalType": "string",
          "name": "_newBaseExtension",
          "type": "string"
        }
      ],
      "name": "setBaseExtension",
      "outputs": [],
      "stateMutability": "nonpayable",
      "type": "function"
    }
  ],
  "bytecode": "0x60806040526000600a60146101000a81548160ff0219169083151502179055506000600a60156101000a81548160ff0219169083151502179055506000600a60166101000a81548160ff0219169083151502179055506096600b55668e1bc9bf040000600c556040518060400160405280600581526020017f2e6a736f6e00000000000000000000000000000000000000000000000000000081525060139080519060200190620000b29291906200035d565b50348015620000c057600080fd5b506040518060400160405280600881526020017f556c74696d6174650000000000000000000000000000000000000000000000008152506040518060400160405280600381526020017f554c5400000000000000000000000000000000000000000000000000000000008152508160009080519060200190620001459291906200035d565b5080600190805190602001906200015e9291906200035d565b5050506200018162000175620001ba60201b60201c565b620001c260201b60201c565b620001ab60405180608001604052806054815260200162005db2605491396200028860201b60201c565b600c54600d81905550620004f5565b600033905090565b6000600a60009054906101000a900473ffffffffffffffffffffffffffffffffffffffff16905081600a60006101000a81548173ffffffffffffffffffffffffffffffffffffffff021916908373ffffffffffffffffffffffffffffffffffffffff1602179055508173ffffffffffffffffffffffffffffffffffffffff168173ffffffffffffffffffffffffffffffffffffffff167f8be0079c531659141344cd1fd0a4f28419497f9722a3daafe3b4186f6b6457e060405160405180910390a35050565b62000298620001ba60201b60201c565b73ffffffffffffffffffffffffffffffffffffffff16620002be6200033360201b60201c565b73ffffffffffffffffffffffffffffffffffffffff161462000317576040517f08c379a00000000000000000000000000000000000000000000000000000000081526004016200030e906200046e565b60405180910390fd5b80601290805190602001906200032f9291906200035d565b5050565b6000600a60009054906101000a900473ffffffffffffffffffffffffffffffffffffffff16905090565b8280546200036b90620004bf565b90600052602060002090601f0160209004810192826200038f5760008555620003db565b82601f10620003aa57805160ff1916838001178555620003db565b82800160010185558215620003db579182015b82811115620003da578251825591602001919060010190620003bd565b5b509050620003ea9190620003ee565b5090565b5b8082111562000409576000816000905550600101620003ef565b5090565b600082825260208201905092915050565b7f4f776e61626c653a2063616c6c6572206973206e6f7420746865206f776e6572600082015250565b6000620004566020836200040d565b915062000463826200041e565b602082019050919050565b60006020820190508181036000830152620004898162000447565b9050919050565b7f4e487b7100000000000000000000000000000000000000000000000000000000600052602260045260246000fd5b60006002820490506001821680620004d857607f821691505b60208210811415620004ef57620004ee62000490565b5b50919050565b6158ad80620005056000396000f3fe6080604052600436106102c95760003560e01c8063841718a611610175578063b88d4fde116100dc578063da3ef23f11610095578063f2fde38b1161006f578063f2fde38b14610adf578063f759867a14610b08578063fd2b049214610b24578063fe60d12c14610b40576102c9565b8063da3ef23f14610a50578063e985e9c514610a79578063f14c0bcc14610ab6576102c9565b8063b88d4fde14610951578063b95717211461097a578063c3b754dc146109a3578063c634d032146109cc578063c6682862146109e8578063c87b56dd14610a13576102c9565b806395d89b411161012e57806395d89b4114610853578063969e9d0c1461087e5780639a5d140b146108a9578063a035b1fe146108d2578063a22cb465146108fd578063ab3f5a1a14610926576102c9565b8063841718a6146107435780638462151c1461076c5780638da5cb5b146107a95780638ecad721146107d457806391b7f5ed146107ff5780639426eef814610828576102c9565b806342842e0e116102345780636352211e116101ed5780636c0360eb116101c75780636c0360eb1461068757806370a08231146106b2578063715018a6146106ef57806372e3a3eb14610706576102c9565b80636352211e146105f457806368428a1b146106315780636b8dc3551461065c576102c9565b806342842e0e146104e1578063438b63001461050a5780634618163e146105475780634f6ccce71461056357806353135ca0146105a057806355f804b3146105cb576102c9565b806318160ddd1161028657806318160ddd146103f257806323b872dd1461041d5780632f745c591461044657806332cb6b0c146104835780633ccfd60b146104ae5780633f8121a2146104b8576102c9565b806301ffc9a7146102ce57806302ce58131461030b57806306fdde0314610336578063081812fc14610361578063095ea7b31461039e578063119552a1146103c7575b600080fd5b3480156102da57600080fd5b506102f560048036038101906102f09190613bf7565b610b6b565b6040516103029190613c3f565b60405180910390f35b34801561031757600080fd5b50610320610be5565b60405161032d9190613c3f565b60405180910390f35b34801561034257600080fd5b5061034b610bf8565b6040516103589190613cf3565b60405180910390f35b34801561036d57600080fd5b5061038860048036038101906103839190613d4b565b610c8a565b6040516103959190613db9565b60405180910390f35b3480156103aa57600080fd5b506103c560048036038101906103c09190613e00565b610d0f565b005b3480156103d357600080fd5b506103dc610e27565b6040516103e99190613db9565b60405180910390f35b3480156103fe57600080fd5b50610407610e4d565b6040516104149190613e4f565b60405180910390f35b34801561042957600080fd5b50610444600480360381019061043f9190613e6a565b610e5a565b005b34801561045257600080fd5b5061046d60048036038101906104689190613e00565b610eba565b60405161047a9190613e4f565b60405180910390f35b34801561048f57600080fd5b50610498610f5f565b6040516104a59190613e4f565b60405180910390f35b6104b6610f65565b005b3480156104c457600080fd5b506104df60048036038101906104da9190613ee9565b611104565b005b3480156104ed57600080fd5b5061050860048036038101906105039190613e6a565b61119d565b005b34801561051657600080fd5b50610531600480360381019061052c9190613f16565b6111bd565b60405161053e9190614001565b60405180910390f35b610561600480360381019061055c9190613d4b565b61126b565b005b34801561056f57600080fd5b5061058a60048036038101906105859190613d4b565b6114b6565b6040516105979190613e4f565b60405180910390f35b3480156105ac57600080fd5b506105b5611527565b6040516105c29190613c3f565b60405180910390f35b3480156105d757600080fd5b506105f260048036038101906105ed9190614158565b61153a565b005b34801561060057600080fd5b5061061b60048036038101906106169190613d4b565b6115d0565b6040516106289190613db9565b60405180910390f35b34801561063d57600080fd5b50610646611682565b6040516106539190613c3f565b60405180910390f35b34801561066857600080fd5b50610671611695565b60405161067e9190613e4f565b60405180910390f35b34801561069357600080fd5b5061069c61169b565b6040516106a99190613cf3565b60405180910390f35b3480156106be57600080fd5b506106d960048036038101906106d49190613f16565b611729565b6040516106e69190613e4f565b60405180910390f35b3480156106fb57600080fd5b506107046117e1565b005b34801561071257600080fd5b5061072d60048036038101906107289190613f16565b611869565b60405161073a9190613e4f565b60405180910390f35b34801561074f57600080fd5b5061076a60048036038101906107659190613ee9565b611881565b005b34801561077857600080fd5b50610793600480360381019061078e9190613f16565b61191a565b6040516107a09190614001565b60405180910390f35b3480156107b557600080fd5b506107be6119c8565b6040516107cb9190613db9565b60405180910390f35b3480156107e057600080fd5b506107e96119f2565b6040516107f69190613e4f565b60405180910390f35b34801561080b57600080fd5b5061082660048036038101906108219190613d4b565b6119f7565b005b34801561083457600080fd5b5061083d611a7d565b60405161084a9190613db9565b60405180910390f35b34801561085f57600080fd5b50610868611aa3565b6040516108759190613cf3565b60405180910390f35b34801561088a57600080fd5b50610893611b35565b6040516108a09190613db9565b60405180910390f35b3480156108b557600080fd5b506108d060048036038101906108cb9190613d4b565b611b5b565b005b3480156108de57600080fd5b506108e7611c78565b6040516108f49190613e4f565b60405180910390f35b34801561090957600080fd5b50610924600480360381019061091f91906141a1565b611c7e565b005b34801561093257600080fd5b5061093b611c94565b6040516109489190613e4f565b60405180910390f35b34801561095d57600080fd5b5061097860048036038101906109739190614282565b611c9a565b005b34801561098657600080fd5b506109a1600480360381019061099c91906143cd565b611cfc565b005b3480156109af57600080fd5b506109ca60048036038101906109c59190613ee9565b611e8f565b005b6109e660048036038101906109e19190613d4b565b611f28565b005b3480156109f457600080fd5b506109fd6120a9565b604051610a0a9190613cf3565b60405180910390f35b348015610a1f57600080fd5b50610a3a6004803603810190610a359190613d4b565b612137565b604051610a479190613cf3565b60405180910390f35b348015610a5c57600080fd5b50610a776004803603810190610a729190614158565b6121e1565b005b348015610a8557600080fd5b50610aa06004803603810190610a9b9190614416565b612277565b604051610aad9190613c3f565b60405180910390f35b348015610ac257600080fd5b50610add6004803603810190610ad89190614519565b61230b565b005b348015610aeb57600080fd5b50610b066004803603810190610b019190613f16565b612423565b005b610b226004803603810190610b1d9190613d4b565b61251b565b005b610b3e6004803603810190610b399190613d4b565b61269c565b005b348015610b4c57600080fd5b50610b55612871565b604051610b629190613e4f565b60405180910390f35b60007f780e9d63000000000000000000000000000000000000000000000000000000007bffffffffffffffffffffffffffffffffffffffffffffffffffffffff1916827bffffffffffffffffffffffffffffffffffffffffffffffffffffffff19161480610bde5750610bdd82612877565b5b9050919050565b600a60159054906101000a900460ff1681565b606060008054610c07906145c0565b80601f0160208091040260200160405190810160405280929190818152602001828054610c33906145c0565b8015610c805780601f10610c5557610100808354040283529160200191610c80565b820191906000526020600020905b815481529060010190602001808311610c6357829003601f168201915b5050505050905090565b6000610c9582612959565b610cd4576040517f08c379a0000000000000000000000000000000000000000000000000000000008152600401610ccb90614664565b60405180910390fd5b6004600083815260200190815260200160002060009054906101000a900473ffffffffffffffffffffffffffffffffffffffff169050919050565b6000610d1a826115d0565b90508073ffffffffffffffffffffffffffffffffffffffff168373ffffffffffffffffffffffffffffffffffffffff161415610d8b576040517f08c379a0000000000000000000000000000000000000000000000000000000008152600401610d82906146f6565b60405180910390fd5b8073ffffffffffffffffffffffffffffffffffffffff16610daa6129c5565b73ffffffffffffffffffffffffffffffffffffffff161480610dd95750610dd881610dd36129c5565b612277565b5b610e18576040517f08c379a0000000000000000000000000000000000000000000000000000000008152600401610e0f90614788565b60405180910390fd5b610e2283836129cd565b505050565b600e60009054906101000a900473ffffffffffffffffffffffffffffffffffffffff1681565b6000600880549050905090565b610e6b610e656129c5565b82612a86565b610eaa576040517f08c379a0000000000000000000000000000000000000000000000000000000008152600401610ea19061481a565b60405180910390fd5b610eb5838383612b64565b505050565b6000610ec583611729565b8210610f06576040517f08c379a0000000000000000000000000000000000000000000000000000000008152600401610efd906148ac565b60405180910390fd5b600660008473ffffffffffffffffffffffffffffffffffffffff1673ffffffffffffffffffffffffffffffffffffffff168152602001908152602001600020600083815260200190815260200160002054905092915050565b61271081565b610f6d6129c5565b73ffffffffffffffffffffffffffffffffffffffff16610f8b6119c8565b73ffffffffffffffffffffffffffffffffffffffff1614610fe1576040517f08c379a0000000000000000000000000000000000000000000000000000000008152600401610fd890614918565b60405180910390fd5b600073a5f60597f4292e08228f608368ec774c90fa8b5673ffffffffffffffffffffffffffffffffffffffff16606460054761101d9190614967565b61102791906149f0565b60405161103390614a52565b60006040518083038185875af1925050503d8060008114611070576040519150601f19603f3d011682016040523d82523d6000602084013e611075565b606091505b505090508061108357600080fd5b600061108d6119c8565b73ffffffffffffffffffffffffffffffffffffffff16476040516110b090614a52565b60006040518083038185875af1925050503d80600081146110ed576040519150601f19603f3d011682016040523d82523d6000602084013e6110f2565b606091505b505090508061110057600080fd5b5050565b61110c6129c5565b73ffffffffffffffffffffffffffffffffffffffff1661112a6119c8565b73ffffffffffffffffffffffffffffffffffffffff1614611180576040517f08c379a000000000000000000000000000000000000000000000000000000000815260040161117790614918565b60405180910390fd5b80600a60166101000a81548160ff02191690831515021790555050565b6111b883838360405180602001604052806000815250611c9a565b505050565b606060006111ca83611729565b905060008167ffffffffffffffff8111156111e8576111e761402d565b5b6040519080825280602002602001820160405280156112165781602001602082028036833780820191505090505b50905060005b828110156112605761122e8582610eba565b82828151811061124157611240614a67565b5b602002602001018181525050808061125890614a96565b91505061121c565b508092505050919050565b6000611275610e4d565b90506000601160003373ffffffffffffffffffffffffffffffffffffffff1673ffffffffffffffffffffffffffffffffffffffff168152602001908152602001600020549050600a60159054906101000a900460ff1661130a576040517f08c379a000000000000000000000000000000000000000000000000000000000815260040161130190614b2b565b60405180910390fd5b6000811161134d576040517f08c379a000000000000000000000000000000000000000000000000000000000815260040161134490614bbd565b60405180910390fd5b80831115611390576040517f08c379a000000000000000000000000000000000000000000000000000000000815260040161138790614c29565b60405180910390fd5b612710838361139f9190614c49565b11156113e0576040517f08c379a00000000000000000000000000000000000000000000000000000000081526004016113d790614ceb565b60405180910390fd5b82600d546113ee9190614967565b341461142f576040517f08c379a000000000000000000000000000000000000000000000000000000000815260040161142690614d57565b60405180910390fd5b828161143b9190614d77565b601160003373ffffffffffffffffffffffffffffffffffffffff1673ffffffffffffffffffffffffffffffffffffffff1681526020019081526020016000208190555060005b8381116114b05761149d3382856114989190614c49565b612dcb565b80806114a890614a96565b915050611481565b50505050565b60006114c0610e4d565b8210611501576040517f08c379a00000000000000000000000000000000000000000000000000000000081526004016114f890614e1d565b60405180910390fd5b6008828154811061151557611514614a67565b5b90600052602060002001549050919050565b600a60169054906101000a900460ff1681565b6115426129c5565b73ffffffffffffffffffffffffffffffffffffffff166115606119c8565b73ffffffffffffffffffffffffffffffffffffffff16146115b6576040517f08c379a00000000000000000000000000000000000000000000000000000000081526004016115ad90614918565b60405180910390fd5b80601290805190602001906115cc929190613ae8565b5050565b6000806002600084815260200190815260200160002060009054906101000a900473ffffffffffffffffffffffffffffffffffffffff169050600073ffffffffffffffffffffffffffffffffffffffff168173ffffffffffffffffffffffffffffffffffffffff161415611679576040517f08c379a000000000000000000000000000000000000000000000000000000000815260040161167090614eaf565b60405180910390fd5b80915050919050565b600a60149054906101000a900460ff1681565b6101f481565b601280546116a8906145c0565b80601f01602080910402602001604051908101604052809291908181526020018280546116d4906145c0565b80156117215780601f106116f657610100808354040283529160200191611721565b820191906000526020600020905b81548152906001019060200180831161170457829003601f168201915b505050505081565b60008073ffffffffffffffffffffffffffffffffffffffff168273ffffffffffffffffffffffffffffffffffffffff16141561179a576040517f08c379a000000000000000000000000000000000000000000000000000000000815260040161179190614f41565b60405180910390fd5b600360008373ffffffffffffffffffffffffffffffffffffffff1673ffffffffffffffffffffffffffffffffffffffff168152602001908152602001600020549050919050565b6117e96129c5565b73ffffffffffffffffffffffffffffffffffffffff166118076119c8565b73ffffffffffffffffffffffffffffffffffffffff161461185d576040517f08c379a000000000000000000000000000000000000000000000000000000000815260040161185490614918565b60405180910390fd5b6118676000612de9565b565b60116020528060005260406000206000915090505481565b6118896129c5565b73ffffffffffffffffffffffffffffffffffffffff166118a76119c8565b73ffffffffffffffffffffffffffffffffffffffff16146118fd576040517f08c379a00000000000000000000000000000000000000000000000000000000081526004016118f490614918565b60405180910390fd5b80600a60146101000a81548160ff02191690831515021790555050565b6060600061192783611729565b905060008167ffffffffffffffff8111156119455761194461402d565b5b6040519080825280602002602001820160405280156119735781602001602082028036833780820191505090505b50905060005b828110156119bd5761198b8582610eba565b82828151811061199e5761199d614a67565b5b60200260200101818152505080806119b590614a96565b915050611979565b508092505050919050565b6000600a60009054906101000a900473ffffffffffffffffffffffffffffffffffffffff16905090565b601481565b6119ff6129c5565b73ffffffffffffffffffffffffffffffffffffffff16611a1d6119c8565b73ffffffffffffffffffffffffffffffffffffffff1614611a73576040517f08c379a0000000000000000000000000000000000000000000000000000000008152600401611a6a90614918565b60405180910390fd5b80600d8190555050565b601060009054906101000a900473ffffffffffffffffffffffffffffffffffffffff1681565b606060018054611ab2906145c0565b80601f0160208091040260200160405190810160405280929190818152602001828054611ade906145c0565b8015611b2b5780601f10611b0057610100808354040283529160200191611b2b565b820191906000526020600020905b815481529060010190602001808311611b0e57829003601f168201915b5050505050905090565b600f60009054906101000a900473ffffffffffffffffffffffffffffffffffffffff1681565b611b636129c5565b73ffffffffffffffffffffffffffffffffffffffff16611b816119c8565b73ffffffffffffffffffffffffffffffffffffffff1614611bd7576040517f08c379a0000000000000000000000000000000000000000000000000000000008152600401611bce90614918565b60405180910390fd5b600b54811115611c1c576040517f08c379a0000000000000000000000000000000000000000000000000000000008152600401611c1390614fd3565b60405180910390fd5b80600b6000828254611c2e9190614d77565b925050819055506000611c3f610e4d565b905060005b828111611c7357611c60338284611c5b9190614c49565b612dcb565b8080611c6b90614a96565b915050611c44565b505050565b600d5481565b611c90611c896129c5565b8383612eaf565b5050565b600c5481565b611cab611ca56129c5565b83612a86565b611cea576040517f08c379a0000000000000000000000000000000000000000000000000000000008152600401611ce19061481a565b60405180910390fd5b611cf68484848461301c565b50505050565b611d046129c5565b73ffffffffffffffffffffffffffffffffffffffff16611d226119c8565b73ffffffffffffffffffffffffffffffffffffffff1614611d78576040517f08c379a0000000000000000000000000000000000000000000000000000000008152600401611d6f90614918565b60405180910390fd5b80600081518110611d8c57611d8b614a67565b5b6020026020010151600e60006101000a81548173ffffffffffffffffffffffffffffffffffffffff021916908373ffffffffffffffffffffffffffffffffffffffff16021790555080600181518110611de857611de7614a67565b5b6020026020010151600f60006101000a81548173ffffffffffffffffffffffffffffffffffffffff021916908373ffffffffffffffffffffffffffffffffffffffff16021790555080600281518110611e4457611e43614a67565b5b6020026020010151601060006101000a81548173ffffffffffffffffffffffffffffffffffffffff021916908373ffffffffffffffffffffffffffffffffffffffff16021790555050565b611e976129c5565b73ffffffffffffffffffffffffffffffffffffffff16611eb56119c8565b73ffffffffffffffffffffffffffffffffffffffff1614611f0b576040517f08c379a0000000000000000000000000000000000000000000000000000000008152600401611f0290614918565b60405180910390fd5b80600a60156101000a81548160ff02191690831515021790555050565b6000611f32610e4d565b9050600a60149054906101000a900460ff16611f83576040517f08c379a0000000000000000000000000000000000000000000000000000000008152600401611f7a9061503f565b60405180910390fd5b600082118015611f94575060148211155b611fd3576040517f08c379a0000000000000000000000000000000000000000000000000000000008152600401611fca906150d1565b60405180910390fd5b6127108282611fe29190614c49565b1115612023576040517f08c379a000000000000000000000000000000000000000000000000000000000815260040161201a90614ceb565b60405180910390fd5b81600d546120319190614967565b3414612072576040517f08c379a000000000000000000000000000000000000000000000000000000000815260040161206990614d57565b60405180910390fd5b60005b8281116120a45761209133828461208c9190614c49565b612dcb565b808061209c90614a96565b915050612075565b505050565b601380546120b6906145c0565b80601f01602080910402602001604051908101604052809291908181526020018280546120e2906145c0565b801561212f5780601f106121045761010080835404028352916020019161212f565b820191906000526020600020905b81548152906001019060200180831161211257829003601f168201915b505050505081565b606061214282612959565b612181576040517f08c379a000000000000000000000000000000000000000000000000000000000815260040161217890615163565b60405180910390fd5b600061218b613078565b905060008151116121ab57604051806020016040528060008152506121d9565b806121b58461310a565b60136040516020016121c993929190615253565b6040516020818303038152906040525b915050919050565b6121e96129c5565b73ffffffffffffffffffffffffffffffffffffffff166122076119c8565b73ffffffffffffffffffffffffffffffffffffffff161461225d576040517f08c379a000000000000000000000000000000000000000000000000000000000815260040161225490614918565b60405180910390fd5b8060139080519060200190612273929190613ae8565b5050565b6000600560008473ffffffffffffffffffffffffffffffffffffffff1673ffffffffffffffffffffffffffffffffffffffff16815260200190815260200160002060008373ffffffffffffffffffffffffffffffffffffffff1673ffffffffffffffffffffffffffffffffffffffff16815260200190815260200160002060009054906101000a900460ff16905092915050565b6123136129c5565b73ffffffffffffffffffffffffffffffffffffffff166123316119c8565b73ffffffffffffffffffffffffffffffffffffffff1614612387576040517f08c379a000000000000000000000000000000000000000000000000000000000815260040161237e90614918565b60405180910390fd5b60005b825181101561241e578181815181106123a6576123a5614a67565b5b6020026020010151601160008584815181106123c5576123c4614a67565b5b602002602001015173ffffffffffffffffffffffffffffffffffffffff1673ffffffffffffffffffffffffffffffffffffffff16815260200190815260200160002081905550808061241690614a96565b91505061238a565b505050565b61242b6129c5565b73ffffffffffffffffffffffffffffffffffffffff166124496119c8565b73ffffffffffffffffffffffffffffffffffffffff161461249f576040517f08c379a000000000000000000000000000000000000000000000000000000000815260040161249690614918565b60405180910390fd5b600073ffffffffffffffffffffffffffffffffffffffff168173ffffffffffffffffffffffffffffffffffffffff16141561250f576040517f08c379a0000000000000000000000000000000000000000000000000000000008152600401612506906152f6565b60405180910390fd5b61251881612de9565b50565b6000612525610e4d565b9050600a60169054906101000a900460ff16612576576040517f08c379a000000000000000000000000000000000000000000000000000000000815260040161256d9061503f565b60405180910390fd5b600082118015612587575060148211155b6125c6576040517f08c379a00000000000000000000000000000000000000000000000000000000081526004016125bd90615388565b60405180910390fd5b6101f482826125d59190614c49565b1115612616576040517f08c379a000000000000000000000000000000000000000000000000000000000815260040161260d90614ceb565b60405180910390fd5b81600d546126249190614967565b3414612665576040517f08c379a000000000000000000000000000000000000000000000000000000000815260040161265c90614d57565b60405180910390fd5b60005b8281116126975761268433828461267f9190614c49565b612dcb565b808061268f90614a96565b915050612668565b505050565b6126a46129c5565b73ffffffffffffffffffffffffffffffffffffffff166126c26119c8565b73ffffffffffffffffffffffffffffffffffffffff1614612718576040517f08c379a000000000000000000000000000000000000000000000000000000000815260040161270f90614918565b60405180910390fd5b600060648261272791906149f0565b9050600e60009054906101000a900473ffffffffffffffffffffffffffffffffffffffff1673ffffffffffffffffffffffffffffffffffffffff166108fc6028836127729190614967565b9081150290604051600060405180830381858888f1935050505061279557600080fd5b600f60009054906101000a900473ffffffffffffffffffffffffffffffffffffffff1673ffffffffffffffffffffffffffffffffffffffff166108fc601e836127de9190614967565b9081150290604051600060405180830381858888f1935050505061280157600080fd5b601060009054906101000a900473ffffffffffffffffffffffffffffffffffffffff1673ffffffffffffffffffffffffffffffffffffffff166108fc601e8361284a9190614967565b9081150290604051600060405180830381858888f1935050505061286d57600080fd5b5050565b600b5481565b60007f80ac58cd000000000000000000000000000000000000000000000000000000007bffffffffffffffffffffffffffffffffffffffffffffffffffffffff1916827bffffffffffffffffffffffffffffffffffffffffffffffffffffffff1916148061294257507f5b5e139f000000000000000000000000000000000000000000000000000000007bffffffffffffffffffffffffffffffffffffffffffffffffffffffff1916827bffffffffffffffffffffffffffffffffffffffffffffffffffffffff1916145b8061295257506129518261326b565b5b9050919050565b60008073ffffffffffffffffffffffffffffffffffffffff166002600084815260200190815260200160002060009054906101000a900473ffffffffffffffffffffffffffffffffffffffff1673ffffffffffffffffffffffffffffffffffffffff1614159050919050565b600033905090565b816004600083815260200190815260200160002060006101000a81548173ffffffffffffffffffffffffffffffffffffffff021916908373ffffffffffffffffffffffffffffffffffffffff160217905550808273ffffffffffffffffffffffffffffffffffffffff16612a40836115d0565b73ffffffffffffffffffffffffffffffffffffffff167f8c5be1e5ebec7d5bd14f71427d1e84f3dd0314c0f7b2291e5b200ac8c7c3b92560405160405180910390a45050565b6000612a9182612959565b612ad0576040517f08c379a0000000000000000000000000000000000000000000000000000000008152600401612ac79061541a565b60405180910390fd5b6000612adb836115d0565b90508073ffffffffffffffffffffffffffffffffffffffff168473ffffffffffffffffffffffffffffffffffffffff161480612b4a57508373ffffffffffffffffffffffffffffffffffffffff16612b3284610c8a565b73ffffffffffffffffffffffffffffffffffffffff16145b80612b5b5750612b5a8185612277565b5b91505092915050565b8273ffffffffffffffffffffffffffffffffffffffff16612b84826115d0565b73ffffffffffffffffffffffffffffffffffffffff1614612bda576040517f08c379a0000000000000000000000000000000000000000000000000000000008152600401612bd1906154ac565b60405180910390fd5b600073ffffffffffffffffffffffffffffffffffffffff168273ffffffffffffffffffffffffffffffffffffffff161415612c4a576040517f08c379a0000000000000000000000000000000000000000000000000000000008152600401612c419061553e565b60405180910390fd5b612c558383836132d5565b612c606000826129cd565b6001600360008573ffffffffffffffffffffffffffffffffffffffff1673ffffffffffffffffffffffffffffffffffffffff1681526020019081526020016000206000828254612cb09190614d77565b925050819055506001600360008473ffffffffffffffffffffffffffffffffffffffff1673ffffffffffffffffffffffffffffffffffffffff1681526020019081526020016000206000828254612d079190614c49565b92505081905550816002600083815260200190815260200160002060006101000a81548173ffffffffffffffffffffffffffffffffffffffff021916908373ffffffffffffffffffffffffffffffffffffffff160217905550808273ffffffffffffffffffffffffffffffffffffffff168473ffffffffffffffffffffffffffffffffffffffff167fddf252ad1be2c89b69c2b068fc378daa952ba7f163c4a11628f55a4df523b3ef60405160405180910390a4612dc68383836133e9565b505050565b612de58282604051806020016040528060008152506133ee565b5050565b6000600a60009054906101000a900473ffffffffffffffffffffffffffffffffffffffff16905081600a60006101000a81548173ffffffffffffffffffffffffffffffffffffffff021916908373ffffffffffffffffffffffffffffffffffffffff1602179055508173ffffffffffffffffffffffffffffffffffffffff168173ffffffffffffffffffffffffffffffffffffffff167f8be0079c531659141344cd1fd0a4f28419497f9722a3daafe3b4186f6b6457e060405160405180910390a35050565b8173ffffffffffffffffffffffffffffffffffffffff168373ffffffffffffffffffffffffffffffffffffffff161415612f1e576040517f08c379a0000000000000000000000000000000000000000000000000000000008152600401612f15906155aa565b60405180910390fd5b80600560008573ffffffffffffffffffffffffffffffffffffffff1673ffffffffffffffffffffffffffffffffffffffff16815260200190815260200160002060008473ffffffffffffffffffffffffffffffffffffffff1673ffffffffffffffffffffffffffffffffffffffff16815260200190815260200160002060006101000a81548160ff0219169083151502179055508173ffffffffffffffffffffffffffffffffffffffff168373ffffffffffffffffffffffffffffffffffffffff167f17307eab39ab6107e8899845ad3d59bd9653f200f220920489ca2b5937696c318360405161300f9190613c3f565b60405180910390a3505050565b613027848484612b64565b61303384848484613449565b613072576040517f08c379a00000000000000000000000000000000000000000000000000000000081526004016130699061563c565b60405180910390fd5b50505050565b606060128054613087906145c0565b80601f01602080910402602001604051908101604052809291908181526020018280546130b3906145c0565b80156131005780601f106130d557610100808354040283529160200191613100565b820191906000526020600020905b8154815290600101906020018083116130e357829003601f168201915b5050505050905090565b60606000821415613152576040518060400160405280600181526020017f30000000000000000000000000000000000000000000000000000000000000008152509050613266565b600082905060005b6000821461318457808061316d90614a96565b915050600a8261317d91906149f0565b915061315a565b60008167ffffffffffffffff8111156131a05761319f61402d565b5b6040519080825280601f01601f1916602001820160405280156131d25781602001600182028036833780820191505090505b5090505b6000851461325f576001826131eb9190614d77565b9150600a856131fa919061565c565b60306132069190614c49565b60f81b81838151811061321c5761321b614a67565b5b60200101907effffffffffffffffffffffffffffffffffffffffffffffffffffffffffffff1916908160001a905350600a8561325891906149f0565b94506131d6565b8093505050505b919050565b60007f01ffc9a7000000000000000000000000000000000000000000000000000000007bffffffffffffffffffffffffffffffffffffffffffffffffffffffff1916827bffffffffffffffffffffffffffffffffffffffffffffffffffffffff1916149050919050565b6132e08383836135e0565b600073ffffffffffffffffffffffffffffffffffffffff168373ffffffffffffffffffffffffffffffffffffffff1614156133235761331e816135e5565b613362565b8173ffffffffffffffffffffffffffffffffffffffff168373ffffffffffffffffffffffffffffffffffffffff161461336157613360838261362e565b5b5b600073ffffffffffffffffffffffffffffffffffffffff168273ffffffffffffffffffffffffffffffffffffffff1614156133a5576133a08161379b565b6133e4565b8273ffffffffffffffffffffffffffffffffffffffff168273ffffffffffffffffffffffffffffffffffffffff16146133e3576133e2828261386c565b5b5b505050565b505050565b6133f883836138eb565b6134056000848484613449565b613444576040517f08c379a000000000000000000000000000000000000000000000000000000000815260040161343b9061563c565b60405180910390fd5b505050565b600061346a8473ffffffffffffffffffffffffffffffffffffffff16613ac5565b156135d3578373ffffffffffffffffffffffffffffffffffffffff1663150b7a026134936129c5565b8786866040518563ffffffff1660e01b81526004016134b594939291906156e2565b602060405180830381600087803b1580156134cf57600080fd5b505af192505050801561350057506040513d601f19601f820116820180604052508101906134fd9190615743565b60015b613583573d8060008114613530576040519150601f19603f3d011682016040523d82523d6000602084013e613535565b606091505b5060008151141561357b576040517f08c379a00000000000000000000000000000000000000000000000000000000081526004016135729061563c565b60405180910390fd5b805181602001fd5b63150b7a0260e01b7bffffffffffffffffffffffffffffffffffffffffffffffffffffffff1916817bffffffffffffffffffffffffffffffffffffffffffffffffffffffff1916149150506135d8565b600190505b949350505050565b505050565b6008805490506009600083815260200190815260200160002081905550600881908060018154018082558091505060019003906000526020600020016000909190919091505550565b6000600161363b84611729565b6136459190614d77565b905060006007600084815260200190815260200160002054905081811461372a576000600660008673ffffffffffffffffffffffffffffffffffffffff1673ffffffffffffffffffffffffffffffffffffffff168152602001908152602001600020600084815260200190815260200160002054905080600660008773ffffffffffffffffffffffffffffffffffffffff1673ffffffffffffffffffffffffffffffffffffffff168152602001908152602001600020600084815260200190815260200160002081905550816007600083815260200190815260200160002081905550505b6007600084815260200190815260200160002060009055600660008573ffffffffffffffffffffffffffffffffffffffff1673ffffffffffffffffffffffffffffffffffffffff16815260200190815260200160002060008381526020019081526020016000206000905550505050565b600060016008805490506137af9190614d77565b90506000600960008481526020019081526020016000205490506000600883815481106137df576137de614a67565b5b90600052602060002001549050806008838154811061380157613800614a67565b5b9060005260206000200181905550816009600083815260200190815260200160002081905550600960008581526020019081526020016000206000905560088054806138505761384f615770565b5b6001900381819060005260206000200160009055905550505050565b600061387783611729565b905081600660008573ffffffffffffffffffffffffffffffffffffffff1673ffffffffffffffffffffffffffffffffffffffff168152602001908152602001600020600083815260200190815260200160002081905550806007600084815260200190815260200160002081905550505050565b600073ffffffffffffffffffffffffffffffffffffffff168273ffffffffffffffffffffffffffffffffffffffff16141561395b576040517f08c379a0000000000000000000000000000000000000000000000000000000008152600401613952906157eb565b60405180910390fd5b61396481612959565b156139a4576040517f08c379a000000000000000000000000000000000000000000000000000000000815260040161399b90615857565b60405180910390fd5b6139b0600083836132d5565b6001600360008473ffffffffffffffffffffffffffffffffffffffff1673ffffffffffffffffffffffffffffffffffffffff1681526020019081526020016000206000828254613a009190614c49565b92505081905550816002600083815260200190815260200160002060006101000a81548173ffffffffffffffffffffffffffffffffffffffff021916908373ffffffffffffffffffffffffffffffffffffffff160217905550808273ffffffffffffffffffffffffffffffffffffffff16600073ffffffffffffffffffffffffffffffffffffffff167fddf252ad1be2c89b69c2b068fc378daa952ba7f163c4a11628f55a4df523b3ef60405160405180910390a4613ac1600083836133e9565b5050565b6000808273ffffffffffffffffffffffffffffffffffffffff163b119050919050565b828054613af4906145c0565b90600052602060002090601f016020900481019282613b165760008555613b5d565b82601f10613b2f57805160ff1916838001178555613b5d565b82800160010185558215613b5d579182015b82811115613b5c578251825591602001919060010190613b41565b5b509050613b6a9190613b6e565b5090565b5b80821115613b87576000816000905550600101613b6f565b5090565b6000604051905090565b600080fd5b600080fd5b60007fffffffff0000000000000000000000000000000000000000000000000000000082169050919050565b613bd481613b9f565b8114613bdf57600080fd5b50565b600081359050613bf181613bcb565b92915050565b600060208284031215613c0d57613c0c613b95565b5b6000613c1b84828501613be2565b91505092915050565b60008115159050919050565b613c3981613c24565b82525050565b6000602082019050613c546000830184613c30565b92915050565b600081519050919050565b600082825260208201905092915050565b60005b83811015613c94578082015181840152602081019050613c79565b83811115613ca3576000848401525b50505050565b6000601f19601f8301169050919050565b6000613cc582613c5a565b613ccf8185613c65565b9350613cdf818560208601613c76565b613ce881613ca9565b840191505092915050565b60006020820190508181036000830152613d0d8184613cba565b905092915050565b6000819050919050565b613d2881613d15565b8114613d3357600080fd5b50565b600081359050613d4581613d1f565b92915050565b600060208284031215613d6157613d60613b95565b5b6000613d6f84828501613d36565b91505092915050565b600073ffffffffffffffffffffffffffffffffffffffff82169050919050565b6000613da382613d78565b9050919050565b613db381613d98565b82525050565b6000602082019050613dce6000830184613daa565b92915050565b613ddd81613d98565b8114613de857600080fd5b50565b600081359050613dfa81613dd4565b92915050565b60008060408385031215613e1757613e16613b95565b5b6000613e2585828601613deb565b9250506020613e3685828601613d36565b9150509250929050565b613e4981613d15565b82525050565b6000602082019050613e646000830184613e40565b92915050565b600080600060608486031215613e8357613e82613b95565b5b6000613e9186828701613deb565b9350506020613ea286828701613deb565b9250506040613eb386828701613d36565b9150509250925092565b613ec681613c24565b8114613ed157600080fd5b50565b600081359050613ee381613ebd565b92915050565b600060208284031215613eff57613efe613b95565b5b6000613f0d84828501613ed4565b91505092915050565b600060208284031215613f2c57613f2b613b95565b5b6000613f3a84828501613deb565b91505092915050565b600081519050919050565b600082825260208201905092915050565b6000819050602082019050919050565b613f7881613d15565b82525050565b6000613f8a8383613f6f565b60208301905092915050565b6000602082019050919050565b6000613fae82613f43565b613fb88185613f4e565b9350613fc383613f5f565b8060005b83811015613ff4578151613fdb8882613f7e565b9750613fe683613f96565b925050600181019050613fc7565b5085935050505092915050565b6000602082019050818103600083015261401b8184613fa3565b905092915050565b600080fd5b600080fd5b7f4e487b7100000000000000000000000000000000000000000000000000000000600052604160045260246000fd5b61406582613ca9565b810181811067ffffffffffffffff821117156140845761408361402d565b5b80604052505050565b6000614097613b8b565b90506140a3828261405c565b919050565b600067ffffffffffffffff8211156140c3576140c261402d565b5b6140cc82613ca9565b9050602081019050919050565b82818337600083830152505050565b60006140fb6140f6846140a8565b61408d565b90508281526020810184848401111561411757614116614028565b5b6141228482856140d9565b509392505050565b600082601f83011261413f5761413e614023565b5b813561414f8482602086016140e8565b91505092915050565b60006020828403121561416e5761416d613b95565b5b600082013567ffffffffffffffff81111561418c5761418b613b9a565b5b6141988482850161412a565b91505092915050565b600080604083850312156141b8576141b7613b95565b5b60006141c685828601613deb565b92505060206141d785828601613ed4565b9150509250929050565b600067ffffffffffffffff8211156141fc576141fb61402d565b5b61420582613ca9565b9050602081019050919050565b6000614225614220846141e1565b61408d565b90508281526020810184848401111561424157614240614028565b5b61424c8482856140d9565b509392505050565b600082601f83011261426957614268614023565b5b8135614279848260208601614212565b91505092915050565b6000806000806080858703121561429c5761429b613b95565b5b60006142aa87828801613deb565b94505060206142bb87828801613deb565b93505060406142cc87828801613d36565b925050606085013567ffffffffffffffff8111156142ed576142ec613b9a565b5b6142f987828801614254565b91505092959194509250565b600067ffffffffffffffff8211156143205761431f61402d565b5b602082029050602081019050919050565b600080fd5b600061434961434484614305565b61408d565b9050808382526020820190506020840283018581111561436c5761436b614331565b5b835b8181101561439557806143818882613deb565b84526020840193505060208101905061436e565b5050509392505050565b600082601f8301126143b4576143b3614023565b5b81356143c4848260208601614336565b91505092915050565b6000602082840312156143e3576143e2613b95565b5b600082013567ffffffffffffffff81111561440157614400613b9a565b5b61440d8482850161439f565b91505092915050565b6000806040838503121561442d5761442c613b95565b5b600061443b85828601613deb565b925050602061444c85828601613deb565b9150509250929050565b600067ffffffffffffffff8211156144715761447061402d565b5b602082029050602081019050919050565b600061449561449084614456565b61408d565b905080838252602082019050602084028301858111156144b8576144b7614331565b5b835b818110156144e157806144cd8882613d36565b8452602084019350506020810190506144ba565b5050509392505050565b600082601f830112614500576144ff614023565b5b8135614510848260208601614482565b91505092915050565b600080604083850312156145305761452f613b95565b5b600083013567ffffffffffffffff81111561454e5761454d613b9a565b5b61455a8582860161439f565b925050602083013567ffffffffffffffff81111561457b5761457a613b9a565b5b614587858286016144eb565b9150509250929050565b7f4e487b7100000000000000000000000000000000000000000000000000000000600052602260045260246000fd5b600060028204905060018216806145d857607f821691505b602082108114156145ec576145eb614591565b5b50919050565b7f4552433732313a20617070726f76656420717565727920666f72206e6f6e657860008201527f697374656e7420746f6b656e0000000000000000000000000000000000000000602082015250565b600061464e602c83613c65565b9150614659826145f2565b604082019050919050565b6000602082019050818103600083015261467d81614641565b9050919050565b7f4552433732313a20617070726f76616c20746f2063757272656e74206f776e6560008201527f7200000000000000000000000000000000000000000000000000000000000000602082015250565b60006146e0602183613c65565b91506146eb82614684565b604082019050919050565b6000602082019050818103600083015261470f816146d3565b9050919050565b7f4552433732313a20617070726f76652063616c6c6572206973206e6f74206f7760008201527f6e6572206e6f7220617070726f76656420666f7220616c6c0000000000000000602082015250565b6000614772603883613c65565b915061477d82614716565b604082019050919050565b600060208201905081810360008301526147a181614765565b9050919050565b7f4552433732313a207472616e736665722063616c6c6572206973206e6f74206f60008201527f776e6572206e6f7220617070726f766564000000000000000000000000000000602082015250565b6000614804603183613c65565b915061480f826147a8565b604082019050919050565b60006020820190508181036000830152614833816147f7565b9050919050565b7f455243373231456e756d657261626c653a206f776e657220696e646578206f7560008201527f74206f6620626f756e6473000000000000000000000000000000000000000000602082015250565b6000614896602b83613c65565b91506148a18261483a565b604082019050919050565b600060208201905081810360008301526148c581614889565b9050919050565b7f4f776e61626c653a2063616c6c6572206973206e6f7420746865206f776e6572600082015250565b6000614902602083613c65565b915061490d826148cc565b602082019050919050565b60006020820190508181036000830152614931816148f5565b9050919050565b7f4e487b7100000000000000000000000000000000000000000000000000000000600052601160045260246000fd5b600061497282613d15565b915061497d83613d15565b9250817fffffffffffffffffffffffffffffffffffffffffffffffffffffffffffffffff04831182151516156149b6576149b5614938565b5b828202905092915050565b7f4e487b7100000000000000000000000000000000000000000000000000000000600052601260045260246000fd5b60006149fb82613d15565b9150614a0683613d15565b925082614a1657614a156149c1565b5b828204905092915050565b600081905092915050565b50565b6000614a3c600083614a21565b9150614a4782614a2c565b600082019050919050565b6000614a5d82614a2f565b9150819050919050565b7f4e487b7100000000000000000000000000000000000000000000000000000000600052603260045260246000fd5b6000614aa182613d15565b91507fffffffffffffffffffffffffffffffffffffffffffffffffffffffffffffffff821415614ad457614ad3614938565b5b600182019050919050565b7f57686974656c6973742069736e27742061637469766500000000000000000000600082015250565b6000614b15601683613c65565b9150614b2082614adf565b602082019050919050565b60006020820190508181036000830152614b4481614b08565b9050919050565b7f4e6f20746f6b656e7320726573657276656420666f7220796f7572206164647260008201527f6573730000000000000000000000000000000000000000000000000000000000602082015250565b6000614ba7602383613c65565b9150614bb282614b4b565b604082019050919050565b60006020820190508181036000830152614bd681614b9a565b9050919050565b7f43616e2774206d696e74206d6f7265207468616e207265736572766564000000600082015250565b6000614c13601d83613c65565b9150614c1e82614bdd565b602082019050919050565b60006020820190508181036000830152614c4281614c06565b9050919050565b6000614c5482613d15565b9150614c5f83613d15565b9250827fffffffffffffffffffffffffffffffffffffffffffffffffffffffffffffffff03821115614c9457614c93614938565b5b828201905092915050565b7f43616e2774206d696e74206d6f7265207468616e206d617820737570706c7900600082015250565b6000614cd5601f83613c65565b9150614ce082614c9f565b602082019050919050565b60006020820190508181036000830152614d0481614cc8565b9050919050565b7f57726f6e6720616d6f756e74206f66204554482073656e740000000000000000600082015250565b6000614d41601883613c65565b9150614d4c82614d0b565b602082019050919050565b60006020820190508181036000830152614d7081614d34565b9050919050565b6000614d8282613d15565b9150614d8d83613d15565b925082821015614da057614d9f614938565b5b828203905092915050565b7f455243373231456e756d657261626c653a20676c6f62616c20696e646578206f60008201527f7574206f6620626f756e64730000000000000000000000000000000000000000602082015250565b6000614e07602c83613c65565b9150614e1282614dab565b604082019050919050565b60006020820190508181036000830152614e3681614dfa565b9050919050565b7f4552433732313a206f776e657220717565727920666f72206e6f6e657869737460008201527f656e7420746f6b656e0000000000000000000000000000000000000000000000602082015250565b6000614e99602983613c65565b9150614ea482614e3d565b604082019050919050565b60006020820190508181036000830152614ec881614e8c565b9050919050565b7f4552433732313a2062616c616e636520717565727920666f7220746865207a6560008201527f726f206164647265737300000000000000000000000000000000000000000000602082015250565b6000614f2b602a83613c65565b9150614f3682614ecf565b604082019050919050565b60006020820190508181036000830152614f5a81614f1e565b9050919050565b7f43616e27742072657365727665206d6f7265207468616e2073657420616d6f7560008201527f6e74000000000000000000000000000000000000000000000000000000000000602082015250565b6000614fbd602283613c65565b9150614fc882614f61565b604082019050919050565b60006020820190508181036000830152614fec81614fb0565b9050919050565b7f53616c652069736e277420616374697665000000000000000000000000000000600082015250565b6000615029601183613c65565b915061503482614ff3565b602082019050919050565b600060208201905081810360008301526150588161501c565b9050919050565b7f43616e206f6e6c79206d696e74206265747765656e203120616e64203130207460008201527f6f6b656e73206174206f6e636500000000000000000000000000000000000000602082015250565b60006150bb602d83613c65565b91506150c68261505f565b604082019050919050565b600060208201905081810360008301526150ea816150ae565b9050919050565b7f4552433732314d657461646174613a2055524920717565727920666f72206e6f60008201527f6e6578697374656e7420746f6b656e0000000000000000000000000000000000602082015250565b600061514d602f83613c65565b9150615158826150f1565b604082019050919050565b6000602082019050818103600083015261517c81615140565b9050919050565b600081905092915050565b600061519982613c5a565b6151a38185615183565b93506151b3818560208601613c76565b80840191505092915050565b60008190508160005260206000209050919050565b600081546151e1816145c0565b6151eb8186615183565b9450600182166000811461520657600181146152175761524a565b60ff1983168652818601935061524a565b615220856151bf565b60005b8381101561524257815481890152600182019150602081019050615223565b838801955050505b50505092915050565b600061525f828661518e565b915061526b828561518e565b915061527782846151d4565b9150819050949350505050565b7f4f776e61626c653a206e6577206f776e657220697320746865207a65726f206160008201527f6464726573730000000000000000000000000000000000000000000000000000602082015250565b60006152e0602683613c65565b91506152eb82615284565b604082019050919050565b6000602082019050818103600083015261530f816152d3565b9050919050565b7f43616e206f6e6c79206d696e74206265747765656e203120616e64203230207460008201527f6f6b656e73206174206f6e636500000000000000000000000000000000000000602082015250565b6000615372602d83613c65565b915061537d82615316565b604082019050919050565b600060208201905081810360008301526153a181615365565b9050919050565b7f4552433732313a206f70657261746f7220717565727920666f72206e6f6e657860008201527f697374656e7420746f6b656e0000000000000000000000000000000000000000602082015250565b6000615404602c83613c65565b915061540f826153a8565b604082019050919050565b60006020820190508181036000830152615433816153f7565b9050919050565b7f4552433732313a207472616e736665722066726f6d20696e636f72726563742060008201527f6f776e6572000000000000000000000000000000000000000000000000000000602082015250565b6000615496602583613c65565b91506154a18261543a565b604082019050919050565b600060208201905081810360008301526154c581615489565b9050919050565b7f4552433732313a207472616e7366657220746f20746865207a65726f2061646460008201527f7265737300000000000000000000000000000000000000000000000000000000602082015250565b6000615528602483613c65565b9150615533826154cc565b604082019050919050565b600060208201905081810360008301526155578161551b565b9050919050565b7f4552433732313a20617070726f766520746f2063616c6c657200000000000000600082015250565b6000615594601983613c65565b915061559f8261555e565b602082019050919050565b600060208201905081810360008301526155c381615587565b9050919050565b7f4552433732313a207472616e7366657220746f206e6f6e20455243373231526560008201527f63656976657220696d706c656d656e7465720000000000000000000000000000602082015250565b6000615626603283613c65565b9150615631826155ca565b604082019050919050565b6000602082019050818103600083015261565581615619565b9050919050565b600061566782613d15565b915061567283613d15565b925082615682576156816149c1565b5b828206905092915050565b600081519050919050565b600082825260208201905092915050565b60006156b48261568d565b6156be8185615698565b93506156ce818560208601613c76565b6156d781613ca9565b840191505092915050565b60006080820190506156f76000830187613daa565b6157046020830186613daa565b6157116040830185613e40565b818103606083015261572381846156a9565b905095945050505050565b60008151905061573d81613bcb565b92915050565b60006020828403121561575957615758613b95565b5b60006157678482850161572e565b91505092915050565b7f4e487b7100000000000000000000000000000000000000000000000000000000600052603160045260246000fd5b7f4552433732313a206d696e7420746f20746865207a65726f2061646472657373600082015250565b60006157d5602083613c65565b91506157e08261579f565b602082019050919050565b60006020820190508181036000830152615804816157c8565b9050919050565b7f4552433732313a20746f6b656e20616c7265616479206d696e74656400000000600082015250565b6000615841601c83613c65565b915061584c8261580b565b602082019050919050565b6000602082019050818103600083015261587081615834565b905091905056fea26469706673582212204bba9a497df03eadee2a1cdbc6133d85bbf58a5f3d6d3a8b49872ed7ec2ea04f64736f6c6343000809003368747470733a2f2f626f68656d69616e2e6d7970696e6174612e636c6f75642f697066732f516d55474b47694b6a4c5977485a596257613774574e6a58654d794363316b6e6e483432464c56364c354c47526d2f",
  "immutableReferences": {},
  "source": "// SPDX-License-Identifier: GPL-3.0\r\n\r\npragma solidity >=0.7.0 <0.9.0;\r\n\r\nimport \"@openzeppelin/contracts/token/ERC721/extensions/ERC721Enumerable.sol\";\r\nimport \"@openzeppelin/contracts/access/Ownable.sol\";\r\n\r\ncontract Ultimate is ERC721Enumerable, Ownable {\r\n  using Strings for uint256;\r\n\r\n      // Starting and stopping sale, presale and whitelis\r\n    bool public saleActive = false;\r\n    bool public whitelistActive = false;\r\n    bool public presaleActive = false;\r\n\r\n      // Reserved for the team, customs, giveaways, collabs and so on.\r\n    uint256 public reserved = 150;\r\n\r\n      // Price of each token\r\n    uint256 public initial_price = 0.04 ether;\r\n    uint256 public price;\r\n    \r\n      // Maximum limit of tokens that can ever exist\r\n    uint256 public constant MAX_SUPPLY = 10000;\r\n    uint256 public constant MAX_PRESALE_SUPPLY = 500;\r\n    uint256 public constant MAX_MINT_PER_TX = 20;\r\n\r\n      // Team addresses for withdrawals\r\n    address public a1;\r\n    address public a2;\r\n    address public a3;\r\n\r\n\r\n    // List of addresses that have a number of reserved tokens for whitelist\r\n     mapping (address => uint256) public whitelistReserved;\r\n\r\n     string public baseURI;\r\n     string public baseExtension = \".json\";\r\n\r\n  constructor(\r\n  ) ERC721(\"Ultimate\", \"ULT\") {\r\n     setBaseURI(\"https://bohemian.mypinata.cloud/ipfs/QmUGKGiKjLYwHZYbWa7tWNjXeMyCc1knnH42FLV6L5LGRm/\");\r\n      price = initial_price;\r\n  }\r\n  function _baseURI() internal view virtual override returns (string memory) {\r\n    return baseURI;\r\n  }\r\n\r\n    // See which address owns which tokens\r\n       function tokensOfOwner(address addr) public view returns(uint256[] memory) {\r\n        uint256 tokenCount = balanceOf(addr);\r\n        uint256[] memory tokensId = new uint256[](tokenCount);\r\n        for(uint256 i; i < tokenCount; i++){\r\n            tokensId[i] = tokenOfOwnerByIndex(addr, i);\r\n        }\r\n        return tokensId;\r\n    }\r\n\r\n        // Exclusive whitelist minting\r\n        function mintWhitelist(uint256 _amount) public payable {\r\n        uint256 supply = totalSupply();\r\n        uint256 reservedAmt = whitelistReserved[msg.sender];\r\n        require( whitelistActive,                   \"Whitelist isn't active\" );\r\n        require( reservedAmt > 0,                   \"No tokens reserved for your address\" );\r\n        require( _amount <= reservedAmt,            \"Can't mint more than reserved\" );\r\n        require( supply + _amount <= MAX_SUPPLY,    \"Can't mint more than max supply\" );\r\n        require( msg.value == price * _amount,      \"Wrong amount of ETH sent\" );\r\n        whitelistReserved[msg.sender] = reservedAmt - _amount;\r\n        for(uint256 i; i <= _amount; i++){\r\n            _safeMint( msg.sender, supply + i );\r\n        }\r\n    }\r\n\r\n       // Presale minting\r\n     function mintPresale(uint256 _amount) public payable {\r\n        uint256 supply = totalSupply();\r\n        require( presaleActive,                             \"Sale isn't active\" );\r\n        require( _amount > 0 && _amount <= MAX_MINT_PER_TX, \"Can only mint between 1 and 20 tokens at once\" );\r\n        require( supply + _amount <= MAX_PRESALE_SUPPLY,    \"Can't mint more than max supply\" );\r\n        require( msg.value == price * _amount,              \"Wrong amount of ETH sent\" );\r\n        for(uint256 i; i <= _amount; i++){\r\n            _safeMint( msg.sender, supply + i );\r\n        }\r\n    }\r\n    \r\n           // Standard mint function\r\n     function mintToken(uint256 _amount) public payable {\r\n        uint256 supply = totalSupply();\r\n        require( saleActive,                                \"Sale isn't active\" );\r\n        require( _amount > 0 && _amount <= MAX_MINT_PER_TX, \"Can only mint between 1 and 10 tokens at once\" );\r\n        require( supply + _amount <= MAX_SUPPLY,            \"Can't mint more than max supply\" );\r\n        require( msg.value == price * _amount,              \"Wrong amount of ETH sent\" );\r\n        for(uint256 i; i <= _amount; i++){\r\n            _safeMint( msg.sender, supply + i );\r\n        }\r\n    }\r\n\r\n       // Admin minting function to reserve tokens for the team, collabs, customs and giveaways\r\n      function mintReserved(uint256 _amount) public onlyOwner {\r\n        // Limited to a publicly set amount\r\n        require( _amount <= reserved, \"Can't reserve more than set amount\" );\r\n        reserved -= _amount;\r\n        uint256 supply = totalSupply();\r\n        for(uint256 i; i <= _amount; i++){\r\n            _safeMint( msg.sender, supply + i );\r\n        }\r\n    }\r\n\r\n   // Edit reserved whitelist spots\r\n    function editWhitelistReserved(address[] memory _a, uint256[] memory _amount) public onlyOwner {\r\n        for(uint256 i; i < _a.length; i++){\r\n            whitelistReserved[_a[i]] = _amount[i];\r\n        }\r\n    }\r\n\r\n      // Start and stop whitelist\r\n    function setWhitelistActive(bool val) public onlyOwner {\r\n        whitelistActive = val;\r\n    }\r\n\r\n    // Start and stop presale\r\n    function setPresaleActive(bool val) public onlyOwner {\r\n        presaleActive = val;\r\n    }\r\n\r\n      // Start and stop sale\r\n    function setSaleActive(bool val) public onlyOwner {\r\n        saleActive = val;\r\n    }\r\n\r\n      // Set a different price in case ETH changes drastically\r\n    function setPrice(uint256 newPrice) public onlyOwner {\r\n        price = newPrice;\r\n    }\r\n\r\n      // Set team addresses\r\n    function setAddresses(address[] memory _a) public onlyOwner {\r\n        a1 = _a[0];\r\n        a2 = _a[1];\r\n        a3 = _a[2];\r\n    }\r\n\r\n    // Withdraw funds from contract for the team\r\n    function withdrawTeam(uint256 amount) public payable onlyOwner {\r\n        uint256 percent = amount / 100;\r\n        require(payable(a1).send(percent * 40));\r\n        require(payable(a2).send(percent * 30));\r\n        require(payable(a3).send(percent * 30));\r\n    }\r\n\r\n  function withdraw() public payable onlyOwner {\r\n    // You can remove this if you want, or keep it in to support HashLips and his channel.\r\n    // =============================================================================\r\n    (bool hs, ) = payable(0xa5F60597f4292e08228f608368Ec774C90Fa8b56).call{value: address(this).balance * 5 / 100}(\"\");\r\n    require(hs);\r\n    // =============================================================================\r\n    // Do not remove this otherwise you will not be able to withdraw the funds.\r\n    // =============================================================================\r\n    (bool os, ) = payable(owner()).call{value: address(this).balance}(\"\");\r\n    require(os);\r\n    // =============================================================================\r\n  }\r\n\r\n\r\n\r\n\r\n  function walletOfOwner(address _owner)\r\n    public\r\n    view\r\n    returns (uint256[] memory)\r\n  {\r\n    uint256 ownerTokenCount = balanceOf(_owner);\r\n    uint256[] memory tokenIds = new uint256[](ownerTokenCount);\r\n    for (uint256 i; i < ownerTokenCount; i++) {\r\n      tokenIds[i] = tokenOfOwnerByIndex(_owner, i);\r\n    }\r\n    return tokenIds;\r\n  }\r\n\r\n  function tokenURI(uint256 tokenId)\r\n    public\r\n    view\r\n    virtual\r\n    override\r\n    returns (string memory)\r\n  {\r\n    require(\r\n      _exists(tokenId),\r\n      \"ERC721Metadata: URI query for nonexistent token\"\r\n    );\r\n\r\n    string memory currentBaseURI = _baseURI();\r\n    return bytes(currentBaseURI).length > 0\r\n        ? string(abi.encodePacked(currentBaseURI, tokenId.toString(), baseExtension))\r\n        : \"\";\r\n  }\r\n\r\n  function setBaseURI(string memory _newBaseURI) public onlyOwner {\r\n    baseURI = _newBaseURI;\r\n  }\r\n\r\n  function setBaseExtension(string memory _newBaseExtension) public onlyOwner {\r\n    baseExtension = _newBaseExtension;\r\n  }\r\n}",
  "sourcePath": "C:\\digitalArt\\collectioNft\\contracts\\Ultimate.sol",
  "compiler": {
    "name": "solc",
    "version": "0.8.9+commit.e5eed63a.Emscripten.clang"
  },
  "schemaVersion": "3.4.4",
  "updatedAt": "2022-02-18T16:50:25.274Z",
  "networkType": "ethereum",
  "devdoc": {
    "kind": "dev",
    "methods": {
      "approve(address,uint256)": {
        "details": "See {IERC721-approve}."
      },
      "balanceOf(address)": {
        "details": "See {IERC721-balanceOf}."
      },
      "getApproved(uint256)": {
        "details": "See {IERC721-getApproved}."
      },
      "isApprovedForAll(address,address)": {
        "details": "See {IERC721-isApprovedForAll}."
      },
      "name()": {
        "details": "See {IERC721Metadata-name}."
      },
      "owner()": {
        "details": "Returns the address of the current owner."
      },
      "ownerOf(uint256)": {
        "details": "See {IERC721-ownerOf}."
      },
      "renounceOwnership()": {
        "details": "Leaves the contract without owner. It will not be possible to call `onlyOwner` functions anymore. Can only be called by the current owner. NOTE: Renouncing ownership will leave the contract without an owner, thereby removing any functionality that is only available to the owner."
      },
      "safeTransferFrom(address,address,uint256)": {
        "details": "See {IERC721-safeTransferFrom}."
      },
      "safeTransferFrom(address,address,uint256,bytes)": {
        "details": "See {IERC721-safeTransferFrom}."
      },
      "setApprovalForAll(address,bool)": {
        "details": "See {IERC721-setApprovalForAll}."
      },
      "supportsInterface(bytes4)": {
        "details": "See {IERC165-supportsInterface}."
      },
      "symbol()": {
        "details": "See {IERC721Metadata-symbol}."
      },
      "tokenByIndex(uint256)": {
        "details": "See {IERC721Enumerable-tokenByIndex}."
      },
      "tokenOfOwnerByIndex(address,uint256)": {
        "details": "See {IERC721Enumerable-tokenOfOwnerByIndex}."
      },
      "tokenURI(uint256)": {
        "details": "See {IERC721Metadata-tokenURI}."
      },
      "totalSupply()": {
        "details": "See {IERC721Enumerable-totalSupply}."
      },
      "transferFrom(address,address,uint256)": {
        "details": "See {IERC721-transferFrom}."
      },
      "transferOwnership(address)": {
        "details": "Transfers ownership of the contract to a new account (`newOwner`). Can only be called by the current owner."
      }
    },
    "version": 1
  },
  "userdoc": {
    "kind": "user",
    "methods": {},
    "version": 1
  }
}